{
	"contracts/Solidity fundamental/5.Modifier.sol": {
		"demo": {
			"abi": [
				{
					"inputs": [
						{
							"internalType": "uint256",
							"name": "_num",
							"type": "uint256"
						}
					],
					"name": "check1",
					"outputs": [],
					"stateMutability": "nonpayable",
					"type": "function"
				},
				{
					"inputs": [
						{
							"internalType": "uint256",
							"name": "_num",
							"type": "uint256"
						}
					],
					"name": "check2",
					"outputs": [
						{
							"internalType": "uint256",
							"name": "",
							"type": "uint256"
						}
					],
					"stateMutability": "nonpayable",
					"type": "function"
				},
				{
					"inputs": [],
					"name": "num",
					"outputs": [
						{
							"internalType": "uint256",
							"name": "",
							"type": "uint256"
						}
					],
					"stateMutability": "view",
					"type": "function"
				}
			],
			"devdoc": {
				"kind": "dev",
				"methods": {},
				"version": 1
			},
			"evm": {
				"assembly": "    /* \"contracts/Solidity fundamental/5.Modifier.sol\":57:374  contract demo{... */\n  mstore(0x40, 0x80)\n    /* \"contracts/Solidity fundamental/5.Modifier.sol\":93:95  20 */\n  0x14\n    /* \"contracts/Solidity fundamental/5.Modifier.sol\":77:95  uint public num=20 */\n  0x00\n  sstore\n    /* \"contracts/Solidity fundamental/5.Modifier.sol\":57:374  contract demo{... */\n  callvalue\n  dup1\n  iszero\n  tag_1\n  jumpi\n  0x00\n  dup1\n  revert\ntag_1:\n  pop\n  dataSize(sub_0)\n  dup1\n  dataOffset(sub_0)\n  0x00\n  codecopy\n  0x00\n  return\nstop\n\nsub_0: assembly {\n        /* \"contracts/Solidity fundamental/5.Modifier.sol\":57:374  contract demo{... */\n      mstore(0x40, 0x80)\n      callvalue\n      dup1\n      iszero\n      tag_1\n      jumpi\n      0x00\n      dup1\n      revert\n    tag_1:\n      pop\n      jumpi(tag_2, lt(calldatasize, 0x04))\n      shr(0xe0, calldataload(0x00))\n      dup1\n      0x46061579\n      eq\n      tag_3\n      jumpi\n      dup1\n      0x4e70b1dc\n      eq\n      tag_4\n      jumpi\n      dup1\n      0xe71014b0\n      eq\n      tag_5\n      jumpi\n    tag_2:\n      0x00\n      dup1\n      revert\n        /* \"contracts/Solidity fundamental/5.Modifier.sol\":196:266  function check1(uint _num)public checkZero(_num){ ... */\n    tag_3:\n      tag_6\n      0x04\n      dup1\n      calldatasize\n      sub\n      dup2\n      add\n      swap1\n      tag_7\n      swap2\n      swap1\n      tag_8\n      jump\t// in\n    tag_7:\n      tag_9\n      jump\t// in\n    tag_6:\n      stop\n        /* \"contracts/Solidity fundamental/5.Modifier.sol\":77:95  uint public num=20 */\n    tag_4:\n      tag_10\n      tag_11\n      jump\t// in\n    tag_10:\n      mload(0x40)\n      tag_12\n      swap2\n      swap1\n      tag_13\n      jump\t// in\n    tag_12:\n      mload(0x40)\n      dup1\n      swap2\n      sub\n      swap1\n      return\n        /* \"contracts/Solidity fundamental/5.Modifier.sol\":271:372  function check2(uint _num)public checkZero(_num) returns (uint){ ... */\n    tag_5:\n      tag_14\n      0x04\n      dup1\n      calldatasize\n      sub\n      dup2\n      add\n      swap1\n      tag_15\n      swap2\n      swap1\n      tag_8\n      jump\t// in\n    tag_15:\n      tag_16\n      jump\t// in\n    tag_14:\n      mload(0x40)\n      tag_17\n      swap2\n      swap1\n      tag_13\n      jump\t// in\n    tag_17:\n      mload(0x40)\n      dup1\n      swap2\n      sub\n      swap1\n      return\n        /* \"contracts/Solidity fundamental/5.Modifier.sol\":196:266  function check1(uint _num)public checkZero(_num){ ... */\n    tag_9:\n        /* \"contracts/Solidity fundamental/5.Modifier.sol\":239:243  _num */\n      dup1\n        /* \"contracts/Solidity fundamental/5.Modifier.sol\":148:149  0 */\n      0x00\n        /* \"contracts/Solidity fundamental/5.Modifier.sol\":145:146  a */\n      dup2\n        /* \"contracts/Solidity fundamental/5.Modifier.sol\":145:149  a==0 */\n      eq\n        /* \"contracts/Solidity fundamental/5.Modifier.sol\":137:174  require(a==0,\"a is not equal to zer\") */\n      tag_19\n      jumpi\n      mload(0x40)\n      0x08c379a000000000000000000000000000000000000000000000000000000000\n      dup2\n      mstore\n      0x04\n      add\n      tag_20\n      swap1\n      tag_21\n      jump\t// in\n    tag_20:\n      mload(0x40)\n      dup1\n      swap2\n      sub\n      swap1\n      revert\n    tag_19:\n        /* \"contracts/Solidity fundamental/5.Modifier.sol\":255:258  100 */\n      0x64\n        /* \"contracts/Solidity fundamental/5.Modifier.sol\":251:254  num */\n      0x00\n        /* \"contracts/Solidity fundamental/5.Modifier.sol\":251:258  num=100 */\n      dup2\n      swap1\n      sstore\n      pop\n        /* \"contracts/Solidity fundamental/5.Modifier.sol\":196:266  function check1(uint _num)public checkZero(_num){ ... */\n      pop\n      pop\n      jump\t// out\n        /* \"contracts/Solidity fundamental/5.Modifier.sol\":77:95  uint public num=20 */\n    tag_11:\n      sload(0x00)\n      dup2\n      jump\t// out\n        /* \"contracts/Solidity fundamental/5.Modifier.sol\":271:372  function check2(uint _num)public checkZero(_num) returns (uint){ ... */\n    tag_16:\n        /* \"contracts/Solidity fundamental/5.Modifier.sol\":329:333  uint */\n      0x00\n        /* \"contracts/Solidity fundamental/5.Modifier.sol\":314:318  _num */\n      dup2\n        /* \"contracts/Solidity fundamental/5.Modifier.sol\":148:149  0 */\n      0x00\n        /* \"contracts/Solidity fundamental/5.Modifier.sol\":145:146  a */\n      dup2\n        /* \"contracts/Solidity fundamental/5.Modifier.sol\":145:149  a==0 */\n      eq\n        /* \"contracts/Solidity fundamental/5.Modifier.sol\":137:174  require(a==0,\"a is not equal to zer\") */\n      tag_24\n      jumpi\n      mload(0x40)\n      0x08c379a000000000000000000000000000000000000000000000000000000000\n      dup2\n      mstore\n      0x04\n      add\n      tag_25\n      swap1\n      tag_21\n      jump\t// in\n    tag_25:\n      mload(0x40)\n      dup1\n      swap2\n      sub\n      swap1\n      revert\n    tag_24:\n        /* \"contracts/Solidity fundamental/5.Modifier.sol\":345:348  100 */\n      0x64\n        /* \"contracts/Solidity fundamental/5.Modifier.sol\":341:344  num */\n      0x00\n        /* \"contracts/Solidity fundamental/5.Modifier.sol\":341:348  num=100 */\n      dup2\n      swap1\n      sstore\n      pop\n        /* \"contracts/Solidity fundamental/5.Modifier.sol\":362:365  num */\n      sload(0x00)\n        /* \"contracts/Solidity fundamental/5.Modifier.sol\":354:365  return  num */\n      swap2\n      pop\n        /* \"contracts/Solidity fundamental/5.Modifier.sol\":271:372  function check2(uint _num)public checkZero(_num) returns (uint){ ... */\n      pop\n      swap2\n      swap1\n      pop\n      jump\t// out\n        /* \"#utility.yul\":88:205   */\n    tag_28:\n        /* \"#utility.yul\":197:198   */\n      0x00\n        /* \"#utility.yul\":194:195   */\n      dup1\n        /* \"#utility.yul\":187:199   */\n      revert\n        /* \"#utility.yul\":334:411   */\n    tag_30:\n        /* \"#utility.yul\":371:378   */\n      0x00\n        /* \"#utility.yul\":400:405   */\n      dup2\n        /* \"#utility.yul\":389:405   */\n      swap1\n      pop\n        /* \"#utility.yul\":334:411   */\n      swap2\n      swap1\n      pop\n      jump\t// out\n        /* \"#utility.yul\":417:539   */\n    tag_31:\n        /* \"#utility.yul\":490:514   */\n      tag_43\n        /* \"#utility.yul\":508:513   */\n      dup2\n        /* \"#utility.yul\":490:514   */\n      tag_30\n      jump\t// in\n    tag_43:\n        /* \"#utility.yul\":483:488   */\n      dup2\n        /* \"#utility.yul\":480:515   */\n      eq\n        /* \"#utility.yul\":470:533   */\n      tag_44\n      jumpi\n        /* \"#utility.yul\":529:530   */\n      0x00\n        /* \"#utility.yul\":526:527   */\n      dup1\n        /* \"#utility.yul\":519:531   */\n      revert\n        /* \"#utility.yul\":470:533   */\n    tag_44:\n        /* \"#utility.yul\":417:539   */\n      pop\n      jump\t// out\n        /* \"#utility.yul\":545:684   */\n    tag_32:\n        /* \"#utility.yul\":591:596   */\n      0x00\n        /* \"#utility.yul\":629:635   */\n      dup2\n        /* \"#utility.yul\":616:636   */\n      calldataload\n        /* \"#utility.yul\":607:636   */\n      swap1\n      pop\n        /* \"#utility.yul\":645:678   */\n      tag_46\n        /* \"#utility.yul\":672:677   */\n      dup2\n        /* \"#utility.yul\":645:678   */\n      tag_31\n      jump\t// in\n    tag_46:\n        /* \"#utility.yul\":545:684   */\n      swap3\n      swap2\n      pop\n      pop\n      jump\t// out\n        /* \"#utility.yul\":690:1019   */\n    tag_8:\n        /* \"#utility.yul\":749:755   */\n      0x00\n        /* \"#utility.yul\":798:800   */\n      0x20\n        /* \"#utility.yul\":786:795   */\n      dup3\n        /* \"#utility.yul\":777:784   */\n      dup5\n        /* \"#utility.yul\":773:796   */\n      sub\n        /* \"#utility.yul\":769:801   */\n      slt\n        /* \"#utility.yul\":766:885   */\n      iszero\n      tag_48\n      jumpi\n        /* \"#utility.yul\":804:883   */\n      tag_49\n      tag_28\n      jump\t// in\n    tag_49:\n        /* \"#utility.yul\":766:885   */\n    tag_48:\n        /* \"#utility.yul\":924:925   */\n      0x00\n        /* \"#utility.yul\":949:1002   */\n      tag_50\n        /* \"#utility.yul\":994:1001   */\n      dup5\n        /* \"#utility.yul\":985:991   */\n      dup3\n        /* \"#utility.yul\":974:983   */\n      dup6\n        /* \"#utility.yul\":970:992   */\n      add\n        /* \"#utility.yul\":949:1002   */\n      tag_32\n      jump\t// in\n    tag_50:\n        /* \"#utility.yul\":939:1002   */\n      swap2\n      pop\n        /* \"#utility.yul\":895:1012   */\n      pop\n        /* \"#utility.yul\":690:1019   */\n      swap3\n      swap2\n      pop\n      pop\n      jump\t// out\n        /* \"#utility.yul\":1025:1143   */\n    tag_33:\n        /* \"#utility.yul\":1112:1136   */\n      tag_52\n        /* \"#utility.yul\":1130:1135   */\n      dup2\n        /* \"#utility.yul\":1112:1136   */\n      tag_30\n      jump\t// in\n    tag_52:\n        /* \"#utility.yul\":1107:1110   */\n      dup3\n        /* \"#utility.yul\":1100:1137   */\n      mstore\n        /* \"#utility.yul\":1025:1143   */\n      pop\n      pop\n      jump\t// out\n        /* \"#utility.yul\":1149:1371   */\n    tag_13:\n        /* \"#utility.yul\":1242:1246   */\n      0x00\n        /* \"#utility.yul\":1280:1282   */\n      0x20\n        /* \"#utility.yul\":1269:1278   */\n      dup3\n        /* \"#utility.yul\":1265:1283   */\n      add\n        /* \"#utility.yul\":1257:1283   */\n      swap1\n      pop\n        /* \"#utility.yul\":1293:1364   */\n      tag_54\n        /* \"#utility.yul\":1361:1362   */\n      0x00\n        /* \"#utility.yul\":1350:1359   */\n      dup4\n        /* \"#utility.yul\":1346:1363   */\n      add\n        /* \"#utility.yul\":1337:1343   */\n      dup5\n        /* \"#utility.yul\":1293:1364   */\n      tag_33\n      jump\t// in\n    tag_54:\n        /* \"#utility.yul\":1149:1371   */\n      swap3\n      swap2\n      pop\n      pop\n      jump\t// out\n        /* \"#utility.yul\":1377:1546   */\n    tag_34:\n        /* \"#utility.yul\":1461:1472   */\n      0x00\n        /* \"#utility.yul\":1495:1501   */\n      dup3\n        /* \"#utility.yul\":1490:1493   */\n      dup3\n        /* \"#utility.yul\":1483:1502   */\n      mstore\n        /* \"#utility.yul\":1535:1539   */\n      0x20\n        /* \"#utility.yul\":1530:1533   */\n      dup3\n        /* \"#utility.yul\":1526:1540   */\n      add\n        /* \"#utility.yul\":1511:1540   */\n      swap1\n      pop\n        /* \"#utility.yul\":1377:1546   */\n      swap3\n      swap2\n      pop\n      pop\n      jump\t// out\n        /* \"#utility.yul\":1552:1723   */\n    tag_35:\n        /* \"#utility.yul\":1692:1715   */\n      0x61206973206e6f7420657175616c20746f207a65720000000000000000000000\n        /* \"#utility.yul\":1688:1689   */\n      0x00\n        /* \"#utility.yul\":1680:1686   */\n      dup3\n        /* \"#utility.yul\":1676:1690   */\n      add\n        /* \"#utility.yul\":1669:1716   */\n      mstore\n        /* \"#utility.yul\":1552:1723   */\n      pop\n      jump\t// out\n        /* \"#utility.yul\":1729:2095   */\n    tag_36:\n        /* \"#utility.yul\":1871:1874   */\n      0x00\n        /* \"#utility.yul\":1892:1959   */\n      tag_58\n        /* \"#utility.yul\":1956:1958   */\n      0x15\n        /* \"#utility.yul\":1951:1954   */\n      dup4\n        /* \"#utility.yul\":1892:1959   */\n      tag_34\n      jump\t// in\n    tag_58:\n        /* \"#utility.yul\":1885:1959   */\n      swap2\n      pop\n        /* \"#utility.yul\":1968:2061   */\n      tag_59\n        /* \"#utility.yul\":2057:2060   */\n      dup3\n        /* \"#utility.yul\":1968:2061   */\n      tag_35\n      jump\t// in\n    tag_59:\n        /* \"#utility.yul\":2086:2088   */\n      0x20\n        /* \"#utility.yul\":2081:2084   */\n      dup3\n        /* \"#utility.yul\":2077:2089   */\n      add\n        /* \"#utility.yul\":2070:2089   */\n      swap1\n      pop\n        /* \"#utility.yul\":1729:2095   */\n      swap2\n      swap1\n      pop\n      jump\t// out\n        /* \"#utility.yul\":2101:2520   */\n    tag_21:\n        /* \"#utility.yul\":2267:2271   */\n      0x00\n        /* \"#utility.yul\":2305:2307   */\n      0x20\n        /* \"#utility.yul\":2294:2303   */\n      dup3\n        /* \"#utility.yul\":2290:2308   */\n      add\n        /* \"#utility.yul\":2282:2308   */\n      swap1\n      pop\n        /* \"#utility.yul\":2354:2363   */\n      dup2\n        /* \"#utility.yul\":2348:2352   */\n      dup2\n        /* \"#utility.yul\":2344:2364   */\n      sub\n        /* \"#utility.yul\":2340:2341   */\n      0x00\n        /* \"#utility.yul\":2329:2338   */\n      dup4\n        /* \"#utility.yul\":2325:2342   */\n      add\n        /* \"#utility.yul\":2318:2365   */\n      mstore\n        /* \"#utility.yul\":2382:2513   */\n      tag_61\n        /* \"#utility.yul\":2508:2512   */\n      dup2\n        /* \"#utility.yul\":2382:2513   */\n      tag_36\n      jump\t// in\n    tag_61:\n        /* \"#utility.yul\":2374:2513   */\n      swap1\n      pop\n        /* \"#utility.yul\":2101:2520   */\n      swap2\n      swap1\n      pop\n      jump\t// out\n\n    auxdata: 0xa264697066735822122058f6cc2fc55da20979c3366479b0d386f487115b684183ee20c093f97c3fd86a64736f6c63430008120033\n}\n",
				"bytecode": {
					"linkReferences": {},
					"object": "6080604052601460005534801561001557600080fd5b506102a4806100256000396000f3fe608060405234801561001057600080fd5b50600436106100415760003560e01c806346061579146100465780634e70b1dc14610062578063e71014b014610080575b600080fd5b610060600480360381019061005b919061019a565b6100b0565b005b61006a610100565b60405161007791906101d6565b60405180910390f35b61009a6004803603810190610095919061019a565b610106565b6040516100a791906101d6565b60405180910390f35b80600081146100f4576040517f08c379a00000000000000000000000000000000000000000000000000000000081526004016100eb9061024e565b60405180910390fd5b60646000819055505050565b60005481565b6000816000811461014c576040517f08c379a00000000000000000000000000000000000000000000000000000000081526004016101439061024e565b60405180910390fd5b6064600081905550600054915050919050565b600080fd5b6000819050919050565b61017781610164565b811461018257600080fd5b50565b6000813590506101948161016e565b92915050565b6000602082840312156101b0576101af61015f565b5b60006101be84828501610185565b91505092915050565b6101d081610164565b82525050565b60006020820190506101eb60008301846101c7565b92915050565b600082825260208201905092915050565b7f61206973206e6f7420657175616c20746f207a65720000000000000000000000600082015250565b60006102386015836101f1565b915061024382610202565b602082019050919050565b600060208201905081810360008301526102678161022b565b905091905056fea264697066735822122058f6cc2fc55da20979c3366479b0d386f487115b684183ee20c093f97c3fd86a64736f6c63430008120033",
					"opcodes": "PUSH1 0x80 PUSH1 0x40 MSTORE PUSH1 0x14 PUSH1 0x0 SSTORE CALLVALUE DUP1 ISZERO PUSH2 0x15 JUMPI PUSH1 0x0 DUP1 REVERT JUMPDEST POP PUSH2 0x2A4 DUP1 PUSH2 0x25 PUSH1 0x0 CODECOPY PUSH1 0x0 RETURN INVALID PUSH1 0x80 PUSH1 0x40 MSTORE CALLVALUE DUP1 ISZERO PUSH2 0x10 JUMPI PUSH1 0x0 DUP1 REVERT JUMPDEST POP PUSH1 0x4 CALLDATASIZE LT PUSH2 0x41 JUMPI PUSH1 0x0 CALLDATALOAD PUSH1 0xE0 SHR DUP1 PUSH4 0x46061579 EQ PUSH2 0x46 JUMPI DUP1 PUSH4 0x4E70B1DC EQ PUSH2 0x62 JUMPI DUP1 PUSH4 0xE71014B0 EQ PUSH2 0x80 JUMPI JUMPDEST PUSH1 0x0 DUP1 REVERT JUMPDEST PUSH2 0x60 PUSH1 0x4 DUP1 CALLDATASIZE SUB DUP2 ADD SWAP1 PUSH2 0x5B SWAP2 SWAP1 PUSH2 0x19A JUMP JUMPDEST PUSH2 0xB0 JUMP JUMPDEST STOP JUMPDEST PUSH2 0x6A PUSH2 0x100 JUMP JUMPDEST PUSH1 0x40 MLOAD PUSH2 0x77 SWAP2 SWAP1 PUSH2 0x1D6 JUMP JUMPDEST PUSH1 0x40 MLOAD DUP1 SWAP2 SUB SWAP1 RETURN JUMPDEST PUSH2 0x9A PUSH1 0x4 DUP1 CALLDATASIZE SUB DUP2 ADD SWAP1 PUSH2 0x95 SWAP2 SWAP1 PUSH2 0x19A JUMP JUMPDEST PUSH2 0x106 JUMP JUMPDEST PUSH1 0x40 MLOAD PUSH2 0xA7 SWAP2 SWAP1 PUSH2 0x1D6 JUMP JUMPDEST PUSH1 0x40 MLOAD DUP1 SWAP2 SUB SWAP1 RETURN JUMPDEST DUP1 PUSH1 0x0 DUP2 EQ PUSH2 0xF4 JUMPI PUSH1 0x40 MLOAD PUSH32 0x8C379A000000000000000000000000000000000000000000000000000000000 DUP2 MSTORE PUSH1 0x4 ADD PUSH2 0xEB SWAP1 PUSH2 0x24E JUMP JUMPDEST PUSH1 0x40 MLOAD DUP1 SWAP2 SUB SWAP1 REVERT JUMPDEST PUSH1 0x64 PUSH1 0x0 DUP2 SWAP1 SSTORE POP POP POP JUMP JUMPDEST PUSH1 0x0 SLOAD DUP2 JUMP JUMPDEST PUSH1 0x0 DUP2 PUSH1 0x0 DUP2 EQ PUSH2 0x14C JUMPI PUSH1 0x40 MLOAD PUSH32 0x8C379A000000000000000000000000000000000000000000000000000000000 DUP2 MSTORE PUSH1 0x4 ADD PUSH2 0x143 SWAP1 PUSH2 0x24E JUMP JUMPDEST PUSH1 0x40 MLOAD DUP1 SWAP2 SUB SWAP1 REVERT JUMPDEST PUSH1 0x64 PUSH1 0x0 DUP2 SWAP1 SSTORE POP PUSH1 0x0 SLOAD SWAP2 POP POP SWAP2 SWAP1 POP JUMP JUMPDEST PUSH1 0x0 DUP1 REVERT JUMPDEST PUSH1 0x0 DUP2 SWAP1 POP SWAP2 SWAP1 POP JUMP JUMPDEST PUSH2 0x177 DUP2 PUSH2 0x164 JUMP JUMPDEST DUP2 EQ PUSH2 0x182 JUMPI PUSH1 0x0 DUP1 REVERT JUMPDEST POP JUMP JUMPDEST PUSH1 0x0 DUP2 CALLDATALOAD SWAP1 POP PUSH2 0x194 DUP2 PUSH2 0x16E JUMP JUMPDEST SWAP3 SWAP2 POP POP JUMP JUMPDEST PUSH1 0x0 PUSH1 0x20 DUP3 DUP5 SUB SLT ISZERO PUSH2 0x1B0 JUMPI PUSH2 0x1AF PUSH2 0x15F JUMP JUMPDEST JUMPDEST PUSH1 0x0 PUSH2 0x1BE DUP5 DUP3 DUP6 ADD PUSH2 0x185 JUMP JUMPDEST SWAP2 POP POP SWAP3 SWAP2 POP POP JUMP JUMPDEST PUSH2 0x1D0 DUP2 PUSH2 0x164 JUMP JUMPDEST DUP3 MSTORE POP POP JUMP JUMPDEST PUSH1 0x0 PUSH1 0x20 DUP3 ADD SWAP1 POP PUSH2 0x1EB PUSH1 0x0 DUP4 ADD DUP5 PUSH2 0x1C7 JUMP JUMPDEST SWAP3 SWAP2 POP POP JUMP JUMPDEST PUSH1 0x0 DUP3 DUP3 MSTORE PUSH1 0x20 DUP3 ADD SWAP1 POP SWAP3 SWAP2 POP POP JUMP JUMPDEST PUSH32 0x61206973206E6F7420657175616C20746F207A65720000000000000000000000 PUSH1 0x0 DUP3 ADD MSTORE POP JUMP JUMPDEST PUSH1 0x0 PUSH2 0x238 PUSH1 0x15 DUP4 PUSH2 0x1F1 JUMP JUMPDEST SWAP2 POP PUSH2 0x243 DUP3 PUSH2 0x202 JUMP JUMPDEST PUSH1 0x20 DUP3 ADD SWAP1 POP SWAP2 SWAP1 POP JUMP JUMPDEST PUSH1 0x0 PUSH1 0x20 DUP3 ADD SWAP1 POP DUP2 DUP2 SUB PUSH1 0x0 DUP4 ADD MSTORE PUSH2 0x267 DUP2 PUSH2 0x22B JUMP JUMPDEST SWAP1 POP SWAP2 SWAP1 POP JUMP INVALID LOG2 PUSH5 0x6970667358 0x22 SLT KECCAK256 PC 0xF6 0xCC 0x2F 0xC5 0x5D LOG2 MULMOD PUSH26 0xC3366479B0D386F487115B684183EE20C093F97C3FD86A64736F PUSH13 0x63430008120033000000000000 "
				},
				"gasEstimates": {
					"creation": {
						"codeDepositCost": "135200",
						"executionCost": "22289",
						"totalCost": "157489"
					},
					"external": {
						"check1(uint256)": "22526",
						"check2(uint256)": "infinite",
						"num()": "2429"
					}
				},
				"methodIdentifiers": {
					"check1(uint256)": "46061579",
					"check2(uint256)": "e71014b0",
					"num()": "4e70b1dc"
				}
			},
			"storageLayout": {
				"storage": [
					{
						"astId": 4,
						"contract": "contracts/Solidity fundamental/5.Modifier.sol:demo",
						"label": "num",
						"offset": 0,
						"slot": "0",
						"type": "t_uint256"
					}
				],
				"types": {
					"t_uint256": {
						"encoding": "inplace",
						"label": "uint256",
						"numberOfBytes": "32"
					}
				}
			},
			"userdoc": {
				"kind": "user",
				"methods": {},
				"version": 1
			}
		}
	}
}