{
	"contracts/Solidity fundamental/3.Conditionals&require.sol": {
		"conditional_requireuse": {
			"abi": [
				{
					"inputs": [
						{
							"internalType": "uint256",
							"name": "num",
							"type": "uint256"
						}
					],
					"name": "checker",
					"outputs": [],
					"stateMutability": "nonpayable",
					"type": "function"
				},
				{
					"inputs": [],
					"name": "x",
					"outputs": [
						{
							"internalType": "uint256",
							"name": "",
							"type": "uint256"
						}
					],
					"stateMutability": "view",
					"type": "function"
				}
			],
			"devdoc": {
				"kind": "dev",
				"methods": {},
				"version": 1
			},
			"evm": {
				"assembly": "    /* \"contracts/Solidity fundamental/3.Conditionals&require.sol\":57:572  contract conditional_requireuse{... */\n  mstore(0x40, 0x80)\n    /* \"contracts/Solidity fundamental/3.Conditionals&require.sol\":135:136  5 */\n  0x05\n    /* \"contracts/Solidity fundamental/3.Conditionals&require.sol\":121:136  uint public x=5 */\n  0x00\n  sstore\n    /* \"contracts/Solidity fundamental/3.Conditionals&require.sol\":57:572  contract conditional_requireuse{... */\n  callvalue\n  dup1\n  iszero\n  tag_1\n  jumpi\n  0x00\n  dup1\n  revert\ntag_1:\n  pop\n  dataSize(sub_0)\n  dup1\n  dataOffset(sub_0)\n  0x00\n  codecopy\n  0x00\n  return\nstop\n\nsub_0: assembly {\n        /* \"contracts/Solidity fundamental/3.Conditionals&require.sol\":57:572  contract conditional_requireuse{... */\n      mstore(0x40, 0x80)\n      callvalue\n      dup1\n      iszero\n      tag_1\n      jumpi\n      0x00\n      dup1\n      revert\n    tag_1:\n      pop\n      jumpi(tag_2, lt(calldatasize, 0x04))\n      shr(0xe0, calldataload(0x00))\n      dup1\n      0x0c55699c\n      eq\n      tag_3\n      jumpi\n      dup1\n      0x94e05b2c\n      eq\n      tag_4\n      jumpi\n    tag_2:\n      0x00\n      dup1\n      revert\n        /* \"contracts/Solidity fundamental/3.Conditionals&require.sol\":121:136  uint public x=5 */\n    tag_3:\n      tag_5\n      tag_6\n      jump\t// in\n    tag_5:\n      mload(0x40)\n      tag_7\n      swap2\n      swap1\n      tag_8\n      jump\t// in\n    tag_7:\n      mload(0x40)\n      dup1\n      swap2\n      sub\n      swap1\n      return\n        /* \"contracts/Solidity fundamental/3.Conditionals&require.sol\":143:245  function checker(uint num)public {... */\n    tag_4:\n      tag_9\n      0x04\n      dup1\n      calldatasize\n      sub\n      dup2\n      add\n      swap1\n      tag_10\n      swap2\n      swap1\n      tag_11\n      jump\t// in\n    tag_10:\n      tag_12\n      jump\t// in\n    tag_9:\n      stop\n        /* \"contracts/Solidity fundamental/3.Conditionals&require.sol\":121:136  uint public x=5 */\n    tag_6:\n      sload(0x00)\n      dup2\n      jump\t// out\n        /* \"contracts/Solidity fundamental/3.Conditionals&require.sol\":143:245  function checker(uint num)public {... */\n    tag_12:\n        /* \"contracts/Solidity fundamental/3.Conditionals&require.sol\":196:199  100 */\n      0x64\n        /* \"contracts/Solidity fundamental/3.Conditionals&require.sol\":191:194  num */\n      dup2\n        /* \"contracts/Solidity fundamental/3.Conditionals&require.sol\":191:199  num==100 */\n      eq\n        /* \"contracts/Solidity fundamental/3.Conditionals&require.sol\":183:226  require(num==100,\"num is not equal to 100\") */\n      tag_14\n      jumpi\n      mload(0x40)\n      0x08c379a000000000000000000000000000000000000000000000000000000000\n      dup2\n      mstore\n      0x04\n      add\n      tag_15\n      swap1\n      tag_16\n      jump\t// in\n    tag_15:\n      mload(0x40)\n      dup1\n      swap2\n      sub\n      swap1\n      revert\n    tag_14:\n        /* \"contracts/Solidity fundamental/3.Conditionals&require.sol\":235:237  10 */\n      0x0a\n        /* \"contracts/Solidity fundamental/3.Conditionals&require.sol\":233:234  x */\n      0x00\n        /* \"contracts/Solidity fundamental/3.Conditionals&require.sol\":233:237  x=10 */\n      dup2\n      swap1\n      sstore\n      pop\n        /* \"contracts/Solidity fundamental/3.Conditionals&require.sol\":143:245  function checker(uint num)public {... */\n      pop\n      jump\t// out\n        /* \"#utility.yul\":7:84   */\n    tag_17:\n        /* \"#utility.yul\":44:51   */\n      0x00\n        /* \"#utility.yul\":73:78   */\n      dup2\n        /* \"#utility.yul\":62:78   */\n      swap1\n      pop\n        /* \"#utility.yul\":7:84   */\n      swap2\n      swap1\n      pop\n      jump\t// out\n        /* \"#utility.yul\":90:208   */\n    tag_18:\n        /* \"#utility.yul\":177:201   */\n      tag_30\n        /* \"#utility.yul\":195:200   */\n      dup2\n        /* \"#utility.yul\":177:201   */\n      tag_17\n      jump\t// in\n    tag_30:\n        /* \"#utility.yul\":172:175   */\n      dup3\n        /* \"#utility.yul\":165:202   */\n      mstore\n        /* \"#utility.yul\":90:208   */\n      pop\n      pop\n      jump\t// out\n        /* \"#utility.yul\":214:436   */\n    tag_8:\n        /* \"#utility.yul\":307:311   */\n      0x00\n        /* \"#utility.yul\":345:347   */\n      0x20\n        /* \"#utility.yul\":334:343   */\n      dup3\n        /* \"#utility.yul\":330:348   */\n      add\n        /* \"#utility.yul\":322:348   */\n      swap1\n      pop\n        /* \"#utility.yul\":358:429   */\n      tag_32\n        /* \"#utility.yul\":426:427   */\n      0x00\n        /* \"#utility.yul\":415:424   */\n      dup4\n        /* \"#utility.yul\":411:428   */\n      add\n        /* \"#utility.yul\":402:408   */\n      dup5\n        /* \"#utility.yul\":358:429   */\n      tag_18\n      jump\t// in\n    tag_32:\n        /* \"#utility.yul\":214:436   */\n      swap3\n      swap2\n      pop\n      pop\n      jump\t// out\n        /* \"#utility.yul\":523:640   */\n    tag_20:\n        /* \"#utility.yul\":632:633   */\n      0x00\n        /* \"#utility.yul\":629:630   */\n      dup1\n        /* \"#utility.yul\":622:634   */\n      revert\n        /* \"#utility.yul\":769:891   */\n    tag_22:\n        /* \"#utility.yul\":842:866   */\n      tag_37\n        /* \"#utility.yul\":860:865   */\n      dup2\n        /* \"#utility.yul\":842:866   */\n      tag_17\n      jump\t// in\n    tag_37:\n        /* \"#utility.yul\":835:840   */\n      dup2\n        /* \"#utility.yul\":832:867   */\n      eq\n        /* \"#utility.yul\":822:885   */\n      tag_38\n      jumpi\n        /* \"#utility.yul\":881:882   */\n      0x00\n        /* \"#utility.yul\":878:879   */\n      dup1\n        /* \"#utility.yul\":871:883   */\n      revert\n        /* \"#utility.yul\":822:885   */\n    tag_38:\n        /* \"#utility.yul\":769:891   */\n      pop\n      jump\t// out\n        /* \"#utility.yul\":897:1036   */\n    tag_23:\n        /* \"#utility.yul\":943:948   */\n      0x00\n        /* \"#utility.yul\":981:987   */\n      dup2\n        /* \"#utility.yul\":968:988   */\n      calldataload\n        /* \"#utility.yul\":959:988   */\n      swap1\n      pop\n        /* \"#utility.yul\":997:1030   */\n      tag_40\n        /* \"#utility.yul\":1024:1029   */\n      dup2\n        /* \"#utility.yul\":997:1030   */\n      tag_22\n      jump\t// in\n    tag_40:\n        /* \"#utility.yul\":897:1036   */\n      swap3\n      swap2\n      pop\n      pop\n      jump\t// out\n        /* \"#utility.yul\":1042:1371   */\n    tag_11:\n        /* \"#utility.yul\":1101:1107   */\n      0x00\n        /* \"#utility.yul\":1150:1152   */\n      0x20\n        /* \"#utility.yul\":1138:1147   */\n      dup3\n        /* \"#utility.yul\":1129:1136   */\n      dup5\n        /* \"#utility.yul\":1125:1148   */\n      sub\n        /* \"#utility.yul\":1121:1153   */\n      slt\n        /* \"#utility.yul\":1118:1237   */\n      iszero\n      tag_42\n      jumpi\n        /* \"#utility.yul\":1156:1235   */\n      tag_43\n      tag_20\n      jump\t// in\n    tag_43:\n        /* \"#utility.yul\":1118:1237   */\n    tag_42:\n        /* \"#utility.yul\":1276:1277   */\n      0x00\n        /* \"#utility.yul\":1301:1354   */\n      tag_44\n        /* \"#utility.yul\":1346:1353   */\n      dup5\n        /* \"#utility.yul\":1337:1343   */\n      dup3\n        /* \"#utility.yul\":1326:1335   */\n      dup6\n        /* \"#utility.yul\":1322:1344   */\n      add\n        /* \"#utility.yul\":1301:1354   */\n      tag_23\n      jump\t// in\n    tag_44:\n        /* \"#utility.yul\":1291:1354   */\n      swap2\n      pop\n        /* \"#utility.yul\":1247:1364   */\n      pop\n        /* \"#utility.yul\":1042:1371   */\n      swap3\n      swap2\n      pop\n      pop\n      jump\t// out\n        /* \"#utility.yul\":1377:1546   */\n    tag_24:\n        /* \"#utility.yul\":1461:1472   */\n      0x00\n        /* \"#utility.yul\":1495:1501   */\n      dup3\n        /* \"#utility.yul\":1490:1493   */\n      dup3\n        /* \"#utility.yul\":1483:1502   */\n      mstore\n        /* \"#utility.yul\":1535:1539   */\n      0x20\n        /* \"#utility.yul\":1530:1533   */\n      dup3\n        /* \"#utility.yul\":1526:1540   */\n      add\n        /* \"#utility.yul\":1511:1540   */\n      swap1\n      pop\n        /* \"#utility.yul\":1377:1546   */\n      swap3\n      swap2\n      pop\n      pop\n      jump\t// out\n        /* \"#utility.yul\":1552:1725   */\n    tag_25:\n        /* \"#utility.yul\":1692:1717   */\n      0x6e756d206973206e6f7420657175616c20746f20313030000000000000000000\n        /* \"#utility.yul\":1688:1689   */\n      0x00\n        /* \"#utility.yul\":1680:1686   */\n      dup3\n        /* \"#utility.yul\":1676:1690   */\n      add\n        /* \"#utility.yul\":1669:1718   */\n      mstore\n        /* \"#utility.yul\":1552:1725   */\n      pop\n      jump\t// out\n        /* \"#utility.yul\":1731:2097   */\n    tag_26:\n        /* \"#utility.yul\":1873:1876   */\n      0x00\n        /* \"#utility.yul\":1894:1961   */\n      tag_48\n        /* \"#utility.yul\":1958:1960   */\n      0x17\n        /* \"#utility.yul\":1953:1956   */\n      dup4\n        /* \"#utility.yul\":1894:1961   */\n      tag_24\n      jump\t// in\n    tag_48:\n        /* \"#utility.yul\":1887:1961   */\n      swap2\n      pop\n        /* \"#utility.yul\":1970:2063   */\n      tag_49\n        /* \"#utility.yul\":2059:2062   */\n      dup3\n        /* \"#utility.yul\":1970:2063   */\n      tag_25\n      jump\t// in\n    tag_49:\n        /* \"#utility.yul\":2088:2090   */\n      0x20\n        /* \"#utility.yul\":2083:2086   */\n      dup3\n        /* \"#utility.yul\":2079:2091   */\n      add\n        /* \"#utility.yul\":2072:2091   */\n      swap1\n      pop\n        /* \"#utility.yul\":1731:2097   */\n      swap2\n      swap1\n      pop\n      jump\t// out\n        /* \"#utility.yul\":2103:2522   */\n    tag_16:\n        /* \"#utility.yul\":2269:2273   */\n      0x00\n        /* \"#utility.yul\":2307:2309   */\n      0x20\n        /* \"#utility.yul\":2296:2305   */\n      dup3\n        /* \"#utility.yul\":2292:2310   */\n      add\n        /* \"#utility.yul\":2284:2310   */\n      swap1\n      pop\n        /* \"#utility.yul\":2356:2365   */\n      dup2\n        /* \"#utility.yul\":2350:2354   */\n      dup2\n        /* \"#utility.yul\":2346:2366   */\n      sub\n        /* \"#utility.yul\":2342:2343   */\n      0x00\n        /* \"#utility.yul\":2331:2340   */\n      dup4\n        /* \"#utility.yul\":2327:2344   */\n      add\n        /* \"#utility.yul\":2320:2367   */\n      mstore\n        /* \"#utility.yul\":2384:2515   */\n      tag_51\n        /* \"#utility.yul\":2510:2514   */\n      dup2\n        /* \"#utility.yul\":2384:2515   */\n      tag_26\n      jump\t// in\n    tag_51:\n        /* \"#utility.yul\":2376:2515   */\n      swap1\n      pop\n        /* \"#utility.yul\":2103:2522   */\n      swap2\n      swap1\n      pop\n      jump\t// out\n\n    auxdata: 0xa26469706673582212206d55a8bee1874ef97553773dbe95920c0e06dc7c3e8f849334710f91cd744ff764736f6c63430008120033\n}\n",
				"bytecode": {
					"linkReferences": {},
					"object": "6080604052600560005534801561001557600080fd5b5061020e806100256000396000f3fe608060405234801561001057600080fd5b50600436106100365760003560e01c80630c55699c1461003b57806394e05b2c14610059575b600080fd5b610043610075565b60405161005091906100e2565b60405180910390f35b610073600480360381019061006e919061012e565b61007b565b005b60005481565b606481146100be576040517f08c379a00000000000000000000000000000000000000000000000000000000081526004016100b5906101b8565b60405180910390fd5b600a60008190555050565b6000819050919050565b6100dc816100c9565b82525050565b60006020820190506100f760008301846100d3565b92915050565b600080fd5b61010b816100c9565b811461011657600080fd5b50565b60008135905061012881610102565b92915050565b600060208284031215610144576101436100fd565b5b600061015284828501610119565b91505092915050565b600082825260208201905092915050565b7f6e756d206973206e6f7420657175616c20746f20313030000000000000000000600082015250565b60006101a260178361015b565b91506101ad8261016c565b602082019050919050565b600060208201905081810360008301526101d181610195565b905091905056fea26469706673582212206d55a8bee1874ef97553773dbe95920c0e06dc7c3e8f849334710f91cd744ff764736f6c63430008120033",
					"opcodes": "PUSH1 0x80 PUSH1 0x40 MSTORE PUSH1 0x5 PUSH1 0x0 SSTORE CALLVALUE DUP1 ISZERO PUSH2 0x15 JUMPI PUSH1 0x0 DUP1 REVERT JUMPDEST POP PUSH2 0x20E DUP1 PUSH2 0x25 PUSH1 0x0 CODECOPY PUSH1 0x0 RETURN INVALID PUSH1 0x80 PUSH1 0x40 MSTORE CALLVALUE DUP1 ISZERO PUSH2 0x10 JUMPI PUSH1 0x0 DUP1 REVERT JUMPDEST POP PUSH1 0x4 CALLDATASIZE LT PUSH2 0x36 JUMPI PUSH1 0x0 CALLDATALOAD PUSH1 0xE0 SHR DUP1 PUSH4 0xC55699C EQ PUSH2 0x3B JUMPI DUP1 PUSH4 0x94E05B2C EQ PUSH2 0x59 JUMPI JUMPDEST PUSH1 0x0 DUP1 REVERT JUMPDEST PUSH2 0x43 PUSH2 0x75 JUMP JUMPDEST PUSH1 0x40 MLOAD PUSH2 0x50 SWAP2 SWAP1 PUSH2 0xE2 JUMP JUMPDEST PUSH1 0x40 MLOAD DUP1 SWAP2 SUB SWAP1 RETURN JUMPDEST PUSH2 0x73 PUSH1 0x4 DUP1 CALLDATASIZE SUB DUP2 ADD SWAP1 PUSH2 0x6E SWAP2 SWAP1 PUSH2 0x12E JUMP JUMPDEST PUSH2 0x7B JUMP JUMPDEST STOP JUMPDEST PUSH1 0x0 SLOAD DUP2 JUMP JUMPDEST PUSH1 0x64 DUP2 EQ PUSH2 0xBE JUMPI PUSH1 0x40 MLOAD PUSH32 0x8C379A000000000000000000000000000000000000000000000000000000000 DUP2 MSTORE PUSH1 0x4 ADD PUSH2 0xB5 SWAP1 PUSH2 0x1B8 JUMP JUMPDEST PUSH1 0x40 MLOAD DUP1 SWAP2 SUB SWAP1 REVERT JUMPDEST PUSH1 0xA PUSH1 0x0 DUP2 SWAP1 SSTORE POP POP JUMP JUMPDEST PUSH1 0x0 DUP2 SWAP1 POP SWAP2 SWAP1 POP JUMP JUMPDEST PUSH2 0xDC DUP2 PUSH2 0xC9 JUMP JUMPDEST DUP3 MSTORE POP POP JUMP JUMPDEST PUSH1 0x0 PUSH1 0x20 DUP3 ADD SWAP1 POP PUSH2 0xF7 PUSH1 0x0 DUP4 ADD DUP5 PUSH2 0xD3 JUMP JUMPDEST SWAP3 SWAP2 POP POP JUMP JUMPDEST PUSH1 0x0 DUP1 REVERT JUMPDEST PUSH2 0x10B DUP2 PUSH2 0xC9 JUMP JUMPDEST DUP2 EQ PUSH2 0x116 JUMPI PUSH1 0x0 DUP1 REVERT JUMPDEST POP JUMP JUMPDEST PUSH1 0x0 DUP2 CALLDATALOAD SWAP1 POP PUSH2 0x128 DUP2 PUSH2 0x102 JUMP JUMPDEST SWAP3 SWAP2 POP POP JUMP JUMPDEST PUSH1 0x0 PUSH1 0x20 DUP3 DUP5 SUB SLT ISZERO PUSH2 0x144 JUMPI PUSH2 0x143 PUSH2 0xFD JUMP JUMPDEST JUMPDEST PUSH1 0x0 PUSH2 0x152 DUP5 DUP3 DUP6 ADD PUSH2 0x119 JUMP JUMPDEST SWAP2 POP POP SWAP3 SWAP2 POP POP JUMP JUMPDEST PUSH1 0x0 DUP3 DUP3 MSTORE PUSH1 0x20 DUP3 ADD SWAP1 POP SWAP3 SWAP2 POP POP JUMP JUMPDEST PUSH32 0x6E756D206973206E6F7420657175616C20746F20313030000000000000000000 PUSH1 0x0 DUP3 ADD MSTORE POP JUMP JUMPDEST PUSH1 0x0 PUSH2 0x1A2 PUSH1 0x17 DUP4 PUSH2 0x15B JUMP JUMPDEST SWAP2 POP PUSH2 0x1AD DUP3 PUSH2 0x16C JUMP JUMPDEST PUSH1 0x20 DUP3 ADD SWAP1 POP SWAP2 SWAP1 POP JUMP JUMPDEST PUSH1 0x0 PUSH1 0x20 DUP3 ADD SWAP1 POP DUP2 DUP2 SUB PUSH1 0x0 DUP4 ADD MSTORE PUSH2 0x1D1 DUP2 PUSH2 0x195 JUMP JUMPDEST SWAP1 POP SWAP2 SWAP1 POP JUMP INVALID LOG2 PUSH5 0x6970667358 0x22 SLT KECCAK256 PUSH14 0x55A8BEE1874EF97553773DBE9592 0xC 0xE MOD 0xDC PUSH29 0x3E8F849334710F91CD744FF764736F6C63430008120033000000000000 "
				},
				"gasEstimates": {
					"creation": {
						"codeDepositCost": "105200",
						"executionCost": "22259",
						"totalCost": "127459"
					},
					"external": {
						"checker(uint256)": "22543",
						"x()": "2407"
					}
				},
				"methodIdentifiers": {
					"checker(uint256)": "94e05b2c",
					"x()": "0c55699c"
				}
			},
			"storageLayout": {
				"storage": [
					{
						"astId": 4,
						"contract": "contracts/Solidity fundamental/3.Conditionals&require.sol:conditional_requireuse",
						"label": "x",
						"offset": 0,
						"slot": "0",
						"type": "t_uint256"
					}
				],
				"types": {
					"t_uint256": {
						"encoding": "inplace",
						"label": "uint256",
						"numberOfBytes": "32"
					}
				}
			},
			"userdoc": {
				"kind": "user",
				"methods": {},
				"version": 1
			}
		}
	}
}