{
	"contracts/Solidity Advance part=1/5.String.sol": {
		"demo": {
			"abi": [
				{
					"inputs": [
						{
							"internalType": "string",
							"name": "str1",
							"type": "string"
						},
						{
							"internalType": "string",
							"name": "str2",
							"type": "string"
						}
					],
					"name": "operation",
					"outputs": [
						{
							"internalType": "string",
							"name": "",
							"type": "string"
						}
					],
					"stateMutability": "pure",
					"type": "function"
				},
				{
					"inputs": [
						{
							"internalType": "string",
							"name": "str1",
							"type": "string"
						},
						{
							"internalType": "string",
							"name": "str2",
							"type": "string"
						}
					],
					"name": "stringconcat",
					"outputs": [
						{
							"internalType": "string",
							"name": "",
							"type": "string"
						}
					],
					"stateMutability": "pure",
					"type": "function"
				}
			],
			"devdoc": {
				"kind": "dev",
				"methods": {},
				"version": 1
			},
			"evm": {
				"assembly": "    /* \"contracts/Solidity Advance part=1/5.String.sol\":70:530  contract demo{... */\n  mstore(0x40, 0x80)\n  callvalue\n  dup1\n  iszero\n  tag_1\n  jumpi\n  0x00\n  dup1\n  revert\ntag_1:\n  pop\n  dataSize(sub_0)\n  dup1\n  dataOffset(sub_0)\n  0x00\n  codecopy\n  0x00\n  return\nstop\n\nsub_0: assembly {\n        /* \"contracts/Solidity Advance part=1/5.String.sol\":70:530  contract demo{... */\n      mstore(0x40, 0x80)\n      callvalue\n      dup1\n      iszero\n      tag_1\n      jumpi\n      0x00\n      dup1\n      revert\n    tag_1:\n      pop\n      jumpi(tag_2, lt(calldatasize, 0x04))\n      shr(0xe0, calldataload(0x00))\n      dup1\n      0x0b780955\n      eq\n      tag_3\n      jumpi\n      dup1\n      0xf0eda1ee\n      eq\n      tag_4\n      jumpi\n    tag_2:\n      0x00\n      dup1\n      revert\n        /* \"contracts/Solidity Advance part=1/5.String.sol\":86:342  function operation(string memory str1,string memory str2)public pure returns (string memory){... */\n    tag_3:\n      tag_5\n      0x04\n      dup1\n      calldatasize\n      sub\n      dup2\n      add\n      swap1\n      tag_6\n      swap2\n      swap1\n      tag_7\n      jump\t// in\n    tag_6:\n      tag_8\n      jump\t// in\n    tag_5:\n      mload(0x40)\n      tag_9\n      swap2\n      swap1\n      tag_10\n      jump\t// in\n    tag_9:\n      mload(0x40)\n      dup1\n      swap2\n      sub\n      swap1\n      return\n        /* \"contracts/Solidity Advance part=1/5.String.sol\":344:528  function stringconcat(string memory str1,string memory str2)public pure returns (string memory){... */\n    tag_4:\n      tag_11\n      0x04\n      dup1\n      calldatasize\n      sub\n      dup2\n      add\n      swap1\n      tag_12\n      swap2\n      swap1\n      tag_7\n      jump\t// in\n    tag_12:\n      tag_13\n      jump\t// in\n    tag_11:\n      mload(0x40)\n      tag_14\n      swap2\n      swap1\n      tag_10\n      jump\t// in\n    tag_14:\n      mload(0x40)\n      dup1\n      swap2\n      sub\n      swap1\n      return\n        /* \"contracts/Solidity Advance part=1/5.String.sol\":86:342  function operation(string memory str1,string memory str2)public pure returns (string memory){... */\n    tag_8:\n        /* \"contracts/Solidity Advance part=1/5.String.sol\":164:177  string memory */\n      0x60\n        /* \"contracts/Solidity Advance part=1/5.String.sol\":238:242  str2 */\n      dup2\n        /* \"contracts/Solidity Advance part=1/5.String.sol\":227:243  abi.encode(str2) */\n      add(0x20, mload(0x40))\n      tag_16\n      swap2\n      swap1\n      tag_10\n      jump\t// in\n    tag_16:\n      mload(0x40)\n      0x20\n      dup2\n      dup4\n      sub\n      sub\n      dup2\n      mstore\n      swap1\n      0x40\n      mstore\n        /* \"contracts/Solidity Advance part=1/5.String.sol\":217:244  keccak256(abi.encode(str2)) */\n      dup1\n      mload\n      swap1\n      0x20\n      add\n      keccak256\n        /* \"contracts/Solidity Advance part=1/5.String.sol\":208:212  str1 */\n      dup4\n        /* \"contracts/Solidity Advance part=1/5.String.sol\":197:213  abi.encode(str1) */\n      add(0x20, mload(0x40))\n      tag_17\n      swap2\n      swap1\n      tag_10\n      jump\t// in\n    tag_17:\n      mload(0x40)\n      0x20\n      dup2\n      dup4\n      sub\n      sub\n      dup2\n      mstore\n      swap1\n      0x40\n      mstore\n        /* \"contracts/Solidity Advance part=1/5.String.sol\":187:214  keccak256(abi.encode(str1)) */\n      dup1\n      mload\n      swap1\n      0x20\n      add\n      keccak256\n        /* \"contracts/Solidity Advance part=1/5.String.sol\":187:244  keccak256(abi.encode(str1))== keccak256(abi.encode(str2)) */\n      sub\n        /* \"contracts/Solidity Advance part=1/5.String.sol\":184:340  if(keccak256(abi.encode(str1))== keccak256(abi.encode(str2))){... */\n      tag_18\n      jumpi\n        /* \"contracts/Solidity Advance part=1/5.String.sol\":255:279  return \"string are same\" */\n      mload(0x40)\n      dup1\n      0x40\n      add\n      0x40\n      mstore\n      dup1\n      0x0f\n      dup2\n      mstore\n      0x20\n      add\n      0x737472696e67206172652073616d650000000000000000000000000000000000\n      dup2\n      mstore\n      pop\n      swap1\n      pop\n      jump(tag_15)\n        /* \"contracts/Solidity Advance part=1/5.String.sol\":184:340  if(keccak256(abi.encode(str1))== keccak256(abi.encode(str2))){... */\n    tag_18:\n        /* \"contracts/Solidity Advance part=1/5.String.sol\":305:333  return \"string are not same\" */\n      mload(0x40)\n      dup1\n      0x40\n      add\n      0x40\n      mstore\n      dup1\n      0x13\n      dup2\n      mstore\n      0x20\n      add\n      0x737472696e6720617265206e6f742073616d6500000000000000000000000000\n      dup2\n      mstore\n      pop\n      swap1\n      pop\n        /* \"contracts/Solidity Advance part=1/5.String.sol\":86:342  function operation(string memory str1,string memory str2)public pure returns (string memory){... */\n    tag_15:\n      swap3\n      swap2\n      pop\n      pop\n      jump\t// out\n        /* \"contracts/Solidity Advance part=1/5.String.sol\":344:528  function stringconcat(string memory str1,string memory str2)public pure returns (string memory){... */\n    tag_13:\n        /* \"contracts/Solidity Advance part=1/5.String.sol\":425:438  string memory */\n      0x60\n        /* \"contracts/Solidity Advance part=1/5.String.sol\":445:472  string memory concatestring */\n      0x00\n        /* \"contracts/Solidity Advance part=1/5.String.sol\":489:493  str1 */\n      dup4\n        /* \"contracts/Solidity Advance part=1/5.String.sol\":494:498  str2 */\n      dup4\n        /* \"contracts/Solidity Advance part=1/5.String.sol\":475:499  string.concat(str1,str2) */\n      add(0x20, mload(0x40))\n      tag_21\n      swap3\n      swap2\n      swap1\n      tag_22\n      jump\t// in\n    tag_21:\n      mload(0x40)\n      0x20\n      dup2\n      dup4\n      sub\n      sub\n      dup2\n      mstore\n      swap1\n      0x40\n      mstore\n        /* \"contracts/Solidity Advance part=1/5.String.sol\":445:499  string memory concatestring = string.concat(str1,str2) */\n      swap1\n      pop\n        /* \"contracts/Solidity Advance part=1/5.String.sol\":512:525  concatestring */\n      dup1\n        /* \"contracts/Solidity Advance part=1/5.String.sol\":505:525  return concatestring */\n      swap2\n      pop\n      pop\n        /* \"contracts/Solidity Advance part=1/5.String.sol\":344:528  function stringconcat(string memory str1,string memory str2)public pure returns (string memory){... */\n      swap3\n      swap2\n      pop\n      pop\n      jump\t// out\n        /* \"#utility.yul\":7:82   */\n    tag_23:\n        /* \"#utility.yul\":40:46   */\n      0x00\n        /* \"#utility.yul\":73:75   */\n      0x40\n        /* \"#utility.yul\":67:76   */\n      mload\n        /* \"#utility.yul\":57:76   */\n      swap1\n      pop\n        /* \"#utility.yul\":7:82   */\n      swap1\n      jump\t// out\n        /* \"#utility.yul\":88:205   */\n    tag_24:\n        /* \"#utility.yul\":197:198   */\n      0x00\n        /* \"#utility.yul\":194:195   */\n      dup1\n        /* \"#utility.yul\":187:199   */\n      revert\n        /* \"#utility.yul\":211:328   */\n    tag_25:\n        /* \"#utility.yul\":320:321   */\n      0x00\n        /* \"#utility.yul\":317:318   */\n      dup1\n        /* \"#utility.yul\":310:322   */\n      revert\n        /* \"#utility.yul\":334:451   */\n    tag_26:\n        /* \"#utility.yul\":443:444   */\n      0x00\n        /* \"#utility.yul\":440:441   */\n      dup1\n        /* \"#utility.yul\":433:445   */\n      revert\n        /* \"#utility.yul\":457:574   */\n    tag_27:\n        /* \"#utility.yul\":566:567   */\n      0x00\n        /* \"#utility.yul\":563:564   */\n      dup1\n        /* \"#utility.yul\":556:568   */\n      revert\n        /* \"#utility.yul\":580:682   */\n    tag_28:\n        /* \"#utility.yul\":621:627   */\n      0x00\n        /* \"#utility.yul\":672:674   */\n      0x1f\n        /* \"#utility.yul\":668:675   */\n      not\n        /* \"#utility.yul\":663:665   */\n      0x1f\n        /* \"#utility.yul\":656:661   */\n      dup4\n        /* \"#utility.yul\":652:666   */\n      add\n        /* \"#utility.yul\":648:676   */\n      and\n        /* \"#utility.yul\":638:676   */\n      swap1\n      pop\n        /* \"#utility.yul\":580:682   */\n      swap2\n      swap1\n      pop\n      jump\t// out\n        /* \"#utility.yul\":688:868   */\n    tag_29:\n        /* \"#utility.yul\":736:813   */\n      0x4e487b7100000000000000000000000000000000000000000000000000000000\n        /* \"#utility.yul\":733:734   */\n      0x00\n        /* \"#utility.yul\":726:814   */\n      mstore\n        /* \"#utility.yul\":833:837   */\n      0x41\n        /* \"#utility.yul\":830:831   */\n      0x04\n        /* \"#utility.yul\":823:838   */\n      mstore\n        /* \"#utility.yul\":857:861   */\n      0x24\n        /* \"#utility.yul\":854:855   */\n      0x00\n        /* \"#utility.yul\":847:862   */\n      revert\n        /* \"#utility.yul\":874:1155   */\n    tag_30:\n        /* \"#utility.yul\":957:984   */\n      tag_51\n        /* \"#utility.yul\":979:983   */\n      dup3\n        /* \"#utility.yul\":957:984   */\n      tag_28\n      jump\t// in\n    tag_51:\n        /* \"#utility.yul\":949:955   */\n      dup2\n        /* \"#utility.yul\":945:985   */\n      add\n        /* \"#utility.yul\":1087:1093   */\n      dup2\n        /* \"#utility.yul\":1075:1085   */\n      dup2\n        /* \"#utility.yul\":1072:1094   */\n      lt\n        /* \"#utility.yul\":1051:1069   */\n      0xffffffffffffffff\n        /* \"#utility.yul\":1039:1049   */\n      dup3\n        /* \"#utility.yul\":1036:1070   */\n      gt\n        /* \"#utility.yul\":1033:1095   */\n      or\n        /* \"#utility.yul\":1030:1118   */\n      iszero\n      tag_52\n      jumpi\n        /* \"#utility.yul\":1098:1116   */\n      tag_53\n      tag_29\n      jump\t// in\n    tag_53:\n        /* \"#utility.yul\":1030:1118   */\n    tag_52:\n        /* \"#utility.yul\":1138:1148   */\n      dup1\n        /* \"#utility.yul\":1134:1136   */\n      0x40\n        /* \"#utility.yul\":1127:1149   */\n      mstore\n        /* \"#utility.yul\":917:1155   */\n      pop\n        /* \"#utility.yul\":874:1155   */\n      pop\n      pop\n      jump\t// out\n        /* \"#utility.yul\":1161:1290   */\n    tag_31:\n        /* \"#utility.yul\":1195:1201   */\n      0x00\n        /* \"#utility.yul\":1222:1242   */\n      tag_55\n      tag_23\n      jump\t// in\n    tag_55:\n        /* \"#utility.yul\":1212:1242   */\n      swap1\n      pop\n        /* \"#utility.yul\":1251:1284   */\n      tag_56\n        /* \"#utility.yul\":1279:1283   */\n      dup3\n        /* \"#utility.yul\":1271:1277   */\n      dup3\n        /* \"#utility.yul\":1251:1284   */\n      tag_30\n      jump\t// in\n    tag_56:\n        /* \"#utility.yul\":1161:1290   */\n      swap2\n      swap1\n      pop\n      jump\t// out\n        /* \"#utility.yul\":1296:1604   */\n    tag_32:\n        /* \"#utility.yul\":1358:1362   */\n      0x00\n        /* \"#utility.yul\":1448:1466   */\n      0xffffffffffffffff\n        /* \"#utility.yul\":1440:1446   */\n      dup3\n        /* \"#utility.yul\":1437:1467   */\n      gt\n        /* \"#utility.yul\":1434:1490   */\n      iszero\n      tag_58\n      jumpi\n        /* \"#utility.yul\":1470:1488   */\n      tag_59\n      tag_29\n      jump\t// in\n    tag_59:\n        /* \"#utility.yul\":1434:1490   */\n    tag_58:\n        /* \"#utility.yul\":1508:1537   */\n      tag_60\n        /* \"#utility.yul\":1530:1536   */\n      dup3\n        /* \"#utility.yul\":1508:1537   */\n      tag_28\n      jump\t// in\n    tag_60:\n        /* \"#utility.yul\":1500:1537   */\n      swap1\n      pop\n        /* \"#utility.yul\":1592:1596   */\n      0x20\n        /* \"#utility.yul\":1586:1590   */\n      dup2\n        /* \"#utility.yul\":1582:1597   */\n      add\n        /* \"#utility.yul\":1574:1597   */\n      swap1\n      pop\n        /* \"#utility.yul\":1296:1604   */\n      swap2\n      swap1\n      pop\n      jump\t// out\n        /* \"#utility.yul\":1610:1756   */\n    tag_33:\n        /* \"#utility.yul\":1707:1713   */\n      dup3\n        /* \"#utility.yul\":1702:1705   */\n      dup2\n        /* \"#utility.yul\":1697:1700   */\n      dup4\n        /* \"#utility.yul\":1684:1714   */\n      calldatacopy\n        /* \"#utility.yul\":1748:1749   */\n      0x00\n        /* \"#utility.yul\":1739:1745   */\n      dup4\n        /* \"#utility.yul\":1734:1737   */\n      dup4\n        /* \"#utility.yul\":1730:1746   */\n      add\n        /* \"#utility.yul\":1723:1750   */\n      mstore\n        /* \"#utility.yul\":1610:1756   */\n      pop\n      pop\n      pop\n      jump\t// out\n        /* \"#utility.yul\":1762:2187   */\n    tag_34:\n        /* \"#utility.yul\":1840:1845   */\n      0x00\n        /* \"#utility.yul\":1865:1931   */\n      tag_63\n        /* \"#utility.yul\":1881:1930   */\n      tag_64\n        /* \"#utility.yul\":1923:1929   */\n      dup5\n        /* \"#utility.yul\":1881:1930   */\n      tag_32\n      jump\t// in\n    tag_64:\n        /* \"#utility.yul\":1865:1931   */\n      tag_31\n      jump\t// in\n    tag_63:\n        /* \"#utility.yul\":1856:1931   */\n      swap1\n      pop\n        /* \"#utility.yul\":1954:1960   */\n      dup3\n        /* \"#utility.yul\":1947:1952   */\n      dup2\n        /* \"#utility.yul\":1940:1961   */\n      mstore\n        /* \"#utility.yul\":1992:1996   */\n      0x20\n        /* \"#utility.yul\":1985:1990   */\n      dup2\n        /* \"#utility.yul\":1981:1997   */\n      add\n        /* \"#utility.yul\":2030:2033   */\n      dup5\n        /* \"#utility.yul\":2021:2027   */\n      dup5\n        /* \"#utility.yul\":2016:2019   */\n      dup5\n        /* \"#utility.yul\":2012:2028   */\n      add\n        /* \"#utility.yul\":2009:2034   */\n      gt\n        /* \"#utility.yul\":2006:2118   */\n      iszero\n      tag_65\n      jumpi\n        /* \"#utility.yul\":2037:2116   */\n      tag_66\n      tag_27\n      jump\t// in\n    tag_66:\n        /* \"#utility.yul\":2006:2118   */\n    tag_65:\n        /* \"#utility.yul\":2127:2181   */\n      tag_67\n        /* \"#utility.yul\":2174:2180   */\n      dup5\n        /* \"#utility.yul\":2169:2172   */\n      dup3\n        /* \"#utility.yul\":2164:2167   */\n      dup6\n        /* \"#utility.yul\":2127:2181   */\n      tag_33\n      jump\t// in\n    tag_67:\n        /* \"#utility.yul\":1846:2187   */\n      pop\n        /* \"#utility.yul\":1762:2187   */\n      swap4\n      swap3\n      pop\n      pop\n      pop\n      jump\t// out\n        /* \"#utility.yul\":2207:2547   */\n    tag_35:\n        /* \"#utility.yul\":2263:2268   */\n      0x00\n        /* \"#utility.yul\":2312:2315   */\n      dup3\n        /* \"#utility.yul\":2305:2309   */\n      0x1f\n        /* \"#utility.yul\":2297:2303   */\n      dup4\n        /* \"#utility.yul\":2293:2310   */\n      add\n        /* \"#utility.yul\":2289:2316   */\n      slt\n        /* \"#utility.yul\":2279:2401   */\n      tag_69\n      jumpi\n        /* \"#utility.yul\":2320:2399   */\n      tag_70\n      tag_26\n      jump\t// in\n    tag_70:\n        /* \"#utility.yul\":2279:2401   */\n    tag_69:\n        /* \"#utility.yul\":2437:2443   */\n      dup2\n        /* \"#utility.yul\":2424:2444   */\n      calldataload\n        /* \"#utility.yul\":2462:2541   */\n      tag_71\n        /* \"#utility.yul\":2537:2540   */\n      dup5\n        /* \"#utility.yul\":2529:2535   */\n      dup3\n        /* \"#utility.yul\":2522:2526   */\n      0x20\n        /* \"#utility.yul\":2514:2520   */\n      dup7\n        /* \"#utility.yul\":2510:2527   */\n      add\n        /* \"#utility.yul\":2462:2541   */\n      tag_34\n      jump\t// in\n    tag_71:\n        /* \"#utility.yul\":2453:2541   */\n      swap2\n      pop\n        /* \"#utility.yul\":2269:2547   */\n      pop\n        /* \"#utility.yul\":2207:2547   */\n      swap3\n      swap2\n      pop\n      pop\n      jump\t// out\n        /* \"#utility.yul\":2553:3387   */\n    tag_7:\n        /* \"#utility.yul\":2641:2647   */\n      0x00\n        /* \"#utility.yul\":2649:2655   */\n      dup1\n        /* \"#utility.yul\":2698:2700   */\n      0x40\n        /* \"#utility.yul\":2686:2695   */\n      dup4\n        /* \"#utility.yul\":2677:2684   */\n      dup6\n        /* \"#utility.yul\":2673:2696   */\n      sub\n        /* \"#utility.yul\":2669:2701   */\n      slt\n        /* \"#utility.yul\":2666:2785   */\n      iszero\n      tag_73\n      jumpi\n        /* \"#utility.yul\":2704:2783   */\n      tag_74\n      tag_24\n      jump\t// in\n    tag_74:\n        /* \"#utility.yul\":2666:2785   */\n    tag_73:\n        /* \"#utility.yul\":2852:2853   */\n      0x00\n        /* \"#utility.yul\":2841:2850   */\n      dup4\n        /* \"#utility.yul\":2837:2854   */\n      add\n        /* \"#utility.yul\":2824:2855   */\n      calldataload\n        /* \"#utility.yul\":2882:2900   */\n      0xffffffffffffffff\n        /* \"#utility.yul\":2874:2880   */\n      dup2\n        /* \"#utility.yul\":2871:2901   */\n      gt\n        /* \"#utility.yul\":2868:2985   */\n      iszero\n      tag_75\n      jumpi\n        /* \"#utility.yul\":2904:2983   */\n      tag_76\n      tag_25\n      jump\t// in\n    tag_76:\n        /* \"#utility.yul\":2868:2985   */\n    tag_75:\n        /* \"#utility.yul\":3009:3072   */\n      tag_77\n        /* \"#utility.yul\":3064:3071   */\n      dup6\n        /* \"#utility.yul\":3055:3061   */\n      dup3\n        /* \"#utility.yul\":3044:3053   */\n      dup7\n        /* \"#utility.yul\":3040:3062   */\n      add\n        /* \"#utility.yul\":3009:3072   */\n      tag_35\n      jump\t// in\n    tag_77:\n        /* \"#utility.yul\":2999:3072   */\n      swap3\n      pop\n        /* \"#utility.yul\":2795:3082   */\n      pop\n        /* \"#utility.yul\":3149:3151   */\n      0x20\n        /* \"#utility.yul\":3138:3147   */\n      dup4\n        /* \"#utility.yul\":3134:3152   */\n      add\n        /* \"#utility.yul\":3121:3153   */\n      calldataload\n        /* \"#utility.yul\":3180:3198   */\n      0xffffffffffffffff\n        /* \"#utility.yul\":3172:3178   */\n      dup2\n        /* \"#utility.yul\":3169:3199   */\n      gt\n        /* \"#utility.yul\":3166:3283   */\n      iszero\n      tag_78\n      jumpi\n        /* \"#utility.yul\":3202:3281   */\n      tag_79\n      tag_25\n      jump\t// in\n    tag_79:\n        /* \"#utility.yul\":3166:3283   */\n    tag_78:\n        /* \"#utility.yul\":3307:3370   */\n      tag_80\n        /* \"#utility.yul\":3362:3369   */\n      dup6\n        /* \"#utility.yul\":3353:3359   */\n      dup3\n        /* \"#utility.yul\":3342:3351   */\n      dup7\n        /* \"#utility.yul\":3338:3360   */\n      add\n        /* \"#utility.yul\":3307:3370   */\n      tag_35\n      jump\t// in\n    tag_80:\n        /* \"#utility.yul\":3297:3370   */\n      swap2\n      pop\n        /* \"#utility.yul\":3092:3380   */\n      pop\n        /* \"#utility.yul\":2553:3387   */\n      swap3\n      pop\n      swap3\n      swap1\n      pop\n      jump\t// out\n        /* \"#utility.yul\":3393:3492   */\n    tag_36:\n        /* \"#utility.yul\":3445:3451   */\n      0x00\n        /* \"#utility.yul\":3479:3484   */\n      dup2\n        /* \"#utility.yul\":3473:3485   */\n      mload\n        /* \"#utility.yul\":3463:3485   */\n      swap1\n      pop\n        /* \"#utility.yul\":3393:3492   */\n      swap2\n      swap1\n      pop\n      jump\t// out\n        /* \"#utility.yul\":3498:3667   */\n    tag_37:\n        /* \"#utility.yul\":3582:3593   */\n      0x00\n        /* \"#utility.yul\":3616:3622   */\n      dup3\n        /* \"#utility.yul\":3611:3614   */\n      dup3\n        /* \"#utility.yul\":3604:3623   */\n      mstore\n        /* \"#utility.yul\":3656:3660   */\n      0x20\n        /* \"#utility.yul\":3651:3654   */\n      dup3\n        /* \"#utility.yul\":3647:3661   */\n      add\n        /* \"#utility.yul\":3632:3661   */\n      swap1\n      pop\n        /* \"#utility.yul\":3498:3667   */\n      swap3\n      swap2\n      pop\n      pop\n      jump\t// out\n        /* \"#utility.yul\":3673:3919   */\n    tag_38:\n        /* \"#utility.yul\":3754:3755   */\n      0x00\n        /* \"#utility.yul\":3764:3877   */\n    tag_84:\n        /* \"#utility.yul\":3778:3784   */\n      dup4\n        /* \"#utility.yul\":3775:3776   */\n      dup2\n        /* \"#utility.yul\":3772:3785   */\n      lt\n        /* \"#utility.yul\":3764:3877   */\n      iszero\n      tag_86\n      jumpi\n        /* \"#utility.yul\":3863:3864   */\n      dup1\n        /* \"#utility.yul\":3858:3861   */\n      dup3\n        /* \"#utility.yul\":3854:3865   */\n      add\n        /* \"#utility.yul\":3848:3866   */\n      mload\n        /* \"#utility.yul\":3844:3845   */\n      dup2\n        /* \"#utility.yul\":3839:3842   */\n      dup5\n        /* \"#utility.yul\":3835:3846   */\n      add\n        /* \"#utility.yul\":3828:3867   */\n      mstore\n        /* \"#utility.yul\":3800:3802   */\n      0x20\n        /* \"#utility.yul\":3797:3798   */\n      dup2\n        /* \"#utility.yul\":3793:3803   */\n      add\n        /* \"#utility.yul\":3788:3803   */\n      swap1\n      pop\n        /* \"#utility.yul\":3764:3877   */\n      jump(tag_84)\n    tag_86:\n        /* \"#utility.yul\":3911:3912   */\n      0x00\n        /* \"#utility.yul\":3902:3908   */\n      dup5\n        /* \"#utility.yul\":3897:3900   */\n      dup5\n        /* \"#utility.yul\":3893:3909   */\n      add\n        /* \"#utility.yul\":3886:3913   */\n      mstore\n        /* \"#utility.yul\":3735:3919   */\n      pop\n        /* \"#utility.yul\":3673:3919   */\n      pop\n      pop\n      pop\n      jump\t// out\n        /* \"#utility.yul\":3925:4302   */\n    tag_39:\n        /* \"#utility.yul\":4013:4016   */\n      0x00\n        /* \"#utility.yul\":4041:4080   */\n      tag_88\n        /* \"#utility.yul\":4074:4079   */\n      dup3\n        /* \"#utility.yul\":4041:4080   */\n      tag_36\n      jump\t// in\n    tag_88:\n        /* \"#utility.yul\":4096:4167   */\n      tag_89\n        /* \"#utility.yul\":4160:4166   */\n      dup2\n        /* \"#utility.yul\":4155:4158   */\n      dup6\n        /* \"#utility.yul\":4096:4167   */\n      tag_37\n      jump\t// in\n    tag_89:\n        /* \"#utility.yul\":4089:4167   */\n      swap4\n      pop\n        /* \"#utility.yul\":4176:4241   */\n      tag_90\n        /* \"#utility.yul\":4234:4240   */\n      dup2\n        /* \"#utility.yul\":4229:4232   */\n      dup6\n        /* \"#utility.yul\":4222:4226   */\n      0x20\n        /* \"#utility.yul\":4215:4220   */\n      dup7\n        /* \"#utility.yul\":4211:4227   */\n      add\n        /* \"#utility.yul\":4176:4241   */\n      tag_38\n      jump\t// in\n    tag_90:\n        /* \"#utility.yul\":4266:4295   */\n      tag_91\n        /* \"#utility.yul\":4288:4294   */\n      dup2\n        /* \"#utility.yul\":4266:4295   */\n      tag_28\n      jump\t// in\n    tag_91:\n        /* \"#utility.yul\":4261:4264   */\n      dup5\n        /* \"#utility.yul\":4257:4296   */\n      add\n        /* \"#utility.yul\":4250:4296   */\n      swap2\n      pop\n        /* \"#utility.yul\":4017:4302   */\n      pop\n        /* \"#utility.yul\":3925:4302   */\n      swap3\n      swap2\n      pop\n      pop\n      jump\t// out\n        /* \"#utility.yul\":4308:4621   */\n    tag_10:\n        /* \"#utility.yul\":4421:4425   */\n      0x00\n        /* \"#utility.yul\":4459:4461   */\n      0x20\n        /* \"#utility.yul\":4448:4457   */\n      dup3\n        /* \"#utility.yul\":4444:4462   */\n      add\n        /* \"#utility.yul\":4436:4462   */\n      swap1\n      pop\n        /* \"#utility.yul\":4508:4517   */\n      dup2\n        /* \"#utility.yul\":4502:4506   */\n      dup2\n        /* \"#utility.yul\":4498:4518   */\n      sub\n        /* \"#utility.yul\":4494:4495   */\n      0x00\n        /* \"#utility.yul\":4483:4492   */\n      dup4\n        /* \"#utility.yul\":4479:4496   */\n      add\n        /* \"#utility.yul\":4472:4519   */\n      mstore\n        /* \"#utility.yul\":4536:4614   */\n      tag_93\n        /* \"#utility.yul\":4609:4613   */\n      dup2\n        /* \"#utility.yul\":4600:4606   */\n      dup5\n        /* \"#utility.yul\":4536:4614   */\n      tag_39\n      jump\t// in\n    tag_93:\n        /* \"#utility.yul\":4528:4614   */\n      swap1\n      pop\n        /* \"#utility.yul\":4308:4621   */\n      swap3\n      swap2\n      pop\n      pop\n      jump\t// out\n        /* \"#utility.yul\":4627:4775   */\n    tag_40:\n        /* \"#utility.yul\":4729:4740   */\n      0x00\n        /* \"#utility.yul\":4766:4769   */\n      dup2\n        /* \"#utility.yul\":4751:4769   */\n      swap1\n      pop\n        /* \"#utility.yul\":4627:4775   */\n      swap3\n      swap2\n      pop\n      pop\n      jump\t// out\n        /* \"#utility.yul\":4781:5171   */\n    tag_41:\n        /* \"#utility.yul\":4887:4890   */\n      0x00\n        /* \"#utility.yul\":4915:4954   */\n      tag_96\n        /* \"#utility.yul\":4948:4953   */\n      dup3\n        /* \"#utility.yul\":4915:4954   */\n      tag_36\n      jump\t// in\n    tag_96:\n        /* \"#utility.yul\":4970:5059   */\n      tag_97\n        /* \"#utility.yul\":5052:5058   */\n      dup2\n        /* \"#utility.yul\":5047:5050   */\n      dup6\n        /* \"#utility.yul\":4970:5059   */\n      tag_40\n      jump\t// in\n    tag_97:\n        /* \"#utility.yul\":4963:5059   */\n      swap4\n      pop\n        /* \"#utility.yul\":5068:5133   */\n      tag_98\n        /* \"#utility.yul\":5126:5132   */\n      dup2\n        /* \"#utility.yul\":5121:5124   */\n      dup6\n        /* \"#utility.yul\":5114:5118   */\n      0x20\n        /* \"#utility.yul\":5107:5112   */\n      dup7\n        /* \"#utility.yul\":5103:5119   */\n      add\n        /* \"#utility.yul\":5068:5133   */\n      tag_38\n      jump\t// in\n    tag_98:\n        /* \"#utility.yul\":5158:5164   */\n      dup1\n        /* \"#utility.yul\":5153:5156   */\n      dup5\n        /* \"#utility.yul\":5149:5165   */\n      add\n        /* \"#utility.yul\":5142:5165   */\n      swap2\n      pop\n        /* \"#utility.yul\":4891:5171   */\n      pop\n        /* \"#utility.yul\":4781:5171   */\n      swap3\n      swap2\n      pop\n      pop\n      jump\t// out\n        /* \"#utility.yul\":5177:5612   */\n    tag_22:\n        /* \"#utility.yul\":5357:5360   */\n      0x00\n        /* \"#utility.yul\":5379:5474   */\n      tag_100\n        /* \"#utility.yul\":5470:5473   */\n      dup3\n        /* \"#utility.yul\":5461:5467   */\n      dup6\n        /* \"#utility.yul\":5379:5474   */\n      tag_41\n      jump\t// in\n    tag_100:\n        /* \"#utility.yul\":5372:5474   */\n      swap2\n      pop\n        /* \"#utility.yul\":5491:5586   */\n      tag_101\n        /* \"#utility.yul\":5582:5585   */\n      dup3\n        /* \"#utility.yul\":5573:5579   */\n      dup5\n        /* \"#utility.yul\":5491:5586   */\n      tag_41\n      jump\t// in\n    tag_101:\n        /* \"#utility.yul\":5484:5586   */\n      swap2\n      pop\n        /* \"#utility.yul\":5603:5606   */\n      dup2\n        /* \"#utility.yul\":5596:5606   */\n      swap1\n      pop\n        /* \"#utility.yul\":5177:5612   */\n      swap4\n      swap3\n      pop\n      pop\n      pop\n      jump\t// out\n\n    auxdata: 0xa2646970667358221220d84e8a8a5720b4eb6dd9a286e366f1ccef1d28238dbee1ce4f06058724cae2ea64736f6c63430008120033\n}\n",
				"bytecode": {
					"linkReferences": {},
					"object": "608060405234801561001057600080fd5b506104a7806100206000396000f3fe608060405234801561001057600080fd5b50600436106100365760003560e01c80630b7809551461003b578063f0eda1ee1461006b575b600080fd5b610055600480360381019061005091906102f8565b61009b565b60405161006291906103ef565b60405180910390f35b610085600480360381019061008091906102f8565b61016c565b60405161009291906103ef565b60405180910390f35b6060816040516020016100ae91906103ef565b60405160208183030381529060405280519060200120836040516020016100d591906103ef565b604051602081830303815290604052805190602001200361012d576040518060400160405280600f81526020017f737472696e67206172652073616d6500000000000000000000000000000000008152509050610166565b6040518060400160405280601381526020017f737472696e6720617265206e6f742073616d650000000000000000000000000081525090505b92915050565b60606000838360405160200161018392919061044d565b60405160208183030381529060405290508091505092915050565b6000604051905090565b600080fd5b600080fd5b600080fd5b600080fd5b6000601f19601f8301169050919050565b7f4e487b7100000000000000000000000000000000000000000000000000000000600052604160045260246000fd5b610205826101bc565b810181811067ffffffffffffffff82111715610224576102236101cd565b5b80604052505050565b600061023761019e565b905061024382826101fc565b919050565b600067ffffffffffffffff821115610263576102626101cd565b5b61026c826101bc565b9050602081019050919050565b82818337600083830152505050565b600061029b61029684610248565b61022d565b9050828152602081018484840111156102b7576102b66101b7565b5b6102c2848285610279565b509392505050565b600082601f8301126102df576102de6101b2565b5b81356102ef848260208601610288565b91505092915050565b6000806040838503121561030f5761030e6101a8565b5b600083013567ffffffffffffffff81111561032d5761032c6101ad565b5b610339858286016102ca565b925050602083013567ffffffffffffffff81111561035a576103596101ad565b5b610366858286016102ca565b9150509250929050565b600081519050919050565b600082825260208201905092915050565b60005b838110156103aa57808201518184015260208101905061038f565b60008484015250505050565b60006103c182610370565b6103cb818561037b565b93506103db81856020860161038c565b6103e4816101bc565b840191505092915050565b6000602082019050818103600083015261040981846103b6565b905092915050565b600081905092915050565b600061042782610370565b6104318185610411565b935061044181856020860161038c565b80840191505092915050565b6000610459828561041c565b9150610465828461041c565b9150819050939250505056fea2646970667358221220d84e8a8a5720b4eb6dd9a286e366f1ccef1d28238dbee1ce4f06058724cae2ea64736f6c63430008120033",
					"opcodes": "PUSH1 0x80 PUSH1 0x40 MSTORE CALLVALUE DUP1 ISZERO PUSH2 0x10 JUMPI PUSH1 0x0 DUP1 REVERT JUMPDEST POP PUSH2 0x4A7 DUP1 PUSH2 0x20 PUSH1 0x0 CODECOPY PUSH1 0x0 RETURN INVALID PUSH1 0x80 PUSH1 0x40 MSTORE CALLVALUE DUP1 ISZERO PUSH2 0x10 JUMPI PUSH1 0x0 DUP1 REVERT JUMPDEST POP PUSH1 0x4 CALLDATASIZE LT PUSH2 0x36 JUMPI PUSH1 0x0 CALLDATALOAD PUSH1 0xE0 SHR DUP1 PUSH4 0xB780955 EQ PUSH2 0x3B JUMPI DUP1 PUSH4 0xF0EDA1EE EQ PUSH2 0x6B JUMPI JUMPDEST PUSH1 0x0 DUP1 REVERT JUMPDEST PUSH2 0x55 PUSH1 0x4 DUP1 CALLDATASIZE SUB DUP2 ADD SWAP1 PUSH2 0x50 SWAP2 SWAP1 PUSH2 0x2F8 JUMP JUMPDEST PUSH2 0x9B JUMP JUMPDEST PUSH1 0x40 MLOAD PUSH2 0x62 SWAP2 SWAP1 PUSH2 0x3EF JUMP JUMPDEST PUSH1 0x40 MLOAD DUP1 SWAP2 SUB SWAP1 RETURN JUMPDEST PUSH2 0x85 PUSH1 0x4 DUP1 CALLDATASIZE SUB DUP2 ADD SWAP1 PUSH2 0x80 SWAP2 SWAP1 PUSH2 0x2F8 JUMP JUMPDEST PUSH2 0x16C JUMP JUMPDEST PUSH1 0x40 MLOAD PUSH2 0x92 SWAP2 SWAP1 PUSH2 0x3EF JUMP JUMPDEST PUSH1 0x40 MLOAD DUP1 SWAP2 SUB SWAP1 RETURN JUMPDEST PUSH1 0x60 DUP2 PUSH1 0x40 MLOAD PUSH1 0x20 ADD PUSH2 0xAE SWAP2 SWAP1 PUSH2 0x3EF JUMP JUMPDEST PUSH1 0x40 MLOAD PUSH1 0x20 DUP2 DUP4 SUB SUB DUP2 MSTORE SWAP1 PUSH1 0x40 MSTORE DUP1 MLOAD SWAP1 PUSH1 0x20 ADD KECCAK256 DUP4 PUSH1 0x40 MLOAD PUSH1 0x20 ADD PUSH2 0xD5 SWAP2 SWAP1 PUSH2 0x3EF JUMP JUMPDEST PUSH1 0x40 MLOAD PUSH1 0x20 DUP2 DUP4 SUB SUB DUP2 MSTORE SWAP1 PUSH1 0x40 MSTORE DUP1 MLOAD SWAP1 PUSH1 0x20 ADD KECCAK256 SUB PUSH2 0x12D JUMPI PUSH1 0x40 MLOAD DUP1 PUSH1 0x40 ADD PUSH1 0x40 MSTORE DUP1 PUSH1 0xF DUP2 MSTORE PUSH1 0x20 ADD PUSH32 0x737472696E67206172652073616D650000000000000000000000000000000000 DUP2 MSTORE POP SWAP1 POP PUSH2 0x166 JUMP JUMPDEST PUSH1 0x40 MLOAD DUP1 PUSH1 0x40 ADD PUSH1 0x40 MSTORE DUP1 PUSH1 0x13 DUP2 MSTORE PUSH1 0x20 ADD PUSH32 0x737472696E6720617265206E6F742073616D6500000000000000000000000000 DUP2 MSTORE POP SWAP1 POP JUMPDEST SWAP3 SWAP2 POP POP JUMP JUMPDEST PUSH1 0x60 PUSH1 0x0 DUP4 DUP4 PUSH1 0x40 MLOAD PUSH1 0x20 ADD PUSH2 0x183 SWAP3 SWAP2 SWAP1 PUSH2 0x44D JUMP JUMPDEST PUSH1 0x40 MLOAD PUSH1 0x20 DUP2 DUP4 SUB SUB DUP2 MSTORE SWAP1 PUSH1 0x40 MSTORE SWAP1 POP DUP1 SWAP2 POP POP SWAP3 SWAP2 POP POP JUMP JUMPDEST PUSH1 0x0 PUSH1 0x40 MLOAD SWAP1 POP SWAP1 JUMP JUMPDEST PUSH1 0x0 DUP1 REVERT JUMPDEST PUSH1 0x0 DUP1 REVERT JUMPDEST PUSH1 0x0 DUP1 REVERT JUMPDEST PUSH1 0x0 DUP1 REVERT JUMPDEST PUSH1 0x0 PUSH1 0x1F NOT PUSH1 0x1F DUP4 ADD AND SWAP1 POP SWAP2 SWAP1 POP JUMP JUMPDEST PUSH32 0x4E487B7100000000000000000000000000000000000000000000000000000000 PUSH1 0x0 MSTORE PUSH1 0x41 PUSH1 0x4 MSTORE PUSH1 0x24 PUSH1 0x0 REVERT JUMPDEST PUSH2 0x205 DUP3 PUSH2 0x1BC JUMP JUMPDEST DUP2 ADD DUP2 DUP2 LT PUSH8 0xFFFFFFFFFFFFFFFF DUP3 GT OR ISZERO PUSH2 0x224 JUMPI PUSH2 0x223 PUSH2 0x1CD JUMP JUMPDEST JUMPDEST DUP1 PUSH1 0x40 MSTORE POP POP POP JUMP JUMPDEST PUSH1 0x0 PUSH2 0x237 PUSH2 0x19E JUMP JUMPDEST SWAP1 POP PUSH2 0x243 DUP3 DUP3 PUSH2 0x1FC JUMP JUMPDEST SWAP2 SWAP1 POP JUMP JUMPDEST PUSH1 0x0 PUSH8 0xFFFFFFFFFFFFFFFF DUP3 GT ISZERO PUSH2 0x263 JUMPI PUSH2 0x262 PUSH2 0x1CD JUMP JUMPDEST JUMPDEST PUSH2 0x26C DUP3 PUSH2 0x1BC JUMP JUMPDEST SWAP1 POP PUSH1 0x20 DUP2 ADD SWAP1 POP SWAP2 SWAP1 POP JUMP JUMPDEST DUP3 DUP2 DUP4 CALLDATACOPY PUSH1 0x0 DUP4 DUP4 ADD MSTORE POP POP POP JUMP JUMPDEST PUSH1 0x0 PUSH2 0x29B PUSH2 0x296 DUP5 PUSH2 0x248 JUMP JUMPDEST PUSH2 0x22D JUMP JUMPDEST SWAP1 POP DUP3 DUP2 MSTORE PUSH1 0x20 DUP2 ADD DUP5 DUP5 DUP5 ADD GT ISZERO PUSH2 0x2B7 JUMPI PUSH2 0x2B6 PUSH2 0x1B7 JUMP JUMPDEST JUMPDEST PUSH2 0x2C2 DUP5 DUP3 DUP6 PUSH2 0x279 JUMP JUMPDEST POP SWAP4 SWAP3 POP POP POP JUMP JUMPDEST PUSH1 0x0 DUP3 PUSH1 0x1F DUP4 ADD SLT PUSH2 0x2DF JUMPI PUSH2 0x2DE PUSH2 0x1B2 JUMP JUMPDEST JUMPDEST DUP2 CALLDATALOAD PUSH2 0x2EF DUP5 DUP3 PUSH1 0x20 DUP7 ADD PUSH2 0x288 JUMP JUMPDEST SWAP2 POP POP SWAP3 SWAP2 POP POP JUMP JUMPDEST PUSH1 0x0 DUP1 PUSH1 0x40 DUP4 DUP6 SUB SLT ISZERO PUSH2 0x30F JUMPI PUSH2 0x30E PUSH2 0x1A8 JUMP JUMPDEST JUMPDEST PUSH1 0x0 DUP4 ADD CALLDATALOAD PUSH8 0xFFFFFFFFFFFFFFFF DUP2 GT ISZERO PUSH2 0x32D JUMPI PUSH2 0x32C PUSH2 0x1AD JUMP JUMPDEST JUMPDEST PUSH2 0x339 DUP6 DUP3 DUP7 ADD PUSH2 0x2CA JUMP JUMPDEST SWAP3 POP POP PUSH1 0x20 DUP4 ADD CALLDATALOAD PUSH8 0xFFFFFFFFFFFFFFFF DUP2 GT ISZERO PUSH2 0x35A JUMPI PUSH2 0x359 PUSH2 0x1AD JUMP JUMPDEST JUMPDEST PUSH2 0x366 DUP6 DUP3 DUP7 ADD PUSH2 0x2CA JUMP JUMPDEST SWAP2 POP POP SWAP3 POP SWAP3 SWAP1 POP JUMP JUMPDEST PUSH1 0x0 DUP2 MLOAD SWAP1 POP SWAP2 SWAP1 POP JUMP JUMPDEST PUSH1 0x0 DUP3 DUP3 MSTORE PUSH1 0x20 DUP3 ADD SWAP1 POP SWAP3 SWAP2 POP POP JUMP JUMPDEST PUSH1 0x0 JUMPDEST DUP4 DUP2 LT ISZERO PUSH2 0x3AA JUMPI DUP1 DUP3 ADD MLOAD DUP2 DUP5 ADD MSTORE PUSH1 0x20 DUP2 ADD SWAP1 POP PUSH2 0x38F JUMP JUMPDEST PUSH1 0x0 DUP5 DUP5 ADD MSTORE POP POP POP POP JUMP JUMPDEST PUSH1 0x0 PUSH2 0x3C1 DUP3 PUSH2 0x370 JUMP JUMPDEST PUSH2 0x3CB DUP2 DUP6 PUSH2 0x37B JUMP JUMPDEST SWAP4 POP PUSH2 0x3DB DUP2 DUP6 PUSH1 0x20 DUP7 ADD PUSH2 0x38C JUMP JUMPDEST PUSH2 0x3E4 DUP2 PUSH2 0x1BC JUMP JUMPDEST DUP5 ADD SWAP2 POP POP SWAP3 SWAP2 POP POP JUMP JUMPDEST PUSH1 0x0 PUSH1 0x20 DUP3 ADD SWAP1 POP DUP2 DUP2 SUB PUSH1 0x0 DUP4 ADD MSTORE PUSH2 0x409 DUP2 DUP5 PUSH2 0x3B6 JUMP JUMPDEST SWAP1 POP SWAP3 SWAP2 POP POP JUMP JUMPDEST PUSH1 0x0 DUP2 SWAP1 POP SWAP3 SWAP2 POP POP JUMP JUMPDEST PUSH1 0x0 PUSH2 0x427 DUP3 PUSH2 0x370 JUMP JUMPDEST PUSH2 0x431 DUP2 DUP6 PUSH2 0x411 JUMP JUMPDEST SWAP4 POP PUSH2 0x441 DUP2 DUP6 PUSH1 0x20 DUP7 ADD PUSH2 0x38C JUMP JUMPDEST DUP1 DUP5 ADD SWAP2 POP POP SWAP3 SWAP2 POP POP JUMP JUMPDEST PUSH1 0x0 PUSH2 0x459 DUP3 DUP6 PUSH2 0x41C JUMP JUMPDEST SWAP2 POP PUSH2 0x465 DUP3 DUP5 PUSH2 0x41C JUMP JUMPDEST SWAP2 POP DUP2 SWAP1 POP SWAP4 SWAP3 POP POP POP JUMP INVALID LOG2 PUSH5 0x6970667358 0x22 SLT KECCAK256 0xD8 0x4E DUP11 DUP11 JUMPI KECCAK256 0xB4 0xEB PUSH14 0xD9A286E366F1CCEF1D28238DBEE1 0xCE 0x4F MOD SDIV DUP8 0x24 0xCA 0xE2 0xEA PUSH5 0x736F6C6343 STOP ADDMOD SLT STOP CALLER "
				},
				"gasEstimates": {
					"creation": {
						"codeDepositCost": "238200",
						"executionCost": "281",
						"totalCost": "238481"
					},
					"external": {
						"operation(string,string)": "infinite",
						"stringconcat(string,string)": "infinite"
					}
				},
				"methodIdentifiers": {
					"operation(string,string)": "0b780955",
					"stringconcat(string,string)": "f0eda1ee"
				}
			},
			"storageLayout": {
				"storage": [],
				"types": null
			},
			"userdoc": {
				"kind": "user",
				"methods": {},
				"version": 1
			}
		}
	}
}