{
	"contracts/Solidity Advance part=1/3.MemoryVsStorage.sol": {
		"demo": {
			"abi": [
				{
					"inputs": [
						{
							"internalType": "uint256",
							"name": "",
							"type": "uint256"
						}
					],
					"name": "arr",
					"outputs": [
						{
							"internalType": "uint256",
							"name": "",
							"type": "uint256"
						}
					],
					"stateMutability": "view",
					"type": "function"
				},
				{
					"inputs": [
						{
							"internalType": "uint256[3]",
							"name": "memoryArray",
							"type": "uint256[3]"
						}
					],
					"name": "memoryarr",
					"outputs": [],
					"stateMutability": "view",
					"type": "function"
				},
				{
					"inputs": [],
					"name": "storagearr",
					"outputs": [],
					"stateMutability": "nonpayable",
					"type": "function"
				}
			],
			"devdoc": {
				"kind": "dev",
				"methods": {},
				"version": 1
			},
			"evm": {
				"assembly": "    /* \"contracts/Solidity Advance part=1/3.MemoryVsStorage.sol\":70:515  contract demo{... */\n  mstore(0x40, 0x80)\n    /* \"contracts/Solidity Advance part=1/3.MemoryVsStorage.sol\":90:119  uint[3] public arr=[10,20,30] */\n  mload(0x40)\n  dup1\n  0x60\n  add\n  0x40\n  mstore\n  dup1\n    /* \"contracts/Solidity Advance part=1/3.MemoryVsStorage.sol\":110:112  10 */\n  0x0a\n    /* \"contracts/Solidity Advance part=1/3.MemoryVsStorage.sol\":90:119  uint[3] public arr=[10,20,30] */\n  0xff\n  and\n  dup2\n  mstore\n  0x20\n  add\n    /* \"contracts/Solidity Advance part=1/3.MemoryVsStorage.sol\":113:115  20 */\n  0x14\n    /* \"contracts/Solidity Advance part=1/3.MemoryVsStorage.sol\":90:119  uint[3] public arr=[10,20,30] */\n  0xff\n  and\n  dup2\n  mstore\n  0x20\n  add\n    /* \"contracts/Solidity Advance part=1/3.MemoryVsStorage.sol\":116:118  30 */\n  0x1e\n    /* \"contracts/Solidity Advance part=1/3.MemoryVsStorage.sol\":90:119  uint[3] public arr=[10,20,30] */\n  0xff\n  and\n  dup2\n  mstore\n  pop\n  0x00\n  swap1\n  0x03\n  tag_1\n  swap3\n  swap2\n  swap1\n  tag_2\n  jump\t// in\ntag_1:\n  pop\n    /* \"contracts/Solidity Advance part=1/3.MemoryVsStorage.sol\":70:515  contract demo{... */\n  callvalue\n  dup1\n  iszero\n  tag_3\n  jumpi\n  0x00\n  dup1\n  revert\ntag_3:\n  pop\n  jump(tag_4)\ntag_2:\n  dup3\n  0x03\n  dup2\n  add\n  swap3\n  dup3\n  iszero\n  tag_5\n  jumpi\n  swap2\n  0x20\n  mul\n  dup3\n  add\ntag_6:\n  dup3\n  dup2\n  gt\n  iszero\n  tag_7\n  jumpi\n  dup3\n  mload\n  dup3\n  swap1\n  0xff\n  and\n  swap1\n  sstore\n  swap2\n  0x20\n  add\n  swap2\n  swap1\n  0x01\n  add\n  swap1\n  jump(tag_6)\ntag_7:\ntag_5:\n  pop\n  swap1\n  pop\n  tag_8\n  swap2\n  swap1\n  tag_9\n  jump\t// in\ntag_8:\n  pop\n  swap1\n  jump\t// out\ntag_9:\ntag_10:\n  dup1\n  dup3\n  gt\n  iszero\n  tag_11\n  jumpi\n  0x00\n  dup2\n  0x00\n  swap1\n  sstore\n  pop\n  0x01\n  add\n  jump(tag_10)\ntag_11:\n  pop\n  swap1\n  jump\t// out\ntag_4:\n  dataSize(sub_0)\n  dup1\n  dataOffset(sub_0)\n  0x00\n  codecopy\n  0x00\n  return\nstop\n\nsub_0: assembly {\n        /* \"contracts/Solidity Advance part=1/3.MemoryVsStorage.sol\":70:515  contract demo{... */\n      mstore(0x40, 0x80)\n      callvalue\n      dup1\n      iszero\n      tag_1\n      jumpi\n      0x00\n      dup1\n      revert\n    tag_1:\n      pop\n      jumpi(tag_2, lt(calldatasize, 0x04))\n      shr(0xe0, calldataload(0x00))\n      dup1\n      0x4dd99c1b\n      eq\n      tag_3\n      jumpi\n      dup1\n      0x71e5ee5f\n      eq\n      tag_4\n      jumpi\n      dup1\n      0xe97c1741\n      eq\n      tag_5\n      jumpi\n    tag_2:\n      0x00\n      dup1\n      revert\n        /* \"contracts/Solidity Advance part=1/3.MemoryVsStorage.sol\":327:513  function storagearr()public{... */\n    tag_3:\n      tag_6\n      tag_7\n      jump\t// in\n    tag_6:\n      stop\n        /* \"contracts/Solidity Advance part=1/3.MemoryVsStorage.sol\":90:119  uint[3] public arr=[10,20,30] */\n    tag_4:\n      tag_8\n      0x04\n      dup1\n      calldatasize\n      sub\n      dup2\n      add\n      swap1\n      tag_9\n      swap2\n      swap1\n      tag_10\n      jump\t// in\n    tag_9:\n      tag_11\n      jump\t// in\n    tag_8:\n      mload(0x40)\n      tag_12\n      swap2\n      swap1\n      tag_13\n      jump\t// in\n    tag_12:\n      mload(0x40)\n      dup1\n      swap2\n      sub\n      swap1\n      return\n        /* \"contracts/Solidity Advance part=1/3.MemoryVsStorage.sol\":125:321  function memoryarr(uint[3] memory memoryArray)public view {//Note=use of View ... */\n    tag_5:\n      tag_14\n      0x04\n      dup1\n      calldatasize\n      sub\n      dup2\n      add\n      swap1\n      tag_15\n      swap2\n      swap1\n      tag_16\n      jump\t// in\n    tag_15:\n      tag_17\n      jump\t// in\n    tag_14:\n      stop\n        /* \"contracts/Solidity Advance part=1/3.MemoryVsStorage.sol\":327:513  function storagearr()public{... */\n    tag_7:\n        /* \"contracts/Solidity Advance part=1/3.MemoryVsStorage.sol\":389:417  uint[3] storage storageArray */\n      0x00\n        /* \"contracts/Solidity Advance part=1/3.MemoryVsStorage.sol\":504:506  90 */\n      0x5a\n        /* \"contracts/Solidity Advance part=1/3.MemoryVsStorage.sol\":488:500  storageArray */\n      dup2\n        /* \"contracts/Solidity Advance part=1/3.MemoryVsStorage.sol\":501:502  2 */\n      0x02\n        /* \"contracts/Solidity Advance part=1/3.MemoryVsStorage.sol\":488:503  storageArray[2] */\n      0x03\n      dup2\n      lt\n      tag_19\n      jumpi\n      tag_20\n      tag_21\n      jump\t// in\n    tag_20:\n    tag_19:\n      add\n        /* \"contracts/Solidity Advance part=1/3.MemoryVsStorage.sol\":488:506  storageArray[2]=90 */\n      dup2\n      swap1\n      sstore\n      pop\n        /* \"contracts/Solidity Advance part=1/3.MemoryVsStorage.sol\":354:513  {... */\n      pop\n        /* \"contracts/Solidity Advance part=1/3.MemoryVsStorage.sol\":327:513  function storagearr()public{... */\n      jump\t// out\n        /* \"contracts/Solidity Advance part=1/3.MemoryVsStorage.sol\":90:119  uint[3] public arr=[10,20,30] */\n    tag_11:\n      0x00\n      dup2\n      0x03\n      dup2\n      lt\n      tag_23\n      jumpi\n      0x00\n      dup1\n      revert\n    tag_23:\n      add\n      0x00\n      swap2\n      pop\n      swap1\n      pop\n      sload\n      dup2\n      jump\t// out\n        /* \"contracts/Solidity Advance part=1/3.MemoryVsStorage.sol\":125:321  function memoryarr(uint[3] memory memoryArray)public view {//Note=use of View ... */\n    tag_17:\n        /* \"contracts/Solidity Advance part=1/3.MemoryVsStorage.sol\":284:287  arr */\n      0x00\n        /* \"contracts/Solidity Advance part=1/3.MemoryVsStorage.sol\":270:287  memoryArray = arr */\n      0x03\n      dup1\n      0x20\n      mul\n      mload(0x40)\n      swap1\n      dup2\n      add\n      0x40\n      mstore\n      dup1\n      swap3\n      swap2\n      swap1\n      dup3\n      0x03\n      dup1\n      iszero\n      tag_26\n      jumpi\n      0x20\n      mul\n      dup3\n      add\n      swap2\n    tag_27:\n      dup2\n      sload\n      dup2\n      mstore\n      0x20\n      add\n      swap1\n      0x01\n      add\n      swap1\n      dup1\n      dup4\n      gt\n      tag_27\n      jumpi\n    tag_26:\n      pop\n      pop\n      pop\n      pop\n      pop\n      swap1\n      pop\n        /* \"contracts/Solidity Advance part=1/3.MemoryVsStorage.sol\":312:314  90 */\n      0x5a\n        /* \"contracts/Solidity Advance part=1/3.MemoryVsStorage.sol\":297:308  memoryArray */\n      dup2\n        /* \"contracts/Solidity Advance part=1/3.MemoryVsStorage.sol\":309:310  2 */\n      0x02\n        /* \"contracts/Solidity Advance part=1/3.MemoryVsStorage.sol\":297:311  memoryArray[2] */\n      0x03\n      dup2\n      lt\n      tag_28\n      jumpi\n      tag_29\n      tag_21\n      jump\t// in\n    tag_29:\n    tag_28:\n      0x20\n      mul\n      add\n        /* \"contracts/Solidity Advance part=1/3.MemoryVsStorage.sol\":297:314  memoryArray[2]=90 */\n      dup2\n      dup2\n      mstore\n      pop\n      pop\n        /* \"contracts/Solidity Advance part=1/3.MemoryVsStorage.sol\":125:321  function memoryarr(uint[3] memory memoryArray)public view {//Note=use of View ... */\n      pop\n      jump\t// out\n        /* \"#utility.yul\":7:82   */\n    tag_30:\n        /* \"#utility.yul\":40:46   */\n      0x00\n        /* \"#utility.yul\":73:75   */\n      0x40\n        /* \"#utility.yul\":67:76   */\n      mload\n        /* \"#utility.yul\":57:76   */\n      swap1\n      pop\n        /* \"#utility.yul\":7:82   */\n      swap1\n      jump\t// out\n        /* \"#utility.yul\":88:205   */\n    tag_31:\n        /* \"#utility.yul\":197:198   */\n      0x00\n        /* \"#utility.yul\":194:195   */\n      dup1\n        /* \"#utility.yul\":187:199   */\n      revert\n        /* \"#utility.yul\":334:411   */\n    tag_33:\n        /* \"#utility.yul\":371:378   */\n      0x00\n        /* \"#utility.yul\":400:405   */\n      dup2\n        /* \"#utility.yul\":389:405   */\n      swap1\n      pop\n        /* \"#utility.yul\":334:411   */\n      swap2\n      swap1\n      pop\n      jump\t// out\n        /* \"#utility.yul\":417:539   */\n    tag_34:\n        /* \"#utility.yul\":490:514   */\n      tag_52\n        /* \"#utility.yul\":508:513   */\n      dup2\n        /* \"#utility.yul\":490:514   */\n      tag_33\n      jump\t// in\n    tag_52:\n        /* \"#utility.yul\":483:488   */\n      dup2\n        /* \"#utility.yul\":480:515   */\n      eq\n        /* \"#utility.yul\":470:533   */\n      tag_53\n      jumpi\n        /* \"#utility.yul\":529:530   */\n      0x00\n        /* \"#utility.yul\":526:527   */\n      dup1\n        /* \"#utility.yul\":519:531   */\n      revert\n        /* \"#utility.yul\":470:533   */\n    tag_53:\n        /* \"#utility.yul\":417:539   */\n      pop\n      jump\t// out\n        /* \"#utility.yul\":545:684   */\n    tag_35:\n        /* \"#utility.yul\":591:596   */\n      0x00\n        /* \"#utility.yul\":629:635   */\n      dup2\n        /* \"#utility.yul\":616:636   */\n      calldataload\n        /* \"#utility.yul\":607:636   */\n      swap1\n      pop\n        /* \"#utility.yul\":645:678   */\n      tag_55\n        /* \"#utility.yul\":672:677   */\n      dup2\n        /* \"#utility.yul\":645:678   */\n      tag_34\n      jump\t// in\n    tag_55:\n        /* \"#utility.yul\":545:684   */\n      swap3\n      swap2\n      pop\n      pop\n      jump\t// out\n        /* \"#utility.yul\":690:1019   */\n    tag_10:\n        /* \"#utility.yul\":749:755   */\n      0x00\n        /* \"#utility.yul\":798:800   */\n      0x20\n        /* \"#utility.yul\":786:795   */\n      dup3\n        /* \"#utility.yul\":777:784   */\n      dup5\n        /* \"#utility.yul\":773:796   */\n      sub\n        /* \"#utility.yul\":769:801   */\n      slt\n        /* \"#utility.yul\":766:885   */\n      iszero\n      tag_57\n      jumpi\n        /* \"#utility.yul\":804:883   */\n      tag_58\n      tag_31\n      jump\t// in\n    tag_58:\n        /* \"#utility.yul\":766:885   */\n    tag_57:\n        /* \"#utility.yul\":924:925   */\n      0x00\n        /* \"#utility.yul\":949:1002   */\n      tag_59\n        /* \"#utility.yul\":994:1001   */\n      dup5\n        /* \"#utility.yul\":985:991   */\n      dup3\n        /* \"#utility.yul\":974:983   */\n      dup6\n        /* \"#utility.yul\":970:992   */\n      add\n        /* \"#utility.yul\":949:1002   */\n      tag_35\n      jump\t// in\n    tag_59:\n        /* \"#utility.yul\":939:1002   */\n      swap2\n      pop\n        /* \"#utility.yul\":895:1012   */\n      pop\n        /* \"#utility.yul\":690:1019   */\n      swap3\n      swap2\n      pop\n      pop\n      jump\t// out\n        /* \"#utility.yul\":1025:1143   */\n    tag_36:\n        /* \"#utility.yul\":1112:1136   */\n      tag_61\n        /* \"#utility.yul\":1130:1135   */\n      dup2\n        /* \"#utility.yul\":1112:1136   */\n      tag_33\n      jump\t// in\n    tag_61:\n        /* \"#utility.yul\":1107:1110   */\n      dup3\n        /* \"#utility.yul\":1100:1137   */\n      mstore\n        /* \"#utility.yul\":1025:1143   */\n      pop\n      pop\n      jump\t// out\n        /* \"#utility.yul\":1149:1371   */\n    tag_13:\n        /* \"#utility.yul\":1242:1246   */\n      0x00\n        /* \"#utility.yul\":1280:1282   */\n      0x20\n        /* \"#utility.yul\":1269:1278   */\n      dup3\n        /* \"#utility.yul\":1265:1283   */\n      add\n        /* \"#utility.yul\":1257:1283   */\n      swap1\n      pop\n        /* \"#utility.yul\":1293:1364   */\n      tag_63\n        /* \"#utility.yul\":1361:1362   */\n      0x00\n        /* \"#utility.yul\":1350:1359   */\n      dup4\n        /* \"#utility.yul\":1346:1363   */\n      add\n        /* \"#utility.yul\":1337:1343   */\n      dup5\n        /* \"#utility.yul\":1293:1364   */\n      tag_36\n      jump\t// in\n    tag_63:\n        /* \"#utility.yul\":1149:1371   */\n      swap3\n      swap2\n      pop\n      pop\n      jump\t// out\n        /* \"#utility.yul\":1377:1494   */\n    tag_37:\n        /* \"#utility.yul\":1486:1487   */\n      0x00\n        /* \"#utility.yul\":1483:1484   */\n      dup1\n        /* \"#utility.yul\":1476:1488   */\n      revert\n        /* \"#utility.yul\":1500:1602   */\n    tag_38:\n        /* \"#utility.yul\":1541:1547   */\n      0x00\n        /* \"#utility.yul\":1592:1594   */\n      0x1f\n        /* \"#utility.yul\":1588:1595   */\n      not\n        /* \"#utility.yul\":1583:1585   */\n      0x1f\n        /* \"#utility.yul\":1576:1581   */\n      dup4\n        /* \"#utility.yul\":1572:1586   */\n      add\n        /* \"#utility.yul\":1568:1596   */\n      and\n        /* \"#utility.yul\":1558:1596   */\n      swap1\n      pop\n        /* \"#utility.yul\":1500:1602   */\n      swap2\n      swap1\n      pop\n      jump\t// out\n        /* \"#utility.yul\":1608:1788   */\n    tag_39:\n        /* \"#utility.yul\":1656:1733   */\n      0x4e487b7100000000000000000000000000000000000000000000000000000000\n        /* \"#utility.yul\":1653:1654   */\n      0x00\n        /* \"#utility.yul\":1646:1734   */\n      mstore\n        /* \"#utility.yul\":1753:1757   */\n      0x41\n        /* \"#utility.yul\":1750:1751   */\n      0x04\n        /* \"#utility.yul\":1743:1758   */\n      mstore\n        /* \"#utility.yul\":1777:1781   */\n      0x24\n        /* \"#utility.yul\":1774:1775   */\n      0x00\n        /* \"#utility.yul\":1767:1782   */\n      revert\n        /* \"#utility.yul\":1794:2075   */\n    tag_40:\n        /* \"#utility.yul\":1877:1904   */\n      tag_68\n        /* \"#utility.yul\":1899:1903   */\n      dup3\n        /* \"#utility.yul\":1877:1904   */\n      tag_38\n      jump\t// in\n    tag_68:\n        /* \"#utility.yul\":1869:1875   */\n      dup2\n        /* \"#utility.yul\":1865:1905   */\n      add\n        /* \"#utility.yul\":2007:2013   */\n      dup2\n        /* \"#utility.yul\":1995:2005   */\n      dup2\n        /* \"#utility.yul\":1992:2014   */\n      lt\n        /* \"#utility.yul\":1971:1989   */\n      0xffffffffffffffff\n        /* \"#utility.yul\":1959:1969   */\n      dup3\n        /* \"#utility.yul\":1956:1990   */\n      gt\n        /* \"#utility.yul\":1953:2015   */\n      or\n        /* \"#utility.yul\":1950:2038   */\n      iszero\n      tag_69\n      jumpi\n        /* \"#utility.yul\":2018:2036   */\n      tag_70\n      tag_39\n      jump\t// in\n    tag_70:\n        /* \"#utility.yul\":1950:2038   */\n    tag_69:\n        /* \"#utility.yul\":2058:2068   */\n      dup1\n        /* \"#utility.yul\":2054:2056   */\n      0x40\n        /* \"#utility.yul\":2047:2069   */\n      mstore\n        /* \"#utility.yul\":1837:2075   */\n      pop\n        /* \"#utility.yul\":1794:2075   */\n      pop\n      pop\n      jump\t// out\n        /* \"#utility.yul\":2081:2210   */\n    tag_41:\n        /* \"#utility.yul\":2115:2121   */\n      0x00\n        /* \"#utility.yul\":2142:2162   */\n      tag_72\n      tag_30\n      jump\t// in\n    tag_72:\n        /* \"#utility.yul\":2132:2162   */\n      swap1\n      pop\n        /* \"#utility.yul\":2171:2204   */\n      tag_73\n        /* \"#utility.yul\":2199:2203   */\n      dup3\n        /* \"#utility.yul\":2191:2197   */\n      dup3\n        /* \"#utility.yul\":2171:2204   */\n      tag_40\n      jump\t// in\n    tag_73:\n        /* \"#utility.yul\":2081:2210   */\n      swap2\n      swap1\n      pop\n      jump\t// out\n        /* \"#utility.yul\":2216:2465   */\n    tag_42:\n        /* \"#utility.yul\":2291:2295   */\n      0x00\n        /* \"#utility.yul\":2381:2399   */\n      0xffffffffffffffff\n        /* \"#utility.yul\":2373:2379   */\n      dup3\n        /* \"#utility.yul\":2370:2400   */\n      gt\n        /* \"#utility.yul\":2367:2423   */\n      iszero\n      tag_75\n      jumpi\n        /* \"#utility.yul\":2403:2421   */\n      tag_76\n      tag_39\n      jump\t// in\n    tag_76:\n        /* \"#utility.yul\":2367:2423   */\n    tag_75:\n        /* \"#utility.yul\":2453:2457   */\n      0x20\n        /* \"#utility.yul\":2445:2451   */\n      dup3\n        /* \"#utility.yul\":2441:2458   */\n      mul\n        /* \"#utility.yul\":2433:2458   */\n      swap1\n      pop\n        /* \"#utility.yul\":2216:2465   */\n      swap2\n      swap1\n      pop\n      jump\t// out\n        /* \"#utility.yul\":2471:2588   */\n    tag_43:\n        /* \"#utility.yul\":2580:2581   */\n      0x00\n        /* \"#utility.yul\":2577:2578   */\n      dup1\n        /* \"#utility.yul\":2570:2582   */\n      revert\n        /* \"#utility.yul\":2612:3255   */\n    tag_44:\n        /* \"#utility.yul\":2706:2711   */\n      0x00\n        /* \"#utility.yul\":2731:2810   */\n      tag_79\n        /* \"#utility.yul\":2747:2809   */\n      tag_80\n        /* \"#utility.yul\":2802:2808   */\n      dup5\n        /* \"#utility.yul\":2747:2809   */\n      tag_42\n      jump\t// in\n    tag_80:\n        /* \"#utility.yul\":2731:2810   */\n      tag_41\n      jump\t// in\n    tag_79:\n        /* \"#utility.yul\":2722:2810   */\n      swap1\n      pop\n        /* \"#utility.yul\":2830:2835   */\n      dup1\n        /* \"#utility.yul\":2883:2887   */\n      0x20\n        /* \"#utility.yul\":2875:2881   */\n      dup5\n        /* \"#utility.yul\":2871:2888   */\n      mul\n        /* \"#utility.yul\":2863:2869   */\n      dup4\n        /* \"#utility.yul\":2859:2889   */\n      add\n        /* \"#utility.yul\":2912:2915   */\n      dup6\n        /* \"#utility.yul\":2904:2910   */\n      dup2\n        /* \"#utility.yul\":2901:2916   */\n      gt\n        /* \"#utility.yul\":2898:3020   */\n      iszero\n      tag_81\n      jumpi\n        /* \"#utility.yul\":2931:3010   */\n      tag_82\n      tag_43\n      jump\t// in\n    tag_82:\n        /* \"#utility.yul\":2898:3020   */\n    tag_81:\n        /* \"#utility.yul\":3046:3052   */\n      dup4\n        /* \"#utility.yul\":3029:3249   */\n    tag_83:\n        /* \"#utility.yul\":3063:3069   */\n      dup2\n        /* \"#utility.yul\":3058:3061   */\n      dup2\n        /* \"#utility.yul\":3055:3070   */\n      lt\n        /* \"#utility.yul\":3029:3249   */\n      iszero\n      tag_85\n      jumpi\n        /* \"#utility.yul\":3138:3141   */\n      dup1\n        /* \"#utility.yul\":3167:3204   */\n      tag_86\n        /* \"#utility.yul\":3200:3203   */\n      dup9\n        /* \"#utility.yul\":3188:3198   */\n      dup3\n        /* \"#utility.yul\":3167:3204   */\n      tag_35\n      jump\t// in\n    tag_86:\n        /* \"#utility.yul\":3162:3165   */\n      dup5\n        /* \"#utility.yul\":3155:3205   */\n      mstore\n        /* \"#utility.yul\":3234:3238   */\n      0x20\n        /* \"#utility.yul\":3229:3232   */\n      dup5\n        /* \"#utility.yul\":3225:3239   */\n      add\n        /* \"#utility.yul\":3218:3239   */\n      swap4\n      pop\n        /* \"#utility.yul\":3105:3249   */\n      pop\n        /* \"#utility.yul\":3089:3093   */\n      0x20\n        /* \"#utility.yul\":3084:3087   */\n      dup2\n        /* \"#utility.yul\":3080:3094   */\n      add\n        /* \"#utility.yul\":3073:3094   */\n      swap1\n      pop\n        /* \"#utility.yul\":3029:3249   */\n      jump(tag_83)\n    tag_85:\n        /* \"#utility.yul\":3033:3054   */\n      pop\n        /* \"#utility.yul\":2712:3255   */\n      pop\n      pop\n        /* \"#utility.yul\":2612:3255   */\n      swap4\n      swap3\n      pop\n      pop\n      pop\n      jump\t// out\n        /* \"#utility.yul\":3279:3618   */\n    tag_45:\n        /* \"#utility.yul\":3348:3353   */\n      0x00\n        /* \"#utility.yul\":3397:3400   */\n      dup3\n        /* \"#utility.yul\":3390:3394   */\n      0x1f\n        /* \"#utility.yul\":3382:3388   */\n      dup4\n        /* \"#utility.yul\":3378:3395   */\n      add\n        /* \"#utility.yul\":3374:3401   */\n      slt\n        /* \"#utility.yul\":3364:3486   */\n      tag_88\n      jumpi\n        /* \"#utility.yul\":3405:3484   */\n      tag_89\n      tag_37\n      jump\t// in\n    tag_89:\n        /* \"#utility.yul\":3364:3486   */\n    tag_88:\n        /* \"#utility.yul\":3509:3513   */\n      0x03\n        /* \"#utility.yul\":3531:3612   */\n      tag_90\n        /* \"#utility.yul\":3608:3611   */\n      dup5\n        /* \"#utility.yul\":3600:3606   */\n      dup3\n        /* \"#utility.yul\":3592:3598   */\n      dup6\n        /* \"#utility.yul\":3531:3612   */\n      tag_44\n      jump\t// in\n    tag_90:\n        /* \"#utility.yul\":3522:3612   */\n      swap2\n      pop\n        /* \"#utility.yul\":3354:3618   */\n      pop\n        /* \"#utility.yul\":3279:3618   */\n      swap3\n      swap2\n      pop\n      pop\n      jump\t// out\n        /* \"#utility.yul\":3624:3999   */\n    tag_16:\n        /* \"#utility.yul\":3706:3712   */\n      0x00\n        /* \"#utility.yul\":3755:3757   */\n      0x60\n        /* \"#utility.yul\":3743:3752   */\n      dup3\n        /* \"#utility.yul\":3734:3741   */\n      dup5\n        /* \"#utility.yul\":3730:3753   */\n      sub\n        /* \"#utility.yul\":3726:3758   */\n      slt\n        /* \"#utility.yul\":3723:3842   */\n      iszero\n      tag_92\n      jumpi\n        /* \"#utility.yul\":3761:3840   */\n      tag_93\n      tag_31\n      jump\t// in\n    tag_93:\n        /* \"#utility.yul\":3723:3842   */\n    tag_92:\n        /* \"#utility.yul\":3881:3882   */\n      0x00\n        /* \"#utility.yul\":3906:3982   */\n      tag_94\n        /* \"#utility.yul\":3974:3981   */\n      dup5\n        /* \"#utility.yul\":3965:3971   */\n      dup3\n        /* \"#utility.yul\":3954:3963   */\n      dup6\n        /* \"#utility.yul\":3950:3972   */\n      add\n        /* \"#utility.yul\":3906:3982   */\n      tag_45\n      jump\t// in\n    tag_94:\n        /* \"#utility.yul\":3896:3982   */\n      swap2\n      pop\n        /* \"#utility.yul\":3852:3992   */\n      pop\n        /* \"#utility.yul\":3624:3999   */\n      swap3\n      swap2\n      pop\n      pop\n      jump\t// out\n        /* \"#utility.yul\":4005:4185   */\n    tag_21:\n        /* \"#utility.yul\":4053:4130   */\n      0x4e487b7100000000000000000000000000000000000000000000000000000000\n        /* \"#utility.yul\":4050:4051   */\n      0x00\n        /* \"#utility.yul\":4043:4131   */\n      mstore\n        /* \"#utility.yul\":4150:4154   */\n      0x32\n        /* \"#utility.yul\":4147:4148   */\n      0x04\n        /* \"#utility.yul\":4140:4155   */\n      mstore\n        /* \"#utility.yul\":4174:4178   */\n      0x24\n        /* \"#utility.yul\":4171:4172   */\n      0x00\n        /* \"#utility.yul\":4164:4179   */\n      revert\n\n    auxdata: 0xa264697066735822122023a2679126fc84b0d995233a3d8a9db356ffd39bc189761be3c1691bad3301f764736f6c63430008120033\n}\n",
				"bytecode": {
					"linkReferences": {},
					"object": "60806040526040518060600160405280600a60ff168152602001601460ff168152602001601e60ff16815250600090600361003b92919061004e565b5034801561004857600080fd5b506100b0565b8260038101928215610082579160200282015b82811115610081578251829060ff16905591602001919060010190610061565b5b50905061008f9190610093565b5090565b5b808211156100ac576000816000905550600101610094565b5090565b6103ae806100bf6000396000f3fe608060405234801561001057600080fd5b50600436106100415760003560e01c80634dd99c1b1461004657806371e5ee5f14610050578063e97c174114610080575b600080fd5b61004e61009c565b005b61006a6004803603810190610065919061017e565b6100bc565b60405161007791906101ba565b60405180910390f35b61009a6004803603810190610095919061031c565b6100d7565b005b6000605a816002600381106100b4576100b3610349565b5b018190555050565b600081600381106100cc57600080fd5b016000915090505481565b6000600380602002604051908101604052809291908260038015610110576020028201915b8154815260200190600101908083116100fc575b50505050509050605a8160026003811061012d5761012c610349565b5b60200201818152505050565b6000604051905090565b600080fd5b6000819050919050565b61015b81610148565b811461016657600080fd5b50565b60008135905061017881610152565b92915050565b60006020828403121561019457610193610143565b5b60006101a284828501610169565b91505092915050565b6101b481610148565b82525050565b60006020820190506101cf60008301846101ab565b92915050565b600080fd5b6000601f19601f8301169050919050565b7f4e487b7100000000000000000000000000000000000000000000000000000000600052604160045260246000fd5b610223826101da565b810181811067ffffffffffffffff82111715610242576102416101eb565b5b80604052505050565b6000610255610139565b9050610261828261021a565b919050565b600067ffffffffffffffff821115610281576102806101eb565b5b602082029050919050565b600080fd5b60006102a461029f84610266565b61024b565b905080602084028301858111156102be576102bd61028c565b5b835b818110156102e757806102d38882610169565b8452602084019350506020810190506102c0565b5050509392505050565b600082601f830112610306576103056101d5565b5b6003610313848285610291565b91505092915050565b60006060828403121561033257610331610143565b5b6000610340848285016102f1565b91505092915050565b7f4e487b7100000000000000000000000000000000000000000000000000000000600052603260045260246000fdfea264697066735822122023a2679126fc84b0d995233a3d8a9db356ffd39bc189761be3c1691bad3301f764736f6c63430008120033",
					"opcodes": "PUSH1 0x80 PUSH1 0x40 MSTORE PUSH1 0x40 MLOAD DUP1 PUSH1 0x60 ADD PUSH1 0x40 MSTORE DUP1 PUSH1 0xA PUSH1 0xFF AND DUP2 MSTORE PUSH1 0x20 ADD PUSH1 0x14 PUSH1 0xFF AND DUP2 MSTORE PUSH1 0x20 ADD PUSH1 0x1E PUSH1 0xFF AND DUP2 MSTORE POP PUSH1 0x0 SWAP1 PUSH1 0x3 PUSH2 0x3B SWAP3 SWAP2 SWAP1 PUSH2 0x4E JUMP JUMPDEST POP CALLVALUE DUP1 ISZERO PUSH2 0x48 JUMPI PUSH1 0x0 DUP1 REVERT JUMPDEST POP PUSH2 0xB0 JUMP JUMPDEST DUP3 PUSH1 0x3 DUP2 ADD SWAP3 DUP3 ISZERO PUSH2 0x82 JUMPI SWAP2 PUSH1 0x20 MUL DUP3 ADD JUMPDEST DUP3 DUP2 GT ISZERO PUSH2 0x81 JUMPI DUP3 MLOAD DUP3 SWAP1 PUSH1 0xFF AND SWAP1 SSTORE SWAP2 PUSH1 0x20 ADD SWAP2 SWAP1 PUSH1 0x1 ADD SWAP1 PUSH2 0x61 JUMP JUMPDEST JUMPDEST POP SWAP1 POP PUSH2 0x8F SWAP2 SWAP1 PUSH2 0x93 JUMP JUMPDEST POP SWAP1 JUMP JUMPDEST JUMPDEST DUP1 DUP3 GT ISZERO PUSH2 0xAC JUMPI PUSH1 0x0 DUP2 PUSH1 0x0 SWAP1 SSTORE POP PUSH1 0x1 ADD PUSH2 0x94 JUMP JUMPDEST POP SWAP1 JUMP JUMPDEST PUSH2 0x3AE DUP1 PUSH2 0xBF PUSH1 0x0 CODECOPY PUSH1 0x0 RETURN INVALID PUSH1 0x80 PUSH1 0x40 MSTORE CALLVALUE DUP1 ISZERO PUSH2 0x10 JUMPI PUSH1 0x0 DUP1 REVERT JUMPDEST POP PUSH1 0x4 CALLDATASIZE LT PUSH2 0x41 JUMPI PUSH1 0x0 CALLDATALOAD PUSH1 0xE0 SHR DUP1 PUSH4 0x4DD99C1B EQ PUSH2 0x46 JUMPI DUP1 PUSH4 0x71E5EE5F EQ PUSH2 0x50 JUMPI DUP1 PUSH4 0xE97C1741 EQ PUSH2 0x80 JUMPI JUMPDEST PUSH1 0x0 DUP1 REVERT JUMPDEST PUSH2 0x4E PUSH2 0x9C JUMP JUMPDEST STOP JUMPDEST PUSH2 0x6A PUSH1 0x4 DUP1 CALLDATASIZE SUB DUP2 ADD SWAP1 PUSH2 0x65 SWAP2 SWAP1 PUSH2 0x17E JUMP JUMPDEST PUSH2 0xBC JUMP JUMPDEST PUSH1 0x40 MLOAD PUSH2 0x77 SWAP2 SWAP1 PUSH2 0x1BA JUMP JUMPDEST PUSH1 0x40 MLOAD DUP1 SWAP2 SUB SWAP1 RETURN JUMPDEST PUSH2 0x9A PUSH1 0x4 DUP1 CALLDATASIZE SUB DUP2 ADD SWAP1 PUSH2 0x95 SWAP2 SWAP1 PUSH2 0x31C JUMP JUMPDEST PUSH2 0xD7 JUMP JUMPDEST STOP JUMPDEST PUSH1 0x0 PUSH1 0x5A DUP2 PUSH1 0x2 PUSH1 0x3 DUP2 LT PUSH2 0xB4 JUMPI PUSH2 0xB3 PUSH2 0x349 JUMP JUMPDEST JUMPDEST ADD DUP2 SWAP1 SSTORE POP POP JUMP JUMPDEST PUSH1 0x0 DUP2 PUSH1 0x3 DUP2 LT PUSH2 0xCC JUMPI PUSH1 0x0 DUP1 REVERT JUMPDEST ADD PUSH1 0x0 SWAP2 POP SWAP1 POP SLOAD DUP2 JUMP JUMPDEST PUSH1 0x0 PUSH1 0x3 DUP1 PUSH1 0x20 MUL PUSH1 0x40 MLOAD SWAP1 DUP2 ADD PUSH1 0x40 MSTORE DUP1 SWAP3 SWAP2 SWAP1 DUP3 PUSH1 0x3 DUP1 ISZERO PUSH2 0x110 JUMPI PUSH1 0x20 MUL DUP3 ADD SWAP2 JUMPDEST DUP2 SLOAD DUP2 MSTORE PUSH1 0x20 ADD SWAP1 PUSH1 0x1 ADD SWAP1 DUP1 DUP4 GT PUSH2 0xFC JUMPI JUMPDEST POP POP POP POP POP SWAP1 POP PUSH1 0x5A DUP2 PUSH1 0x2 PUSH1 0x3 DUP2 LT PUSH2 0x12D JUMPI PUSH2 0x12C PUSH2 0x349 JUMP JUMPDEST JUMPDEST PUSH1 0x20 MUL ADD DUP2 DUP2 MSTORE POP POP POP JUMP JUMPDEST PUSH1 0x0 PUSH1 0x40 MLOAD SWAP1 POP SWAP1 JUMP JUMPDEST PUSH1 0x0 DUP1 REVERT JUMPDEST PUSH1 0x0 DUP2 SWAP1 POP SWAP2 SWAP1 POP JUMP JUMPDEST PUSH2 0x15B DUP2 PUSH2 0x148 JUMP JUMPDEST DUP2 EQ PUSH2 0x166 JUMPI PUSH1 0x0 DUP1 REVERT JUMPDEST POP JUMP JUMPDEST PUSH1 0x0 DUP2 CALLDATALOAD SWAP1 POP PUSH2 0x178 DUP2 PUSH2 0x152 JUMP JUMPDEST SWAP3 SWAP2 POP POP JUMP JUMPDEST PUSH1 0x0 PUSH1 0x20 DUP3 DUP5 SUB SLT ISZERO PUSH2 0x194 JUMPI PUSH2 0x193 PUSH2 0x143 JUMP JUMPDEST JUMPDEST PUSH1 0x0 PUSH2 0x1A2 DUP5 DUP3 DUP6 ADD PUSH2 0x169 JUMP JUMPDEST SWAP2 POP POP SWAP3 SWAP2 POP POP JUMP JUMPDEST PUSH2 0x1B4 DUP2 PUSH2 0x148 JUMP JUMPDEST DUP3 MSTORE POP POP JUMP JUMPDEST PUSH1 0x0 PUSH1 0x20 DUP3 ADD SWAP1 POP PUSH2 0x1CF PUSH1 0x0 DUP4 ADD DUP5 PUSH2 0x1AB JUMP JUMPDEST SWAP3 SWAP2 POP POP JUMP JUMPDEST PUSH1 0x0 DUP1 REVERT JUMPDEST PUSH1 0x0 PUSH1 0x1F NOT PUSH1 0x1F DUP4 ADD AND SWAP1 POP SWAP2 SWAP1 POP JUMP JUMPDEST PUSH32 0x4E487B7100000000000000000000000000000000000000000000000000000000 PUSH1 0x0 MSTORE PUSH1 0x41 PUSH1 0x4 MSTORE PUSH1 0x24 PUSH1 0x0 REVERT JUMPDEST PUSH2 0x223 DUP3 PUSH2 0x1DA JUMP JUMPDEST DUP2 ADD DUP2 DUP2 LT PUSH8 0xFFFFFFFFFFFFFFFF DUP3 GT OR ISZERO PUSH2 0x242 JUMPI PUSH2 0x241 PUSH2 0x1EB JUMP JUMPDEST JUMPDEST DUP1 PUSH1 0x40 MSTORE POP POP POP JUMP JUMPDEST PUSH1 0x0 PUSH2 0x255 PUSH2 0x139 JUMP JUMPDEST SWAP1 POP PUSH2 0x261 DUP3 DUP3 PUSH2 0x21A JUMP JUMPDEST SWAP2 SWAP1 POP JUMP JUMPDEST PUSH1 0x0 PUSH8 0xFFFFFFFFFFFFFFFF DUP3 GT ISZERO PUSH2 0x281 JUMPI PUSH2 0x280 PUSH2 0x1EB JUMP JUMPDEST JUMPDEST PUSH1 0x20 DUP3 MUL SWAP1 POP SWAP2 SWAP1 POP JUMP JUMPDEST PUSH1 0x0 DUP1 REVERT JUMPDEST PUSH1 0x0 PUSH2 0x2A4 PUSH2 0x29F DUP5 PUSH2 0x266 JUMP JUMPDEST PUSH2 0x24B JUMP JUMPDEST SWAP1 POP DUP1 PUSH1 0x20 DUP5 MUL DUP4 ADD DUP6 DUP2 GT ISZERO PUSH2 0x2BE JUMPI PUSH2 0x2BD PUSH2 0x28C JUMP JUMPDEST JUMPDEST DUP4 JUMPDEST DUP2 DUP2 LT ISZERO PUSH2 0x2E7 JUMPI DUP1 PUSH2 0x2D3 DUP9 DUP3 PUSH2 0x169 JUMP JUMPDEST DUP5 MSTORE PUSH1 0x20 DUP5 ADD SWAP4 POP POP PUSH1 0x20 DUP2 ADD SWAP1 POP PUSH2 0x2C0 JUMP JUMPDEST POP POP POP SWAP4 SWAP3 POP POP POP JUMP JUMPDEST PUSH1 0x0 DUP3 PUSH1 0x1F DUP4 ADD SLT PUSH2 0x306 JUMPI PUSH2 0x305 PUSH2 0x1D5 JUMP JUMPDEST JUMPDEST PUSH1 0x3 PUSH2 0x313 DUP5 DUP3 DUP6 PUSH2 0x291 JUMP JUMPDEST SWAP2 POP POP SWAP3 SWAP2 POP POP JUMP JUMPDEST PUSH1 0x0 PUSH1 0x60 DUP3 DUP5 SUB SLT ISZERO PUSH2 0x332 JUMPI PUSH2 0x331 PUSH2 0x143 JUMP JUMPDEST JUMPDEST PUSH1 0x0 PUSH2 0x340 DUP5 DUP3 DUP6 ADD PUSH2 0x2F1 JUMP JUMPDEST SWAP2 POP POP SWAP3 SWAP2 POP POP JUMP JUMPDEST PUSH32 0x4E487B7100000000000000000000000000000000000000000000000000000000 PUSH1 0x0 MSTORE PUSH1 0x32 PUSH1 0x4 MSTORE PUSH1 0x24 PUSH1 0x0 REVERT INVALID LOG2 PUSH5 0x6970667358 0x22 SLT KECCAK256 0x23 LOG2 PUSH8 0x9126FC84B0D99523 GASPRICE RETURNDATASIZE DUP11 SWAP14 0xB3 JUMP SELFDESTRUCT 0xD3 SWAP12 0xC1 DUP10 PUSH23 0x1BE3C1691BAD3301F764736F6C63430008120033000000 "
				},
				"gasEstimates": {
					"creation": {
						"codeDepositCost": "188400",
						"executionCost": "infinite",
						"totalCost": "infinite"
					},
					"external": {
						"arr(uint256)": "infinite",
						"memoryarr(uint256[3])": "infinite",
						"storagearr()": "22270"
					}
				},
				"methodIdentifiers": {
					"arr(uint256)": "71e5ee5f",
					"memoryarr(uint256[3])": "e97c1741",
					"storagearr()": "4dd99c1b"
				}
			},
			"storageLayout": {
				"storage": [
					{
						"astId": 9,
						"contract": "contracts/Solidity Advance part=1/3.MemoryVsStorage.sol:demo",
						"label": "arr",
						"offset": 0,
						"slot": "0",
						"type": "t_array(t_uint256)3_storage"
					}
				],
				"types": {
					"t_array(t_uint256)3_storage": {
						"base": "t_uint256",
						"encoding": "inplace",
						"label": "uint256[3]",
						"numberOfBytes": "96"
					},
					"t_uint256": {
						"encoding": "inplace",
						"label": "uint256",
						"numberOfBytes": "32"
					}
				}
			},
			"userdoc": {
				"kind": "user",
				"methods": {},
				"version": 1
			}
		}
	}
}