{
	"data": {
		"bytecode": {
			"linkReferences": {},
			"object": "608060405234801561001057600080fd5b50610790806100206000396000f3fe608060405234801561001057600080fd5b50600436106100415760003560e01c80637230bce81461004657806386b714e214610062578063a7f4377914610081575b600080fd5b610060600480360381019061005b9190610362565b61008b565b005b61006a6100c8565b60405161007892919061044c565b60405180910390f35b610089610162565b005b604051806040016040528083815260200182815250600080820151816000015560208201518160010190816100c09190610688565b509050505050565b60008060000154908060010180546100df906104ab565b80601f016020809104026020016040519081016040528092919081815260200182805461010b906104ab565b80156101585780601f1061012d57610100808354040283529160200191610158565b820191906000526020600020905b81548152906001019060200180831161013b57829003601f168201915b5050505050905082565b600060010160006101739190610175565b565b508054610181906104ab565b6000825580601f1061019357506101b2565b601f0160209004906000526020600020908101906101b191906101b5565b5b50565b5b808211156101ce5760008160009055506001016101b6565b5090565b6000604051905090565b600080fd5b600080fd5b6000819050919050565b6101f9816101e6565b811461020457600080fd5b50565b600081359050610216816101f0565b92915050565b600080fd5b600080fd5b6000601f19601f8301169050919050565b7f4e487b7100000000000000000000000000000000000000000000000000000000600052604160045260246000fd5b61026f82610226565b810181811067ffffffffffffffff8211171561028e5761028d610237565b5b80604052505050565b60006102a16101d2565b90506102ad8282610266565b919050565b600067ffffffffffffffff8211156102cd576102cc610237565b5b6102d682610226565b9050602081019050919050565b82818337600083830152505050565b6000610305610300846102b2565b610297565b90508281526020810184848401111561032157610320610221565b5b61032c8482856102e3565b509392505050565b600082601f8301126103495761034861021c565b5b81356103598482602086016102f2565b91505092915050565b60008060408385031215610379576103786101dc565b5b600061038785828601610207565b925050602083013567ffffffffffffffff8111156103a8576103a76101e1565b5b6103b485828601610334565b9150509250929050565b6103c7816101e6565b82525050565b600081519050919050565b600082825260208201905092915050565b60005b838110156104075780820151818401526020810190506103ec565b60008484015250505050565b600061041e826103cd565b61042881856103d8565b93506104388185602086016103e9565b61044181610226565b840191505092915050565b600060408201905061046160008301856103be565b81810360208301526104738184610413565b90509392505050565b7f4e487b7100000000000000000000000000000000000000000000000000000000600052602260045260246000fd5b600060028204905060018216806104c357607f821691505b6020821081036104d6576104d561047c565b5b50919050565b60008190508160005260206000209050919050565b60006020601f8301049050919050565b600082821b905092915050565b60006008830261053e7fffffffffffffffffffffffffffffffffffffffffffffffffffffffffffffffff82610501565b6105488683610501565b95508019841693508086168417925050509392505050565b6000819050919050565b600061058561058061057b846101e6565b610560565b6101e6565b9050919050565b6000819050919050565b61059f8361056a565b6105b36105ab8261058c565b84845461050e565b825550505050565b600090565b6105c86105bb565b6105d3818484610596565b505050565b5b818110156105f7576105ec6000826105c0565b6001810190506105d9565b5050565b601f82111561063c5761060d816104dc565b610616846104f1565b81016020851015610625578190505b610639610631856104f1565b8301826105d8565b50505b505050565b600082821c905092915050565b600061065f60001984600802610641565b1980831691505092915050565b6000610678838361064e565b9150826002028217905092915050565b610691826103cd565b67ffffffffffffffff8111156106aa576106a9610237565b5b6106b482546104ab565b6106bf8282856105fb565b600060209050601f8311600181146106f257600084156106e0578287015190505b6106ea858261066c565b865550610752565b601f198416610700866104dc565b60005b8281101561072857848901518255600182019150602085019450602081019050610703565b868310156107455784890151610741601f89168261064e565b8355505b6001600288020188555050505b50505050505056fea264697066735822122041f55278980ec751ab76e8bd5c74d945e4e341ec1636cb66c73ba9d6a659b04764736f6c63430008120033",
			"opcodes": "PUSH1 0x80 PUSH1 0x40 MSTORE CALLVALUE DUP1 ISZERO PUSH2 0x10 JUMPI PUSH1 0x0 DUP1 REVERT JUMPDEST POP PUSH2 0x790 DUP1 PUSH2 0x20 PUSH1 0x0 CODECOPY PUSH1 0x0 RETURN INVALID PUSH1 0x80 PUSH1 0x40 MSTORE CALLVALUE DUP1 ISZERO PUSH2 0x10 JUMPI PUSH1 0x0 DUP1 REVERT JUMPDEST POP PUSH1 0x4 CALLDATASIZE LT PUSH2 0x41 JUMPI PUSH1 0x0 CALLDATALOAD PUSH1 0xE0 SHR DUP1 PUSH4 0x7230BCE8 EQ PUSH2 0x46 JUMPI DUP1 PUSH4 0x86B714E2 EQ PUSH2 0x62 JUMPI DUP1 PUSH4 0xA7F43779 EQ PUSH2 0x81 JUMPI JUMPDEST PUSH1 0x0 DUP1 REVERT JUMPDEST PUSH2 0x60 PUSH1 0x4 DUP1 CALLDATASIZE SUB DUP2 ADD SWAP1 PUSH2 0x5B SWAP2 SWAP1 PUSH2 0x362 JUMP JUMPDEST PUSH2 0x8B JUMP JUMPDEST STOP JUMPDEST PUSH2 0x6A PUSH2 0xC8 JUMP JUMPDEST PUSH1 0x40 MLOAD PUSH2 0x78 SWAP3 SWAP2 SWAP1 PUSH2 0x44C JUMP JUMPDEST PUSH1 0x40 MLOAD DUP1 SWAP2 SUB SWAP1 RETURN JUMPDEST PUSH2 0x89 PUSH2 0x162 JUMP JUMPDEST STOP JUMPDEST PUSH1 0x40 MLOAD DUP1 PUSH1 0x40 ADD PUSH1 0x40 MSTORE DUP1 DUP4 DUP2 MSTORE PUSH1 0x20 ADD DUP3 DUP2 MSTORE POP PUSH1 0x0 DUP1 DUP3 ADD MLOAD DUP2 PUSH1 0x0 ADD SSTORE PUSH1 0x20 DUP3 ADD MLOAD DUP2 PUSH1 0x1 ADD SWAP1 DUP2 PUSH2 0xC0 SWAP2 SWAP1 PUSH2 0x688 JUMP JUMPDEST POP SWAP1 POP POP POP POP JUMP JUMPDEST PUSH1 0x0 DUP1 PUSH1 0x0 ADD SLOAD SWAP1 DUP1 PUSH1 0x1 ADD DUP1 SLOAD PUSH2 0xDF SWAP1 PUSH2 0x4AB JUMP JUMPDEST DUP1 PUSH1 0x1F ADD PUSH1 0x20 DUP1 SWAP2 DIV MUL PUSH1 0x20 ADD PUSH1 0x40 MLOAD SWAP1 DUP2 ADD PUSH1 0x40 MSTORE DUP1 SWAP3 SWAP2 SWAP1 DUP2 DUP2 MSTORE PUSH1 0x20 ADD DUP3 DUP1 SLOAD PUSH2 0x10B SWAP1 PUSH2 0x4AB JUMP JUMPDEST DUP1 ISZERO PUSH2 0x158 JUMPI DUP1 PUSH1 0x1F LT PUSH2 0x12D JUMPI PUSH2 0x100 DUP1 DUP4 SLOAD DIV MUL DUP4 MSTORE SWAP2 PUSH1 0x20 ADD SWAP2 PUSH2 0x158 JUMP JUMPDEST DUP3 ADD SWAP2 SWAP1 PUSH1 0x0 MSTORE PUSH1 0x20 PUSH1 0x0 KECCAK256 SWAP1 JUMPDEST DUP2 SLOAD DUP2 MSTORE SWAP1 PUSH1 0x1 ADD SWAP1 PUSH1 0x20 ADD DUP1 DUP4 GT PUSH2 0x13B JUMPI DUP3 SWAP1 SUB PUSH1 0x1F AND DUP3 ADD SWAP2 JUMPDEST POP POP POP POP POP SWAP1 POP DUP3 JUMP JUMPDEST PUSH1 0x0 PUSH1 0x1 ADD PUSH1 0x0 PUSH2 0x173 SWAP2 SWAP1 PUSH2 0x175 JUMP JUMPDEST JUMP JUMPDEST POP DUP1 SLOAD PUSH2 0x181 SWAP1 PUSH2 0x4AB JUMP JUMPDEST PUSH1 0x0 DUP3 SSTORE DUP1 PUSH1 0x1F LT PUSH2 0x193 JUMPI POP PUSH2 0x1B2 JUMP JUMPDEST PUSH1 0x1F ADD PUSH1 0x20 SWAP1 DIV SWAP1 PUSH1 0x0 MSTORE PUSH1 0x20 PUSH1 0x0 KECCAK256 SWAP1 DUP2 ADD SWAP1 PUSH2 0x1B1 SWAP2 SWAP1 PUSH2 0x1B5 JUMP JUMPDEST JUMPDEST POP JUMP JUMPDEST JUMPDEST DUP1 DUP3 GT ISZERO PUSH2 0x1CE JUMPI PUSH1 0x0 DUP2 PUSH1 0x0 SWAP1 SSTORE POP PUSH1 0x1 ADD PUSH2 0x1B6 JUMP JUMPDEST POP SWAP1 JUMP JUMPDEST PUSH1 0x0 PUSH1 0x40 MLOAD SWAP1 POP SWAP1 JUMP JUMPDEST PUSH1 0x0 DUP1 REVERT JUMPDEST PUSH1 0x0 DUP1 REVERT JUMPDEST PUSH1 0x0 DUP2 SWAP1 POP SWAP2 SWAP1 POP JUMP JUMPDEST PUSH2 0x1F9 DUP2 PUSH2 0x1E6 JUMP JUMPDEST DUP2 EQ PUSH2 0x204 JUMPI PUSH1 0x0 DUP1 REVERT JUMPDEST POP JUMP JUMPDEST PUSH1 0x0 DUP2 CALLDATALOAD SWAP1 POP PUSH2 0x216 DUP2 PUSH2 0x1F0 JUMP JUMPDEST SWAP3 SWAP2 POP POP JUMP JUMPDEST PUSH1 0x0 DUP1 REVERT JUMPDEST PUSH1 0x0 DUP1 REVERT JUMPDEST PUSH1 0x0 PUSH1 0x1F NOT PUSH1 0x1F DUP4 ADD AND SWAP1 POP SWAP2 SWAP1 POP JUMP JUMPDEST PUSH32 0x4E487B7100000000000000000000000000000000000000000000000000000000 PUSH1 0x0 MSTORE PUSH1 0x41 PUSH1 0x4 MSTORE PUSH1 0x24 PUSH1 0x0 REVERT JUMPDEST PUSH2 0x26F DUP3 PUSH2 0x226 JUMP JUMPDEST DUP2 ADD DUP2 DUP2 LT PUSH8 0xFFFFFFFFFFFFFFFF DUP3 GT OR ISZERO PUSH2 0x28E JUMPI PUSH2 0x28D PUSH2 0x237 JUMP JUMPDEST JUMPDEST DUP1 PUSH1 0x40 MSTORE POP POP POP JUMP JUMPDEST PUSH1 0x0 PUSH2 0x2A1 PUSH2 0x1D2 JUMP JUMPDEST SWAP1 POP PUSH2 0x2AD DUP3 DUP3 PUSH2 0x266 JUMP JUMPDEST SWAP2 SWAP1 POP JUMP JUMPDEST PUSH1 0x0 PUSH8 0xFFFFFFFFFFFFFFFF DUP3 GT ISZERO PUSH2 0x2CD JUMPI PUSH2 0x2CC PUSH2 0x237 JUMP JUMPDEST JUMPDEST PUSH2 0x2D6 DUP3 PUSH2 0x226 JUMP JUMPDEST SWAP1 POP PUSH1 0x20 DUP2 ADD SWAP1 POP SWAP2 SWAP1 POP JUMP JUMPDEST DUP3 DUP2 DUP4 CALLDATACOPY PUSH1 0x0 DUP4 DUP4 ADD MSTORE POP POP POP JUMP JUMPDEST PUSH1 0x0 PUSH2 0x305 PUSH2 0x300 DUP5 PUSH2 0x2B2 JUMP JUMPDEST PUSH2 0x297 JUMP JUMPDEST SWAP1 POP DUP3 DUP2 MSTORE PUSH1 0x20 DUP2 ADD DUP5 DUP5 DUP5 ADD GT ISZERO PUSH2 0x321 JUMPI PUSH2 0x320 PUSH2 0x221 JUMP JUMPDEST JUMPDEST PUSH2 0x32C DUP5 DUP3 DUP6 PUSH2 0x2E3 JUMP JUMPDEST POP SWAP4 SWAP3 POP POP POP JUMP JUMPDEST PUSH1 0x0 DUP3 PUSH1 0x1F DUP4 ADD SLT PUSH2 0x349 JUMPI PUSH2 0x348 PUSH2 0x21C JUMP JUMPDEST JUMPDEST DUP2 CALLDATALOAD PUSH2 0x359 DUP5 DUP3 PUSH1 0x20 DUP7 ADD PUSH2 0x2F2 JUMP JUMPDEST SWAP2 POP POP SWAP3 SWAP2 POP POP JUMP JUMPDEST PUSH1 0x0 DUP1 PUSH1 0x40 DUP4 DUP6 SUB SLT ISZERO PUSH2 0x379 JUMPI PUSH2 0x378 PUSH2 0x1DC JUMP JUMPDEST JUMPDEST PUSH1 0x0 PUSH2 0x387 DUP6 DUP3 DUP7 ADD PUSH2 0x207 JUMP JUMPDEST SWAP3 POP POP PUSH1 0x20 DUP4 ADD CALLDATALOAD PUSH8 0xFFFFFFFFFFFFFFFF DUP2 GT ISZERO PUSH2 0x3A8 JUMPI PUSH2 0x3A7 PUSH2 0x1E1 JUMP JUMPDEST JUMPDEST PUSH2 0x3B4 DUP6 DUP3 DUP7 ADD PUSH2 0x334 JUMP JUMPDEST SWAP2 POP POP SWAP3 POP SWAP3 SWAP1 POP JUMP JUMPDEST PUSH2 0x3C7 DUP2 PUSH2 0x1E6 JUMP JUMPDEST DUP3 MSTORE POP POP JUMP JUMPDEST PUSH1 0x0 DUP2 MLOAD SWAP1 POP SWAP2 SWAP1 POP JUMP JUMPDEST PUSH1 0x0 DUP3 DUP3 MSTORE PUSH1 0x20 DUP3 ADD SWAP1 POP SWAP3 SWAP2 POP POP JUMP JUMPDEST PUSH1 0x0 JUMPDEST DUP4 DUP2 LT ISZERO PUSH2 0x407 JUMPI DUP1 DUP3 ADD MLOAD DUP2 DUP5 ADD MSTORE PUSH1 0x20 DUP2 ADD SWAP1 POP PUSH2 0x3EC JUMP JUMPDEST PUSH1 0x0 DUP5 DUP5 ADD MSTORE POP POP POP POP JUMP JUMPDEST PUSH1 0x0 PUSH2 0x41E DUP3 PUSH2 0x3CD JUMP JUMPDEST PUSH2 0x428 DUP2 DUP6 PUSH2 0x3D8 JUMP JUMPDEST SWAP4 POP PUSH2 0x438 DUP2 DUP6 PUSH1 0x20 DUP7 ADD PUSH2 0x3E9 JUMP JUMPDEST PUSH2 0x441 DUP2 PUSH2 0x226 JUMP JUMPDEST DUP5 ADD SWAP2 POP POP SWAP3 SWAP2 POP POP JUMP JUMPDEST PUSH1 0x0 PUSH1 0x40 DUP3 ADD SWAP1 POP PUSH2 0x461 PUSH1 0x0 DUP4 ADD DUP6 PUSH2 0x3BE JUMP JUMPDEST DUP2 DUP2 SUB PUSH1 0x20 DUP4 ADD MSTORE PUSH2 0x473 DUP2 DUP5 PUSH2 0x413 JUMP JUMPDEST SWAP1 POP SWAP4 SWAP3 POP POP POP JUMP JUMPDEST PUSH32 0x4E487B7100000000000000000000000000000000000000000000000000000000 PUSH1 0x0 MSTORE PUSH1 0x22 PUSH1 0x4 MSTORE PUSH1 0x24 PUSH1 0x0 REVERT JUMPDEST PUSH1 0x0 PUSH1 0x2 DUP3 DIV SWAP1 POP PUSH1 0x1 DUP3 AND DUP1 PUSH2 0x4C3 JUMPI PUSH1 0x7F DUP3 AND SWAP2 POP JUMPDEST PUSH1 0x20 DUP3 LT DUP2 SUB PUSH2 0x4D6 JUMPI PUSH2 0x4D5 PUSH2 0x47C JUMP JUMPDEST JUMPDEST POP SWAP2 SWAP1 POP JUMP JUMPDEST PUSH1 0x0 DUP2 SWAP1 POP DUP2 PUSH1 0x0 MSTORE PUSH1 0x20 PUSH1 0x0 KECCAK256 SWAP1 POP SWAP2 SWAP1 POP JUMP JUMPDEST PUSH1 0x0 PUSH1 0x20 PUSH1 0x1F DUP4 ADD DIV SWAP1 POP SWAP2 SWAP1 POP JUMP JUMPDEST PUSH1 0x0 DUP3 DUP3 SHL SWAP1 POP SWAP3 SWAP2 POP POP JUMP JUMPDEST PUSH1 0x0 PUSH1 0x8 DUP4 MUL PUSH2 0x53E PUSH32 0xFFFFFFFFFFFFFFFFFFFFFFFFFFFFFFFFFFFFFFFFFFFFFFFFFFFFFFFFFFFFFFFF DUP3 PUSH2 0x501 JUMP JUMPDEST PUSH2 0x548 DUP7 DUP4 PUSH2 0x501 JUMP JUMPDEST SWAP6 POP DUP1 NOT DUP5 AND SWAP4 POP DUP1 DUP7 AND DUP5 OR SWAP3 POP POP POP SWAP4 SWAP3 POP POP POP JUMP JUMPDEST PUSH1 0x0 DUP2 SWAP1 POP SWAP2 SWAP1 POP JUMP JUMPDEST PUSH1 0x0 PUSH2 0x585 PUSH2 0x580 PUSH2 0x57B DUP5 PUSH2 0x1E6 JUMP JUMPDEST PUSH2 0x560 JUMP JUMPDEST PUSH2 0x1E6 JUMP JUMPDEST SWAP1 POP SWAP2 SWAP1 POP JUMP JUMPDEST PUSH1 0x0 DUP2 SWAP1 POP SWAP2 SWAP1 POP JUMP JUMPDEST PUSH2 0x59F DUP4 PUSH2 0x56A JUMP JUMPDEST PUSH2 0x5B3 PUSH2 0x5AB DUP3 PUSH2 0x58C JUMP JUMPDEST DUP5 DUP5 SLOAD PUSH2 0x50E JUMP JUMPDEST DUP3 SSTORE POP POP POP POP JUMP JUMPDEST PUSH1 0x0 SWAP1 JUMP JUMPDEST PUSH2 0x5C8 PUSH2 0x5BB JUMP JUMPDEST PUSH2 0x5D3 DUP2 DUP5 DUP5 PUSH2 0x596 JUMP JUMPDEST POP POP POP JUMP JUMPDEST JUMPDEST DUP2 DUP2 LT ISZERO PUSH2 0x5F7 JUMPI PUSH2 0x5EC PUSH1 0x0 DUP3 PUSH2 0x5C0 JUMP JUMPDEST PUSH1 0x1 DUP2 ADD SWAP1 POP PUSH2 0x5D9 JUMP JUMPDEST POP POP JUMP JUMPDEST PUSH1 0x1F DUP3 GT ISZERO PUSH2 0x63C JUMPI PUSH2 0x60D DUP2 PUSH2 0x4DC JUMP JUMPDEST PUSH2 0x616 DUP5 PUSH2 0x4F1 JUMP JUMPDEST DUP2 ADD PUSH1 0x20 DUP6 LT ISZERO PUSH2 0x625 JUMPI DUP2 SWAP1 POP JUMPDEST PUSH2 0x639 PUSH2 0x631 DUP6 PUSH2 0x4F1 JUMP JUMPDEST DUP4 ADD DUP3 PUSH2 0x5D8 JUMP JUMPDEST POP POP JUMPDEST POP POP POP JUMP JUMPDEST PUSH1 0x0 DUP3 DUP3 SHR SWAP1 POP SWAP3 SWAP2 POP POP JUMP JUMPDEST PUSH1 0x0 PUSH2 0x65F PUSH1 0x0 NOT DUP5 PUSH1 0x8 MUL PUSH2 0x641 JUMP JUMPDEST NOT DUP1 DUP4 AND SWAP2 POP POP SWAP3 SWAP2 POP POP JUMP JUMPDEST PUSH1 0x0 PUSH2 0x678 DUP4 DUP4 PUSH2 0x64E JUMP JUMPDEST SWAP2 POP DUP3 PUSH1 0x2 MUL DUP3 OR SWAP1 POP SWAP3 SWAP2 POP POP JUMP JUMPDEST PUSH2 0x691 DUP3 PUSH2 0x3CD JUMP JUMPDEST PUSH8 0xFFFFFFFFFFFFFFFF DUP2 GT ISZERO PUSH2 0x6AA JUMPI PUSH2 0x6A9 PUSH2 0x237 JUMP JUMPDEST JUMPDEST PUSH2 0x6B4 DUP3 SLOAD PUSH2 0x4AB JUMP JUMPDEST PUSH2 0x6BF DUP3 DUP3 DUP6 PUSH2 0x5FB JUMP JUMPDEST PUSH1 0x0 PUSH1 0x20 SWAP1 POP PUSH1 0x1F DUP4 GT PUSH1 0x1 DUP2 EQ PUSH2 0x6F2 JUMPI PUSH1 0x0 DUP5 ISZERO PUSH2 0x6E0 JUMPI DUP3 DUP8 ADD MLOAD SWAP1 POP JUMPDEST PUSH2 0x6EA DUP6 DUP3 PUSH2 0x66C JUMP JUMPDEST DUP7 SSTORE POP PUSH2 0x752 JUMP JUMPDEST PUSH1 0x1F NOT DUP5 AND PUSH2 0x700 DUP7 PUSH2 0x4DC JUMP JUMPDEST PUSH1 0x0 JUMPDEST DUP3 DUP2 LT ISZERO PUSH2 0x728 JUMPI DUP5 DUP10 ADD MLOAD DUP3 SSTORE PUSH1 0x1 DUP3 ADD SWAP2 POP PUSH1 0x20 DUP6 ADD SWAP5 POP PUSH1 0x20 DUP2 ADD SWAP1 POP PUSH2 0x703 JUMP JUMPDEST DUP7 DUP4 LT ISZERO PUSH2 0x745 JUMPI DUP5 DUP10 ADD MLOAD PUSH2 0x741 PUSH1 0x1F DUP10 AND DUP3 PUSH2 0x64E JUMP JUMPDEST DUP4 SSTORE POP JUMPDEST PUSH1 0x1 PUSH1 0x2 DUP9 MUL ADD DUP9 SSTORE POP POP POP JUMPDEST POP POP POP POP POP POP JUMP INVALID LOG2 PUSH5 0x6970667358 0x22 SLT KECCAK256 COINBASE CREATE2 MSTORE PUSH25 0x980EC751AB76E8BD5C74D945E4E341EC1636CB66C73BA9D6A6 MSIZE 0xB0 SELFBALANCE PUSH5 0x736F6C6343 STOP ADDMOD SLT STOP CALLER "
		},
		"gasEstimates": {
			"creation": {
				"codeDepositCost": "387200",
				"executionCost": "424",
				"totalCost": "387624"
			},
			"external": {
				"add(uint256,string)": "infinite",
				"remove()": "infinite",
				"s()": "infinite"
			}
		},
		"methodIdentifiers": {
			"add(uint256,string)": "7230bce8",
			"remove()": "a7f43779",
			"s()": "86b714e2"
		}
	},
	"abi": [
		{
			"inputs": [
				{
					"internalType": "uint256",
					"name": "_no",
					"type": "uint256"
				},
				{
					"internalType": "string",
					"name": "_name",
					"type": "string"
				}
			],
			"name": "add",
			"outputs": [],
			"stateMutability": "nonpayable",
			"type": "function"
		},
		{
			"inputs": [],
			"name": "remove",
			"outputs": [],
			"stateMutability": "nonpayable",
			"type": "function"
		},
		{
			"inputs": [],
			"name": "s",
			"outputs": [
				{
					"internalType": "uint256",
					"name": "no",
					"type": "uint256"
				},
				{
					"internalType": "string",
					"name": "name",
					"type": "string"
				}
			],
			"stateMutability": "view",
			"type": "function"
		}
	]
}