{
	"data": {
		"bytecode": {
			"linkReferences": {},
			"object": "6080604052601460005534801561001557600080fd5b50610270806100256000396000f3fe608060405234801561001057600080fd5b506004361061004c5760003560e01c80631b5e8b93146100515780634e70b1dc1461005b57806389ac385114610079578063a548daf614610083575b600080fd5b61005961008d565b005b6100636100df565b60405161007091906101a2565b60405180910390f35b6100816100e5565b005b61008b610137565b005b6000151560011515146100d5576040517f08c379a00000000000000000000000000000000000000000000000000000000081526004016100cc9061021a565b60405180910390fd5b6064600081905550565b60005481565b60001515600115151461012d576040517f08c379a00000000000000000000000000000000000000000000000000000000081526004016101249061021a565b60405180910390fd5b6064600081905550565b60001515600115151461017f576040517f08c379a00000000000000000000000000000000000000000000000000000000081526004016101769061021a565b60405180910390fd5b6064600081905550565b6000819050919050565b61019c81610189565b82525050565b60006020820190506101b76000830184610193565b92915050565b600082825260208201905092915050565b7f74727565206973206e6f7420657175616c20746f2066616c7365000000000000600082015250565b6000610204601a836101bd565b915061020f826101ce565b602082019050919050565b60006020820190508181036000830152610233816101f7565b905091905056fea26469706673582212203800b9e426ee964b1cf76e849a7016bb8c0dcd4d9e264192d5fa1a1d8de2fdc464736f6c63430008120033",
			"opcodes": "PUSH1 0x80 PUSH1 0x40 MSTORE PUSH1 0x14 PUSH1 0x0 SSTORE CALLVALUE DUP1 ISZERO PUSH2 0x15 JUMPI PUSH1 0x0 DUP1 REVERT JUMPDEST POP PUSH2 0x270 DUP1 PUSH2 0x25 PUSH1 0x0 CODECOPY PUSH1 0x0 RETURN INVALID PUSH1 0x80 PUSH1 0x40 MSTORE CALLVALUE DUP1 ISZERO PUSH2 0x10 JUMPI PUSH1 0x0 DUP1 REVERT JUMPDEST POP PUSH1 0x4 CALLDATASIZE LT PUSH2 0x4C JUMPI PUSH1 0x0 CALLDATALOAD PUSH1 0xE0 SHR DUP1 PUSH4 0x1B5E8B93 EQ PUSH2 0x51 JUMPI DUP1 PUSH4 0x4E70B1DC EQ PUSH2 0x5B JUMPI DUP1 PUSH4 0x89AC3851 EQ PUSH2 0x79 JUMPI DUP1 PUSH4 0xA548DAF6 EQ PUSH2 0x83 JUMPI JUMPDEST PUSH1 0x0 DUP1 REVERT JUMPDEST PUSH2 0x59 PUSH2 0x8D JUMP JUMPDEST STOP JUMPDEST PUSH2 0x63 PUSH2 0xDF JUMP JUMPDEST PUSH1 0x40 MLOAD PUSH2 0x70 SWAP2 SWAP1 PUSH2 0x1A2 JUMP JUMPDEST PUSH1 0x40 MLOAD DUP1 SWAP2 SUB SWAP1 RETURN JUMPDEST PUSH2 0x81 PUSH2 0xE5 JUMP JUMPDEST STOP JUMPDEST PUSH2 0x8B PUSH2 0x137 JUMP JUMPDEST STOP JUMPDEST PUSH1 0x0 ISZERO ISZERO PUSH1 0x1 ISZERO ISZERO EQ PUSH2 0xD5 JUMPI PUSH1 0x40 MLOAD PUSH32 0x8C379A000000000000000000000000000000000000000000000000000000000 DUP2 MSTORE PUSH1 0x4 ADD PUSH2 0xCC SWAP1 PUSH2 0x21A JUMP JUMPDEST PUSH1 0x40 MLOAD DUP1 SWAP2 SUB SWAP1 REVERT JUMPDEST PUSH1 0x64 PUSH1 0x0 DUP2 SWAP1 SSTORE POP JUMP JUMPDEST PUSH1 0x0 SLOAD DUP2 JUMP JUMPDEST PUSH1 0x0 ISZERO ISZERO PUSH1 0x1 ISZERO ISZERO EQ PUSH2 0x12D JUMPI PUSH1 0x40 MLOAD PUSH32 0x8C379A000000000000000000000000000000000000000000000000000000000 DUP2 MSTORE PUSH1 0x4 ADD PUSH2 0x124 SWAP1 PUSH2 0x21A JUMP JUMPDEST PUSH1 0x40 MLOAD DUP1 SWAP2 SUB SWAP1 REVERT JUMPDEST PUSH1 0x64 PUSH1 0x0 DUP2 SWAP1 SSTORE POP JUMP JUMPDEST PUSH1 0x0 ISZERO ISZERO PUSH1 0x1 ISZERO ISZERO EQ PUSH2 0x17F JUMPI PUSH1 0x40 MLOAD PUSH32 0x8C379A000000000000000000000000000000000000000000000000000000000 DUP2 MSTORE PUSH1 0x4 ADD PUSH2 0x176 SWAP1 PUSH2 0x21A JUMP JUMPDEST PUSH1 0x40 MLOAD DUP1 SWAP2 SUB SWAP1 REVERT JUMPDEST PUSH1 0x64 PUSH1 0x0 DUP2 SWAP1 SSTORE POP JUMP JUMPDEST PUSH1 0x0 DUP2 SWAP1 POP SWAP2 SWAP1 POP JUMP JUMPDEST PUSH2 0x19C DUP2 PUSH2 0x189 JUMP JUMPDEST DUP3 MSTORE POP POP JUMP JUMPDEST PUSH1 0x0 PUSH1 0x20 DUP3 ADD SWAP1 POP PUSH2 0x1B7 PUSH1 0x0 DUP4 ADD DUP5 PUSH2 0x193 JUMP JUMPDEST SWAP3 SWAP2 POP POP JUMP JUMPDEST PUSH1 0x0 DUP3 DUP3 MSTORE PUSH1 0x20 DUP3 ADD SWAP1 POP SWAP3 SWAP2 POP POP JUMP JUMPDEST PUSH32 0x74727565206973206E6F7420657175616C20746F2066616C7365000000000000 PUSH1 0x0 DUP3 ADD MSTORE POP JUMP JUMPDEST PUSH1 0x0 PUSH2 0x204 PUSH1 0x1A DUP4 PUSH2 0x1BD JUMP JUMPDEST SWAP2 POP PUSH2 0x20F DUP3 PUSH2 0x1CE JUMP JUMPDEST PUSH1 0x20 DUP3 ADD SWAP1 POP SWAP2 SWAP1 POP JUMP JUMPDEST PUSH1 0x0 PUSH1 0x20 DUP3 ADD SWAP1 POP DUP2 DUP2 SUB PUSH1 0x0 DUP4 ADD MSTORE PUSH2 0x233 DUP2 PUSH2 0x1F7 JUMP JUMPDEST SWAP1 POP SWAP2 SWAP1 POP JUMP INVALID LOG2 PUSH5 0x6970667358 0x22 SLT KECCAK256 CODESIZE STOP 0xB9 0xE4 0x26 0xEE SWAP7 0x4B SHR 0xF7 PUSH15 0x849A7016BB8C0DCD4D9E264192D5FA BYTE SAR DUP14 0xE2 REVERT 0xC4 PUSH5 0x736F6C6343 STOP ADDMOD SLT STOP CALLER "
		},
		"gasEstimates": {
			"creation": {
				"codeDepositCost": "124800",
				"executionCost": "22277",
				"totalCost": "147077"
			},
			"external": {
				"check1()": "446",
				"check2()": "512",
				"check3()": "490",
				"num()": "2429"
			}
		},
		"methodIdentifiers": {
			"check1()": "1b5e8b93",
			"check2()": "a548daf6",
			"check3()": "89ac3851",
			"num()": "4e70b1dc"
		}
	},
	"abi": [
		{
			"inputs": [],
			"name": "check1",
			"outputs": [],
			"stateMutability": "nonpayable",
			"type": "function"
		},
		{
			"inputs": [],
			"name": "check2",
			"outputs": [],
			"stateMutability": "nonpayable",
			"type": "function"
		},
		{
			"inputs": [],
			"name": "check3",
			"outputs": [],
			"stateMutability": "nonpayable",
			"type": "function"
		},
		{
			"inputs": [],
			"name": "num",
			"outputs": [
				{
					"internalType": "uint256",
					"name": "",
					"type": "uint256"
				}
			],
			"stateMutability": "view",
			"type": "function"
		}
	]
}