{
	"contracts/Solidity Advance part=2/1.structure.sol": {
		"structdemo": {
			"abi": [
				{
					"inputs": [
						{
							"internalType": "string",
							"name": "_name",
							"type": "string"
						},
						{
							"internalType": "uint256",
							"name": "_roll",
							"type": "uint256"
						},
						{
							"internalType": "string",
							"name": "_location",
							"type": "string"
						},
						{
							"internalType": "address",
							"name": "_walletaddress",
							"type": "address"
						}
					],
					"name": "enterData",
					"outputs": [],
					"stateMutability": "nonpayable",
					"type": "function"
				},
				{
					"inputs": [],
					"name": "retunrnName",
					"outputs": [
						{
							"internalType": "string",
							"name": "",
							"type": "string"
						}
					],
					"stateMutability": "view",
					"type": "function"
				},
				{
					"inputs": [],
					"name": "returnAll",
					"outputs": [
						{
							"components": [
								{
									"internalType": "string",
									"name": "name",
									"type": "string"
								},
								{
									"internalType": "uint256",
									"name": "roll",
									"type": "uint256"
								},
								{
									"internalType": "string",
									"name": "location",
									"type": "string"
								},
								{
									"internalType": "address",
									"name": "walletaddress",
									"type": "address"
								}
							],
							"internalType": "struct structdemo.student",
							"name": "",
							"type": "tuple"
						}
					],
					"stateMutability": "view",
					"type": "function"
				},
				{
					"inputs": [],
					"name": "s1",
					"outputs": [
						{
							"internalType": "string",
							"name": "name",
							"type": "string"
						},
						{
							"internalType": "uint256",
							"name": "roll",
							"type": "uint256"
						},
						{
							"internalType": "string",
							"name": "location",
							"type": "string"
						},
						{
							"internalType": "address",
							"name": "walletaddress",
							"type": "address"
						}
					],
					"stateMutability": "view",
					"type": "function"
				}
			],
			"devdoc": {
				"kind": "dev",
				"methods": {},
				"version": 1
			},
			"evm": {
				"assembly": "    /* \"contracts/Solidity Advance part=2/1.structure.sol\":70:617  contract structdemo{... */\n  mstore(0x40, 0x80)\n  callvalue\n  dup1\n  iszero\n  tag_1\n  jumpi\n  0x00\n  dup1\n  revert\ntag_1:\n  pop\n  dataSize(sub_0)\n  dup1\n  dataOffset(sub_0)\n  0x00\n  codecopy\n  0x00\n  return\nstop\n\nsub_0: assembly {\n        /* \"contracts/Solidity Advance part=2/1.structure.sol\":70:617  contract structdemo{... */\n      mstore(0x40, 0x80)\n      callvalue\n      dup1\n      iszero\n      tag_1\n      jumpi\n      0x00\n      dup1\n      revert\n    tag_1:\n      pop\n      jumpi(tag_2, lt(calldatasize, 0x04))\n      shr(0xe0, calldataload(0x00))\n      dup1\n      0x6cc014de\n      eq\n      tag_3\n      jumpi\n      dup1\n      0x85b1423e\n      eq\n      tag_4\n      jumpi\n      dup1\n      0xa25f539e\n      eq\n      tag_5\n      jumpi\n      dup1\n      0xcdd1173e\n      eq\n      tag_6\n      jumpi\n    tag_2:\n      0x00\n      dup1\n      revert\n        /* \"contracts/Solidity Advance part=2/1.structure.sol\":191:208  student public s1 */\n    tag_3:\n      tag_7\n      tag_8\n      jump\t// in\n    tag_7:\n      mload(0x40)\n      tag_9\n      swap5\n      swap4\n      swap3\n      swap2\n      swap1\n      tag_10\n      jump\t// in\n    tag_9:\n      mload(0x40)\n      dup1\n      swap2\n      sub\n      swap1\n      return\n        /* \"contracts/Solidity Advance part=2/1.structure.sol\":457:532  function returnAll()public view returns(student memory ){... */\n    tag_4:\n      tag_11\n      tag_12\n      jump\t// in\n    tag_11:\n      mload(0x40)\n      tag_13\n      swap2\n      swap1\n      tag_14\n      jump\t// in\n    tag_13:\n      mload(0x40)\n      dup1\n      swap2\n      sub\n      swap1\n      return\n        /* \"contracts/Solidity Advance part=2/1.structure.sol\":534:613  function retunrnName()public view returns(string memory){... */\n    tag_5:\n      tag_15\n      tag_16\n      jump\t// in\n    tag_15:\n      mload(0x40)\n      tag_17\n      swap2\n      swap1\n      tag_18\n      jump\t// in\n    tag_17:\n      mload(0x40)\n      dup1\n      swap2\n      sub\n      swap1\n      return\n        /* \"contracts/Solidity Advance part=2/1.structure.sol\":211:455  function enterData(string memory _name,uint _roll,string memory _location, address _walletaddress)public{... */\n    tag_6:\n      tag_19\n      0x04\n      dup1\n      calldatasize\n      sub\n      dup2\n      add\n      swap1\n      tag_20\n      swap2\n      swap1\n      tag_21\n      jump\t// in\n    tag_20:\n      tag_22\n      jump\t// in\n    tag_19:\n      stop\n        /* \"contracts/Solidity Advance part=2/1.structure.sol\":191:208  student public s1 */\n    tag_8:\n      0x00\n      dup1\n      0x00\n      add\n      dup1\n      sload\n      tag_23\n      swap1\n      tag_24\n      jump\t// in\n    tag_23:\n      dup1\n      0x1f\n      add\n      0x20\n      dup1\n      swap2\n      div\n      mul\n      0x20\n      add\n      mload(0x40)\n      swap1\n      dup2\n      add\n      0x40\n      mstore\n      dup1\n      swap3\n      swap2\n      swap1\n      dup2\n      dup2\n      mstore\n      0x20\n      add\n      dup3\n      dup1\n      sload\n      tag_25\n      swap1\n      tag_24\n      jump\t// in\n    tag_25:\n      dup1\n      iszero\n      tag_26\n      jumpi\n      dup1\n      0x1f\n      lt\n      tag_27\n      jumpi\n      0x0100\n      dup1\n      dup4\n      sload\n      div\n      mul\n      dup4\n      mstore\n      swap2\n      0x20\n      add\n      swap2\n      jump(tag_26)\n    tag_27:\n      dup3\n      add\n      swap2\n      swap1\n      0x00\n      mstore\n      keccak256(0x00, 0x20)\n      swap1\n    tag_28:\n      dup2\n      sload\n      dup2\n      mstore\n      swap1\n      0x01\n      add\n      swap1\n      0x20\n      add\n      dup1\n      dup4\n      gt\n      tag_28\n      jumpi\n      dup3\n      swap1\n      sub\n      0x1f\n      and\n      dup3\n      add\n      swap2\n    tag_26:\n      pop\n      pop\n      pop\n      pop\n      pop\n      swap1\n      dup1\n      0x01\n      add\n      sload\n      swap1\n      dup1\n      0x02\n      add\n      dup1\n      sload\n      tag_29\n      swap1\n      tag_24\n      jump\t// in\n    tag_29:\n      dup1\n      0x1f\n      add\n      0x20\n      dup1\n      swap2\n      div\n      mul\n      0x20\n      add\n      mload(0x40)\n      swap1\n      dup2\n      add\n      0x40\n      mstore\n      dup1\n      swap3\n      swap2\n      swap1\n      dup2\n      dup2\n      mstore\n      0x20\n      add\n      dup3\n      dup1\n      sload\n      tag_30\n      swap1\n      tag_24\n      jump\t// in\n    tag_30:\n      dup1\n      iszero\n      tag_31\n      jumpi\n      dup1\n      0x1f\n      lt\n      tag_32\n      jumpi\n      0x0100\n      dup1\n      dup4\n      sload\n      div\n      mul\n      dup4\n      mstore\n      swap2\n      0x20\n      add\n      swap2\n      jump(tag_31)\n    tag_32:\n      dup3\n      add\n      swap2\n      swap1\n      0x00\n      mstore\n      keccak256(0x00, 0x20)\n      swap1\n    tag_33:\n      dup2\n      sload\n      dup2\n      mstore\n      swap1\n      0x01\n      add\n      swap1\n      0x20\n      add\n      dup1\n      dup4\n      gt\n      tag_33\n      jumpi\n      dup3\n      swap1\n      sub\n      0x1f\n      and\n      dup3\n      add\n      swap2\n    tag_31:\n      pop\n      pop\n      pop\n      pop\n      pop\n      swap1\n      dup1\n      0x03\n      add\n      0x00\n      swap1\n      sload\n      swap1\n      0x0100\n      exp\n      swap1\n      div\n      0xffffffffffffffffffffffffffffffffffffffff\n      and\n      swap1\n      pop\n      dup5\n      jump\t// out\n        /* \"contracts/Solidity Advance part=2/1.structure.sol\":457:532  function returnAll()public view returns(student memory ){... */\n    tag_12:\n        /* \"contracts/Solidity Advance part=2/1.structure.sol\":497:511  student memory */\n      tag_34\n      tag_35\n      jump\t// in\n    tag_34:\n        /* \"contracts/Solidity Advance part=2/1.structure.sol\":527:529  s1 */\n      0x00\n        /* \"contracts/Solidity Advance part=2/1.structure.sol\":519:529  return  s1 */\n      mload(0x40)\n      dup1\n      0x80\n      add\n      0x40\n      mstore\n      swap1\n      dup2\n      0x00\n      dup3\n      add\n      dup1\n      sload\n      tag_37\n      swap1\n      tag_24\n      jump\t// in\n    tag_37:\n      dup1\n      0x1f\n      add\n      0x20\n      dup1\n      swap2\n      div\n      mul\n      0x20\n      add\n      mload(0x40)\n      swap1\n      dup2\n      add\n      0x40\n      mstore\n      dup1\n      swap3\n      swap2\n      swap1\n      dup2\n      dup2\n      mstore\n      0x20\n      add\n      dup3\n      dup1\n      sload\n      tag_38\n      swap1\n      tag_24\n      jump\t// in\n    tag_38:\n      dup1\n      iszero\n      tag_39\n      jumpi\n      dup1\n      0x1f\n      lt\n      tag_40\n      jumpi\n      0x0100\n      dup1\n      dup4\n      sload\n      div\n      mul\n      dup4\n      mstore\n      swap2\n      0x20\n      add\n      swap2\n      jump(tag_39)\n    tag_40:\n      dup3\n      add\n      swap2\n      swap1\n      0x00\n      mstore\n      keccak256(0x00, 0x20)\n      swap1\n    tag_41:\n      dup2\n      sload\n      dup2\n      mstore\n      swap1\n      0x01\n      add\n      swap1\n      0x20\n      add\n      dup1\n      dup4\n      gt\n      tag_41\n      jumpi\n      dup3\n      swap1\n      sub\n      0x1f\n      and\n      dup3\n      add\n      swap2\n    tag_39:\n      pop\n      pop\n      pop\n      pop\n      pop\n      dup2\n      mstore\n      0x20\n      add\n      0x01\n      dup3\n      add\n      sload\n      dup2\n      mstore\n      0x20\n      add\n      0x02\n      dup3\n      add\n      dup1\n      sload\n      tag_42\n      swap1\n      tag_24\n      jump\t// in\n    tag_42:\n      dup1\n      0x1f\n      add\n      0x20\n      dup1\n      swap2\n      div\n      mul\n      0x20\n      add\n      mload(0x40)\n      swap1\n      dup2\n      add\n      0x40\n      mstore\n      dup1\n      swap3\n      swap2\n      swap1\n      dup2\n      dup2\n      mstore\n      0x20\n      add\n      dup3\n      dup1\n      sload\n      tag_43\n      swap1\n      tag_24\n      jump\t// in\n    tag_43:\n      dup1\n      iszero\n      tag_44\n      jumpi\n      dup1\n      0x1f\n      lt\n      tag_45\n      jumpi\n      0x0100\n      dup1\n      dup4\n      sload\n      div\n      mul\n      dup4\n      mstore\n      swap2\n      0x20\n      add\n      swap2\n      jump(tag_44)\n    tag_45:\n      dup3\n      add\n      swap2\n      swap1\n      0x00\n      mstore\n      keccak256(0x00, 0x20)\n      swap1\n    tag_46:\n      dup2\n      sload\n      dup2\n      mstore\n      swap1\n      0x01\n      add\n      swap1\n      0x20\n      add\n      dup1\n      dup4\n      gt\n      tag_46\n      jumpi\n      dup3\n      swap1\n      sub\n      0x1f\n      and\n      dup3\n      add\n      swap2\n    tag_44:\n      pop\n      pop\n      pop\n      pop\n      pop\n      dup2\n      mstore\n      0x20\n      add\n      0x03\n      dup3\n      add\n      0x00\n      swap1\n      sload\n      swap1\n      0x0100\n      exp\n      swap1\n      div\n      0xffffffffffffffffffffffffffffffffffffffff\n      and\n      0xffffffffffffffffffffffffffffffffffffffff\n      and\n      0xffffffffffffffffffffffffffffffffffffffff\n      and\n      dup2\n      mstore\n      pop\n      pop\n      swap1\n      pop\n        /* \"contracts/Solidity Advance part=2/1.structure.sol\":457:532  function returnAll()public view returns(student memory ){... */\n      swap1\n      jump\t// out\n        /* \"contracts/Solidity Advance part=2/1.structure.sol\":534:613  function retunrnName()public view returns(string memory){... */\n    tag_16:\n        /* \"contracts/Solidity Advance part=2/1.structure.sol\":576:589  string memory */\n      0x60\n        /* \"contracts/Solidity Advance part=2/1.structure.sol\":603:605  s1 */\n      0x00\n        /* \"contracts/Solidity Advance part=2/1.structure.sol\":603:610  s1.name */\n      dup1\n      add\n        /* \"contracts/Solidity Advance part=2/1.structure.sol\":596:610  return s1.name */\n      dup1\n      sload\n      tag_48\n      swap1\n      tag_24\n      jump\t// in\n    tag_48:\n      dup1\n      0x1f\n      add\n      0x20\n      dup1\n      swap2\n      div\n      mul\n      0x20\n      add\n      mload(0x40)\n      swap1\n      dup2\n      add\n      0x40\n      mstore\n      dup1\n      swap3\n      swap2\n      swap1\n      dup2\n      dup2\n      mstore\n      0x20\n      add\n      dup3\n      dup1\n      sload\n      tag_49\n      swap1\n      tag_24\n      jump\t// in\n    tag_49:\n      dup1\n      iszero\n      tag_50\n      jumpi\n      dup1\n      0x1f\n      lt\n      tag_51\n      jumpi\n      0x0100\n      dup1\n      dup4\n      sload\n      div\n      mul\n      dup4\n      mstore\n      swap2\n      0x20\n      add\n      swap2\n      jump(tag_50)\n    tag_51:\n      dup3\n      add\n      swap2\n      swap1\n      0x00\n      mstore\n      keccak256(0x00, 0x20)\n      swap1\n    tag_52:\n      dup2\n      sload\n      dup2\n      mstore\n      swap1\n      0x01\n      add\n      swap1\n      0x20\n      add\n      dup1\n      dup4\n      gt\n      tag_52\n      jumpi\n      dup3\n      swap1\n      sub\n      0x1f\n      and\n      dup3\n      add\n      swap2\n    tag_50:\n      pop\n      pop\n      pop\n      pop\n      pop\n      swap1\n      pop\n        /* \"contracts/Solidity Advance part=2/1.structure.sol\":534:613  function retunrnName()public view returns(string memory){... */\n      swap1\n      jump\t// out\n        /* \"contracts/Solidity Advance part=2/1.structure.sol\":211:455  function enterData(string memory _name,uint _roll,string memory _location, address _walletaddress)public{... */\n    tag_22:\n        /* \"contracts/Solidity Advance part=2/1.structure.sol\":320:365  student(_name,_roll,_location,_walletaddress) */\n      mload(0x40)\n      dup1\n      0x80\n      add\n      0x40\n      mstore\n      dup1\n        /* \"contracts/Solidity Advance part=2/1.structure.sol\":328:333  _name */\n      dup6\n        /* \"contracts/Solidity Advance part=2/1.structure.sol\":320:365  student(_name,_roll,_location,_walletaddress) */\n      dup2\n      mstore\n      0x20\n      add\n        /* \"contracts/Solidity Advance part=2/1.structure.sol\":334:339  _roll */\n      dup5\n        /* \"contracts/Solidity Advance part=2/1.structure.sol\":320:365  student(_name,_roll,_location,_walletaddress) */\n      dup2\n      mstore\n      0x20\n      add\n        /* \"contracts/Solidity Advance part=2/1.structure.sol\":340:349  _location */\n      dup4\n        /* \"contracts/Solidity Advance part=2/1.structure.sol\":320:365  student(_name,_roll,_location,_walletaddress) */\n      dup2\n      mstore\n      0x20\n      add\n        /* \"contracts/Solidity Advance part=2/1.structure.sol\":350:364  _walletaddress */\n      dup3\n        /* \"contracts/Solidity Advance part=2/1.structure.sol\":320:365  student(_name,_roll,_location,_walletaddress) */\n      0xffffffffffffffffffffffffffffffffffffffff\n      and\n      dup2\n      mstore\n      pop\n        /* \"contracts/Solidity Advance part=2/1.structure.sol\":317:319  s1 */\n      0x00\n        /* \"contracts/Solidity Advance part=2/1.structure.sol\":317:365  s1=student(_name,_roll,_location,_walletaddress) */\n      dup1\n      dup3\n      add\n      mload\n      dup2\n      0x00\n      add\n      swap1\n      dup2\n      tag_54\n      swap2\n      swap1\n      tag_55\n      jump\t// in\n    tag_54:\n      pop\n      0x20\n      dup3\n      add\n      mload\n      dup2\n      0x01\n      add\n      sstore\n      0x40\n      dup3\n      add\n      mload\n      dup2\n      0x02\n      add\n      swap1\n      dup2\n      tag_56\n      swap2\n      swap1\n      tag_55\n      jump\t// in\n    tag_56:\n      pop\n      0x60\n      dup3\n      add\n      mload\n      dup2\n      0x03\n      add\n      exp(0x0100, 0x00)\n      dup2\n      sload\n      dup2\n      0xffffffffffffffffffffffffffffffffffffffff\n      mul\n      not\n      and\n      swap1\n      dup4\n      0xffffffffffffffffffffffffffffffffffffffff\n      and\n      mul\n      or\n      swap1\n      sstore\n      pop\n      swap1\n      pop\n      pop\n        /* \"contracts/Solidity Advance part=2/1.structure.sol\":376:381  _name */\n      dup4\n        /* \"contracts/Solidity Advance part=2/1.structure.sol\":368:370  s1 */\n      0x00\n        /* \"contracts/Solidity Advance part=2/1.structure.sol\":368:375  s1.name */\n      dup1\n      add\n        /* \"contracts/Solidity Advance part=2/1.structure.sol\":368:381  s1.name=_name */\n      swap1\n      dup2\n      tag_57\n      swap2\n      swap1\n      tag_55\n      jump\t// in\n    tag_57:\n      pop\n        /* \"contracts/Solidity Advance part=2/1.structure.sol\":391:396  _roll */\n      dup3\n        /* \"contracts/Solidity Advance part=2/1.structure.sol\":383:385  s1 */\n      0x00\n        /* \"contracts/Solidity Advance part=2/1.structure.sol\":383:390  s1.roll */\n      0x01\n      add\n        /* \"contracts/Solidity Advance part=2/1.structure.sol\":383:396  s1.roll=_roll */\n      dup2\n      swap1\n      sstore\n      pop\n        /* \"contracts/Solidity Advance part=2/1.structure.sol\":410:419  _location */\n      dup2\n        /* \"contracts/Solidity Advance part=2/1.structure.sol\":398:400  s1 */\n      0x00\n        /* \"contracts/Solidity Advance part=2/1.structure.sol\":398:409  s1.location */\n      0x02\n      add\n        /* \"contracts/Solidity Advance part=2/1.structure.sol\":398:419  s1.location=_location */\n      swap1\n      dup2\n      tag_58\n      swap2\n      swap1\n      tag_55\n      jump\t// in\n    tag_58:\n      pop\n        /* \"contracts/Solidity Advance part=2/1.structure.sol\":438:452  _walletaddress */\n      dup1\n        /* \"contracts/Solidity Advance part=2/1.structure.sol\":421:423  s1 */\n      0x00\n        /* \"contracts/Solidity Advance part=2/1.structure.sol\":421:437  s1.walletaddress */\n      0x03\n      add\n      0x00\n        /* \"contracts/Solidity Advance part=2/1.structure.sol\":421:452  s1.walletaddress=_walletaddress */\n      0x0100\n      exp\n      dup2\n      sload\n      dup2\n      0xffffffffffffffffffffffffffffffffffffffff\n      mul\n      not\n      and\n      swap1\n      dup4\n      0xffffffffffffffffffffffffffffffffffffffff\n      and\n      mul\n      or\n      swap1\n      sstore\n      pop\n        /* \"contracts/Solidity Advance part=2/1.structure.sol\":211:455  function enterData(string memory _name,uint _roll,string memory _location, address _walletaddress)public{... */\n      pop\n      pop\n      pop\n      pop\n      jump\t// out\n    tag_35:\n      mload(0x40)\n      dup1\n      0x80\n      add\n      0x40\n      mstore\n      dup1\n      0x60\n      dup2\n      mstore\n      0x20\n      add\n      0x00\n      dup2\n      mstore\n      0x20\n      add\n      0x60\n      dup2\n      mstore\n      0x20\n      add\n      and(0xffffffffffffffffffffffffffffffffffffffff, 0x00)\n      dup2\n      mstore\n      pop\n      swap1\n      jump\t// out\n        /* \"#utility.yul\":7:106   */\n    tag_59:\n        /* \"#utility.yul\":59:65   */\n      0x00\n        /* \"#utility.yul\":93:98   */\n      dup2\n        /* \"#utility.yul\":87:99   */\n      mload\n        /* \"#utility.yul\":77:99   */\n      swap1\n      pop\n        /* \"#utility.yul\":7:106   */\n      swap2\n      swap1\n      pop\n      jump\t// out\n        /* \"#utility.yul\":112:281   */\n    tag_60:\n        /* \"#utility.yul\":196:207   */\n      0x00\n        /* \"#utility.yul\":230:236   */\n      dup3\n        /* \"#utility.yul\":225:228   */\n      dup3\n        /* \"#utility.yul\":218:237   */\n      mstore\n        /* \"#utility.yul\":270:274   */\n      0x20\n        /* \"#utility.yul\":265:268   */\n      dup3\n        /* \"#utility.yul\":261:275   */\n      add\n        /* \"#utility.yul\":246:275   */\n      swap1\n      pop\n        /* \"#utility.yul\":112:281   */\n      swap3\n      swap2\n      pop\n      pop\n      jump\t// out\n        /* \"#utility.yul\":287:533   */\n    tag_61:\n        /* \"#utility.yul\":368:369   */\n      0x00\n        /* \"#utility.yul\":378:491   */\n    tag_110:\n        /* \"#utility.yul\":392:398   */\n      dup4\n        /* \"#utility.yul\":389:390   */\n      dup2\n        /* \"#utility.yul\":386:399   */\n      lt\n        /* \"#utility.yul\":378:491   */\n      iszero\n      tag_112\n      jumpi\n        /* \"#utility.yul\":477:478   */\n      dup1\n        /* \"#utility.yul\":472:475   */\n      dup3\n        /* \"#utility.yul\":468:479   */\n      add\n        /* \"#utility.yul\":462:480   */\n      mload\n        /* \"#utility.yul\":458:459   */\n      dup2\n        /* \"#utility.yul\":453:456   */\n      dup5\n        /* \"#utility.yul\":449:460   */\n      add\n        /* \"#utility.yul\":442:481   */\n      mstore\n        /* \"#utility.yul\":414:416   */\n      0x20\n        /* \"#utility.yul\":411:412   */\n      dup2\n        /* \"#utility.yul\":407:417   */\n      add\n        /* \"#utility.yul\":402:417   */\n      swap1\n      pop\n        /* \"#utility.yul\":378:491   */\n      jump(tag_110)\n    tag_112:\n        /* \"#utility.yul\":525:526   */\n      0x00\n        /* \"#utility.yul\":516:522   */\n      dup5\n        /* \"#utility.yul\":511:514   */\n      dup5\n        /* \"#utility.yul\":507:523   */\n      add\n        /* \"#utility.yul\":500:527   */\n      mstore\n        /* \"#utility.yul\":349:533   */\n      pop\n        /* \"#utility.yul\":287:533   */\n      pop\n      pop\n      pop\n      jump\t// out\n        /* \"#utility.yul\":539:641   */\n    tag_62:\n        /* \"#utility.yul\":580:586   */\n      0x00\n        /* \"#utility.yul\":631:633   */\n      0x1f\n        /* \"#utility.yul\":627:634   */\n      not\n        /* \"#utility.yul\":622:624   */\n      0x1f\n        /* \"#utility.yul\":615:620   */\n      dup4\n        /* \"#utility.yul\":611:625   */\n      add\n        /* \"#utility.yul\":607:635   */\n      and\n        /* \"#utility.yul\":597:635   */\n      swap1\n      pop\n        /* \"#utility.yul\":539:641   */\n      swap2\n      swap1\n      pop\n      jump\t// out\n        /* \"#utility.yul\":647:1024   */\n    tag_63:\n        /* \"#utility.yul\":735:738   */\n      0x00\n        /* \"#utility.yul\":763:802   */\n      tag_115\n        /* \"#utility.yul\":796:801   */\n      dup3\n        /* \"#utility.yul\":763:802   */\n      tag_59\n      jump\t// in\n    tag_115:\n        /* \"#utility.yul\":818:889   */\n      tag_116\n        /* \"#utility.yul\":882:888   */\n      dup2\n        /* \"#utility.yul\":877:880   */\n      dup6\n        /* \"#utility.yul\":818:889   */\n      tag_60\n      jump\t// in\n    tag_116:\n        /* \"#utility.yul\":811:889   */\n      swap4\n      pop\n        /* \"#utility.yul\":898:963   */\n      tag_117\n        /* \"#utility.yul\":956:962   */\n      dup2\n        /* \"#utility.yul\":951:954   */\n      dup6\n        /* \"#utility.yul\":944:948   */\n      0x20\n        /* \"#utility.yul\":937:942   */\n      dup7\n        /* \"#utility.yul\":933:949   */\n      add\n        /* \"#utility.yul\":898:963   */\n      tag_61\n      jump\t// in\n    tag_117:\n        /* \"#utility.yul\":988:1017   */\n      tag_118\n        /* \"#utility.yul\":1010:1016   */\n      dup2\n        /* \"#utility.yul\":988:1017   */\n      tag_62\n      jump\t// in\n    tag_118:\n        /* \"#utility.yul\":983:986   */\n      dup5\n        /* \"#utility.yul\":979:1018   */\n      add\n        /* \"#utility.yul\":972:1018   */\n      swap2\n      pop\n        /* \"#utility.yul\":739:1024   */\n      pop\n        /* \"#utility.yul\":647:1024   */\n      swap3\n      swap2\n      pop\n      pop\n      jump\t// out\n        /* \"#utility.yul\":1030:1107   */\n    tag_64:\n        /* \"#utility.yul\":1067:1074   */\n      0x00\n        /* \"#utility.yul\":1096:1101   */\n      dup2\n        /* \"#utility.yul\":1085:1101   */\n      swap1\n      pop\n        /* \"#utility.yul\":1030:1107   */\n      swap2\n      swap1\n      pop\n      jump\t// out\n        /* \"#utility.yul\":1113:1231   */\n    tag_65:\n        /* \"#utility.yul\":1200:1224   */\n      tag_121\n        /* \"#utility.yul\":1218:1223   */\n      dup2\n        /* \"#utility.yul\":1200:1224   */\n      tag_64\n      jump\t// in\n    tag_121:\n        /* \"#utility.yul\":1195:1198   */\n      dup3\n        /* \"#utility.yul\":1188:1225   */\n      mstore\n        /* \"#utility.yul\":1113:1231   */\n      pop\n      pop\n      jump\t// out\n        /* \"#utility.yul\":1237:1363   */\n    tag_66:\n        /* \"#utility.yul\":1274:1281   */\n      0x00\n        /* \"#utility.yul\":1314:1356   */\n      0xffffffffffffffffffffffffffffffffffffffff\n        /* \"#utility.yul\":1307:1312   */\n      dup3\n        /* \"#utility.yul\":1303:1357   */\n      and\n        /* \"#utility.yul\":1292:1357   */\n      swap1\n      pop\n        /* \"#utility.yul\":1237:1363   */\n      swap2\n      swap1\n      pop\n      jump\t// out\n        /* \"#utility.yul\":1369:1465   */\n    tag_67:\n        /* \"#utility.yul\":1406:1413   */\n      0x00\n        /* \"#utility.yul\":1435:1459   */\n      tag_124\n        /* \"#utility.yul\":1453:1458   */\n      dup3\n        /* \"#utility.yul\":1435:1459   */\n      tag_66\n      jump\t// in\n    tag_124:\n        /* \"#utility.yul\":1424:1459   */\n      swap1\n      pop\n        /* \"#utility.yul\":1369:1465   */\n      swap2\n      swap1\n      pop\n      jump\t// out\n        /* \"#utility.yul\":1471:1589   */\n    tag_68:\n        /* \"#utility.yul\":1558:1582   */\n      tag_126\n        /* \"#utility.yul\":1576:1581   */\n      dup2\n        /* \"#utility.yul\":1558:1582   */\n      tag_67\n      jump\t// in\n    tag_126:\n        /* \"#utility.yul\":1553:1556   */\n      dup3\n        /* \"#utility.yul\":1546:1583   */\n      mstore\n        /* \"#utility.yul\":1471:1589   */\n      pop\n      pop\n      jump\t// out\n        /* \"#utility.yul\":1595:2330   */\n    tag_10:\n        /* \"#utility.yul\":1812:1816   */\n      0x00\n        /* \"#utility.yul\":1850:1853   */\n      0x80\n        /* \"#utility.yul\":1839:1848   */\n      dup3\n        /* \"#utility.yul\":1835:1854   */\n      add\n        /* \"#utility.yul\":1827:1854   */\n      swap1\n      pop\n        /* \"#utility.yul\":1900:1909   */\n      dup2\n        /* \"#utility.yul\":1894:1898   */\n      dup2\n        /* \"#utility.yul\":1890:1910   */\n      sub\n        /* \"#utility.yul\":1886:1887   */\n      0x00\n        /* \"#utility.yul\":1875:1884   */\n      dup4\n        /* \"#utility.yul\":1871:1888   */\n      add\n        /* \"#utility.yul\":1864:1911   */\n      mstore\n        /* \"#utility.yul\":1928:2006   */\n      tag_128\n        /* \"#utility.yul\":2001:2005   */\n      dup2\n        /* \"#utility.yul\":1992:1998   */\n      dup8\n        /* \"#utility.yul\":1928:2006   */\n      tag_63\n      jump\t// in\n    tag_128:\n        /* \"#utility.yul\":1920:2006   */\n      swap1\n      pop\n        /* \"#utility.yul\":2016:2088   */\n      tag_129\n        /* \"#utility.yul\":2084:2086   */\n      0x20\n        /* \"#utility.yul\":2073:2082   */\n      dup4\n        /* \"#utility.yul\":2069:2087   */\n      add\n        /* \"#utility.yul\":2060:2066   */\n      dup7\n        /* \"#utility.yul\":2016:2088   */\n      tag_65\n      jump\t// in\n    tag_129:\n        /* \"#utility.yul\":2135:2144   */\n      dup2\n        /* \"#utility.yul\":2129:2133   */\n      dup2\n        /* \"#utility.yul\":2125:2145   */\n      sub\n        /* \"#utility.yul\":2120:2122   */\n      0x40\n        /* \"#utility.yul\":2109:2118   */\n      dup4\n        /* \"#utility.yul\":2105:2123   */\n      add\n        /* \"#utility.yul\":2098:2146   */\n      mstore\n        /* \"#utility.yul\":2163:2241   */\n      tag_130\n        /* \"#utility.yul\":2236:2240   */\n      dup2\n        /* \"#utility.yul\":2227:2233   */\n      dup6\n        /* \"#utility.yul\":2163:2241   */\n      tag_63\n      jump\t// in\n    tag_130:\n        /* \"#utility.yul\":2155:2241   */\n      swap1\n      pop\n        /* \"#utility.yul\":2251:2323   */\n      tag_131\n        /* \"#utility.yul\":2319:2321   */\n      0x60\n        /* \"#utility.yul\":2308:2317   */\n      dup4\n        /* \"#utility.yul\":2304:2322   */\n      add\n        /* \"#utility.yul\":2295:2301   */\n      dup5\n        /* \"#utility.yul\":2251:2323   */\n      tag_68\n      jump\t// in\n    tag_131:\n        /* \"#utility.yul\":1595:2330   */\n      swap6\n      swap5\n      pop\n      pop\n      pop\n      pop\n      pop\n      jump\t// out\n        /* \"#utility.yul\":2336:2495   */\n    tag_69:\n        /* \"#utility.yul\":2410:2421   */\n      0x00\n        /* \"#utility.yul\":2444:2450   */\n      dup3\n        /* \"#utility.yul\":2439:2442   */\n      dup3\n        /* \"#utility.yul\":2432:2451   */\n      mstore\n        /* \"#utility.yul\":2484:2488   */\n      0x20\n        /* \"#utility.yul\":2479:2482   */\n      dup3\n        /* \"#utility.yul\":2475:2489   */\n      add\n        /* \"#utility.yul\":2460:2489   */\n      swap1\n      pop\n        /* \"#utility.yul\":2336:2495   */\n      swap3\n      swap2\n      pop\n      pop\n      jump\t// out\n        /* \"#utility.yul\":2501:2858   */\n    tag_70:\n        /* \"#utility.yul\":2579:2582   */\n      0x00\n        /* \"#utility.yul\":2607:2646   */\n      tag_134\n        /* \"#utility.yul\":2640:2645   */\n      dup3\n        /* \"#utility.yul\":2607:2646   */\n      tag_59\n      jump\t// in\n    tag_134:\n        /* \"#utility.yul\":2662:2723   */\n      tag_135\n        /* \"#utility.yul\":2716:2722   */\n      dup2\n        /* \"#utility.yul\":2711:2714   */\n      dup6\n        /* \"#utility.yul\":2662:2723   */\n      tag_69\n      jump\t// in\n    tag_135:\n        /* \"#utility.yul\":2655:2723   */\n      swap4\n      pop\n        /* \"#utility.yul\":2732:2797   */\n      tag_136\n        /* \"#utility.yul\":2790:2796   */\n      dup2\n        /* \"#utility.yul\":2785:2788   */\n      dup6\n        /* \"#utility.yul\":2778:2782   */\n      0x20\n        /* \"#utility.yul\":2771:2776   */\n      dup7\n        /* \"#utility.yul\":2767:2783   */\n      add\n        /* \"#utility.yul\":2732:2797   */\n      tag_61\n      jump\t// in\n    tag_136:\n        /* \"#utility.yul\":2822:2851   */\n      tag_137\n        /* \"#utility.yul\":2844:2850   */\n      dup2\n        /* \"#utility.yul\":2822:2851   */\n      tag_62\n      jump\t// in\n    tag_137:\n        /* \"#utility.yul\":2817:2820   */\n      dup5\n        /* \"#utility.yul\":2813:2852   */\n      add\n        /* \"#utility.yul\":2806:2852   */\n      swap2\n      pop\n        /* \"#utility.yul\":2583:2858   */\n      pop\n        /* \"#utility.yul\":2501:2858   */\n      swap3\n      swap2\n      pop\n      pop\n      jump\t// out\n        /* \"#utility.yul\":2864:2972   */\n    tag_71:\n        /* \"#utility.yul\":2941:2965   */\n      tag_139\n        /* \"#utility.yul\":2959:2964   */\n      dup2\n        /* \"#utility.yul\":2941:2965   */\n      tag_64\n      jump\t// in\n    tag_139:\n        /* \"#utility.yul\":2936:2939   */\n      dup3\n        /* \"#utility.yul\":2929:2966   */\n      mstore\n        /* \"#utility.yul\":2864:2972   */\n      pop\n      pop\n      jump\t// out\n        /* \"#utility.yul\":2978:3086   */\n    tag_72:\n        /* \"#utility.yul\":3055:3079   */\n      tag_141\n        /* \"#utility.yul\":3073:3078   */\n      dup2\n        /* \"#utility.yul\":3055:3079   */\n      tag_67\n      jump\t// in\n    tag_141:\n        /* \"#utility.yul\":3050:3053   */\n      dup3\n        /* \"#utility.yul\":3043:3080   */\n      mstore\n        /* \"#utility.yul\":2978:3086   */\n      pop\n      pop\n      jump\t// out\n        /* \"#utility.yul\":3154:4188   */\n    tag_73:\n        /* \"#utility.yul\":3269:3272   */\n      0x00\n        /* \"#utility.yul\":3305:3309   */\n      0x80\n        /* \"#utility.yul\":3300:3303   */\n      dup4\n        /* \"#utility.yul\":3296:3310   */\n      add\n        /* \"#utility.yul\":3392:3396   */\n      0x00\n        /* \"#utility.yul\":3385:3390   */\n      dup4\n        /* \"#utility.yul\":3381:3397   */\n      add\n        /* \"#utility.yul\":3375:3398   */\n      mload\n        /* \"#utility.yul\":3445:3448   */\n      dup5\n        /* \"#utility.yul\":3439:3443   */\n      dup3\n        /* \"#utility.yul\":3435:3449   */\n      sub\n        /* \"#utility.yul\":3428:3432   */\n      0x00\n        /* \"#utility.yul\":3423:3426   */\n      dup7\n        /* \"#utility.yul\":3419:3433   */\n      add\n        /* \"#utility.yul\":3412:3450   */\n      mstore\n        /* \"#utility.yul\":3471:3544   */\n      tag_143\n        /* \"#utility.yul\":3539:3543   */\n      dup3\n        /* \"#utility.yul\":3525:3537   */\n      dup3\n        /* \"#utility.yul\":3471:3544   */\n      tag_70\n      jump\t// in\n    tag_143:\n        /* \"#utility.yul\":3463:3544   */\n      swap2\n      pop\n        /* \"#utility.yul\":3320:3555   */\n      pop\n        /* \"#utility.yul\":3637:3641   */\n      0x20\n        /* \"#utility.yul\":3630:3635   */\n      dup4\n        /* \"#utility.yul\":3626:3642   */\n      add\n        /* \"#utility.yul\":3620:3643   */\n      mload\n        /* \"#utility.yul\":3656:3719   */\n      tag_144\n        /* \"#utility.yul\":3713:3717   */\n      0x20\n        /* \"#utility.yul\":3708:3711   */\n      dup7\n        /* \"#utility.yul\":3704:3718   */\n      add\n        /* \"#utility.yul\":3690:3702   */\n      dup3\n        /* \"#utility.yul\":3656:3719   */\n      tag_71\n      jump\t// in\n    tag_144:\n        /* \"#utility.yul\":3565:3729   */\n      pop\n        /* \"#utility.yul\":3815:3819   */\n      0x40\n        /* \"#utility.yul\":3808:3813   */\n      dup4\n        /* \"#utility.yul\":3804:3820   */\n      add\n        /* \"#utility.yul\":3798:3821   */\n      mload\n        /* \"#utility.yul\":3868:3871   */\n      dup5\n        /* \"#utility.yul\":3862:3866   */\n      dup3\n        /* \"#utility.yul\":3858:3872   */\n      sub\n        /* \"#utility.yul\":3851:3855   */\n      0x40\n        /* \"#utility.yul\":3846:3849   */\n      dup7\n        /* \"#utility.yul\":3842:3856   */\n      add\n        /* \"#utility.yul\":3835:3873   */\n      mstore\n        /* \"#utility.yul\":3894:3967   */\n      tag_145\n        /* \"#utility.yul\":3962:3966   */\n      dup3\n        /* \"#utility.yul\":3948:3960   */\n      dup3\n        /* \"#utility.yul\":3894:3967   */\n      tag_70\n      jump\t// in\n    tag_145:\n        /* \"#utility.yul\":3886:3967   */\n      swap2\n      pop\n        /* \"#utility.yul\":3739:3978   */\n      pop\n        /* \"#utility.yul\":4069:4073   */\n      0x60\n        /* \"#utility.yul\":4062:4067   */\n      dup4\n        /* \"#utility.yul\":4058:4074   */\n      add\n        /* \"#utility.yul\":4052:4075   */\n      mload\n        /* \"#utility.yul\":4088:4151   */\n      tag_146\n        /* \"#utility.yul\":4145:4149   */\n      0x60\n        /* \"#utility.yul\":4140:4143   */\n      dup7\n        /* \"#utility.yul\":4136:4150   */\n      add\n        /* \"#utility.yul\":4122:4134   */\n      dup3\n        /* \"#utility.yul\":4088:4151   */\n      tag_72\n      jump\t// in\n    tag_146:\n        /* \"#utility.yul\":3988:4161   */\n      pop\n        /* \"#utility.yul\":4178:4182   */\n      dup1\n        /* \"#utility.yul\":4171:4182   */\n      swap2\n      pop\n        /* \"#utility.yul\":3274:4188   */\n      pop\n        /* \"#utility.yul\":3154:4188   */\n      swap3\n      swap2\n      pop\n      pop\n      jump\t// out\n        /* \"#utility.yul\":4194:4559   */\n    tag_14:\n        /* \"#utility.yul\":4333:4337   */\n      0x00\n        /* \"#utility.yul\":4371:4373   */\n      0x20\n        /* \"#utility.yul\":4360:4369   */\n      dup3\n        /* \"#utility.yul\":4356:4374   */\n      add\n        /* \"#utility.yul\":4348:4374   */\n      swap1\n      pop\n        /* \"#utility.yul\":4420:4429   */\n      dup2\n        /* \"#utility.yul\":4414:4418   */\n      dup2\n        /* \"#utility.yul\":4410:4430   */\n      sub\n        /* \"#utility.yul\":4406:4407   */\n      0x00\n        /* \"#utility.yul\":4395:4404   */\n      dup4\n        /* \"#utility.yul\":4391:4408   */\n      add\n        /* \"#utility.yul\":4384:4431   */\n      mstore\n        /* \"#utility.yul\":4448:4552   */\n      tag_148\n        /* \"#utility.yul\":4547:4551   */\n      dup2\n        /* \"#utility.yul\":4538:4544   */\n      dup5\n        /* \"#utility.yul\":4448:4552   */\n      tag_73\n      jump\t// in\n    tag_148:\n        /* \"#utility.yul\":4440:4552   */\n      swap1\n      pop\n        /* \"#utility.yul\":4194:4559   */\n      swap3\n      swap2\n      pop\n      pop\n      jump\t// out\n        /* \"#utility.yul\":4565:4878   */\n    tag_18:\n        /* \"#utility.yul\":4678:4682   */\n      0x00\n        /* \"#utility.yul\":4716:4718   */\n      0x20\n        /* \"#utility.yul\":4705:4714   */\n      dup3\n        /* \"#utility.yul\":4701:4719   */\n      add\n        /* \"#utility.yul\":4693:4719   */\n      swap1\n      pop\n        /* \"#utility.yul\":4765:4774   */\n      dup2\n        /* \"#utility.yul\":4759:4763   */\n      dup2\n        /* \"#utility.yul\":4755:4775   */\n      sub\n        /* \"#utility.yul\":4751:4752   */\n      0x00\n        /* \"#utility.yul\":4740:4749   */\n      dup4\n        /* \"#utility.yul\":4736:4753   */\n      add\n        /* \"#utility.yul\":4729:4776   */\n      mstore\n        /* \"#utility.yul\":4793:4871   */\n      tag_150\n        /* \"#utility.yul\":4866:4870   */\n      dup2\n        /* \"#utility.yul\":4857:4863   */\n      dup5\n        /* \"#utility.yul\":4793:4871   */\n      tag_63\n      jump\t// in\n    tag_150:\n        /* \"#utility.yul\":4785:4871   */\n      swap1\n      pop\n        /* \"#utility.yul\":4565:4878   */\n      swap3\n      swap2\n      pop\n      pop\n      jump\t// out\n        /* \"#utility.yul\":4884:4959   */\n    tag_74:\n        /* \"#utility.yul\":4917:4923   */\n      0x00\n        /* \"#utility.yul\":4950:4952   */\n      0x40\n        /* \"#utility.yul\":4944:4953   */\n      mload\n        /* \"#utility.yul\":4934:4953   */\n      swap1\n      pop\n        /* \"#utility.yul\":4884:4959   */\n      swap1\n      jump\t// out\n        /* \"#utility.yul\":4965:5082   */\n    tag_75:\n        /* \"#utility.yul\":5074:5075   */\n      0x00\n        /* \"#utility.yul\":5071:5072   */\n      dup1\n        /* \"#utility.yul\":5064:5076   */\n      revert\n        /* \"#utility.yul\":5088:5205   */\n    tag_76:\n        /* \"#utility.yul\":5197:5198   */\n      0x00\n        /* \"#utility.yul\":5194:5195   */\n      dup1\n        /* \"#utility.yul\":5187:5199   */\n      revert\n        /* \"#utility.yul\":5211:5328   */\n    tag_77:\n        /* \"#utility.yul\":5320:5321   */\n      0x00\n        /* \"#utility.yul\":5317:5318   */\n      dup1\n        /* \"#utility.yul\":5310:5322   */\n      revert\n        /* \"#utility.yul\":5334:5451   */\n    tag_78:\n        /* \"#utility.yul\":5443:5444   */\n      0x00\n        /* \"#utility.yul\":5440:5441   */\n      dup1\n        /* \"#utility.yul\":5433:5445   */\n      revert\n        /* \"#utility.yul\":5457:5637   */\n    tag_79:\n        /* \"#utility.yul\":5505:5582   */\n      0x4e487b7100000000000000000000000000000000000000000000000000000000\n        /* \"#utility.yul\":5502:5503   */\n      0x00\n        /* \"#utility.yul\":5495:5583   */\n      mstore\n        /* \"#utility.yul\":5602:5606   */\n      0x41\n        /* \"#utility.yul\":5599:5600   */\n      0x04\n        /* \"#utility.yul\":5592:5607   */\n      mstore\n        /* \"#utility.yul\":5626:5630   */\n      0x24\n        /* \"#utility.yul\":5623:5624   */\n      0x00\n        /* \"#utility.yul\":5616:5631   */\n      revert\n        /* \"#utility.yul\":5643:5924   */\n    tag_80:\n        /* \"#utility.yul\":5726:5753   */\n      tag_158\n        /* \"#utility.yul\":5748:5752   */\n      dup3\n        /* \"#utility.yul\":5726:5753   */\n      tag_62\n      jump\t// in\n    tag_158:\n        /* \"#utility.yul\":5718:5724   */\n      dup2\n        /* \"#utility.yul\":5714:5754   */\n      add\n        /* \"#utility.yul\":5856:5862   */\n      dup2\n        /* \"#utility.yul\":5844:5854   */\n      dup2\n        /* \"#utility.yul\":5841:5863   */\n      lt\n        /* \"#utility.yul\":5820:5838   */\n      0xffffffffffffffff\n        /* \"#utility.yul\":5808:5818   */\n      dup3\n        /* \"#utility.yul\":5805:5839   */\n      gt\n        /* \"#utility.yul\":5802:5864   */\n      or\n        /* \"#utility.yul\":5799:5887   */\n      iszero\n      tag_159\n      jumpi\n        /* \"#utility.yul\":5867:5885   */\n      tag_160\n      tag_79\n      jump\t// in\n    tag_160:\n        /* \"#utility.yul\":5799:5887   */\n    tag_159:\n        /* \"#utility.yul\":5907:5917   */\n      dup1\n        /* \"#utility.yul\":5903:5905   */\n      0x40\n        /* \"#utility.yul\":5896:5918   */\n      mstore\n        /* \"#utility.yul\":5686:5924   */\n      pop\n        /* \"#utility.yul\":5643:5924   */\n      pop\n      pop\n      jump\t// out\n        /* \"#utility.yul\":5930:6059   */\n    tag_81:\n        /* \"#utility.yul\":5964:5970   */\n      0x00\n        /* \"#utility.yul\":5991:6011   */\n      tag_162\n      tag_74\n      jump\t// in\n    tag_162:\n        /* \"#utility.yul\":5981:6011   */\n      swap1\n      pop\n        /* \"#utility.yul\":6020:6053   */\n      tag_163\n        /* \"#utility.yul\":6048:6052   */\n      dup3\n        /* \"#utility.yul\":6040:6046   */\n      dup3\n        /* \"#utility.yul\":6020:6053   */\n      tag_80\n      jump\t// in\n    tag_163:\n        /* \"#utility.yul\":5930:6059   */\n      swap2\n      swap1\n      pop\n      jump\t// out\n        /* \"#utility.yul\":6065:6373   */\n    tag_82:\n        /* \"#utility.yul\":6127:6131   */\n      0x00\n        /* \"#utility.yul\":6217:6235   */\n      0xffffffffffffffff\n        /* \"#utility.yul\":6209:6215   */\n      dup3\n        /* \"#utility.yul\":6206:6236   */\n      gt\n        /* \"#utility.yul\":6203:6259   */\n      iszero\n      tag_165\n      jumpi\n        /* \"#utility.yul\":6239:6257   */\n      tag_166\n      tag_79\n      jump\t// in\n    tag_166:\n        /* \"#utility.yul\":6203:6259   */\n    tag_165:\n        /* \"#utility.yul\":6277:6306   */\n      tag_167\n        /* \"#utility.yul\":6299:6305   */\n      dup3\n        /* \"#utility.yul\":6277:6306   */\n      tag_62\n      jump\t// in\n    tag_167:\n        /* \"#utility.yul\":6269:6306   */\n      swap1\n      pop\n        /* \"#utility.yul\":6361:6365   */\n      0x20\n        /* \"#utility.yul\":6355:6359   */\n      dup2\n        /* \"#utility.yul\":6351:6366   */\n      add\n        /* \"#utility.yul\":6343:6366   */\n      swap1\n      pop\n        /* \"#utility.yul\":6065:6373   */\n      swap2\n      swap1\n      pop\n      jump\t// out\n        /* \"#utility.yul\":6379:6525   */\n    tag_83:\n        /* \"#utility.yul\":6476:6482   */\n      dup3\n        /* \"#utility.yul\":6471:6474   */\n      dup2\n        /* \"#utility.yul\":6466:6469   */\n      dup4\n        /* \"#utility.yul\":6453:6483   */\n      calldatacopy\n        /* \"#utility.yul\":6517:6518   */\n      0x00\n        /* \"#utility.yul\":6508:6514   */\n      dup4\n        /* \"#utility.yul\":6503:6506   */\n      dup4\n        /* \"#utility.yul\":6499:6515   */\n      add\n        /* \"#utility.yul\":6492:6519   */\n      mstore\n        /* \"#utility.yul\":6379:6525   */\n      pop\n      pop\n      pop\n      jump\t// out\n        /* \"#utility.yul\":6531:6956   */\n    tag_84:\n        /* \"#utility.yul\":6609:6614   */\n      0x00\n        /* \"#utility.yul\":6634:6700   */\n      tag_170\n        /* \"#utility.yul\":6650:6699   */\n      tag_171\n        /* \"#utility.yul\":6692:6698   */\n      dup5\n        /* \"#utility.yul\":6650:6699   */\n      tag_82\n      jump\t// in\n    tag_171:\n        /* \"#utility.yul\":6634:6700   */\n      tag_81\n      jump\t// in\n    tag_170:\n        /* \"#utility.yul\":6625:6700   */\n      swap1\n      pop\n        /* \"#utility.yul\":6723:6729   */\n      dup3\n        /* \"#utility.yul\":6716:6721   */\n      dup2\n        /* \"#utility.yul\":6709:6730   */\n      mstore\n        /* \"#utility.yul\":6761:6765   */\n      0x20\n        /* \"#utility.yul\":6754:6759   */\n      dup2\n        /* \"#utility.yul\":6750:6766   */\n      add\n        /* \"#utility.yul\":6799:6802   */\n      dup5\n        /* \"#utility.yul\":6790:6796   */\n      dup5\n        /* \"#utility.yul\":6785:6788   */\n      dup5\n        /* \"#utility.yul\":6781:6797   */\n      add\n        /* \"#utility.yul\":6778:6803   */\n      gt\n        /* \"#utility.yul\":6775:6887   */\n      iszero\n      tag_172\n      jumpi\n        /* \"#utility.yul\":6806:6885   */\n      tag_173\n      tag_78\n      jump\t// in\n    tag_173:\n        /* \"#utility.yul\":6775:6887   */\n    tag_172:\n        /* \"#utility.yul\":6896:6950   */\n      tag_174\n        /* \"#utility.yul\":6943:6949   */\n      dup5\n        /* \"#utility.yul\":6938:6941   */\n      dup3\n        /* \"#utility.yul\":6933:6936   */\n      dup6\n        /* \"#utility.yul\":6896:6950   */\n      tag_83\n      jump\t// in\n    tag_174:\n        /* \"#utility.yul\":6615:6956   */\n      pop\n        /* \"#utility.yul\":6531:6956   */\n      swap4\n      swap3\n      pop\n      pop\n      pop\n      jump\t// out\n        /* \"#utility.yul\":6976:7316   */\n    tag_85:\n        /* \"#utility.yul\":7032:7037   */\n      0x00\n        /* \"#utility.yul\":7081:7084   */\n      dup3\n        /* \"#utility.yul\":7074:7078   */\n      0x1f\n        /* \"#utility.yul\":7066:7072   */\n      dup4\n        /* \"#utility.yul\":7062:7079   */\n      add\n        /* \"#utility.yul\":7058:7085   */\n      slt\n        /* \"#utility.yul\":7048:7170   */\n      tag_176\n      jumpi\n        /* \"#utility.yul\":7089:7168   */\n      tag_177\n      tag_77\n      jump\t// in\n    tag_177:\n        /* \"#utility.yul\":7048:7170   */\n    tag_176:\n        /* \"#utility.yul\":7206:7212   */\n      dup2\n        /* \"#utility.yul\":7193:7213   */\n      calldataload\n        /* \"#utility.yul\":7231:7310   */\n      tag_178\n        /* \"#utility.yul\":7306:7309   */\n      dup5\n        /* \"#utility.yul\":7298:7304   */\n      dup3\n        /* \"#utility.yul\":7291:7295   */\n      0x20\n        /* \"#utility.yul\":7283:7289   */\n      dup7\n        /* \"#utility.yul\":7279:7296   */\n      add\n        /* \"#utility.yul\":7231:7310   */\n      tag_84\n      jump\t// in\n    tag_178:\n        /* \"#utility.yul\":7222:7310   */\n      swap2\n      pop\n        /* \"#utility.yul\":7038:7316   */\n      pop\n        /* \"#utility.yul\":6976:7316   */\n      swap3\n      swap2\n      pop\n      pop\n      jump\t// out\n        /* \"#utility.yul\":7322:7444   */\n    tag_86:\n        /* \"#utility.yul\":7395:7419   */\n      tag_180\n        /* \"#utility.yul\":7413:7418   */\n      dup2\n        /* \"#utility.yul\":7395:7419   */\n      tag_64\n      jump\t// in\n    tag_180:\n        /* \"#utility.yul\":7388:7393   */\n      dup2\n        /* \"#utility.yul\":7385:7420   */\n      eq\n        /* \"#utility.yul\":7375:7438   */\n      tag_181\n      jumpi\n        /* \"#utility.yul\":7434:7435   */\n      0x00\n        /* \"#utility.yul\":7431:7432   */\n      dup1\n        /* \"#utility.yul\":7424:7436   */\n      revert\n        /* \"#utility.yul\":7375:7438   */\n    tag_181:\n        /* \"#utility.yul\":7322:7444   */\n      pop\n      jump\t// out\n        /* \"#utility.yul\":7450:7589   */\n    tag_87:\n        /* \"#utility.yul\":7496:7501   */\n      0x00\n        /* \"#utility.yul\":7534:7540   */\n      dup2\n        /* \"#utility.yul\":7521:7541   */\n      calldataload\n        /* \"#utility.yul\":7512:7541   */\n      swap1\n      pop\n        /* \"#utility.yul\":7550:7583   */\n      tag_183\n        /* \"#utility.yul\":7577:7582   */\n      dup2\n        /* \"#utility.yul\":7550:7583   */\n      tag_86\n      jump\t// in\n    tag_183:\n        /* \"#utility.yul\":7450:7589   */\n      swap3\n      swap2\n      pop\n      pop\n      jump\t// out\n        /* \"#utility.yul\":7595:7717   */\n    tag_88:\n        /* \"#utility.yul\":7668:7692   */\n      tag_185\n        /* \"#utility.yul\":7686:7691   */\n      dup2\n        /* \"#utility.yul\":7668:7692   */\n      tag_67\n      jump\t// in\n    tag_185:\n        /* \"#utility.yul\":7661:7666   */\n      dup2\n        /* \"#utility.yul\":7658:7693   */\n      eq\n        /* \"#utility.yul\":7648:7711   */\n      tag_186\n      jumpi\n        /* \"#utility.yul\":7707:7708   */\n      0x00\n        /* \"#utility.yul\":7704:7705   */\n      dup1\n        /* \"#utility.yul\":7697:7709   */\n      revert\n        /* \"#utility.yul\":7648:7711   */\n    tag_186:\n        /* \"#utility.yul\":7595:7717   */\n      pop\n      jump\t// out\n        /* \"#utility.yul\":7723:7862   */\n    tag_89:\n        /* \"#utility.yul\":7769:7774   */\n      0x00\n        /* \"#utility.yul\":7807:7813   */\n      dup2\n        /* \"#utility.yul\":7794:7814   */\n      calldataload\n        /* \"#utility.yul\":7785:7814   */\n      swap1\n      pop\n        /* \"#utility.yul\":7823:7856   */\n      tag_188\n        /* \"#utility.yul\":7850:7855   */\n      dup2\n        /* \"#utility.yul\":7823:7856   */\n      tag_88\n      jump\t// in\n    tag_188:\n        /* \"#utility.yul\":7723:7862   */\n      swap3\n      swap2\n      pop\n      pop\n      jump\t// out\n        /* \"#utility.yul\":7868:8993   */\n    tag_21:\n        /* \"#utility.yul\":7974:7980   */\n      0x00\n        /* \"#utility.yul\":7982:7988   */\n      dup1\n        /* \"#utility.yul\":7990:7996   */\n      0x00\n        /* \"#utility.yul\":7998:8004   */\n      dup1\n        /* \"#utility.yul\":8047:8050   */\n      0x80\n        /* \"#utility.yul\":8035:8044   */\n      dup6\n        /* \"#utility.yul\":8026:8033   */\n      dup8\n        /* \"#utility.yul\":8022:8045   */\n      sub\n        /* \"#utility.yul\":8018:8051   */\n      slt\n        /* \"#utility.yul\":8015:8135   */\n      iszero\n      tag_190\n      jumpi\n        /* \"#utility.yul\":8054:8133   */\n      tag_191\n      tag_75\n      jump\t// in\n    tag_191:\n        /* \"#utility.yul\":8015:8135   */\n    tag_190:\n        /* \"#utility.yul\":8202:8203   */\n      0x00\n        /* \"#utility.yul\":8191:8200   */\n      dup6\n        /* \"#utility.yul\":8187:8204   */\n      add\n        /* \"#utility.yul\":8174:8205   */\n      calldataload\n        /* \"#utility.yul\":8232:8250   */\n      0xffffffffffffffff\n        /* \"#utility.yul\":8224:8230   */\n      dup2\n        /* \"#utility.yul\":8221:8251   */\n      gt\n        /* \"#utility.yul\":8218:8335   */\n      iszero\n      tag_192\n      jumpi\n        /* \"#utility.yul\":8254:8333   */\n      tag_193\n      tag_76\n      jump\t// in\n    tag_193:\n        /* \"#utility.yul\":8218:8335   */\n    tag_192:\n        /* \"#utility.yul\":8359:8422   */\n      tag_194\n        /* \"#utility.yul\":8414:8421   */\n      dup8\n        /* \"#utility.yul\":8405:8411   */\n      dup3\n        /* \"#utility.yul\":8394:8403   */\n      dup9\n        /* \"#utility.yul\":8390:8412   */\n      add\n        /* \"#utility.yul\":8359:8422   */\n      tag_85\n      jump\t// in\n    tag_194:\n        /* \"#utility.yul\":8349:8422   */\n      swap5\n      pop\n        /* \"#utility.yul\":8145:8432   */\n      pop\n        /* \"#utility.yul\":8471:8473   */\n      0x20\n        /* \"#utility.yul\":8497:8550   */\n      tag_195\n        /* \"#utility.yul\":8542:8549   */\n      dup8\n        /* \"#utility.yul\":8533:8539   */\n      dup3\n        /* \"#utility.yul\":8522:8531   */\n      dup9\n        /* \"#utility.yul\":8518:8540   */\n      add\n        /* \"#utility.yul\":8497:8550   */\n      tag_87\n      jump\t// in\n    tag_195:\n        /* \"#utility.yul\":8487:8550   */\n      swap4\n      pop\n        /* \"#utility.yul\":8442:8560   */\n      pop\n        /* \"#utility.yul\":8627:8629   */\n      0x40\n        /* \"#utility.yul\":8616:8625   */\n      dup6\n        /* \"#utility.yul\":8612:8630   */\n      add\n        /* \"#utility.yul\":8599:8631   */\n      calldataload\n        /* \"#utility.yul\":8658:8676   */\n      0xffffffffffffffff\n        /* \"#utility.yul\":8650:8656   */\n      dup2\n        /* \"#utility.yul\":8647:8677   */\n      gt\n        /* \"#utility.yul\":8644:8761   */\n      iszero\n      tag_196\n      jumpi\n        /* \"#utility.yul\":8680:8759   */\n      tag_197\n      tag_76\n      jump\t// in\n    tag_197:\n        /* \"#utility.yul\":8644:8761   */\n    tag_196:\n        /* \"#utility.yul\":8785:8848   */\n      tag_198\n        /* \"#utility.yul\":8840:8847   */\n      dup8\n        /* \"#utility.yul\":8831:8837   */\n      dup3\n        /* \"#utility.yul\":8820:8829   */\n      dup9\n        /* \"#utility.yul\":8816:8838   */\n      add\n        /* \"#utility.yul\":8785:8848   */\n      tag_85\n      jump\t// in\n    tag_198:\n        /* \"#utility.yul\":8775:8848   */\n      swap3\n      pop\n        /* \"#utility.yul\":8570:8858   */\n      pop\n        /* \"#utility.yul\":8897:8899   */\n      0x60\n        /* \"#utility.yul\":8923:8976   */\n      tag_199\n        /* \"#utility.yul\":8968:8975   */\n      dup8\n        /* \"#utility.yul\":8959:8965   */\n      dup3\n        /* \"#utility.yul\":8948:8957   */\n      dup9\n        /* \"#utility.yul\":8944:8966   */\n      add\n        /* \"#utility.yul\":8923:8976   */\n      tag_89\n      jump\t// in\n    tag_199:\n        /* \"#utility.yul\":8913:8976   */\n      swap2\n      pop\n        /* \"#utility.yul\":8868:8986   */\n      pop\n        /* \"#utility.yul\":7868:8993   */\n      swap3\n      swap6\n      swap2\n      swap5\n      pop\n      swap3\n      pop\n      jump\t// out\n        /* \"#utility.yul\":8999:9179   */\n    tag_90:\n        /* \"#utility.yul\":9047:9124   */\n      0x4e487b7100000000000000000000000000000000000000000000000000000000\n        /* \"#utility.yul\":9044:9045   */\n      0x00\n        /* \"#utility.yul\":9037:9125   */\n      mstore\n        /* \"#utility.yul\":9144:9148   */\n      0x22\n        /* \"#utility.yul\":9141:9142   */\n      0x04\n        /* \"#utility.yul\":9134:9149   */\n      mstore\n        /* \"#utility.yul\":9168:9172   */\n      0x24\n        /* \"#utility.yul\":9165:9166   */\n      0x00\n        /* \"#utility.yul\":9158:9173   */\n      revert\n        /* \"#utility.yul\":9185:9505   */\n    tag_24:\n        /* \"#utility.yul\":9229:9235   */\n      0x00\n        /* \"#utility.yul\":9266:9267   */\n      0x02\n        /* \"#utility.yul\":9260:9264   */\n      dup3\n        /* \"#utility.yul\":9256:9268   */\n      div\n        /* \"#utility.yul\":9246:9268   */\n      swap1\n      pop\n        /* \"#utility.yul\":9313:9314   */\n      0x01\n        /* \"#utility.yul\":9307:9311   */\n      dup3\n        /* \"#utility.yul\":9303:9315   */\n      and\n        /* \"#utility.yul\":9334:9352   */\n      dup1\n        /* \"#utility.yul\":9324:9405   */\n      tag_202\n      jumpi\n        /* \"#utility.yul\":9390:9394   */\n      0x7f\n        /* \"#utility.yul\":9382:9388   */\n      dup3\n        /* \"#utility.yul\":9378:9395   */\n      and\n        /* \"#utility.yul\":9368:9395   */\n      swap2\n      pop\n        /* \"#utility.yul\":9324:9405   */\n    tag_202:\n        /* \"#utility.yul\":9452:9454   */\n      0x20\n        /* \"#utility.yul\":9444:9450   */\n      dup3\n        /* \"#utility.yul\":9441:9455   */\n      lt\n        /* \"#utility.yul\":9421:9439   */\n      dup2\n        /* \"#utility.yul\":9418:9456   */\n      sub\n        /* \"#utility.yul\":9415:9499   */\n      tag_203\n      jumpi\n        /* \"#utility.yul\":9471:9489   */\n      tag_204\n      tag_90\n      jump\t// in\n    tag_204:\n        /* \"#utility.yul\":9415:9499   */\n    tag_203:\n        /* \"#utility.yul\":9236:9505   */\n      pop\n        /* \"#utility.yul\":9185:9505   */\n      swap2\n      swap1\n      pop\n      jump\t// out\n        /* \"#utility.yul\":9511:9652   */\n    tag_91:\n        /* \"#utility.yul\":9560:9564   */\n      0x00\n        /* \"#utility.yul\":9583:9586   */\n      dup2\n        /* \"#utility.yul\":9575:9586   */\n      swap1\n      pop\n        /* \"#utility.yul\":9606:9609   */\n      dup2\n        /* \"#utility.yul\":9603:9604   */\n      0x00\n        /* \"#utility.yul\":9596:9610   */\n      mstore\n        /* \"#utility.yul\":9640:9644   */\n      0x20\n        /* \"#utility.yul\":9637:9638   */\n      0x00\n        /* \"#utility.yul\":9627:9645   */\n      keccak256\n        /* \"#utility.yul\":9619:9645   */\n      swap1\n      pop\n        /* \"#utility.yul\":9511:9652   */\n      swap2\n      swap1\n      pop\n      jump\t// out\n        /* \"#utility.yul\":9658:9751   */\n    tag_92:\n        /* \"#utility.yul\":9695:9701   */\n      0x00\n        /* \"#utility.yul\":9742:9744   */\n      0x20\n        /* \"#utility.yul\":9737:9739   */\n      0x1f\n        /* \"#utility.yul\":9730:9735   */\n      dup4\n        /* \"#utility.yul\":9726:9740   */\n      add\n        /* \"#utility.yul\":9722:9745   */\n      div\n        /* \"#utility.yul\":9712:9745   */\n      swap1\n      pop\n        /* \"#utility.yul\":9658:9751   */\n      swap2\n      swap1\n      pop\n      jump\t// out\n        /* \"#utility.yul\":9757:9864   */\n    tag_93:\n        /* \"#utility.yul\":9801:9809   */\n      0x00\n        /* \"#utility.yul\":9851:9856   */\n      dup3\n        /* \"#utility.yul\":9845:9849   */\n      dup3\n        /* \"#utility.yul\":9841:9857   */\n      shl\n        /* \"#utility.yul\":9820:9857   */\n      swap1\n      pop\n        /* \"#utility.yul\":9757:9864   */\n      swap3\n      swap2\n      pop\n      pop\n      jump\t// out\n        /* \"#utility.yul\":9870:10263   */\n    tag_94:\n        /* \"#utility.yul\":9939:9945   */\n      0x00\n        /* \"#utility.yul\":9989:9990   */\n      0x08\n        /* \"#utility.yul\":9977:9987   */\n      dup4\n        /* \"#utility.yul\":9973:9991   */\n      mul\n        /* \"#utility.yul\":10012:10109   */\n      tag_209\n        /* \"#utility.yul\":10042:10108   */\n      0xffffffffffffffffffffffffffffffffffffffffffffffffffffffffffffffff\n        /* \"#utility.yul\":10031:10040   */\n      dup3\n        /* \"#utility.yul\":10012:10109   */\n      tag_93\n      jump\t// in\n    tag_209:\n        /* \"#utility.yul\":10130:10169   */\n      tag_210\n        /* \"#utility.yul\":10160:10168   */\n      dup7\n        /* \"#utility.yul\":10149:10158   */\n      dup4\n        /* \"#utility.yul\":10130:10169   */\n      tag_93\n      jump\t// in\n    tag_210:\n        /* \"#utility.yul\":10118:10169   */\n      swap6\n      pop\n        /* \"#utility.yul\":10202:10206   */\n      dup1\n        /* \"#utility.yul\":10198:10207   */\n      not\n        /* \"#utility.yul\":10191:10196   */\n      dup5\n        /* \"#utility.yul\":10187:10208   */\n      and\n        /* \"#utility.yul\":10178:10208   */\n      swap4\n      pop\n        /* \"#utility.yul\":10251:10255   */\n      dup1\n        /* \"#utility.yul\":10241:10249   */\n      dup7\n        /* \"#utility.yul\":10237:10256   */\n      and\n        /* \"#utility.yul\":10230:10235   */\n      dup5\n        /* \"#utility.yul\":10227:10257   */\n      or\n        /* \"#utility.yul\":10217:10257   */\n      swap3\n      pop\n        /* \"#utility.yul\":9946:10263   */\n      pop\n      pop\n        /* \"#utility.yul\":9870:10263   */\n      swap4\n      swap3\n      pop\n      pop\n      pop\n      jump\t// out\n        /* \"#utility.yul\":10269:10329   */\n    tag_95:\n        /* \"#utility.yul\":10297:10300   */\n      0x00\n        /* \"#utility.yul\":10318:10323   */\n      dup2\n        /* \"#utility.yul\":10311:10323   */\n      swap1\n      pop\n        /* \"#utility.yul\":10269:10329   */\n      swap2\n      swap1\n      pop\n      jump\t// out\n        /* \"#utility.yul\":10335:10477   */\n    tag_96:\n        /* \"#utility.yul\":10385:10394   */\n      0x00\n        /* \"#utility.yul\":10418:10471   */\n      tag_213\n        /* \"#utility.yul\":10436:10470   */\n      tag_214\n        /* \"#utility.yul\":10445:10469   */\n      tag_215\n        /* \"#utility.yul\":10463:10468   */\n      dup5\n        /* \"#utility.yul\":10445:10469   */\n      tag_64\n      jump\t// in\n    tag_215:\n        /* \"#utility.yul\":10436:10470   */\n      tag_95\n      jump\t// in\n    tag_214:\n        /* \"#utility.yul\":10418:10471   */\n      tag_64\n      jump\t// in\n    tag_213:\n        /* \"#utility.yul\":10405:10471   */\n      swap1\n      pop\n        /* \"#utility.yul\":10335:10477   */\n      swap2\n      swap1\n      pop\n      jump\t// out\n        /* \"#utility.yul\":10483:10558   */\n    tag_97:\n        /* \"#utility.yul\":10526:10529   */\n      0x00\n        /* \"#utility.yul\":10547:10552   */\n      dup2\n        /* \"#utility.yul\":10540:10552   */\n      swap1\n      pop\n        /* \"#utility.yul\":10483:10558   */\n      swap2\n      swap1\n      pop\n      jump\t// out\n        /* \"#utility.yul\":10564:10833   */\n    tag_98:\n        /* \"#utility.yul\":10674:10713   */\n      tag_218\n        /* \"#utility.yul\":10705:10712   */\n      dup4\n        /* \"#utility.yul\":10674:10713   */\n      tag_96\n      jump\t// in\n    tag_218:\n        /* \"#utility.yul\":10735:10826   */\n      tag_219\n        /* \"#utility.yul\":10784:10825   */\n      tag_220\n        /* \"#utility.yul\":10808:10824   */\n      dup3\n        /* \"#utility.yul\":10784:10825   */\n      tag_97\n      jump\t// in\n    tag_220:\n        /* \"#utility.yul\":10776:10782   */\n      dup5\n        /* \"#utility.yul\":10769:10773   */\n      dup5\n        /* \"#utility.yul\":10763:10774   */\n      sload\n        /* \"#utility.yul\":10735:10826   */\n      tag_94\n      jump\t// in\n    tag_219:\n        /* \"#utility.yul\":10729:10733   */\n      dup3\n        /* \"#utility.yul\":10722:10827   */\n      sstore\n        /* \"#utility.yul\":10640:10833   */\n      pop\n        /* \"#utility.yul\":10564:10833   */\n      pop\n      pop\n      pop\n      jump\t// out\n        /* \"#utility.yul\":10839:10912   */\n    tag_99:\n        /* \"#utility.yul\":10884:10887   */\n      0x00\n        /* \"#utility.yul\":10839:10912   */\n      swap1\n      jump\t// out\n        /* \"#utility.yul\":10918:11107   */\n    tag_100:\n        /* \"#utility.yul\":10995:11027   */\n      tag_223\n      tag_99\n      jump\t// in\n    tag_223:\n        /* \"#utility.yul\":11036:11101   */\n      tag_224\n        /* \"#utility.yul\":11094:11100   */\n      dup2\n        /* \"#utility.yul\":11086:11092   */\n      dup5\n        /* \"#utility.yul\":11080:11084   */\n      dup5\n        /* \"#utility.yul\":11036:11101   */\n      tag_98\n      jump\t// in\n    tag_224:\n        /* \"#utility.yul\":10971:11107   */\n      pop\n        /* \"#utility.yul\":10918:11107   */\n      pop\n      pop\n      jump\t// out\n        /* \"#utility.yul\":11113:11299   */\n    tag_101:\n        /* \"#utility.yul\":11173:11293   */\n    tag_226:\n        /* \"#utility.yul\":11190:11193   */\n      dup2\n        /* \"#utility.yul\":11183:11188   */\n      dup2\n        /* \"#utility.yul\":11180:11194   */\n      lt\n        /* \"#utility.yul\":11173:11293   */\n      iszero\n      tag_228\n      jumpi\n        /* \"#utility.yul\":11244:11283   */\n      tag_229\n        /* \"#utility.yul\":11281:11282   */\n      0x00\n        /* \"#utility.yul\":11274:11279   */\n      dup3\n        /* \"#utility.yul\":11244:11283   */\n      tag_100\n      jump\t// in\n    tag_229:\n        /* \"#utility.yul\":11217:11218   */\n      0x01\n        /* \"#utility.yul\":11210:11215   */\n      dup2\n        /* \"#utility.yul\":11206:11219   */\n      add\n        /* \"#utility.yul\":11197:11219   */\n      swap1\n      pop\n        /* \"#utility.yul\":11173:11293   */\n      jump(tag_226)\n    tag_228:\n        /* \"#utility.yul\":11113:11299   */\n      pop\n      pop\n      jump\t// out\n        /* \"#utility.yul\":11305:11848   */\n    tag_102:\n        /* \"#utility.yul\":11406:11408   */\n      0x1f\n        /* \"#utility.yul\":11401:11404   */\n      dup3\n        /* \"#utility.yul\":11398:11409   */\n      gt\n        /* \"#utility.yul\":11395:11841   */\n      iszero\n      tag_231\n      jumpi\n        /* \"#utility.yul\":11440:11478   */\n      tag_232\n        /* \"#utility.yul\":11472:11477   */\n      dup2\n        /* \"#utility.yul\":11440:11478   */\n      tag_91\n      jump\t// in\n    tag_232:\n        /* \"#utility.yul\":11524:11553   */\n      tag_233\n        /* \"#utility.yul\":11542:11552   */\n      dup5\n        /* \"#utility.yul\":11524:11553   */\n      tag_92\n      jump\t// in\n    tag_233:\n        /* \"#utility.yul\":11514:11522   */\n      dup2\n        /* \"#utility.yul\":11510:11554   */\n      add\n        /* \"#utility.yul\":11707:11709   */\n      0x20\n        /* \"#utility.yul\":11695:11705   */\n      dup6\n        /* \"#utility.yul\":11692:11710   */\n      lt\n        /* \"#utility.yul\":11689:11738   */\n      iszero\n      tag_234\n      jumpi\n        /* \"#utility.yul\":11728:11736   */\n      dup2\n        /* \"#utility.yul\":11713:11736   */\n      swap1\n      pop\n        /* \"#utility.yul\":11689:11738   */\n    tag_234:\n        /* \"#utility.yul\":11751:11831   */\n      tag_235\n        /* \"#utility.yul\":11807:11829   */\n      tag_236\n        /* \"#utility.yul\":11825:11828   */\n      dup6\n        /* \"#utility.yul\":11807:11829   */\n      tag_92\n      jump\t// in\n    tag_236:\n        /* \"#utility.yul\":11797:11805   */\n      dup4\n        /* \"#utility.yul\":11793:11830   */\n      add\n        /* \"#utility.yul\":11780:11791   */\n      dup3\n        /* \"#utility.yul\":11751:11831   */\n      tag_101\n      jump\t// in\n    tag_235:\n        /* \"#utility.yul\":11410:11841   */\n      pop\n      pop\n        /* \"#utility.yul\":11395:11841   */\n    tag_231:\n        /* \"#utility.yul\":11305:11848   */\n      pop\n      pop\n      pop\n      jump\t// out\n        /* \"#utility.yul\":11854:11971   */\n    tag_103:\n        /* \"#utility.yul\":11908:11916   */\n      0x00\n        /* \"#utility.yul\":11958:11963   */\n      dup3\n        /* \"#utility.yul\":11952:11956   */\n      dup3\n        /* \"#utility.yul\":11948:11964   */\n      shr\n        /* \"#utility.yul\":11927:11964   */\n      swap1\n      pop\n        /* \"#utility.yul\":11854:11971   */\n      swap3\n      swap2\n      pop\n      pop\n      jump\t// out\n        /* \"#utility.yul\":11977:12146   */\n    tag_104:\n        /* \"#utility.yul\":12021:12027   */\n      0x00\n        /* \"#utility.yul\":12054:12105   */\n      tag_239\n        /* \"#utility.yul\":12102:12103   */\n      0x00\n        /* \"#utility.yul\":12098:12104   */\n      not\n        /* \"#utility.yul\":12090:12095   */\n      dup5\n        /* \"#utility.yul\":12087:12088   */\n      0x08\n        /* \"#utility.yul\":12083:12096   */\n      mul\n        /* \"#utility.yul\":12054:12105   */\n      tag_103\n      jump\t// in\n    tag_239:\n        /* \"#utility.yul\":12050:12106   */\n      not\n        /* \"#utility.yul\":12135:12139   */\n      dup1\n        /* \"#utility.yul\":12129:12133   */\n      dup4\n        /* \"#utility.yul\":12125:12140   */\n      and\n        /* \"#utility.yul\":12115:12140   */\n      swap2\n      pop\n        /* \"#utility.yul\":12028:12146   */\n      pop\n        /* \"#utility.yul\":11977:12146   */\n      swap3\n      swap2\n      pop\n      pop\n      jump\t// out\n        /* \"#utility.yul\":12151:12446   */\n    tag_105:\n        /* \"#utility.yul\":12227:12231   */\n      0x00\n        /* \"#utility.yul\":12373:12402   */\n      tag_241\n        /* \"#utility.yul\":12398:12401   */\n      dup4\n        /* \"#utility.yul\":12392:12396   */\n      dup4\n        /* \"#utility.yul\":12373:12402   */\n      tag_104\n      jump\t// in\n    tag_241:\n        /* \"#utility.yul\":12365:12402   */\n      swap2\n      pop\n        /* \"#utility.yul\":12435:12438   */\n      dup3\n        /* \"#utility.yul\":12432:12433   */\n      0x02\n        /* \"#utility.yul\":12428:12439   */\n      mul\n        /* \"#utility.yul\":12422:12426   */\n      dup3\n        /* \"#utility.yul\":12419:12440   */\n      or\n        /* \"#utility.yul\":12411:12440   */\n      swap1\n      pop\n        /* \"#utility.yul\":12151:12446   */\n      swap3\n      swap2\n      pop\n      pop\n      jump\t// out\n        /* \"#utility.yul\":12451:13846   */\n    tag_55:\n        /* \"#utility.yul\":12568:12605   */\n      tag_243\n        /* \"#utility.yul\":12601:12604   */\n      dup3\n        /* \"#utility.yul\":12568:12605   */\n      tag_59\n      jump\t// in\n    tag_243:\n        /* \"#utility.yul\":12670:12688   */\n      0xffffffffffffffff\n        /* \"#utility.yul\":12662:12668   */\n      dup2\n        /* \"#utility.yul\":12659:12689   */\n      gt\n        /* \"#utility.yul\":12656:12712   */\n      iszero\n      tag_244\n      jumpi\n        /* \"#utility.yul\":12692:12710   */\n      tag_245\n      tag_79\n      jump\t// in\n    tag_245:\n        /* \"#utility.yul\":12656:12712   */\n    tag_244:\n        /* \"#utility.yul\":12736:12774   */\n      tag_246\n        /* \"#utility.yul\":12768:12772   */\n      dup3\n        /* \"#utility.yul\":12762:12773   */\n      sload\n        /* \"#utility.yul\":12736:12774   */\n      tag_24\n      jump\t// in\n    tag_246:\n        /* \"#utility.yul\":12821:12888   */\n      tag_247\n        /* \"#utility.yul\":12881:12887   */\n      dup3\n        /* \"#utility.yul\":12873:12879   */\n      dup3\n        /* \"#utility.yul\":12867:12871   */\n      dup6\n        /* \"#utility.yul\":12821:12888   */\n      tag_102\n      jump\t// in\n    tag_247:\n        /* \"#utility.yul\":12915:12916   */\n      0x00\n        /* \"#utility.yul\":12939:12943   */\n      0x20\n        /* \"#utility.yul\":12926:12943   */\n      swap1\n      pop\n        /* \"#utility.yul\":12971:12973   */\n      0x1f\n        /* \"#utility.yul\":12963:12969   */\n      dup4\n        /* \"#utility.yul\":12960:12974   */\n      gt\n        /* \"#utility.yul\":12988:12989   */\n      0x01\n        /* \"#utility.yul\":12983:13601   */\n      dup2\n      eq\n      tag_249\n      jumpi\n        /* \"#utility.yul\":13645:13646   */\n      0x00\n        /* \"#utility.yul\":13662:13668   */\n      dup5\n        /* \"#utility.yul\":13659:13736   */\n      iszero\n      tag_250\n      jumpi\n        /* \"#utility.yul\":13711:13720   */\n      dup3\n        /* \"#utility.yul\":13706:13709   */\n      dup8\n        /* \"#utility.yul\":13702:13721   */\n      add\n        /* \"#utility.yul\":13696:13722   */\n      mload\n        /* \"#utility.yul\":13687:13722   */\n      swap1\n      pop\n        /* \"#utility.yul\":13659:13736   */\n    tag_250:\n        /* \"#utility.yul\":13762:13829   */\n      tag_251\n        /* \"#utility.yul\":13822:13828   */\n      dup6\n        /* \"#utility.yul\":13815:13820   */\n      dup3\n        /* \"#utility.yul\":13762:13829   */\n      tag_105\n      jump\t// in\n    tag_251:\n        /* \"#utility.yul\":13756:13760   */\n      dup7\n        /* \"#utility.yul\":13749:13830   */\n      sstore\n        /* \"#utility.yul\":13618:13840   */\n      pop\n        /* \"#utility.yul\":12953:13840   */\n      jump(tag_248)\n        /* \"#utility.yul\":12983:13601   */\n    tag_249:\n        /* \"#utility.yul\":13035:13039   */\n      0x1f\n        /* \"#utility.yul\":13031:13040   */\n      not\n        /* \"#utility.yul\":13023:13029   */\n      dup5\n        /* \"#utility.yul\":13019:13041   */\n      and\n        /* \"#utility.yul\":13069:13106   */\n      tag_252\n        /* \"#utility.yul\":13101:13105   */\n      dup7\n        /* \"#utility.yul\":13069:13106   */\n      tag_91\n      jump\t// in\n    tag_252:\n        /* \"#utility.yul\":13128:13129   */\n      0x00\n        /* \"#utility.yul\":13142:13350   */\n    tag_253:\n        /* \"#utility.yul\":13156:13163   */\n      dup3\n        /* \"#utility.yul\":13153:13154   */\n      dup2\n        /* \"#utility.yul\":13150:13164   */\n      lt\n        /* \"#utility.yul\":13142:13350   */\n      iszero\n      tag_255\n      jumpi\n        /* \"#utility.yul\":13235:13244   */\n      dup5\n        /* \"#utility.yul\":13230:13233   */\n      dup10\n        /* \"#utility.yul\":13226:13245   */\n      add\n        /* \"#utility.yul\":13220:13246   */\n      mload\n        /* \"#utility.yul\":13212:13218   */\n      dup3\n        /* \"#utility.yul\":13205:13247   */\n      sstore\n        /* \"#utility.yul\":13286:13287   */\n      0x01\n        /* \"#utility.yul\":13278:13284   */\n      dup3\n        /* \"#utility.yul\":13274:13288   */\n      add\n        /* \"#utility.yul\":13264:13288   */\n      swap2\n      pop\n        /* \"#utility.yul\":13333:13335   */\n      0x20\n        /* \"#utility.yul\":13322:13331   */\n      dup6\n        /* \"#utility.yul\":13318:13336   */\n      add\n        /* \"#utility.yul\":13305:13336   */\n      swap5\n      pop\n        /* \"#utility.yul\":13179:13183   */\n      0x20\n        /* \"#utility.yul\":13176:13177   */\n      dup2\n        /* \"#utility.yul\":13172:13184   */\n      add\n        /* \"#utility.yul\":13167:13184   */\n      swap1\n      pop\n        /* \"#utility.yul\":13142:13350   */\n      jump(tag_253)\n    tag_255:\n        /* \"#utility.yul\":13378:13384   */\n      dup7\n        /* \"#utility.yul\":13369:13376   */\n      dup4\n        /* \"#utility.yul\":13366:13385   */\n      lt\n        /* \"#utility.yul\":13363:13542   */\n      iszero\n      tag_256\n      jumpi\n        /* \"#utility.yul\":13436:13445   */\n      dup5\n        /* \"#utility.yul\":13431:13434   */\n      dup10\n        /* \"#utility.yul\":13427:13446   */\n      add\n        /* \"#utility.yul\":13421:13447   */\n      mload\n        /* \"#utility.yul\":13479:13527   */\n      tag_257\n        /* \"#utility.yul\":13521:13525   */\n      0x1f\n        /* \"#utility.yul\":13513:13519   */\n      dup10\n        /* \"#utility.yul\":13509:13526   */\n      and\n        /* \"#utility.yul\":13498:13507   */\n      dup3\n        /* \"#utility.yul\":13479:13527   */\n      tag_104\n      jump\t// in\n    tag_257:\n        /* \"#utility.yul\":13471:13477   */\n      dup4\n        /* \"#utility.yul\":13464:13528   */\n      sstore\n        /* \"#utility.yul\":13386:13542   */\n      pop\n        /* \"#utility.yul\":13363:13542   */\n    tag_256:\n        /* \"#utility.yul\":13588:13589   */\n      0x01\n        /* \"#utility.yul\":13584:13585   */\n      0x02\n        /* \"#utility.yul\":13576:13582   */\n      dup9\n        /* \"#utility.yul\":13572:13586   */\n      mul\n        /* \"#utility.yul\":13568:13590   */\n      add\n        /* \"#utility.yul\":13562:13566   */\n      dup9\n        /* \"#utility.yul\":13555:13591   */\n      sstore\n        /* \"#utility.yul\":12990:13601   */\n      pop\n      pop\n      pop\n        /* \"#utility.yul\":12953:13840   */\n    tag_248:\n      pop\n        /* \"#utility.yul\":12543:13846   */\n      pop\n      pop\n      pop\n        /* \"#utility.yul\":12451:13846   */\n      pop\n      pop\n      jump\t// out\n\n    auxdata: 0xa264697066735822122009f0aab5ffe35a60009024ea9a25321024d657de5cdd00226c50f056995cdb9c64736f6c63430008120033\n}\n",
				"bytecode": {
					"linkReferences": {},
					"object": "608060405234801561001057600080fd5b50610d60806100206000396000f3fe608060405234801561001057600080fd5b506004361061004c5760003560e01c80636cc014de1461005157806385b1423e14610072578063a25f539e14610090578063cdd1173e146100ae575b600080fd5b6100596100ca565b60405161006994939291906106a3565b60405180910390f35b61007a610218565b60405161008791906107c8565b60405180910390f35b6100986103b6565b6040516100a591906107ea565b60405180910390f35b6100c860048036038101906100c391906109ad565b61044a565b005b60008060000180546100db90610a7b565b80601f016020809104026020016040519081016040528092919081815260200182805461010790610a7b565b80156101545780601f1061012957610100808354040283529160200191610154565b820191906000526020600020905b81548152906001019060200180831161013757829003601f168201915b50505050509080600101549080600201805461016f90610a7b565b80601f016020809104026020016040519081016040528092919081815260200182805461019b90610a7b565b80156101e85780601f106101bd576101008083540402835291602001916101e8565b820191906000526020600020905b8154815290600101906020018083116101cb57829003601f168201915b5050505050908060030160009054906101000a900473ffffffffffffffffffffffffffffffffffffffff16905084565b61022061057b565b600060405180608001604052908160008201805461023d90610a7b565b80601f016020809104026020016040519081016040528092919081815260200182805461026990610a7b565b80156102b65780601f1061028b576101008083540402835291602001916102b6565b820191906000526020600020905b81548152906001019060200180831161029957829003601f168201915b50505050508152602001600182015481526020016002820180546102d990610a7b565b80601f016020809104026020016040519081016040528092919081815260200182805461030590610a7b565b80156103525780601f1061032757610100808354040283529160200191610352565b820191906000526020600020905b81548152906001019060200180831161033557829003601f168201915b505050505081526020016003820160009054906101000a900473ffffffffffffffffffffffffffffffffffffffff1673ffffffffffffffffffffffffffffffffffffffff1673ffffffffffffffffffffffffffffffffffffffff1681525050905090565b60606000800180546103c790610a7b565b80601f01602080910402602001604051908101604052809291908181526020018280546103f390610a7b565b80156104405780601f1061041557610100808354040283529160200191610440565b820191906000526020600020905b81548152906001019060200180831161042357829003601f168201915b5050505050905090565b60405180608001604052808581526020018481526020018381526020018273ffffffffffffffffffffffffffffffffffffffff168152506000808201518160000190816104979190610c58565b506020820151816001015560408201518160020190816104b79190610c58565b5060608201518160030160006101000a81548173ffffffffffffffffffffffffffffffffffffffff021916908373ffffffffffffffffffffffffffffffffffffffff160217905550905050836000800190816105139190610c58565b508260006001018190555081600060020190816105309190610c58565b5080600060030160006101000a81548173ffffffffffffffffffffffffffffffffffffffff021916908373ffffffffffffffffffffffffffffffffffffffff16021790555050505050565b6040518060800160405280606081526020016000815260200160608152602001600073ffffffffffffffffffffffffffffffffffffffff1681525090565b600081519050919050565b600082825260208201905092915050565b60005b838110156105f35780820151818401526020810190506105d8565b60008484015250505050565b6000601f19601f8301169050919050565b600061061b826105b9565b61062581856105c4565b93506106358185602086016105d5565b61063e816105ff565b840191505092915050565b6000819050919050565b61065c81610649565b82525050565b600073ffffffffffffffffffffffffffffffffffffffff82169050919050565b600061068d82610662565b9050919050565b61069d81610682565b82525050565b600060808201905081810360008301526106bd8187610610565b90506106cc6020830186610653565b81810360408301526106de8185610610565b90506106ed6060830184610694565b95945050505050565b600082825260208201905092915050565b6000610712826105b9565b61071c81856106f6565b935061072c8185602086016105d5565b610735816105ff565b840191505092915050565b61074981610649565b82525050565b61075881610682565b82525050565b6000608083016000830151848203600086015261077b8282610707565b91505060208301516107906020860182610740565b50604083015184820360408601526107a88282610707565b91505060608301516107bd606086018261074f565b508091505092915050565b600060208201905081810360008301526107e2818461075e565b905092915050565b600060208201905081810360008301526108048184610610565b905092915050565b6000604051905090565b600080fd5b600080fd5b600080fd5b600080fd5b7f4e487b7100000000000000000000000000000000000000000000000000000000600052604160045260246000fd5b610862826105ff565b810181811067ffffffffffffffff821117156108815761088061082a565b5b80604052505050565b600061089461080c565b90506108a08282610859565b919050565b600067ffffffffffffffff8211156108c0576108bf61082a565b5b6108c9826105ff565b9050602081019050919050565b82818337600083830152505050565b60006108f86108f3846108a5565b61088a565b90508281526020810184848401111561091457610913610825565b5b61091f8482856108d6565b509392505050565b600082601f83011261093c5761093b610820565b5b813561094c8482602086016108e5565b91505092915050565b61095e81610649565b811461096957600080fd5b50565b60008135905061097b81610955565b92915050565b61098a81610682565b811461099557600080fd5b50565b6000813590506109a781610981565b92915050565b600080600080608085870312156109c7576109c6610816565b5b600085013567ffffffffffffffff8111156109e5576109e461081b565b5b6109f187828801610927565b9450506020610a028782880161096c565b935050604085013567ffffffffffffffff811115610a2357610a2261081b565b5b610a2f87828801610927565b9250506060610a4087828801610998565b91505092959194509250565b7f4e487b7100000000000000000000000000000000000000000000000000000000600052602260045260246000fd5b60006002820490506001821680610a9357607f821691505b602082108103610aa657610aa5610a4c565b5b50919050565b60008190508160005260206000209050919050565b60006020601f8301049050919050565b600082821b905092915050565b600060088302610b0e7fffffffffffffffffffffffffffffffffffffffffffffffffffffffffffffffff82610ad1565b610b188683610ad1565b95508019841693508086168417925050509392505050565b6000819050919050565b6000610b55610b50610b4b84610649565b610b30565b610649565b9050919050565b6000819050919050565b610b6f83610b3a565b610b83610b7b82610b5c565b848454610ade565b825550505050565b600090565b610b98610b8b565b610ba3818484610b66565b505050565b5b81811015610bc757610bbc600082610b90565b600181019050610ba9565b5050565b601f821115610c0c57610bdd81610aac565b610be684610ac1565b81016020851015610bf5578190505b610c09610c0185610ac1565b830182610ba8565b50505b505050565b600082821c905092915050565b6000610c2f60001984600802610c11565b1980831691505092915050565b6000610c488383610c1e565b9150826002028217905092915050565b610c61826105b9565b67ffffffffffffffff811115610c7a57610c7961082a565b5b610c848254610a7b565b610c8f828285610bcb565b600060209050601f831160018114610cc25760008415610cb0578287015190505b610cba8582610c3c565b865550610d22565b601f198416610cd086610aac565b60005b82811015610cf857848901518255600182019150602085019450602081019050610cd3565b86831015610d155784890151610d11601f891682610c1e565b8355505b6001600288020188555050505b50505050505056fea264697066735822122009f0aab5ffe35a60009024ea9a25321024d657de5cdd00226c50f056995cdb9c64736f6c63430008120033",
					"opcodes": "PUSH1 0x80 PUSH1 0x40 MSTORE CALLVALUE DUP1 ISZERO PUSH2 0x10 JUMPI PUSH1 0x0 DUP1 REVERT JUMPDEST POP PUSH2 0xD60 DUP1 PUSH2 0x20 PUSH1 0x0 CODECOPY PUSH1 0x0 RETURN INVALID PUSH1 0x80 PUSH1 0x40 MSTORE CALLVALUE DUP1 ISZERO PUSH2 0x10 JUMPI PUSH1 0x0 DUP1 REVERT JUMPDEST POP PUSH1 0x4 CALLDATASIZE LT PUSH2 0x4C JUMPI PUSH1 0x0 CALLDATALOAD PUSH1 0xE0 SHR DUP1 PUSH4 0x6CC014DE EQ PUSH2 0x51 JUMPI DUP1 PUSH4 0x85B1423E EQ PUSH2 0x72 JUMPI DUP1 PUSH4 0xA25F539E EQ PUSH2 0x90 JUMPI DUP1 PUSH4 0xCDD1173E EQ PUSH2 0xAE JUMPI JUMPDEST PUSH1 0x0 DUP1 REVERT JUMPDEST PUSH2 0x59 PUSH2 0xCA JUMP JUMPDEST PUSH1 0x40 MLOAD PUSH2 0x69 SWAP5 SWAP4 SWAP3 SWAP2 SWAP1 PUSH2 0x6A3 JUMP JUMPDEST PUSH1 0x40 MLOAD DUP1 SWAP2 SUB SWAP1 RETURN JUMPDEST PUSH2 0x7A PUSH2 0x218 JUMP JUMPDEST PUSH1 0x40 MLOAD PUSH2 0x87 SWAP2 SWAP1 PUSH2 0x7C8 JUMP JUMPDEST PUSH1 0x40 MLOAD DUP1 SWAP2 SUB SWAP1 RETURN JUMPDEST PUSH2 0x98 PUSH2 0x3B6 JUMP JUMPDEST PUSH1 0x40 MLOAD PUSH2 0xA5 SWAP2 SWAP1 PUSH2 0x7EA JUMP JUMPDEST PUSH1 0x40 MLOAD DUP1 SWAP2 SUB SWAP1 RETURN JUMPDEST PUSH2 0xC8 PUSH1 0x4 DUP1 CALLDATASIZE SUB DUP2 ADD SWAP1 PUSH2 0xC3 SWAP2 SWAP1 PUSH2 0x9AD JUMP JUMPDEST PUSH2 0x44A JUMP JUMPDEST STOP JUMPDEST PUSH1 0x0 DUP1 PUSH1 0x0 ADD DUP1 SLOAD PUSH2 0xDB SWAP1 PUSH2 0xA7B JUMP JUMPDEST DUP1 PUSH1 0x1F ADD PUSH1 0x20 DUP1 SWAP2 DIV MUL PUSH1 0x20 ADD PUSH1 0x40 MLOAD SWAP1 DUP2 ADD PUSH1 0x40 MSTORE DUP1 SWAP3 SWAP2 SWAP1 DUP2 DUP2 MSTORE PUSH1 0x20 ADD DUP3 DUP1 SLOAD PUSH2 0x107 SWAP1 PUSH2 0xA7B JUMP JUMPDEST DUP1 ISZERO PUSH2 0x154 JUMPI DUP1 PUSH1 0x1F LT PUSH2 0x129 JUMPI PUSH2 0x100 DUP1 DUP4 SLOAD DIV MUL DUP4 MSTORE SWAP2 PUSH1 0x20 ADD SWAP2 PUSH2 0x154 JUMP JUMPDEST DUP3 ADD SWAP2 SWAP1 PUSH1 0x0 MSTORE PUSH1 0x20 PUSH1 0x0 KECCAK256 SWAP1 JUMPDEST DUP2 SLOAD DUP2 MSTORE SWAP1 PUSH1 0x1 ADD SWAP1 PUSH1 0x20 ADD DUP1 DUP4 GT PUSH2 0x137 JUMPI DUP3 SWAP1 SUB PUSH1 0x1F AND DUP3 ADD SWAP2 JUMPDEST POP POP POP POP POP SWAP1 DUP1 PUSH1 0x1 ADD SLOAD SWAP1 DUP1 PUSH1 0x2 ADD DUP1 SLOAD PUSH2 0x16F SWAP1 PUSH2 0xA7B JUMP JUMPDEST DUP1 PUSH1 0x1F ADD PUSH1 0x20 DUP1 SWAP2 DIV MUL PUSH1 0x20 ADD PUSH1 0x40 MLOAD SWAP1 DUP2 ADD PUSH1 0x40 MSTORE DUP1 SWAP3 SWAP2 SWAP1 DUP2 DUP2 MSTORE PUSH1 0x20 ADD DUP3 DUP1 SLOAD PUSH2 0x19B SWAP1 PUSH2 0xA7B JUMP JUMPDEST DUP1 ISZERO PUSH2 0x1E8 JUMPI DUP1 PUSH1 0x1F LT PUSH2 0x1BD JUMPI PUSH2 0x100 DUP1 DUP4 SLOAD DIV MUL DUP4 MSTORE SWAP2 PUSH1 0x20 ADD SWAP2 PUSH2 0x1E8 JUMP JUMPDEST DUP3 ADD SWAP2 SWAP1 PUSH1 0x0 MSTORE PUSH1 0x20 PUSH1 0x0 KECCAK256 SWAP1 JUMPDEST DUP2 SLOAD DUP2 MSTORE SWAP1 PUSH1 0x1 ADD SWAP1 PUSH1 0x20 ADD DUP1 DUP4 GT PUSH2 0x1CB JUMPI DUP3 SWAP1 SUB PUSH1 0x1F AND DUP3 ADD SWAP2 JUMPDEST POP POP POP POP POP SWAP1 DUP1 PUSH1 0x3 ADD PUSH1 0x0 SWAP1 SLOAD SWAP1 PUSH2 0x100 EXP SWAP1 DIV PUSH20 0xFFFFFFFFFFFFFFFFFFFFFFFFFFFFFFFFFFFFFFFF AND SWAP1 POP DUP5 JUMP JUMPDEST PUSH2 0x220 PUSH2 0x57B JUMP JUMPDEST PUSH1 0x0 PUSH1 0x40 MLOAD DUP1 PUSH1 0x80 ADD PUSH1 0x40 MSTORE SWAP1 DUP2 PUSH1 0x0 DUP3 ADD DUP1 SLOAD PUSH2 0x23D SWAP1 PUSH2 0xA7B JUMP JUMPDEST DUP1 PUSH1 0x1F ADD PUSH1 0x20 DUP1 SWAP2 DIV MUL PUSH1 0x20 ADD PUSH1 0x40 MLOAD SWAP1 DUP2 ADD PUSH1 0x40 MSTORE DUP1 SWAP3 SWAP2 SWAP1 DUP2 DUP2 MSTORE PUSH1 0x20 ADD DUP3 DUP1 SLOAD PUSH2 0x269 SWAP1 PUSH2 0xA7B JUMP JUMPDEST DUP1 ISZERO PUSH2 0x2B6 JUMPI DUP1 PUSH1 0x1F LT PUSH2 0x28B JUMPI PUSH2 0x100 DUP1 DUP4 SLOAD DIV MUL DUP4 MSTORE SWAP2 PUSH1 0x20 ADD SWAP2 PUSH2 0x2B6 JUMP JUMPDEST DUP3 ADD SWAP2 SWAP1 PUSH1 0x0 MSTORE PUSH1 0x20 PUSH1 0x0 KECCAK256 SWAP1 JUMPDEST DUP2 SLOAD DUP2 MSTORE SWAP1 PUSH1 0x1 ADD SWAP1 PUSH1 0x20 ADD DUP1 DUP4 GT PUSH2 0x299 JUMPI DUP3 SWAP1 SUB PUSH1 0x1F AND DUP3 ADD SWAP2 JUMPDEST POP POP POP POP POP DUP2 MSTORE PUSH1 0x20 ADD PUSH1 0x1 DUP3 ADD SLOAD DUP2 MSTORE PUSH1 0x20 ADD PUSH1 0x2 DUP3 ADD DUP1 SLOAD PUSH2 0x2D9 SWAP1 PUSH2 0xA7B JUMP JUMPDEST DUP1 PUSH1 0x1F ADD PUSH1 0x20 DUP1 SWAP2 DIV MUL PUSH1 0x20 ADD PUSH1 0x40 MLOAD SWAP1 DUP2 ADD PUSH1 0x40 MSTORE DUP1 SWAP3 SWAP2 SWAP1 DUP2 DUP2 MSTORE PUSH1 0x20 ADD DUP3 DUP1 SLOAD PUSH2 0x305 SWAP1 PUSH2 0xA7B JUMP JUMPDEST DUP1 ISZERO PUSH2 0x352 JUMPI DUP1 PUSH1 0x1F LT PUSH2 0x327 JUMPI PUSH2 0x100 DUP1 DUP4 SLOAD DIV MUL DUP4 MSTORE SWAP2 PUSH1 0x20 ADD SWAP2 PUSH2 0x352 JUMP JUMPDEST DUP3 ADD SWAP2 SWAP1 PUSH1 0x0 MSTORE PUSH1 0x20 PUSH1 0x0 KECCAK256 SWAP1 JUMPDEST DUP2 SLOAD DUP2 MSTORE SWAP1 PUSH1 0x1 ADD SWAP1 PUSH1 0x20 ADD DUP1 DUP4 GT PUSH2 0x335 JUMPI DUP3 SWAP1 SUB PUSH1 0x1F AND DUP3 ADD SWAP2 JUMPDEST POP POP POP POP POP DUP2 MSTORE PUSH1 0x20 ADD PUSH1 0x3 DUP3 ADD PUSH1 0x0 SWAP1 SLOAD SWAP1 PUSH2 0x100 EXP SWAP1 DIV PUSH20 0xFFFFFFFFFFFFFFFFFFFFFFFFFFFFFFFFFFFFFFFF AND PUSH20 0xFFFFFFFFFFFFFFFFFFFFFFFFFFFFFFFFFFFFFFFF AND PUSH20 0xFFFFFFFFFFFFFFFFFFFFFFFFFFFFFFFFFFFFFFFF AND DUP2 MSTORE POP POP SWAP1 POP SWAP1 JUMP JUMPDEST PUSH1 0x60 PUSH1 0x0 DUP1 ADD DUP1 SLOAD PUSH2 0x3C7 SWAP1 PUSH2 0xA7B JUMP JUMPDEST DUP1 PUSH1 0x1F ADD PUSH1 0x20 DUP1 SWAP2 DIV MUL PUSH1 0x20 ADD PUSH1 0x40 MLOAD SWAP1 DUP2 ADD PUSH1 0x40 MSTORE DUP1 SWAP3 SWAP2 SWAP1 DUP2 DUP2 MSTORE PUSH1 0x20 ADD DUP3 DUP1 SLOAD PUSH2 0x3F3 SWAP1 PUSH2 0xA7B JUMP JUMPDEST DUP1 ISZERO PUSH2 0x440 JUMPI DUP1 PUSH1 0x1F LT PUSH2 0x415 JUMPI PUSH2 0x100 DUP1 DUP4 SLOAD DIV MUL DUP4 MSTORE SWAP2 PUSH1 0x20 ADD SWAP2 PUSH2 0x440 JUMP JUMPDEST DUP3 ADD SWAP2 SWAP1 PUSH1 0x0 MSTORE PUSH1 0x20 PUSH1 0x0 KECCAK256 SWAP1 JUMPDEST DUP2 SLOAD DUP2 MSTORE SWAP1 PUSH1 0x1 ADD SWAP1 PUSH1 0x20 ADD DUP1 DUP4 GT PUSH2 0x423 JUMPI DUP3 SWAP1 SUB PUSH1 0x1F AND DUP3 ADD SWAP2 JUMPDEST POP POP POP POP POP SWAP1 POP SWAP1 JUMP JUMPDEST PUSH1 0x40 MLOAD DUP1 PUSH1 0x80 ADD PUSH1 0x40 MSTORE DUP1 DUP6 DUP2 MSTORE PUSH1 0x20 ADD DUP5 DUP2 MSTORE PUSH1 0x20 ADD DUP4 DUP2 MSTORE PUSH1 0x20 ADD DUP3 PUSH20 0xFFFFFFFFFFFFFFFFFFFFFFFFFFFFFFFFFFFFFFFF AND DUP2 MSTORE POP PUSH1 0x0 DUP1 DUP3 ADD MLOAD DUP2 PUSH1 0x0 ADD SWAP1 DUP2 PUSH2 0x497 SWAP2 SWAP1 PUSH2 0xC58 JUMP JUMPDEST POP PUSH1 0x20 DUP3 ADD MLOAD DUP2 PUSH1 0x1 ADD SSTORE PUSH1 0x40 DUP3 ADD MLOAD DUP2 PUSH1 0x2 ADD SWAP1 DUP2 PUSH2 0x4B7 SWAP2 SWAP1 PUSH2 0xC58 JUMP JUMPDEST POP PUSH1 0x60 DUP3 ADD MLOAD DUP2 PUSH1 0x3 ADD PUSH1 0x0 PUSH2 0x100 EXP DUP2 SLOAD DUP2 PUSH20 0xFFFFFFFFFFFFFFFFFFFFFFFFFFFFFFFFFFFFFFFF MUL NOT AND SWAP1 DUP4 PUSH20 0xFFFFFFFFFFFFFFFFFFFFFFFFFFFFFFFFFFFFFFFF AND MUL OR SWAP1 SSTORE POP SWAP1 POP POP DUP4 PUSH1 0x0 DUP1 ADD SWAP1 DUP2 PUSH2 0x513 SWAP2 SWAP1 PUSH2 0xC58 JUMP JUMPDEST POP DUP3 PUSH1 0x0 PUSH1 0x1 ADD DUP2 SWAP1 SSTORE POP DUP2 PUSH1 0x0 PUSH1 0x2 ADD SWAP1 DUP2 PUSH2 0x530 SWAP2 SWAP1 PUSH2 0xC58 JUMP JUMPDEST POP DUP1 PUSH1 0x0 PUSH1 0x3 ADD PUSH1 0x0 PUSH2 0x100 EXP DUP2 SLOAD DUP2 PUSH20 0xFFFFFFFFFFFFFFFFFFFFFFFFFFFFFFFFFFFFFFFF MUL NOT AND SWAP1 DUP4 PUSH20 0xFFFFFFFFFFFFFFFFFFFFFFFFFFFFFFFFFFFFFFFF AND MUL OR SWAP1 SSTORE POP POP POP POP POP JUMP JUMPDEST PUSH1 0x40 MLOAD DUP1 PUSH1 0x80 ADD PUSH1 0x40 MSTORE DUP1 PUSH1 0x60 DUP2 MSTORE PUSH1 0x20 ADD PUSH1 0x0 DUP2 MSTORE PUSH1 0x20 ADD PUSH1 0x60 DUP2 MSTORE PUSH1 0x20 ADD PUSH1 0x0 PUSH20 0xFFFFFFFFFFFFFFFFFFFFFFFFFFFFFFFFFFFFFFFF AND DUP2 MSTORE POP SWAP1 JUMP JUMPDEST PUSH1 0x0 DUP2 MLOAD SWAP1 POP SWAP2 SWAP1 POP JUMP JUMPDEST PUSH1 0x0 DUP3 DUP3 MSTORE PUSH1 0x20 DUP3 ADD SWAP1 POP SWAP3 SWAP2 POP POP JUMP JUMPDEST PUSH1 0x0 JUMPDEST DUP4 DUP2 LT ISZERO PUSH2 0x5F3 JUMPI DUP1 DUP3 ADD MLOAD DUP2 DUP5 ADD MSTORE PUSH1 0x20 DUP2 ADD SWAP1 POP PUSH2 0x5D8 JUMP JUMPDEST PUSH1 0x0 DUP5 DUP5 ADD MSTORE POP POP POP POP JUMP JUMPDEST PUSH1 0x0 PUSH1 0x1F NOT PUSH1 0x1F DUP4 ADD AND SWAP1 POP SWAP2 SWAP1 POP JUMP JUMPDEST PUSH1 0x0 PUSH2 0x61B DUP3 PUSH2 0x5B9 JUMP JUMPDEST PUSH2 0x625 DUP2 DUP6 PUSH2 0x5C4 JUMP JUMPDEST SWAP4 POP PUSH2 0x635 DUP2 DUP6 PUSH1 0x20 DUP7 ADD PUSH2 0x5D5 JUMP JUMPDEST PUSH2 0x63E DUP2 PUSH2 0x5FF JUMP JUMPDEST DUP5 ADD SWAP2 POP POP SWAP3 SWAP2 POP POP JUMP JUMPDEST PUSH1 0x0 DUP2 SWAP1 POP SWAP2 SWAP1 POP JUMP JUMPDEST PUSH2 0x65C DUP2 PUSH2 0x649 JUMP JUMPDEST DUP3 MSTORE POP POP JUMP JUMPDEST PUSH1 0x0 PUSH20 0xFFFFFFFFFFFFFFFFFFFFFFFFFFFFFFFFFFFFFFFF DUP3 AND SWAP1 POP SWAP2 SWAP1 POP JUMP JUMPDEST PUSH1 0x0 PUSH2 0x68D DUP3 PUSH2 0x662 JUMP JUMPDEST SWAP1 POP SWAP2 SWAP1 POP JUMP JUMPDEST PUSH2 0x69D DUP2 PUSH2 0x682 JUMP JUMPDEST DUP3 MSTORE POP POP JUMP JUMPDEST PUSH1 0x0 PUSH1 0x80 DUP3 ADD SWAP1 POP DUP2 DUP2 SUB PUSH1 0x0 DUP4 ADD MSTORE PUSH2 0x6BD DUP2 DUP8 PUSH2 0x610 JUMP JUMPDEST SWAP1 POP PUSH2 0x6CC PUSH1 0x20 DUP4 ADD DUP7 PUSH2 0x653 JUMP JUMPDEST DUP2 DUP2 SUB PUSH1 0x40 DUP4 ADD MSTORE PUSH2 0x6DE DUP2 DUP6 PUSH2 0x610 JUMP JUMPDEST SWAP1 POP PUSH2 0x6ED PUSH1 0x60 DUP4 ADD DUP5 PUSH2 0x694 JUMP JUMPDEST SWAP6 SWAP5 POP POP POP POP POP JUMP JUMPDEST PUSH1 0x0 DUP3 DUP3 MSTORE PUSH1 0x20 DUP3 ADD SWAP1 POP SWAP3 SWAP2 POP POP JUMP JUMPDEST PUSH1 0x0 PUSH2 0x712 DUP3 PUSH2 0x5B9 JUMP JUMPDEST PUSH2 0x71C DUP2 DUP6 PUSH2 0x6F6 JUMP JUMPDEST SWAP4 POP PUSH2 0x72C DUP2 DUP6 PUSH1 0x20 DUP7 ADD PUSH2 0x5D5 JUMP JUMPDEST PUSH2 0x735 DUP2 PUSH2 0x5FF JUMP JUMPDEST DUP5 ADD SWAP2 POP POP SWAP3 SWAP2 POP POP JUMP JUMPDEST PUSH2 0x749 DUP2 PUSH2 0x649 JUMP JUMPDEST DUP3 MSTORE POP POP JUMP JUMPDEST PUSH2 0x758 DUP2 PUSH2 0x682 JUMP JUMPDEST DUP3 MSTORE POP POP JUMP JUMPDEST PUSH1 0x0 PUSH1 0x80 DUP4 ADD PUSH1 0x0 DUP4 ADD MLOAD DUP5 DUP3 SUB PUSH1 0x0 DUP7 ADD MSTORE PUSH2 0x77B DUP3 DUP3 PUSH2 0x707 JUMP JUMPDEST SWAP2 POP POP PUSH1 0x20 DUP4 ADD MLOAD PUSH2 0x790 PUSH1 0x20 DUP7 ADD DUP3 PUSH2 0x740 JUMP JUMPDEST POP PUSH1 0x40 DUP4 ADD MLOAD DUP5 DUP3 SUB PUSH1 0x40 DUP7 ADD MSTORE PUSH2 0x7A8 DUP3 DUP3 PUSH2 0x707 JUMP JUMPDEST SWAP2 POP POP PUSH1 0x60 DUP4 ADD MLOAD PUSH2 0x7BD PUSH1 0x60 DUP7 ADD DUP3 PUSH2 0x74F JUMP JUMPDEST POP DUP1 SWAP2 POP POP SWAP3 SWAP2 POP POP JUMP JUMPDEST PUSH1 0x0 PUSH1 0x20 DUP3 ADD SWAP1 POP DUP2 DUP2 SUB PUSH1 0x0 DUP4 ADD MSTORE PUSH2 0x7E2 DUP2 DUP5 PUSH2 0x75E JUMP JUMPDEST SWAP1 POP SWAP3 SWAP2 POP POP JUMP JUMPDEST PUSH1 0x0 PUSH1 0x20 DUP3 ADD SWAP1 POP DUP2 DUP2 SUB PUSH1 0x0 DUP4 ADD MSTORE PUSH2 0x804 DUP2 DUP5 PUSH2 0x610 JUMP JUMPDEST SWAP1 POP SWAP3 SWAP2 POP POP JUMP JUMPDEST PUSH1 0x0 PUSH1 0x40 MLOAD SWAP1 POP SWAP1 JUMP JUMPDEST PUSH1 0x0 DUP1 REVERT JUMPDEST PUSH1 0x0 DUP1 REVERT JUMPDEST PUSH1 0x0 DUP1 REVERT JUMPDEST PUSH1 0x0 DUP1 REVERT JUMPDEST PUSH32 0x4E487B7100000000000000000000000000000000000000000000000000000000 PUSH1 0x0 MSTORE PUSH1 0x41 PUSH1 0x4 MSTORE PUSH1 0x24 PUSH1 0x0 REVERT JUMPDEST PUSH2 0x862 DUP3 PUSH2 0x5FF JUMP JUMPDEST DUP2 ADD DUP2 DUP2 LT PUSH8 0xFFFFFFFFFFFFFFFF DUP3 GT OR ISZERO PUSH2 0x881 JUMPI PUSH2 0x880 PUSH2 0x82A JUMP JUMPDEST JUMPDEST DUP1 PUSH1 0x40 MSTORE POP POP POP JUMP JUMPDEST PUSH1 0x0 PUSH2 0x894 PUSH2 0x80C JUMP JUMPDEST SWAP1 POP PUSH2 0x8A0 DUP3 DUP3 PUSH2 0x859 JUMP JUMPDEST SWAP2 SWAP1 POP JUMP JUMPDEST PUSH1 0x0 PUSH8 0xFFFFFFFFFFFFFFFF DUP3 GT ISZERO PUSH2 0x8C0 JUMPI PUSH2 0x8BF PUSH2 0x82A JUMP JUMPDEST JUMPDEST PUSH2 0x8C9 DUP3 PUSH2 0x5FF JUMP JUMPDEST SWAP1 POP PUSH1 0x20 DUP2 ADD SWAP1 POP SWAP2 SWAP1 POP JUMP JUMPDEST DUP3 DUP2 DUP4 CALLDATACOPY PUSH1 0x0 DUP4 DUP4 ADD MSTORE POP POP POP JUMP JUMPDEST PUSH1 0x0 PUSH2 0x8F8 PUSH2 0x8F3 DUP5 PUSH2 0x8A5 JUMP JUMPDEST PUSH2 0x88A JUMP JUMPDEST SWAP1 POP DUP3 DUP2 MSTORE PUSH1 0x20 DUP2 ADD DUP5 DUP5 DUP5 ADD GT ISZERO PUSH2 0x914 JUMPI PUSH2 0x913 PUSH2 0x825 JUMP JUMPDEST JUMPDEST PUSH2 0x91F DUP5 DUP3 DUP6 PUSH2 0x8D6 JUMP JUMPDEST POP SWAP4 SWAP3 POP POP POP JUMP JUMPDEST PUSH1 0x0 DUP3 PUSH1 0x1F DUP4 ADD SLT PUSH2 0x93C JUMPI PUSH2 0x93B PUSH2 0x820 JUMP JUMPDEST JUMPDEST DUP2 CALLDATALOAD PUSH2 0x94C DUP5 DUP3 PUSH1 0x20 DUP7 ADD PUSH2 0x8E5 JUMP JUMPDEST SWAP2 POP POP SWAP3 SWAP2 POP POP JUMP JUMPDEST PUSH2 0x95E DUP2 PUSH2 0x649 JUMP JUMPDEST DUP2 EQ PUSH2 0x969 JUMPI PUSH1 0x0 DUP1 REVERT JUMPDEST POP JUMP JUMPDEST PUSH1 0x0 DUP2 CALLDATALOAD SWAP1 POP PUSH2 0x97B DUP2 PUSH2 0x955 JUMP JUMPDEST SWAP3 SWAP2 POP POP JUMP JUMPDEST PUSH2 0x98A DUP2 PUSH2 0x682 JUMP JUMPDEST DUP2 EQ PUSH2 0x995 JUMPI PUSH1 0x0 DUP1 REVERT JUMPDEST POP JUMP JUMPDEST PUSH1 0x0 DUP2 CALLDATALOAD SWAP1 POP PUSH2 0x9A7 DUP2 PUSH2 0x981 JUMP JUMPDEST SWAP3 SWAP2 POP POP JUMP JUMPDEST PUSH1 0x0 DUP1 PUSH1 0x0 DUP1 PUSH1 0x80 DUP6 DUP8 SUB SLT ISZERO PUSH2 0x9C7 JUMPI PUSH2 0x9C6 PUSH2 0x816 JUMP JUMPDEST JUMPDEST PUSH1 0x0 DUP6 ADD CALLDATALOAD PUSH8 0xFFFFFFFFFFFFFFFF DUP2 GT ISZERO PUSH2 0x9E5 JUMPI PUSH2 0x9E4 PUSH2 0x81B JUMP JUMPDEST JUMPDEST PUSH2 0x9F1 DUP8 DUP3 DUP9 ADD PUSH2 0x927 JUMP JUMPDEST SWAP5 POP POP PUSH1 0x20 PUSH2 0xA02 DUP8 DUP3 DUP9 ADD PUSH2 0x96C JUMP JUMPDEST SWAP4 POP POP PUSH1 0x40 DUP6 ADD CALLDATALOAD PUSH8 0xFFFFFFFFFFFFFFFF DUP2 GT ISZERO PUSH2 0xA23 JUMPI PUSH2 0xA22 PUSH2 0x81B JUMP JUMPDEST JUMPDEST PUSH2 0xA2F DUP8 DUP3 DUP9 ADD PUSH2 0x927 JUMP JUMPDEST SWAP3 POP POP PUSH1 0x60 PUSH2 0xA40 DUP8 DUP3 DUP9 ADD PUSH2 0x998 JUMP JUMPDEST SWAP2 POP POP SWAP3 SWAP6 SWAP2 SWAP5 POP SWAP3 POP JUMP JUMPDEST PUSH32 0x4E487B7100000000000000000000000000000000000000000000000000000000 PUSH1 0x0 MSTORE PUSH1 0x22 PUSH1 0x4 MSTORE PUSH1 0x24 PUSH1 0x0 REVERT JUMPDEST PUSH1 0x0 PUSH1 0x2 DUP3 DIV SWAP1 POP PUSH1 0x1 DUP3 AND DUP1 PUSH2 0xA93 JUMPI PUSH1 0x7F DUP3 AND SWAP2 POP JUMPDEST PUSH1 0x20 DUP3 LT DUP2 SUB PUSH2 0xAA6 JUMPI PUSH2 0xAA5 PUSH2 0xA4C JUMP JUMPDEST JUMPDEST POP SWAP2 SWAP1 POP JUMP JUMPDEST PUSH1 0x0 DUP2 SWAP1 POP DUP2 PUSH1 0x0 MSTORE PUSH1 0x20 PUSH1 0x0 KECCAK256 SWAP1 POP SWAP2 SWAP1 POP JUMP JUMPDEST PUSH1 0x0 PUSH1 0x20 PUSH1 0x1F DUP4 ADD DIV SWAP1 POP SWAP2 SWAP1 POP JUMP JUMPDEST PUSH1 0x0 DUP3 DUP3 SHL SWAP1 POP SWAP3 SWAP2 POP POP JUMP JUMPDEST PUSH1 0x0 PUSH1 0x8 DUP4 MUL PUSH2 0xB0E PUSH32 0xFFFFFFFFFFFFFFFFFFFFFFFFFFFFFFFFFFFFFFFFFFFFFFFFFFFFFFFFFFFFFFFF DUP3 PUSH2 0xAD1 JUMP JUMPDEST PUSH2 0xB18 DUP7 DUP4 PUSH2 0xAD1 JUMP JUMPDEST SWAP6 POP DUP1 NOT DUP5 AND SWAP4 POP DUP1 DUP7 AND DUP5 OR SWAP3 POP POP POP SWAP4 SWAP3 POP POP POP JUMP JUMPDEST PUSH1 0x0 DUP2 SWAP1 POP SWAP2 SWAP1 POP JUMP JUMPDEST PUSH1 0x0 PUSH2 0xB55 PUSH2 0xB50 PUSH2 0xB4B DUP5 PUSH2 0x649 JUMP JUMPDEST PUSH2 0xB30 JUMP JUMPDEST PUSH2 0x649 JUMP JUMPDEST SWAP1 POP SWAP2 SWAP1 POP JUMP JUMPDEST PUSH1 0x0 DUP2 SWAP1 POP SWAP2 SWAP1 POP JUMP JUMPDEST PUSH2 0xB6F DUP4 PUSH2 0xB3A JUMP JUMPDEST PUSH2 0xB83 PUSH2 0xB7B DUP3 PUSH2 0xB5C JUMP JUMPDEST DUP5 DUP5 SLOAD PUSH2 0xADE JUMP JUMPDEST DUP3 SSTORE POP POP POP POP JUMP JUMPDEST PUSH1 0x0 SWAP1 JUMP JUMPDEST PUSH2 0xB98 PUSH2 0xB8B JUMP JUMPDEST PUSH2 0xBA3 DUP2 DUP5 DUP5 PUSH2 0xB66 JUMP JUMPDEST POP POP POP JUMP JUMPDEST JUMPDEST DUP2 DUP2 LT ISZERO PUSH2 0xBC7 JUMPI PUSH2 0xBBC PUSH1 0x0 DUP3 PUSH2 0xB90 JUMP JUMPDEST PUSH1 0x1 DUP2 ADD SWAP1 POP PUSH2 0xBA9 JUMP JUMPDEST POP POP JUMP JUMPDEST PUSH1 0x1F DUP3 GT ISZERO PUSH2 0xC0C JUMPI PUSH2 0xBDD DUP2 PUSH2 0xAAC JUMP JUMPDEST PUSH2 0xBE6 DUP5 PUSH2 0xAC1 JUMP JUMPDEST DUP2 ADD PUSH1 0x20 DUP6 LT ISZERO PUSH2 0xBF5 JUMPI DUP2 SWAP1 POP JUMPDEST PUSH2 0xC09 PUSH2 0xC01 DUP6 PUSH2 0xAC1 JUMP JUMPDEST DUP4 ADD DUP3 PUSH2 0xBA8 JUMP JUMPDEST POP POP JUMPDEST POP POP POP JUMP JUMPDEST PUSH1 0x0 DUP3 DUP3 SHR SWAP1 POP SWAP3 SWAP2 POP POP JUMP JUMPDEST PUSH1 0x0 PUSH2 0xC2F PUSH1 0x0 NOT DUP5 PUSH1 0x8 MUL PUSH2 0xC11 JUMP JUMPDEST NOT DUP1 DUP4 AND SWAP2 POP POP SWAP3 SWAP2 POP POP JUMP JUMPDEST PUSH1 0x0 PUSH2 0xC48 DUP4 DUP4 PUSH2 0xC1E JUMP JUMPDEST SWAP2 POP DUP3 PUSH1 0x2 MUL DUP3 OR SWAP1 POP SWAP3 SWAP2 POP POP JUMP JUMPDEST PUSH2 0xC61 DUP3 PUSH2 0x5B9 JUMP JUMPDEST PUSH8 0xFFFFFFFFFFFFFFFF DUP2 GT ISZERO PUSH2 0xC7A JUMPI PUSH2 0xC79 PUSH2 0x82A JUMP JUMPDEST JUMPDEST PUSH2 0xC84 DUP3 SLOAD PUSH2 0xA7B JUMP JUMPDEST PUSH2 0xC8F DUP3 DUP3 DUP6 PUSH2 0xBCB JUMP JUMPDEST PUSH1 0x0 PUSH1 0x20 SWAP1 POP PUSH1 0x1F DUP4 GT PUSH1 0x1 DUP2 EQ PUSH2 0xCC2 JUMPI PUSH1 0x0 DUP5 ISZERO PUSH2 0xCB0 JUMPI DUP3 DUP8 ADD MLOAD SWAP1 POP JUMPDEST PUSH2 0xCBA DUP6 DUP3 PUSH2 0xC3C JUMP JUMPDEST DUP7 SSTORE POP PUSH2 0xD22 JUMP JUMPDEST PUSH1 0x1F NOT DUP5 AND PUSH2 0xCD0 DUP7 PUSH2 0xAAC JUMP JUMPDEST PUSH1 0x0 JUMPDEST DUP3 DUP2 LT ISZERO PUSH2 0xCF8 JUMPI DUP5 DUP10 ADD MLOAD DUP3 SSTORE PUSH1 0x1 DUP3 ADD SWAP2 POP PUSH1 0x20 DUP6 ADD SWAP5 POP PUSH1 0x20 DUP2 ADD SWAP1 POP PUSH2 0xCD3 JUMP JUMPDEST DUP7 DUP4 LT ISZERO PUSH2 0xD15 JUMPI DUP5 DUP10 ADD MLOAD PUSH2 0xD11 PUSH1 0x1F DUP10 AND DUP3 PUSH2 0xC1E JUMP JUMPDEST DUP4 SSTORE POP JUMPDEST PUSH1 0x1 PUSH1 0x2 DUP9 MUL ADD DUP9 SSTORE POP POP POP JUMPDEST POP POP POP POP POP POP JUMP INVALID LOG2 PUSH5 0x6970667358 0x22 SLT KECCAK256 MULMOD CREATE 0xAA 0xB5 SELFDESTRUCT 0xE3 GAS PUSH1 0x0 SWAP1 0x24 0xEA SWAP11 0x25 ORIGIN LT 0x24 0xD6 JUMPI 0xDE 0x5C 0xDD STOP 0x22 PUSH13 0x50F056995CDB9C64736F6C6343 STOP ADDMOD SLT STOP CALLER "
				},
				"gasEstimates": {
					"creation": {
						"codeDepositCost": "684800",
						"executionCost": "715",
						"totalCost": "685515"
					},
					"external": {
						"enterData(string,uint256,string,address)": "infinite",
						"retunrnName()": "infinite",
						"returnAll()": "infinite",
						"s1()": "infinite"
					}
				},
				"methodIdentifiers": {
					"enterData(string,uint256,string,address)": "cdd1173e",
					"retunrnName()": "a25f539e",
					"returnAll()": "85b1423e",
					"s1()": "6cc014de"
				}
			},
			"storageLayout": {
				"storage": [
					{
						"astId": 13,
						"contract": "contracts/Solidity Advance part=2/1.structure.sol:structdemo",
						"label": "s1",
						"offset": 0,
						"slot": "0",
						"type": "t_struct(student)10_storage"
					}
				],
				"types": {
					"t_address": {
						"encoding": "inplace",
						"label": "address",
						"numberOfBytes": "20"
					},
					"t_string_storage": {
						"encoding": "bytes",
						"label": "string",
						"numberOfBytes": "32"
					},
					"t_struct(student)10_storage": {
						"encoding": "inplace",
						"label": "struct structdemo.student",
						"members": [
							{
								"astId": 3,
								"contract": "contracts/Solidity Advance part=2/1.structure.sol:structdemo",
								"label": "name",
								"offset": 0,
								"slot": "0",
								"type": "t_string_storage"
							},
							{
								"astId": 5,
								"contract": "contracts/Solidity Advance part=2/1.structure.sol:structdemo",
								"label": "roll",
								"offset": 0,
								"slot": "1",
								"type": "t_uint256"
							},
							{
								"astId": 7,
								"contract": "contracts/Solidity Advance part=2/1.structure.sol:structdemo",
								"label": "location",
								"offset": 0,
								"slot": "2",
								"type": "t_string_storage"
							},
							{
								"astId": 9,
								"contract": "contracts/Solidity Advance part=2/1.structure.sol:structdemo",
								"label": "walletaddress",
								"offset": 0,
								"slot": "3",
								"type": "t_address"
							}
						],
						"numberOfBytes": "128"
					},
					"t_uint256": {
						"encoding": "inplace",
						"label": "uint256",
						"numberOfBytes": "32"
					}
				}
			},
			"userdoc": {
				"kind": "user",
				"methods": {},
				"version": 1
			}
		}
	}
}