{
	"contracts/Solidity Advance part=2/5.Mapping.sol": {
		"demo": {
			"abi": [
				{
					"inputs": [
						{
							"internalType": "uint256",
							"name": "index",
							"type": "uint256"
						},
						{
							"internalType": "string",
							"name": "value",
							"type": "string"
						}
					],
					"name": "insert",
					"outputs": [],
					"stateMutability": "nonpayable",
					"type": "function"
				},
				{
					"inputs": [
						{
							"internalType": "uint256",
							"name": "index",
							"type": "uint256"
						}
					],
					"name": "returnData",
					"outputs": [
						{
							"internalType": "string",
							"name": "",
							"type": "string"
						}
					],
					"stateMutability": "view",
					"type": "function"
				},
				{
					"inputs": [
						{
							"internalType": "uint256",
							"name": "",
							"type": "uint256"
						}
					],
					"name": "student",
					"outputs": [
						{
							"internalType": "string",
							"name": "",
							"type": "string"
						}
					],
					"stateMutability": "view",
					"type": "function"
				}
			],
			"devdoc": {
				"kind": "dev",
				"methods": {},
				"version": 1
			},
			"evm": {
				"assembly": "    /* \"contracts/Solidity Advance part=2/5.Mapping.sol\":71:469  contract demo{... */\n  mstore(0x40, 0x80)\n  callvalue\n  dup1\n  iszero\n  tag_1\n  jumpi\n  0x00\n  dup1\n  revert\ntag_1:\n  pop\n  dataSize(sub_0)\n  dup1\n  dataOffset(sub_0)\n  0x00\n  codecopy\n  0x00\n  return\nstop\n\nsub_0: assembly {\n        /* \"contracts/Solidity Advance part=2/5.Mapping.sol\":71:469  contract demo{... */\n      mstore(0x40, 0x80)\n      callvalue\n      dup1\n      iszero\n      tag_1\n      jumpi\n      0x00\n      dup1\n      revert\n    tag_1:\n      pop\n      jumpi(tag_2, lt(calldatasize, 0x04))\n      shr(0xe0, calldataload(0x00))\n      dup1\n      0x35f34232\n      eq\n      tag_3\n      jumpi\n      dup1\n      0xd6026510\n      eq\n      tag_4\n      jumpi\n      dup1\n      0xfddec16a\n      eq\n      tag_5\n      jumpi\n    tag_2:\n      0x00\n      dup1\n      revert\n        /* \"contracts/Solidity Advance part=2/5.Mapping.sol\":87:126  mapping (uint => string) public student */\n    tag_3:\n      tag_6\n      0x04\n      dup1\n      calldatasize\n      sub\n      dup2\n      add\n      swap1\n      tag_7\n      swap2\n      swap1\n      tag_8\n      jump\t// in\n    tag_7:\n      tag_9\n      jump\t// in\n    tag_6:\n      mload(0x40)\n      tag_10\n      swap2\n      swap1\n      tag_11\n      jump\t// in\n    tag_10:\n      mload(0x40)\n      dup1\n      swap2\n      sub\n      swap1\n      return\n        /* \"contracts/Solidity Advance part=2/5.Mapping.sol\":129:219  function insert(uint index, string calldata value)public {... */\n    tag_4:\n      tag_12\n      0x04\n      dup1\n      calldatasize\n      sub\n      dup2\n      add\n      swap1\n      tag_13\n      swap2\n      swap1\n      tag_14\n      jump\t// in\n    tag_13:\n      tag_15\n      jump\t// in\n    tag_12:\n      stop\n        /* \"contracts/Solidity Advance part=2/5.Mapping.sol\":221:320  function returnData(uint index)public view returns(string memory){... */\n    tag_5:\n      tag_16\n      0x04\n      dup1\n      calldatasize\n      sub\n      dup2\n      add\n      swap1\n      tag_17\n      swap2\n      swap1\n      tag_8\n      jump\t// in\n    tag_17:\n      tag_18\n      jump\t// in\n    tag_16:\n      mload(0x40)\n      tag_19\n      swap2\n      swap1\n      tag_11\n      jump\t// in\n    tag_19:\n      mload(0x40)\n      dup1\n      swap2\n      sub\n      swap1\n      return\n        /* \"contracts/Solidity Advance part=2/5.Mapping.sol\":87:126  mapping (uint => string) public student */\n    tag_9:\n      mstore(0x20, 0x00)\n      dup1\n      0x00\n      mstore\n      keccak256(0x00, 0x40)\n      0x00\n      swap2\n      pop\n      swap1\n      pop\n      dup1\n      sload\n      tag_20\n      swap1\n      tag_21\n      jump\t// in\n    tag_20:\n      dup1\n      0x1f\n      add\n      0x20\n      dup1\n      swap2\n      div\n      mul\n      0x20\n      add\n      mload(0x40)\n      swap1\n      dup2\n      add\n      0x40\n      mstore\n      dup1\n      swap3\n      swap2\n      swap1\n      dup2\n      dup2\n      mstore\n      0x20\n      add\n      dup3\n      dup1\n      sload\n      tag_22\n      swap1\n      tag_21\n      jump\t// in\n    tag_22:\n      dup1\n      iszero\n      tag_23\n      jumpi\n      dup1\n      0x1f\n      lt\n      tag_24\n      jumpi\n      0x0100\n      dup1\n      dup4\n      sload\n      div\n      mul\n      dup4\n      mstore\n      swap2\n      0x20\n      add\n      swap2\n      jump(tag_23)\n    tag_24:\n      dup3\n      add\n      swap2\n      swap1\n      0x00\n      mstore\n      keccak256(0x00, 0x20)\n      swap1\n    tag_25:\n      dup2\n      sload\n      dup2\n      mstore\n      swap1\n      0x01\n      add\n      swap1\n      0x20\n      add\n      dup1\n      dup4\n      gt\n      tag_25\n      jumpi\n      dup3\n      swap1\n      sub\n      0x1f\n      and\n      dup3\n      add\n      swap2\n    tag_23:\n      pop\n      pop\n      pop\n      pop\n      pop\n      dup2\n      jump\t// out\n        /* \"contracts/Solidity Advance part=2/5.Mapping.sol\":129:219  function insert(uint index, string calldata value)public {... */\n    tag_15:\n        /* \"contracts/Solidity Advance part=2/5.Mapping.sol\":211:216  value */\n      dup2\n      dup2\n        /* \"contracts/Solidity Advance part=2/5.Mapping.sol\":195:202  student */\n      0x00\n        /* \"contracts/Solidity Advance part=2/5.Mapping.sol\":195:209  student[index] */\n      dup1\n        /* \"contracts/Solidity Advance part=2/5.Mapping.sol\":203:208  index */\n      dup7\n        /* \"contracts/Solidity Advance part=2/5.Mapping.sol\":195:209  student[index] */\n      dup2\n      mstore\n      0x20\n      add\n      swap1\n      dup2\n      mstore\n      0x20\n      add\n      0x00\n      keccak256\n        /* \"contracts/Solidity Advance part=2/5.Mapping.sol\":195:216  student[index]= value */\n      swap2\n      dup3\n      tag_27\n      swap3\n      swap2\n      swap1\n      tag_28\n      jump\t// in\n    tag_27:\n      pop\n        /* \"contracts/Solidity Advance part=2/5.Mapping.sol\":129:219  function insert(uint index, string calldata value)public {... */\n      pop\n      pop\n      pop\n      jump\t// out\n        /* \"contracts/Solidity Advance part=2/5.Mapping.sol\":221:320  function returnData(uint index)public view returns(string memory){... */\n    tag_18:\n        /* \"contracts/Solidity Advance part=2/5.Mapping.sol\":272:285  string memory */\n      0x60\n        /* \"contracts/Solidity Advance part=2/5.Mapping.sol\":303:310  student */\n      0x00\n        /* \"contracts/Solidity Advance part=2/5.Mapping.sol\":303:317  student[index] */\n      dup1\n        /* \"contracts/Solidity Advance part=2/5.Mapping.sol\":311:316  index */\n      dup4\n        /* \"contracts/Solidity Advance part=2/5.Mapping.sol\":303:317  student[index] */\n      dup2\n      mstore\n      0x20\n      add\n      swap1\n      dup2\n      mstore\n      0x20\n      add\n      0x00\n      keccak256\n        /* \"contracts/Solidity Advance part=2/5.Mapping.sol\":295:317  return  student[index] */\n      dup1\n      sload\n      tag_30\n      swap1\n      tag_21\n      jump\t// in\n    tag_30:\n      dup1\n      0x1f\n      add\n      0x20\n      dup1\n      swap2\n      div\n      mul\n      0x20\n      add\n      mload(0x40)\n      swap1\n      dup2\n      add\n      0x40\n      mstore\n      dup1\n      swap3\n      swap2\n      swap1\n      dup2\n      dup2\n      mstore\n      0x20\n      add\n      dup3\n      dup1\n      sload\n      tag_31\n      swap1\n      tag_21\n      jump\t// in\n    tag_31:\n      dup1\n      iszero\n      tag_32\n      jumpi\n      dup1\n      0x1f\n      lt\n      tag_33\n      jumpi\n      0x0100\n      dup1\n      dup4\n      sload\n      div\n      mul\n      dup4\n      mstore\n      swap2\n      0x20\n      add\n      swap2\n      jump(tag_32)\n    tag_33:\n      dup3\n      add\n      swap2\n      swap1\n      0x00\n      mstore\n      keccak256(0x00, 0x20)\n      swap1\n    tag_34:\n      dup2\n      sload\n      dup2\n      mstore\n      swap1\n      0x01\n      add\n      swap1\n      0x20\n      add\n      dup1\n      dup4\n      gt\n      tag_34\n      jumpi\n      dup3\n      swap1\n      sub\n      0x1f\n      and\n      dup3\n      add\n      swap2\n    tag_32:\n      pop\n      pop\n      pop\n      pop\n      pop\n      swap1\n      pop\n        /* \"contracts/Solidity Advance part=2/5.Mapping.sol\":221:320  function returnData(uint index)public view returns(string memory){... */\n      swap2\n      swap1\n      pop\n      jump\t// out\n        /* \"#utility.yul\":88:205   */\n    tag_36:\n        /* \"#utility.yul\":197:198   */\n      0x00\n        /* \"#utility.yul\":194:195   */\n      dup1\n        /* \"#utility.yul\":187:199   */\n      revert\n        /* \"#utility.yul\":211:328   */\n    tag_37:\n        /* \"#utility.yul\":320:321   */\n      0x00\n        /* \"#utility.yul\":317:318   */\n      dup1\n        /* \"#utility.yul\":310:322   */\n      revert\n        /* \"#utility.yul\":334:411   */\n    tag_38:\n        /* \"#utility.yul\":371:378   */\n      0x00\n        /* \"#utility.yul\":400:405   */\n      dup2\n        /* \"#utility.yul\":389:405   */\n      swap1\n      pop\n        /* \"#utility.yul\":334:411   */\n      swap2\n      swap1\n      pop\n      jump\t// out\n        /* \"#utility.yul\":417:539   */\n    tag_39:\n        /* \"#utility.yul\":490:514   */\n      tag_74\n        /* \"#utility.yul\":508:513   */\n      dup2\n        /* \"#utility.yul\":490:514   */\n      tag_38\n      jump\t// in\n    tag_74:\n        /* \"#utility.yul\":483:488   */\n      dup2\n        /* \"#utility.yul\":480:515   */\n      eq\n        /* \"#utility.yul\":470:533   */\n      tag_75\n      jumpi\n        /* \"#utility.yul\":529:530   */\n      0x00\n        /* \"#utility.yul\":526:527   */\n      dup1\n        /* \"#utility.yul\":519:531   */\n      revert\n        /* \"#utility.yul\":470:533   */\n    tag_75:\n        /* \"#utility.yul\":417:539   */\n      pop\n      jump\t// out\n        /* \"#utility.yul\":545:684   */\n    tag_40:\n        /* \"#utility.yul\":591:596   */\n      0x00\n        /* \"#utility.yul\":629:635   */\n      dup2\n        /* \"#utility.yul\":616:636   */\n      calldataload\n        /* \"#utility.yul\":607:636   */\n      swap1\n      pop\n        /* \"#utility.yul\":645:678   */\n      tag_77\n        /* \"#utility.yul\":672:677   */\n      dup2\n        /* \"#utility.yul\":645:678   */\n      tag_39\n      jump\t// in\n    tag_77:\n        /* \"#utility.yul\":545:684   */\n      swap3\n      swap2\n      pop\n      pop\n      jump\t// out\n        /* \"#utility.yul\":690:1019   */\n    tag_8:\n        /* \"#utility.yul\":749:755   */\n      0x00\n        /* \"#utility.yul\":798:800   */\n      0x20\n        /* \"#utility.yul\":786:795   */\n      dup3\n        /* \"#utility.yul\":777:784   */\n      dup5\n        /* \"#utility.yul\":773:796   */\n      sub\n        /* \"#utility.yul\":769:801   */\n      slt\n        /* \"#utility.yul\":766:885   */\n      iszero\n      tag_79\n      jumpi\n        /* \"#utility.yul\":804:883   */\n      tag_80\n      tag_36\n      jump\t// in\n    tag_80:\n        /* \"#utility.yul\":766:885   */\n    tag_79:\n        /* \"#utility.yul\":924:925   */\n      0x00\n        /* \"#utility.yul\":949:1002   */\n      tag_81\n        /* \"#utility.yul\":994:1001   */\n      dup5\n        /* \"#utility.yul\":985:991   */\n      dup3\n        /* \"#utility.yul\":974:983   */\n      dup6\n        /* \"#utility.yul\":970:992   */\n      add\n        /* \"#utility.yul\":949:1002   */\n      tag_40\n      jump\t// in\n    tag_81:\n        /* \"#utility.yul\":939:1002   */\n      swap2\n      pop\n        /* \"#utility.yul\":895:1012   */\n      pop\n        /* \"#utility.yul\":690:1019   */\n      swap3\n      swap2\n      pop\n      pop\n      jump\t// out\n        /* \"#utility.yul\":1025:1124   */\n    tag_41:\n        /* \"#utility.yul\":1077:1083   */\n      0x00\n        /* \"#utility.yul\":1111:1116   */\n      dup2\n        /* \"#utility.yul\":1105:1117   */\n      mload\n        /* \"#utility.yul\":1095:1117   */\n      swap1\n      pop\n        /* \"#utility.yul\":1025:1124   */\n      swap2\n      swap1\n      pop\n      jump\t// out\n        /* \"#utility.yul\":1130:1299   */\n    tag_42:\n        /* \"#utility.yul\":1214:1225   */\n      0x00\n        /* \"#utility.yul\":1248:1254   */\n      dup3\n        /* \"#utility.yul\":1243:1246   */\n      dup3\n        /* \"#utility.yul\":1236:1255   */\n      mstore\n        /* \"#utility.yul\":1288:1292   */\n      0x20\n        /* \"#utility.yul\":1283:1286   */\n      dup3\n        /* \"#utility.yul\":1279:1293   */\n      add\n        /* \"#utility.yul\":1264:1293   */\n      swap1\n      pop\n        /* \"#utility.yul\":1130:1299   */\n      swap3\n      swap2\n      pop\n      pop\n      jump\t// out\n        /* \"#utility.yul\":1305:1551   */\n    tag_43:\n        /* \"#utility.yul\":1386:1387   */\n      0x00\n        /* \"#utility.yul\":1396:1509   */\n    tag_85:\n        /* \"#utility.yul\":1410:1416   */\n      dup4\n        /* \"#utility.yul\":1407:1408   */\n      dup2\n        /* \"#utility.yul\":1404:1417   */\n      lt\n        /* \"#utility.yul\":1396:1509   */\n      iszero\n      tag_87\n      jumpi\n        /* \"#utility.yul\":1495:1496   */\n      dup1\n        /* \"#utility.yul\":1490:1493   */\n      dup3\n        /* \"#utility.yul\":1486:1497   */\n      add\n        /* \"#utility.yul\":1480:1498   */\n      mload\n        /* \"#utility.yul\":1476:1477   */\n      dup2\n        /* \"#utility.yul\":1471:1474   */\n      dup5\n        /* \"#utility.yul\":1467:1478   */\n      add\n        /* \"#utility.yul\":1460:1499   */\n      mstore\n        /* \"#utility.yul\":1432:1434   */\n      0x20\n        /* \"#utility.yul\":1429:1430   */\n      dup2\n        /* \"#utility.yul\":1425:1435   */\n      add\n        /* \"#utility.yul\":1420:1435   */\n      swap1\n      pop\n        /* \"#utility.yul\":1396:1509   */\n      jump(tag_85)\n    tag_87:\n        /* \"#utility.yul\":1543:1544   */\n      0x00\n        /* \"#utility.yul\":1534:1540   */\n      dup5\n        /* \"#utility.yul\":1529:1532   */\n      dup5\n        /* \"#utility.yul\":1525:1541   */\n      add\n        /* \"#utility.yul\":1518:1545   */\n      mstore\n        /* \"#utility.yul\":1367:1551   */\n      pop\n        /* \"#utility.yul\":1305:1551   */\n      pop\n      pop\n      pop\n      jump\t// out\n        /* \"#utility.yul\":1557:1659   */\n    tag_44:\n        /* \"#utility.yul\":1598:1604   */\n      0x00\n        /* \"#utility.yul\":1649:1651   */\n      0x1f\n        /* \"#utility.yul\":1645:1652   */\n      not\n        /* \"#utility.yul\":1640:1642   */\n      0x1f\n        /* \"#utility.yul\":1633:1638   */\n      dup4\n        /* \"#utility.yul\":1629:1643   */\n      add\n        /* \"#utility.yul\":1625:1653   */\n      and\n        /* \"#utility.yul\":1615:1653   */\n      swap1\n      pop\n        /* \"#utility.yul\":1557:1659   */\n      swap2\n      swap1\n      pop\n      jump\t// out\n        /* \"#utility.yul\":1665:2042   */\n    tag_45:\n        /* \"#utility.yul\":1753:1756   */\n      0x00\n        /* \"#utility.yul\":1781:1820   */\n      tag_90\n        /* \"#utility.yul\":1814:1819   */\n      dup3\n        /* \"#utility.yul\":1781:1820   */\n      tag_41\n      jump\t// in\n    tag_90:\n        /* \"#utility.yul\":1836:1907   */\n      tag_91\n        /* \"#utility.yul\":1900:1906   */\n      dup2\n        /* \"#utility.yul\":1895:1898   */\n      dup6\n        /* \"#utility.yul\":1836:1907   */\n      tag_42\n      jump\t// in\n    tag_91:\n        /* \"#utility.yul\":1829:1907   */\n      swap4\n      pop\n        /* \"#utility.yul\":1916:1981   */\n      tag_92\n        /* \"#utility.yul\":1974:1980   */\n      dup2\n        /* \"#utility.yul\":1969:1972   */\n      dup6\n        /* \"#utility.yul\":1962:1966   */\n      0x20\n        /* \"#utility.yul\":1955:1960   */\n      dup7\n        /* \"#utility.yul\":1951:1967   */\n      add\n        /* \"#utility.yul\":1916:1981   */\n      tag_43\n      jump\t// in\n    tag_92:\n        /* \"#utility.yul\":2006:2035   */\n      tag_93\n        /* \"#utility.yul\":2028:2034   */\n      dup2\n        /* \"#utility.yul\":2006:2035   */\n      tag_44\n      jump\t// in\n    tag_93:\n        /* \"#utility.yul\":2001:2004   */\n      dup5\n        /* \"#utility.yul\":1997:2036   */\n      add\n        /* \"#utility.yul\":1990:2036   */\n      swap2\n      pop\n        /* \"#utility.yul\":1757:2042   */\n      pop\n        /* \"#utility.yul\":1665:2042   */\n      swap3\n      swap2\n      pop\n      pop\n      jump\t// out\n        /* \"#utility.yul\":2048:2361   */\n    tag_11:\n        /* \"#utility.yul\":2161:2165   */\n      0x00\n        /* \"#utility.yul\":2199:2201   */\n      0x20\n        /* \"#utility.yul\":2188:2197   */\n      dup3\n        /* \"#utility.yul\":2184:2202   */\n      add\n        /* \"#utility.yul\":2176:2202   */\n      swap1\n      pop\n        /* \"#utility.yul\":2248:2257   */\n      dup2\n        /* \"#utility.yul\":2242:2246   */\n      dup2\n        /* \"#utility.yul\":2238:2258   */\n      sub\n        /* \"#utility.yul\":2234:2235   */\n      0x00\n        /* \"#utility.yul\":2223:2232   */\n      dup4\n        /* \"#utility.yul\":2219:2236   */\n      add\n        /* \"#utility.yul\":2212:2259   */\n      mstore\n        /* \"#utility.yul\":2276:2354   */\n      tag_95\n        /* \"#utility.yul\":2349:2353   */\n      dup2\n        /* \"#utility.yul\":2340:2346   */\n      dup5\n        /* \"#utility.yul\":2276:2354   */\n      tag_45\n      jump\t// in\n    tag_95:\n        /* \"#utility.yul\":2268:2354   */\n      swap1\n      pop\n        /* \"#utility.yul\":2048:2361   */\n      swap3\n      swap2\n      pop\n      pop\n      jump\t// out\n        /* \"#utility.yul\":2367:2484   */\n    tag_46:\n        /* \"#utility.yul\":2476:2477   */\n      0x00\n        /* \"#utility.yul\":2473:2474   */\n      dup1\n        /* \"#utility.yul\":2466:2478   */\n      revert\n        /* \"#utility.yul\":2490:2607   */\n    tag_47:\n        /* \"#utility.yul\":2599:2600   */\n      0x00\n        /* \"#utility.yul\":2596:2597   */\n      dup1\n        /* \"#utility.yul\":2589:2601   */\n      revert\n        /* \"#utility.yul\":2613:2730   */\n    tag_48:\n        /* \"#utility.yul\":2722:2723   */\n      0x00\n        /* \"#utility.yul\":2719:2720   */\n      dup1\n        /* \"#utility.yul\":2712:2724   */\n      revert\n        /* \"#utility.yul\":2750:3303   */\n    tag_49:\n        /* \"#utility.yul\":2808:2816   */\n      0x00\n        /* \"#utility.yul\":2818:2824   */\n      dup1\n        /* \"#utility.yul\":2868:2871   */\n      dup4\n        /* \"#utility.yul\":2861:2865   */\n      0x1f\n        /* \"#utility.yul\":2853:2859   */\n      dup5\n        /* \"#utility.yul\":2849:2866   */\n      add\n        /* \"#utility.yul\":2845:2872   */\n      slt\n        /* \"#utility.yul\":2835:2957   */\n      tag_100\n      jumpi\n        /* \"#utility.yul\":2876:2955   */\n      tag_101\n      tag_46\n      jump\t// in\n    tag_101:\n        /* \"#utility.yul\":2835:2957   */\n    tag_100:\n        /* \"#utility.yul\":2989:2995   */\n      dup3\n        /* \"#utility.yul\":2976:2996   */\n      calldataload\n        /* \"#utility.yul\":2966:2996   */\n      swap1\n      pop\n        /* \"#utility.yul\":3019:3037   */\n      0xffffffffffffffff\n        /* \"#utility.yul\":3011:3017   */\n      dup2\n        /* \"#utility.yul\":3008:3038   */\n      gt\n        /* \"#utility.yul\":3005:3122   */\n      iszero\n      tag_102\n      jumpi\n        /* \"#utility.yul\":3041:3120   */\n      tag_103\n      tag_47\n      jump\t// in\n    tag_103:\n        /* \"#utility.yul\":3005:3122   */\n    tag_102:\n        /* \"#utility.yul\":3155:3159   */\n      0x20\n        /* \"#utility.yul\":3147:3153   */\n      dup4\n        /* \"#utility.yul\":3143:3160   */\n      add\n        /* \"#utility.yul\":3131:3160   */\n      swap2\n      pop\n        /* \"#utility.yul\":3209:3212   */\n      dup4\n        /* \"#utility.yul\":3201:3205   */\n      0x01\n        /* \"#utility.yul\":3193:3199   */\n      dup3\n        /* \"#utility.yul\":3189:3206   */\n      mul\n        /* \"#utility.yul\":3179:3187   */\n      dup4\n        /* \"#utility.yul\":3175:3207   */\n      add\n        /* \"#utility.yul\":3172:3213   */\n      gt\n        /* \"#utility.yul\":3169:3297   */\n      iszero\n      tag_104\n      jumpi\n        /* \"#utility.yul\":3216:3295   */\n      tag_105\n      tag_48\n      jump\t// in\n    tag_105:\n        /* \"#utility.yul\":3169:3297   */\n    tag_104:\n        /* \"#utility.yul\":2750:3303   */\n      swap3\n      pop\n      swap3\n      swap1\n      pop\n      jump\t// out\n        /* \"#utility.yul\":3309:3983   */\n    tag_14:\n        /* \"#utility.yul\":3389:3395   */\n      0x00\n        /* \"#utility.yul\":3397:3403   */\n      dup1\n        /* \"#utility.yul\":3405:3411   */\n      0x00\n        /* \"#utility.yul\":3454:3456   */\n      0x40\n        /* \"#utility.yul\":3442:3451   */\n      dup5\n        /* \"#utility.yul\":3433:3440   */\n      dup7\n        /* \"#utility.yul\":3429:3452   */\n      sub\n        /* \"#utility.yul\":3425:3457   */\n      slt\n        /* \"#utility.yul\":3422:3541   */\n      iszero\n      tag_107\n      jumpi\n        /* \"#utility.yul\":3460:3539   */\n      tag_108\n      tag_36\n      jump\t// in\n    tag_108:\n        /* \"#utility.yul\":3422:3541   */\n    tag_107:\n        /* \"#utility.yul\":3580:3581   */\n      0x00\n        /* \"#utility.yul\":3605:3658   */\n      tag_109\n        /* \"#utility.yul\":3650:3657   */\n      dup7\n        /* \"#utility.yul\":3641:3647   */\n      dup3\n        /* \"#utility.yul\":3630:3639   */\n      dup8\n        /* \"#utility.yul\":3626:3648   */\n      add\n        /* \"#utility.yul\":3605:3658   */\n      tag_40\n      jump\t// in\n    tag_109:\n        /* \"#utility.yul\":3595:3658   */\n      swap4\n      pop\n        /* \"#utility.yul\":3551:3668   */\n      pop\n        /* \"#utility.yul\":3735:3737   */\n      0x20\n        /* \"#utility.yul\":3724:3733   */\n      dup5\n        /* \"#utility.yul\":3720:3738   */\n      add\n        /* \"#utility.yul\":3707:3739   */\n      calldataload\n        /* \"#utility.yul\":3766:3784   */\n      0xffffffffffffffff\n        /* \"#utility.yul\":3758:3764   */\n      dup2\n        /* \"#utility.yul\":3755:3785   */\n      gt\n        /* \"#utility.yul\":3752:3869   */\n      iszero\n      tag_110\n      jumpi\n        /* \"#utility.yul\":3788:3867   */\n      tag_111\n      tag_37\n      jump\t// in\n    tag_111:\n        /* \"#utility.yul\":3752:3869   */\n    tag_110:\n        /* \"#utility.yul\":3901:3966   */\n      tag_112\n        /* \"#utility.yul\":3958:3965   */\n      dup7\n        /* \"#utility.yul\":3949:3955   */\n      dup3\n        /* \"#utility.yul\":3938:3947   */\n      dup8\n        /* \"#utility.yul\":3934:3956   */\n      add\n        /* \"#utility.yul\":3901:3966   */\n      tag_49\n      jump\t// in\n    tag_112:\n        /* \"#utility.yul\":3883:3966   */\n      swap3\n      pop\n      swap3\n      pop\n        /* \"#utility.yul\":3678:3976   */\n      pop\n        /* \"#utility.yul\":3309:3983   */\n      swap3\n      pop\n      swap3\n      pop\n      swap3\n      jump\t// out\n        /* \"#utility.yul\":3989:4169   */\n    tag_50:\n        /* \"#utility.yul\":4037:4114   */\n      0x4e487b7100000000000000000000000000000000000000000000000000000000\n        /* \"#utility.yul\":4034:4035   */\n      0x00\n        /* \"#utility.yul\":4027:4115   */\n      mstore\n        /* \"#utility.yul\":4134:4138   */\n      0x22\n        /* \"#utility.yul\":4131:4132   */\n      0x04\n        /* \"#utility.yul\":4124:4139   */\n      mstore\n        /* \"#utility.yul\":4158:4162   */\n      0x24\n        /* \"#utility.yul\":4155:4156   */\n      0x00\n        /* \"#utility.yul\":4148:4163   */\n      revert\n        /* \"#utility.yul\":4175:4495   */\n    tag_21:\n        /* \"#utility.yul\":4219:4225   */\n      0x00\n        /* \"#utility.yul\":4256:4257   */\n      0x02\n        /* \"#utility.yul\":4250:4254   */\n      dup3\n        /* \"#utility.yul\":4246:4258   */\n      div\n        /* \"#utility.yul\":4236:4258   */\n      swap1\n      pop\n        /* \"#utility.yul\":4303:4304   */\n      0x01\n        /* \"#utility.yul\":4297:4301   */\n      dup3\n        /* \"#utility.yul\":4293:4305   */\n      and\n        /* \"#utility.yul\":4324:4342   */\n      dup1\n        /* \"#utility.yul\":4314:4395   */\n      tag_115\n      jumpi\n        /* \"#utility.yul\":4380:4384   */\n      0x7f\n        /* \"#utility.yul\":4372:4378   */\n      dup3\n        /* \"#utility.yul\":4368:4385   */\n      and\n        /* \"#utility.yul\":4358:4385   */\n      swap2\n      pop\n        /* \"#utility.yul\":4314:4395   */\n    tag_115:\n        /* \"#utility.yul\":4442:4444   */\n      0x20\n        /* \"#utility.yul\":4434:4440   */\n      dup3\n        /* \"#utility.yul\":4431:4445   */\n      lt\n        /* \"#utility.yul\":4411:4429   */\n      dup2\n        /* \"#utility.yul\":4408:4446   */\n      sub\n        /* \"#utility.yul\":4405:4489   */\n      tag_116\n      jumpi\n        /* \"#utility.yul\":4461:4479   */\n      tag_117\n      tag_50\n      jump\t// in\n    tag_117:\n        /* \"#utility.yul\":4405:4489   */\n    tag_116:\n        /* \"#utility.yul\":4226:4495   */\n      pop\n        /* \"#utility.yul\":4175:4495   */\n      swap2\n      swap1\n      pop\n      jump\t// out\n        /* \"#utility.yul\":4501:4598   */\n    tag_51:\n        /* \"#utility.yul\":4560:4566   */\n      0x00\n        /* \"#utility.yul\":4588:4591   */\n      dup3\n        /* \"#utility.yul\":4578:4591   */\n      swap1\n      pop\n        /* \"#utility.yul\":4501:4598   */\n      swap3\n      swap2\n      pop\n      pop\n      jump\t// out\n        /* \"#utility.yul\":4604:4784   */\n    tag_52:\n        /* \"#utility.yul\":4652:4729   */\n      0x4e487b7100000000000000000000000000000000000000000000000000000000\n        /* \"#utility.yul\":4649:4650   */\n      0x00\n        /* \"#utility.yul\":4642:4730   */\n      mstore\n        /* \"#utility.yul\":4749:4753   */\n      0x41\n        /* \"#utility.yul\":4746:4747   */\n      0x04\n        /* \"#utility.yul\":4739:4754   */\n      mstore\n        /* \"#utility.yul\":4773:4777   */\n      0x24\n        /* \"#utility.yul\":4770:4771   */\n      0x00\n        /* \"#utility.yul\":4763:4778   */\n      revert\n        /* \"#utility.yul\":4790:4931   */\n    tag_53:\n        /* \"#utility.yul\":4839:4843   */\n      0x00\n        /* \"#utility.yul\":4862:4865   */\n      dup2\n        /* \"#utility.yul\":4854:4865   */\n      swap1\n      pop\n        /* \"#utility.yul\":4885:4888   */\n      dup2\n        /* \"#utility.yul\":4882:4883   */\n      0x00\n        /* \"#utility.yul\":4875:4889   */\n      mstore\n        /* \"#utility.yul\":4919:4923   */\n      0x20\n        /* \"#utility.yul\":4916:4917   */\n      0x00\n        /* \"#utility.yul\":4906:4924   */\n      keccak256\n        /* \"#utility.yul\":4898:4924   */\n      swap1\n      pop\n        /* \"#utility.yul\":4790:4931   */\n      swap2\n      swap1\n      pop\n      jump\t// out\n        /* \"#utility.yul\":4937:5030   */\n    tag_54:\n        /* \"#utility.yul\":4974:4980   */\n      0x00\n        /* \"#utility.yul\":5021:5023   */\n      0x20\n        /* \"#utility.yul\":5016:5018   */\n      0x1f\n        /* \"#utility.yul\":5009:5014   */\n      dup4\n        /* \"#utility.yul\":5005:5019   */\n      add\n        /* \"#utility.yul\":5001:5024   */\n      div\n        /* \"#utility.yul\":4991:5024   */\n      swap1\n      pop\n        /* \"#utility.yul\":4937:5030   */\n      swap2\n      swap1\n      pop\n      jump\t// out\n        /* \"#utility.yul\":5036:5143   */\n    tag_55:\n        /* \"#utility.yul\":5080:5088   */\n      0x00\n        /* \"#utility.yul\":5130:5135   */\n      dup3\n        /* \"#utility.yul\":5124:5128   */\n      dup3\n        /* \"#utility.yul\":5120:5136   */\n      shl\n        /* \"#utility.yul\":5099:5136   */\n      swap1\n      pop\n        /* \"#utility.yul\":5036:5143   */\n      swap3\n      swap2\n      pop\n      pop\n      jump\t// out\n        /* \"#utility.yul\":5149:5542   */\n    tag_56:\n        /* \"#utility.yul\":5218:5224   */\n      0x00\n        /* \"#utility.yul\":5268:5269   */\n      0x08\n        /* \"#utility.yul\":5256:5266   */\n      dup4\n        /* \"#utility.yul\":5252:5270   */\n      mul\n        /* \"#utility.yul\":5291:5388   */\n      tag_124\n        /* \"#utility.yul\":5321:5387   */\n      0xffffffffffffffffffffffffffffffffffffffffffffffffffffffffffffffff\n        /* \"#utility.yul\":5310:5319   */\n      dup3\n        /* \"#utility.yul\":5291:5388   */\n      tag_55\n      jump\t// in\n    tag_124:\n        /* \"#utility.yul\":5409:5448   */\n      tag_125\n        /* \"#utility.yul\":5439:5447   */\n      dup7\n        /* \"#utility.yul\":5428:5437   */\n      dup4\n        /* \"#utility.yul\":5409:5448   */\n      tag_55\n      jump\t// in\n    tag_125:\n        /* \"#utility.yul\":5397:5448   */\n      swap6\n      pop\n        /* \"#utility.yul\":5481:5485   */\n      dup1\n        /* \"#utility.yul\":5477:5486   */\n      not\n        /* \"#utility.yul\":5470:5475   */\n      dup5\n        /* \"#utility.yul\":5466:5487   */\n      and\n        /* \"#utility.yul\":5457:5487   */\n      swap4\n      pop\n        /* \"#utility.yul\":5530:5534   */\n      dup1\n        /* \"#utility.yul\":5520:5528   */\n      dup7\n        /* \"#utility.yul\":5516:5535   */\n      and\n        /* \"#utility.yul\":5509:5514   */\n      dup5\n        /* \"#utility.yul\":5506:5536   */\n      or\n        /* \"#utility.yul\":5496:5536   */\n      swap3\n      pop\n        /* \"#utility.yul\":5225:5542   */\n      pop\n      pop\n        /* \"#utility.yul\":5149:5542   */\n      swap4\n      swap3\n      pop\n      pop\n      pop\n      jump\t// out\n        /* \"#utility.yul\":5548:5608   */\n    tag_57:\n        /* \"#utility.yul\":5576:5579   */\n      0x00\n        /* \"#utility.yul\":5597:5602   */\n      dup2\n        /* \"#utility.yul\":5590:5602   */\n      swap1\n      pop\n        /* \"#utility.yul\":5548:5608   */\n      swap2\n      swap1\n      pop\n      jump\t// out\n        /* \"#utility.yul\":5614:5756   */\n    tag_58:\n        /* \"#utility.yul\":5664:5673   */\n      0x00\n        /* \"#utility.yul\":5697:5750   */\n      tag_128\n        /* \"#utility.yul\":5715:5749   */\n      tag_129\n        /* \"#utility.yul\":5724:5748   */\n      tag_130\n        /* \"#utility.yul\":5742:5747   */\n      dup5\n        /* \"#utility.yul\":5724:5748   */\n      tag_38\n      jump\t// in\n    tag_130:\n        /* \"#utility.yul\":5715:5749   */\n      tag_57\n      jump\t// in\n    tag_129:\n        /* \"#utility.yul\":5697:5750   */\n      tag_38\n      jump\t// in\n    tag_128:\n        /* \"#utility.yul\":5684:5750   */\n      swap1\n      pop\n        /* \"#utility.yul\":5614:5756   */\n      swap2\n      swap1\n      pop\n      jump\t// out\n        /* \"#utility.yul\":5762:5837   */\n    tag_59:\n        /* \"#utility.yul\":5805:5808   */\n      0x00\n        /* \"#utility.yul\":5826:5831   */\n      dup2\n        /* \"#utility.yul\":5819:5831   */\n      swap1\n      pop\n        /* \"#utility.yul\":5762:5837   */\n      swap2\n      swap1\n      pop\n      jump\t// out\n        /* \"#utility.yul\":5843:6112   */\n    tag_60:\n        /* \"#utility.yul\":5953:5992   */\n      tag_133\n        /* \"#utility.yul\":5984:5991   */\n      dup4\n        /* \"#utility.yul\":5953:5992   */\n      tag_58\n      jump\t// in\n    tag_133:\n        /* \"#utility.yul\":6014:6105   */\n      tag_134\n        /* \"#utility.yul\":6063:6104   */\n      tag_135\n        /* \"#utility.yul\":6087:6103   */\n      dup3\n        /* \"#utility.yul\":6063:6104   */\n      tag_59\n      jump\t// in\n    tag_135:\n        /* \"#utility.yul\":6055:6061   */\n      dup5\n        /* \"#utility.yul\":6048:6052   */\n      dup5\n        /* \"#utility.yul\":6042:6053   */\n      sload\n        /* \"#utility.yul\":6014:6105   */\n      tag_56\n      jump\t// in\n    tag_134:\n        /* \"#utility.yul\":6008:6012   */\n      dup3\n        /* \"#utility.yul\":6001:6106   */\n      sstore\n        /* \"#utility.yul\":5919:6112   */\n      pop\n        /* \"#utility.yul\":5843:6112   */\n      pop\n      pop\n      pop\n      jump\t// out\n        /* \"#utility.yul\":6118:6191   */\n    tag_61:\n        /* \"#utility.yul\":6163:6166   */\n      0x00\n        /* \"#utility.yul\":6118:6191   */\n      swap1\n      jump\t// out\n        /* \"#utility.yul\":6197:6386   */\n    tag_62:\n        /* \"#utility.yul\":6274:6306   */\n      tag_138\n      tag_61\n      jump\t// in\n    tag_138:\n        /* \"#utility.yul\":6315:6380   */\n      tag_139\n        /* \"#utility.yul\":6373:6379   */\n      dup2\n        /* \"#utility.yul\":6365:6371   */\n      dup5\n        /* \"#utility.yul\":6359:6363   */\n      dup5\n        /* \"#utility.yul\":6315:6380   */\n      tag_60\n      jump\t// in\n    tag_139:\n        /* \"#utility.yul\":6250:6386   */\n      pop\n        /* \"#utility.yul\":6197:6386   */\n      pop\n      pop\n      jump\t// out\n        /* \"#utility.yul\":6392:6578   */\n    tag_63:\n        /* \"#utility.yul\":6452:6572   */\n    tag_141:\n        /* \"#utility.yul\":6469:6472   */\n      dup2\n        /* \"#utility.yul\":6462:6467   */\n      dup2\n        /* \"#utility.yul\":6459:6473   */\n      lt\n        /* \"#utility.yul\":6452:6572   */\n      iszero\n      tag_143\n      jumpi\n        /* \"#utility.yul\":6523:6562   */\n      tag_144\n        /* \"#utility.yul\":6560:6561   */\n      0x00\n        /* \"#utility.yul\":6553:6558   */\n      dup3\n        /* \"#utility.yul\":6523:6562   */\n      tag_62\n      jump\t// in\n    tag_144:\n        /* \"#utility.yul\":6496:6497   */\n      0x01\n        /* \"#utility.yul\":6489:6494   */\n      dup2\n        /* \"#utility.yul\":6485:6498   */\n      add\n        /* \"#utility.yul\":6476:6498   */\n      swap1\n      pop\n        /* \"#utility.yul\":6452:6572   */\n      jump(tag_141)\n    tag_143:\n        /* \"#utility.yul\":6392:6578   */\n      pop\n      pop\n      jump\t// out\n        /* \"#utility.yul\":6584:7127   */\n    tag_64:\n        /* \"#utility.yul\":6685:6687   */\n      0x1f\n        /* \"#utility.yul\":6680:6683   */\n      dup3\n        /* \"#utility.yul\":6677:6688   */\n      gt\n        /* \"#utility.yul\":6674:7120   */\n      iszero\n      tag_146\n      jumpi\n        /* \"#utility.yul\":6719:6757   */\n      tag_147\n        /* \"#utility.yul\":6751:6756   */\n      dup2\n        /* \"#utility.yul\":6719:6757   */\n      tag_53\n      jump\t// in\n    tag_147:\n        /* \"#utility.yul\":6803:6832   */\n      tag_148\n        /* \"#utility.yul\":6821:6831   */\n      dup5\n        /* \"#utility.yul\":6803:6832   */\n      tag_54\n      jump\t// in\n    tag_148:\n        /* \"#utility.yul\":6793:6801   */\n      dup2\n        /* \"#utility.yul\":6789:6833   */\n      add\n        /* \"#utility.yul\":6986:6988   */\n      0x20\n        /* \"#utility.yul\":6974:6984   */\n      dup6\n        /* \"#utility.yul\":6971:6989   */\n      lt\n        /* \"#utility.yul\":6968:7017   */\n      iszero\n      tag_149\n      jumpi\n        /* \"#utility.yul\":7007:7015   */\n      dup2\n        /* \"#utility.yul\":6992:7015   */\n      swap1\n      pop\n        /* \"#utility.yul\":6968:7017   */\n    tag_149:\n        /* \"#utility.yul\":7030:7110   */\n      tag_150\n        /* \"#utility.yul\":7086:7108   */\n      tag_151\n        /* \"#utility.yul\":7104:7107   */\n      dup6\n        /* \"#utility.yul\":7086:7108   */\n      tag_54\n      jump\t// in\n    tag_151:\n        /* \"#utility.yul\":7076:7084   */\n      dup4\n        /* \"#utility.yul\":7072:7109   */\n      add\n        /* \"#utility.yul\":7059:7070   */\n      dup3\n        /* \"#utility.yul\":7030:7110   */\n      tag_63\n      jump\t// in\n    tag_150:\n        /* \"#utility.yul\":6689:7120   */\n      pop\n      pop\n        /* \"#utility.yul\":6674:7120   */\n    tag_146:\n        /* \"#utility.yul\":6584:7127   */\n      pop\n      pop\n      pop\n      jump\t// out\n        /* \"#utility.yul\":7133:7250   */\n    tag_65:\n        /* \"#utility.yul\":7187:7195   */\n      0x00\n        /* \"#utility.yul\":7237:7242   */\n      dup3\n        /* \"#utility.yul\":7231:7235   */\n      dup3\n        /* \"#utility.yul\":7227:7243   */\n      shr\n        /* \"#utility.yul\":7206:7243   */\n      swap1\n      pop\n        /* \"#utility.yul\":7133:7250   */\n      swap3\n      swap2\n      pop\n      pop\n      jump\t// out\n        /* \"#utility.yul\":7256:7425   */\n    tag_66:\n        /* \"#utility.yul\":7300:7306   */\n      0x00\n        /* \"#utility.yul\":7333:7384   */\n      tag_154\n        /* \"#utility.yul\":7381:7382   */\n      0x00\n        /* \"#utility.yul\":7377:7383   */\n      not\n        /* \"#utility.yul\":7369:7374   */\n      dup5\n        /* \"#utility.yul\":7366:7367   */\n      0x08\n        /* \"#utility.yul\":7362:7375   */\n      mul\n        /* \"#utility.yul\":7333:7384   */\n      tag_65\n      jump\t// in\n    tag_154:\n        /* \"#utility.yul\":7329:7385   */\n      not\n        /* \"#utility.yul\":7414:7418   */\n      dup1\n        /* \"#utility.yul\":7408:7412   */\n      dup4\n        /* \"#utility.yul\":7404:7419   */\n      and\n        /* \"#utility.yul\":7394:7419   */\n      swap2\n      pop\n        /* \"#utility.yul\":7307:7425   */\n      pop\n        /* \"#utility.yul\":7256:7425   */\n      swap3\n      swap2\n      pop\n      pop\n      jump\t// out\n        /* \"#utility.yul\":7430:7725   */\n    tag_67:\n        /* \"#utility.yul\":7506:7510   */\n      0x00\n        /* \"#utility.yul\":7652:7681   */\n      tag_156\n        /* \"#utility.yul\":7677:7680   */\n      dup4\n        /* \"#utility.yul\":7671:7675   */\n      dup4\n        /* \"#utility.yul\":7652:7681   */\n      tag_66\n      jump\t// in\n    tag_156:\n        /* \"#utility.yul\":7644:7681   */\n      swap2\n      pop\n        /* \"#utility.yul\":7714:7717   */\n      dup3\n        /* \"#utility.yul\":7711:7712   */\n      0x02\n        /* \"#utility.yul\":7707:7718   */\n      mul\n        /* \"#utility.yul\":7701:7705   */\n      dup3\n        /* \"#utility.yul\":7698:7719   */\n      or\n        /* \"#utility.yul\":7690:7719   */\n      swap1\n      pop\n        /* \"#utility.yul\":7430:7725   */\n      swap3\n      swap2\n      pop\n      pop\n      jump\t// out\n        /* \"#utility.yul\":7730:9133   */\n    tag_28:\n        /* \"#utility.yul\":7854:7898   */\n      tag_158\n        /* \"#utility.yul\":7894:7897   */\n      dup4\n        /* \"#utility.yul\":7889:7892   */\n      dup4\n        /* \"#utility.yul\":7854:7898   */\n      tag_51\n      jump\t// in\n    tag_158:\n        /* \"#utility.yul\":7963:7981   */\n      0xffffffffffffffff\n        /* \"#utility.yul\":7955:7961   */\n      dup2\n        /* \"#utility.yul\":7952:7982   */\n      gt\n        /* \"#utility.yul\":7949:8005   */\n      iszero\n      tag_159\n      jumpi\n        /* \"#utility.yul\":7985:8003   */\n      tag_160\n      tag_52\n      jump\t// in\n    tag_160:\n        /* \"#utility.yul\":7949:8005   */\n    tag_159:\n        /* \"#utility.yul\":8029:8067   */\n      tag_161\n        /* \"#utility.yul\":8061:8065   */\n      dup3\n        /* \"#utility.yul\":8055:8066   */\n      sload\n        /* \"#utility.yul\":8029:8067   */\n      tag_21\n      jump\t// in\n    tag_161:\n        /* \"#utility.yul\":8114:8181   */\n      tag_162\n        /* \"#utility.yul\":8174:8180   */\n      dup3\n        /* \"#utility.yul\":8166:8172   */\n      dup3\n        /* \"#utility.yul\":8160:8164   */\n      dup6\n        /* \"#utility.yul\":8114:8181   */\n      tag_64\n      jump\t// in\n    tag_162:\n        /* \"#utility.yul\":8208:8209   */\n      0x00\n        /* \"#utility.yul\":8237:8239   */\n      0x1f\n        /* \"#utility.yul\":8229:8235   */\n      dup4\n        /* \"#utility.yul\":8226:8240   */\n      gt\n        /* \"#utility.yul\":8254:8255   */\n      0x01\n        /* \"#utility.yul\":8249:8881   */\n      dup2\n      eq\n      tag_164\n      jumpi\n        /* \"#utility.yul\":8925:8926   */\n      0x00\n        /* \"#utility.yul\":8942:8948   */\n      dup5\n        /* \"#utility.yul\":8939:9023   */\n      iszero\n      tag_165\n      jumpi\n        /* \"#utility.yul\":8998:9007   */\n      dup3\n        /* \"#utility.yul\":8993:8996   */\n      dup8\n        /* \"#utility.yul\":8989:9008   */\n      add\n        /* \"#utility.yul\":8976:9009   */\n      calldataload\n        /* \"#utility.yul\":8967:9009   */\n      swap1\n      pop\n        /* \"#utility.yul\":8939:9023   */\n    tag_165:\n        /* \"#utility.yul\":9049:9116   */\n      tag_166\n        /* \"#utility.yul\":9109:9115   */\n      dup6\n        /* \"#utility.yul\":9102:9107   */\n      dup3\n        /* \"#utility.yul\":9049:9116   */\n      tag_67\n      jump\t// in\n    tag_166:\n        /* \"#utility.yul\":9043:9047   */\n      dup7\n        /* \"#utility.yul\":9036:9117   */\n      sstore\n        /* \"#utility.yul\":8898:9127   */\n      pop\n        /* \"#utility.yul\":8219:9127   */\n      jump(tag_163)\n        /* \"#utility.yul\":8249:8881   */\n    tag_164:\n        /* \"#utility.yul\":8301:8305   */\n      0x1f\n        /* \"#utility.yul\":8297:8306   */\n      not\n        /* \"#utility.yul\":8289:8295   */\n      dup5\n        /* \"#utility.yul\":8285:8307   */\n      and\n        /* \"#utility.yul\":8335:8372   */\n      tag_167\n        /* \"#utility.yul\":8367:8371   */\n      dup7\n        /* \"#utility.yul\":8335:8372   */\n      tag_53\n      jump\t// in\n    tag_167:\n        /* \"#utility.yul\":8394:8395   */\n      0x00\n        /* \"#utility.yul\":8408:8623   */\n    tag_168:\n        /* \"#utility.yul\":8422:8429   */\n      dup3\n        /* \"#utility.yul\":8419:8420   */\n      dup2\n        /* \"#utility.yul\":8416:8430   */\n      lt\n        /* \"#utility.yul\":8408:8623   */\n      iszero\n      tag_170\n      jumpi\n        /* \"#utility.yul\":8508:8517   */\n      dup5\n        /* \"#utility.yul\":8503:8506   */\n      dup10\n        /* \"#utility.yul\":8499:8518   */\n      add\n        /* \"#utility.yul\":8486:8519   */\n      calldataload\n        /* \"#utility.yul\":8478:8484   */\n      dup3\n        /* \"#utility.yul\":8471:8520   */\n      sstore\n        /* \"#utility.yul\":8559:8560   */\n      0x01\n        /* \"#utility.yul\":8551:8557   */\n      dup3\n        /* \"#utility.yul\":8547:8561   */\n      add\n        /* \"#utility.yul\":8537:8561   */\n      swap2\n      pop\n        /* \"#utility.yul\":8606:8608   */\n      0x20\n        /* \"#utility.yul\":8595:8604   */\n      dup6\n        /* \"#utility.yul\":8591:8609   */\n      add\n        /* \"#utility.yul\":8578:8609   */\n      swap5\n      pop\n        /* \"#utility.yul\":8445:8449   */\n      0x20\n        /* \"#utility.yul\":8442:8443   */\n      dup2\n        /* \"#utility.yul\":8438:8450   */\n      add\n        /* \"#utility.yul\":8433:8450   */\n      swap1\n      pop\n        /* \"#utility.yul\":8408:8623   */\n      jump(tag_168)\n    tag_170:\n        /* \"#utility.yul\":8651:8657   */\n      dup7\n        /* \"#utility.yul\":8642:8649   */\n      dup4\n        /* \"#utility.yul\":8639:8658   */\n      lt\n        /* \"#utility.yul\":8636:8822   */\n      iszero\n      tag_171\n      jumpi\n        /* \"#utility.yul\":8716:8725   */\n      dup5\n        /* \"#utility.yul\":8711:8714   */\n      dup10\n        /* \"#utility.yul\":8707:8726   */\n      add\n        /* \"#utility.yul\":8694:8727   */\n      calldataload\n        /* \"#utility.yul\":8759:8807   */\n      tag_172\n        /* \"#utility.yul\":8801:8805   */\n      0x1f\n        /* \"#utility.yul\":8793:8799   */\n      dup10\n        /* \"#utility.yul\":8789:8806   */\n      and\n        /* \"#utility.yul\":8778:8787   */\n      dup3\n        /* \"#utility.yul\":8759:8807   */\n      tag_66\n      jump\t// in\n    tag_172:\n        /* \"#utility.yul\":8751:8757   */\n      dup4\n        /* \"#utility.yul\":8744:8808   */\n      sstore\n        /* \"#utility.yul\":8659:8822   */\n      pop\n        /* \"#utility.yul\":8636:8822   */\n    tag_171:\n        /* \"#utility.yul\":8868:8869   */\n      0x01\n        /* \"#utility.yul\":8864:8865   */\n      0x02\n        /* \"#utility.yul\":8856:8862   */\n      dup9\n        /* \"#utility.yul\":8852:8866   */\n      mul\n        /* \"#utility.yul\":8848:8870   */\n      add\n        /* \"#utility.yul\":8842:8846   */\n      dup9\n        /* \"#utility.yul\":8835:8871   */\n      sstore\n        /* \"#utility.yul\":8256:8881   */\n      pop\n      pop\n      pop\n        /* \"#utility.yul\":8219:9127   */\n    tag_163:\n      pop\n        /* \"#utility.yul\":7829:9133   */\n      pop\n      pop\n      pop\n        /* \"#utility.yul\":7730:9133   */\n      pop\n      pop\n      pop\n      jump\t// out\n\n    auxdata: 0xa2646970667358221220a5ca36f1251db8cb3b0ae63ac1a18613004386af476914371e778be48ddc9f1464736f6c63430008120033\n}\n",
				"bytecode": {
					"linkReferences": {},
					"object": "608060405234801561001057600080fd5b5061075d806100206000396000f3fe608060405234801561001057600080fd5b50600436106100415760003560e01c806335f3423214610046578063d602651014610076578063fddec16a14610092575b600080fd5b610060600480360381019061005b919061026d565b6100c2565b60405161006d919061032a565b60405180910390f35b610090600480360381019061008b91906103b1565b610162565b005b6100ac60048036038101906100a7919061026d565b610189565b6040516100b9919061032a565b60405180910390f35b600060205280600052604060002060009150905080546100e190610440565b80601f016020809104026020016040519081016040528092919081815260200182805461010d90610440565b801561015a5780601f1061012f5761010080835404028352916020019161015a565b820191906000526020600020905b81548152906001019060200180831161013d57829003601f168201915b505050505081565b81816000808681526020019081526020016000209182610183929190610657565b50505050565b606060008083815260200190815260200160002080546101a890610440565b80601f01602080910402602001604051908101604052809291908181526020018280546101d490610440565b80156102215780601f106101f657610100808354040283529160200191610221565b820191906000526020600020905b81548152906001019060200180831161020457829003601f168201915b50505050509050919050565b600080fd5b600080fd5b6000819050919050565b61024a81610237565b811461025557600080fd5b50565b60008135905061026781610241565b92915050565b6000602082840312156102835761028261022d565b5b600061029184828501610258565b91505092915050565b600081519050919050565b600082825260208201905092915050565b60005b838110156102d45780820151818401526020810190506102b9565b60008484015250505050565b6000601f19601f8301169050919050565b60006102fc8261029a565b61030681856102a5565b93506103168185602086016102b6565b61031f816102e0565b840191505092915050565b6000602082019050818103600083015261034481846102f1565b905092915050565b600080fd5b600080fd5b600080fd5b60008083601f8401126103715761037061034c565b5b8235905067ffffffffffffffff81111561038e5761038d610351565b5b6020830191508360018202830111156103aa576103a9610356565b5b9250929050565b6000806000604084860312156103ca576103c961022d565b5b60006103d886828701610258565b935050602084013567ffffffffffffffff8111156103f9576103f8610232565b5b6104058682870161035b565b92509250509250925092565b7f4e487b7100000000000000000000000000000000000000000000000000000000600052602260045260246000fd5b6000600282049050600182168061045857607f821691505b60208210810361046b5761046a610411565b5b50919050565b600082905092915050565b7f4e487b7100000000000000000000000000000000000000000000000000000000600052604160045260246000fd5b60008190508160005260206000209050919050565b60006020601f8301049050919050565b600082821b905092915050565b60006008830261050d7fffffffffffffffffffffffffffffffffffffffffffffffffffffffffffffffff826104d0565b61051786836104d0565b95508019841693508086168417925050509392505050565b6000819050919050565b600061055461054f61054a84610237565b61052f565b610237565b9050919050565b6000819050919050565b61056e83610539565b61058261057a8261055b565b8484546104dd565b825550505050565b600090565b61059761058a565b6105a2818484610565565b505050565b5b818110156105c6576105bb60008261058f565b6001810190506105a8565b5050565b601f82111561060b576105dc816104ab565b6105e5846104c0565b810160208510156105f4578190505b610608610600856104c0565b8301826105a7565b50505b505050565b600082821c905092915050565b600061062e60001984600802610610565b1980831691505092915050565b6000610647838361061d565b9150826002028217905092915050565b6106618383610471565b67ffffffffffffffff81111561067a5761067961047c565b5b6106848254610440565b61068f8282856105ca565b6000601f8311600181146106be57600084156106ac578287013590505b6106b6858261063b565b86555061071e565b601f1984166106cc866104ab565b60005b828110156106f4578489013582556001820191506020850194506020810190506106cf565b86831015610711578489013561070d601f89168261061d565b8355505b6001600288020188555050505b5050505050505056fea2646970667358221220a5ca36f1251db8cb3b0ae63ac1a18613004386af476914371e778be48ddc9f1464736f6c63430008120033",
					"opcodes": "PUSH1 0x80 PUSH1 0x40 MSTORE CALLVALUE DUP1 ISZERO PUSH2 0x10 JUMPI PUSH1 0x0 DUP1 REVERT JUMPDEST POP PUSH2 0x75D DUP1 PUSH2 0x20 PUSH1 0x0 CODECOPY PUSH1 0x0 RETURN INVALID PUSH1 0x80 PUSH1 0x40 MSTORE CALLVALUE DUP1 ISZERO PUSH2 0x10 JUMPI PUSH1 0x0 DUP1 REVERT JUMPDEST POP PUSH1 0x4 CALLDATASIZE LT PUSH2 0x41 JUMPI PUSH1 0x0 CALLDATALOAD PUSH1 0xE0 SHR DUP1 PUSH4 0x35F34232 EQ PUSH2 0x46 JUMPI DUP1 PUSH4 0xD6026510 EQ PUSH2 0x76 JUMPI DUP1 PUSH4 0xFDDEC16A EQ PUSH2 0x92 JUMPI JUMPDEST PUSH1 0x0 DUP1 REVERT JUMPDEST PUSH2 0x60 PUSH1 0x4 DUP1 CALLDATASIZE SUB DUP2 ADD SWAP1 PUSH2 0x5B SWAP2 SWAP1 PUSH2 0x26D JUMP JUMPDEST PUSH2 0xC2 JUMP JUMPDEST PUSH1 0x40 MLOAD PUSH2 0x6D SWAP2 SWAP1 PUSH2 0x32A JUMP JUMPDEST PUSH1 0x40 MLOAD DUP1 SWAP2 SUB SWAP1 RETURN JUMPDEST PUSH2 0x90 PUSH1 0x4 DUP1 CALLDATASIZE SUB DUP2 ADD SWAP1 PUSH2 0x8B SWAP2 SWAP1 PUSH2 0x3B1 JUMP JUMPDEST PUSH2 0x162 JUMP JUMPDEST STOP JUMPDEST PUSH2 0xAC PUSH1 0x4 DUP1 CALLDATASIZE SUB DUP2 ADD SWAP1 PUSH2 0xA7 SWAP2 SWAP1 PUSH2 0x26D JUMP JUMPDEST PUSH2 0x189 JUMP JUMPDEST PUSH1 0x40 MLOAD PUSH2 0xB9 SWAP2 SWAP1 PUSH2 0x32A JUMP JUMPDEST PUSH1 0x40 MLOAD DUP1 SWAP2 SUB SWAP1 RETURN JUMPDEST PUSH1 0x0 PUSH1 0x20 MSTORE DUP1 PUSH1 0x0 MSTORE PUSH1 0x40 PUSH1 0x0 KECCAK256 PUSH1 0x0 SWAP2 POP SWAP1 POP DUP1 SLOAD PUSH2 0xE1 SWAP1 PUSH2 0x440 JUMP JUMPDEST DUP1 PUSH1 0x1F ADD PUSH1 0x20 DUP1 SWAP2 DIV MUL PUSH1 0x20 ADD PUSH1 0x40 MLOAD SWAP1 DUP2 ADD PUSH1 0x40 MSTORE DUP1 SWAP3 SWAP2 SWAP1 DUP2 DUP2 MSTORE PUSH1 0x20 ADD DUP3 DUP1 SLOAD PUSH2 0x10D SWAP1 PUSH2 0x440 JUMP JUMPDEST DUP1 ISZERO PUSH2 0x15A JUMPI DUP1 PUSH1 0x1F LT PUSH2 0x12F JUMPI PUSH2 0x100 DUP1 DUP4 SLOAD DIV MUL DUP4 MSTORE SWAP2 PUSH1 0x20 ADD SWAP2 PUSH2 0x15A JUMP JUMPDEST DUP3 ADD SWAP2 SWAP1 PUSH1 0x0 MSTORE PUSH1 0x20 PUSH1 0x0 KECCAK256 SWAP1 JUMPDEST DUP2 SLOAD DUP2 MSTORE SWAP1 PUSH1 0x1 ADD SWAP1 PUSH1 0x20 ADD DUP1 DUP4 GT PUSH2 0x13D JUMPI DUP3 SWAP1 SUB PUSH1 0x1F AND DUP3 ADD SWAP2 JUMPDEST POP POP POP POP POP DUP2 JUMP JUMPDEST DUP2 DUP2 PUSH1 0x0 DUP1 DUP7 DUP2 MSTORE PUSH1 0x20 ADD SWAP1 DUP2 MSTORE PUSH1 0x20 ADD PUSH1 0x0 KECCAK256 SWAP2 DUP3 PUSH2 0x183 SWAP3 SWAP2 SWAP1 PUSH2 0x657 JUMP JUMPDEST POP POP POP POP JUMP JUMPDEST PUSH1 0x60 PUSH1 0x0 DUP1 DUP4 DUP2 MSTORE PUSH1 0x20 ADD SWAP1 DUP2 MSTORE PUSH1 0x20 ADD PUSH1 0x0 KECCAK256 DUP1 SLOAD PUSH2 0x1A8 SWAP1 PUSH2 0x440 JUMP JUMPDEST DUP1 PUSH1 0x1F ADD PUSH1 0x20 DUP1 SWAP2 DIV MUL PUSH1 0x20 ADD PUSH1 0x40 MLOAD SWAP1 DUP2 ADD PUSH1 0x40 MSTORE DUP1 SWAP3 SWAP2 SWAP1 DUP2 DUP2 MSTORE PUSH1 0x20 ADD DUP3 DUP1 SLOAD PUSH2 0x1D4 SWAP1 PUSH2 0x440 JUMP JUMPDEST DUP1 ISZERO PUSH2 0x221 JUMPI DUP1 PUSH1 0x1F LT PUSH2 0x1F6 JUMPI PUSH2 0x100 DUP1 DUP4 SLOAD DIV MUL DUP4 MSTORE SWAP2 PUSH1 0x20 ADD SWAP2 PUSH2 0x221 JUMP JUMPDEST DUP3 ADD SWAP2 SWAP1 PUSH1 0x0 MSTORE PUSH1 0x20 PUSH1 0x0 KECCAK256 SWAP1 JUMPDEST DUP2 SLOAD DUP2 MSTORE SWAP1 PUSH1 0x1 ADD SWAP1 PUSH1 0x20 ADD DUP1 DUP4 GT PUSH2 0x204 JUMPI DUP3 SWAP1 SUB PUSH1 0x1F AND DUP3 ADD SWAP2 JUMPDEST POP POP POP POP POP SWAP1 POP SWAP2 SWAP1 POP JUMP JUMPDEST PUSH1 0x0 DUP1 REVERT JUMPDEST PUSH1 0x0 DUP1 REVERT JUMPDEST PUSH1 0x0 DUP2 SWAP1 POP SWAP2 SWAP1 POP JUMP JUMPDEST PUSH2 0x24A DUP2 PUSH2 0x237 JUMP JUMPDEST DUP2 EQ PUSH2 0x255 JUMPI PUSH1 0x0 DUP1 REVERT JUMPDEST POP JUMP JUMPDEST PUSH1 0x0 DUP2 CALLDATALOAD SWAP1 POP PUSH2 0x267 DUP2 PUSH2 0x241 JUMP JUMPDEST SWAP3 SWAP2 POP POP JUMP JUMPDEST PUSH1 0x0 PUSH1 0x20 DUP3 DUP5 SUB SLT ISZERO PUSH2 0x283 JUMPI PUSH2 0x282 PUSH2 0x22D JUMP JUMPDEST JUMPDEST PUSH1 0x0 PUSH2 0x291 DUP5 DUP3 DUP6 ADD PUSH2 0x258 JUMP JUMPDEST SWAP2 POP POP SWAP3 SWAP2 POP POP JUMP JUMPDEST PUSH1 0x0 DUP2 MLOAD SWAP1 POP SWAP2 SWAP1 POP JUMP JUMPDEST PUSH1 0x0 DUP3 DUP3 MSTORE PUSH1 0x20 DUP3 ADD SWAP1 POP SWAP3 SWAP2 POP POP JUMP JUMPDEST PUSH1 0x0 JUMPDEST DUP4 DUP2 LT ISZERO PUSH2 0x2D4 JUMPI DUP1 DUP3 ADD MLOAD DUP2 DUP5 ADD MSTORE PUSH1 0x20 DUP2 ADD SWAP1 POP PUSH2 0x2B9 JUMP JUMPDEST PUSH1 0x0 DUP5 DUP5 ADD MSTORE POP POP POP POP JUMP JUMPDEST PUSH1 0x0 PUSH1 0x1F NOT PUSH1 0x1F DUP4 ADD AND SWAP1 POP SWAP2 SWAP1 POP JUMP JUMPDEST PUSH1 0x0 PUSH2 0x2FC DUP3 PUSH2 0x29A JUMP JUMPDEST PUSH2 0x306 DUP2 DUP6 PUSH2 0x2A5 JUMP JUMPDEST SWAP4 POP PUSH2 0x316 DUP2 DUP6 PUSH1 0x20 DUP7 ADD PUSH2 0x2B6 JUMP JUMPDEST PUSH2 0x31F DUP2 PUSH2 0x2E0 JUMP JUMPDEST DUP5 ADD SWAP2 POP POP SWAP3 SWAP2 POP POP JUMP JUMPDEST PUSH1 0x0 PUSH1 0x20 DUP3 ADD SWAP1 POP DUP2 DUP2 SUB PUSH1 0x0 DUP4 ADD MSTORE PUSH2 0x344 DUP2 DUP5 PUSH2 0x2F1 JUMP JUMPDEST SWAP1 POP SWAP3 SWAP2 POP POP JUMP JUMPDEST PUSH1 0x0 DUP1 REVERT JUMPDEST PUSH1 0x0 DUP1 REVERT JUMPDEST PUSH1 0x0 DUP1 REVERT JUMPDEST PUSH1 0x0 DUP1 DUP4 PUSH1 0x1F DUP5 ADD SLT PUSH2 0x371 JUMPI PUSH2 0x370 PUSH2 0x34C JUMP JUMPDEST JUMPDEST DUP3 CALLDATALOAD SWAP1 POP PUSH8 0xFFFFFFFFFFFFFFFF DUP2 GT ISZERO PUSH2 0x38E JUMPI PUSH2 0x38D PUSH2 0x351 JUMP JUMPDEST JUMPDEST PUSH1 0x20 DUP4 ADD SWAP2 POP DUP4 PUSH1 0x1 DUP3 MUL DUP4 ADD GT ISZERO PUSH2 0x3AA JUMPI PUSH2 0x3A9 PUSH2 0x356 JUMP JUMPDEST JUMPDEST SWAP3 POP SWAP3 SWAP1 POP JUMP JUMPDEST PUSH1 0x0 DUP1 PUSH1 0x0 PUSH1 0x40 DUP5 DUP7 SUB SLT ISZERO PUSH2 0x3CA JUMPI PUSH2 0x3C9 PUSH2 0x22D JUMP JUMPDEST JUMPDEST PUSH1 0x0 PUSH2 0x3D8 DUP7 DUP3 DUP8 ADD PUSH2 0x258 JUMP JUMPDEST SWAP4 POP POP PUSH1 0x20 DUP5 ADD CALLDATALOAD PUSH8 0xFFFFFFFFFFFFFFFF DUP2 GT ISZERO PUSH2 0x3F9 JUMPI PUSH2 0x3F8 PUSH2 0x232 JUMP JUMPDEST JUMPDEST PUSH2 0x405 DUP7 DUP3 DUP8 ADD PUSH2 0x35B JUMP JUMPDEST SWAP3 POP SWAP3 POP POP SWAP3 POP SWAP3 POP SWAP3 JUMP JUMPDEST PUSH32 0x4E487B7100000000000000000000000000000000000000000000000000000000 PUSH1 0x0 MSTORE PUSH1 0x22 PUSH1 0x4 MSTORE PUSH1 0x24 PUSH1 0x0 REVERT JUMPDEST PUSH1 0x0 PUSH1 0x2 DUP3 DIV SWAP1 POP PUSH1 0x1 DUP3 AND DUP1 PUSH2 0x458 JUMPI PUSH1 0x7F DUP3 AND SWAP2 POP JUMPDEST PUSH1 0x20 DUP3 LT DUP2 SUB PUSH2 0x46B JUMPI PUSH2 0x46A PUSH2 0x411 JUMP JUMPDEST JUMPDEST POP SWAP2 SWAP1 POP JUMP JUMPDEST PUSH1 0x0 DUP3 SWAP1 POP SWAP3 SWAP2 POP POP JUMP JUMPDEST PUSH32 0x4E487B7100000000000000000000000000000000000000000000000000000000 PUSH1 0x0 MSTORE PUSH1 0x41 PUSH1 0x4 MSTORE PUSH1 0x24 PUSH1 0x0 REVERT JUMPDEST PUSH1 0x0 DUP2 SWAP1 POP DUP2 PUSH1 0x0 MSTORE PUSH1 0x20 PUSH1 0x0 KECCAK256 SWAP1 POP SWAP2 SWAP1 POP JUMP JUMPDEST PUSH1 0x0 PUSH1 0x20 PUSH1 0x1F DUP4 ADD DIV SWAP1 POP SWAP2 SWAP1 POP JUMP JUMPDEST PUSH1 0x0 DUP3 DUP3 SHL SWAP1 POP SWAP3 SWAP2 POP POP JUMP JUMPDEST PUSH1 0x0 PUSH1 0x8 DUP4 MUL PUSH2 0x50D PUSH32 0xFFFFFFFFFFFFFFFFFFFFFFFFFFFFFFFFFFFFFFFFFFFFFFFFFFFFFFFFFFFFFFFF DUP3 PUSH2 0x4D0 JUMP JUMPDEST PUSH2 0x517 DUP7 DUP4 PUSH2 0x4D0 JUMP JUMPDEST SWAP6 POP DUP1 NOT DUP5 AND SWAP4 POP DUP1 DUP7 AND DUP5 OR SWAP3 POP POP POP SWAP4 SWAP3 POP POP POP JUMP JUMPDEST PUSH1 0x0 DUP2 SWAP1 POP SWAP2 SWAP1 POP JUMP JUMPDEST PUSH1 0x0 PUSH2 0x554 PUSH2 0x54F PUSH2 0x54A DUP5 PUSH2 0x237 JUMP JUMPDEST PUSH2 0x52F JUMP JUMPDEST PUSH2 0x237 JUMP JUMPDEST SWAP1 POP SWAP2 SWAP1 POP JUMP JUMPDEST PUSH1 0x0 DUP2 SWAP1 POP SWAP2 SWAP1 POP JUMP JUMPDEST PUSH2 0x56E DUP4 PUSH2 0x539 JUMP JUMPDEST PUSH2 0x582 PUSH2 0x57A DUP3 PUSH2 0x55B JUMP JUMPDEST DUP5 DUP5 SLOAD PUSH2 0x4DD JUMP JUMPDEST DUP3 SSTORE POP POP POP POP JUMP JUMPDEST PUSH1 0x0 SWAP1 JUMP JUMPDEST PUSH2 0x597 PUSH2 0x58A JUMP JUMPDEST PUSH2 0x5A2 DUP2 DUP5 DUP5 PUSH2 0x565 JUMP JUMPDEST POP POP POP JUMP JUMPDEST JUMPDEST DUP2 DUP2 LT ISZERO PUSH2 0x5C6 JUMPI PUSH2 0x5BB PUSH1 0x0 DUP3 PUSH2 0x58F JUMP JUMPDEST PUSH1 0x1 DUP2 ADD SWAP1 POP PUSH2 0x5A8 JUMP JUMPDEST POP POP JUMP JUMPDEST PUSH1 0x1F DUP3 GT ISZERO PUSH2 0x60B JUMPI PUSH2 0x5DC DUP2 PUSH2 0x4AB JUMP JUMPDEST PUSH2 0x5E5 DUP5 PUSH2 0x4C0 JUMP JUMPDEST DUP2 ADD PUSH1 0x20 DUP6 LT ISZERO PUSH2 0x5F4 JUMPI DUP2 SWAP1 POP JUMPDEST PUSH2 0x608 PUSH2 0x600 DUP6 PUSH2 0x4C0 JUMP JUMPDEST DUP4 ADD DUP3 PUSH2 0x5A7 JUMP JUMPDEST POP POP JUMPDEST POP POP POP JUMP JUMPDEST PUSH1 0x0 DUP3 DUP3 SHR SWAP1 POP SWAP3 SWAP2 POP POP JUMP JUMPDEST PUSH1 0x0 PUSH2 0x62E PUSH1 0x0 NOT DUP5 PUSH1 0x8 MUL PUSH2 0x610 JUMP JUMPDEST NOT DUP1 DUP4 AND SWAP2 POP POP SWAP3 SWAP2 POP POP JUMP JUMPDEST PUSH1 0x0 PUSH2 0x647 DUP4 DUP4 PUSH2 0x61D JUMP JUMPDEST SWAP2 POP DUP3 PUSH1 0x2 MUL DUP3 OR SWAP1 POP SWAP3 SWAP2 POP POP JUMP JUMPDEST PUSH2 0x661 DUP4 DUP4 PUSH2 0x471 JUMP JUMPDEST PUSH8 0xFFFFFFFFFFFFFFFF DUP2 GT ISZERO PUSH2 0x67A JUMPI PUSH2 0x679 PUSH2 0x47C JUMP JUMPDEST JUMPDEST PUSH2 0x684 DUP3 SLOAD PUSH2 0x440 JUMP JUMPDEST PUSH2 0x68F DUP3 DUP3 DUP6 PUSH2 0x5CA JUMP JUMPDEST PUSH1 0x0 PUSH1 0x1F DUP4 GT PUSH1 0x1 DUP2 EQ PUSH2 0x6BE JUMPI PUSH1 0x0 DUP5 ISZERO PUSH2 0x6AC JUMPI DUP3 DUP8 ADD CALLDATALOAD SWAP1 POP JUMPDEST PUSH2 0x6B6 DUP6 DUP3 PUSH2 0x63B JUMP JUMPDEST DUP7 SSTORE POP PUSH2 0x71E JUMP JUMPDEST PUSH1 0x1F NOT DUP5 AND PUSH2 0x6CC DUP7 PUSH2 0x4AB JUMP JUMPDEST PUSH1 0x0 JUMPDEST DUP3 DUP2 LT ISZERO PUSH2 0x6F4 JUMPI DUP5 DUP10 ADD CALLDATALOAD DUP3 SSTORE PUSH1 0x1 DUP3 ADD SWAP2 POP PUSH1 0x20 DUP6 ADD SWAP5 POP PUSH1 0x20 DUP2 ADD SWAP1 POP PUSH2 0x6CF JUMP JUMPDEST DUP7 DUP4 LT ISZERO PUSH2 0x711 JUMPI DUP5 DUP10 ADD CALLDATALOAD PUSH2 0x70D PUSH1 0x1F DUP10 AND DUP3 PUSH2 0x61D JUMP JUMPDEST DUP4 SSTORE POP JUMPDEST PUSH1 0x1 PUSH1 0x2 DUP9 MUL ADD DUP9 SSTORE POP POP POP JUMPDEST POP POP POP POP POP POP POP JUMP INVALID LOG2 PUSH5 0x6970667358 0x22 SLT KECCAK256 0xA5 0xCA CALLDATASIZE CALL 0x25 SAR 0xB8 0xCB EXTCODESIZE EXP 0xE6 GASPRICE 0xC1 LOG1 DUP7 SGT STOP NUMBER DUP7 0xAF SELFBALANCE PUSH10 0x14371E778BE48DDC9F14 PUSH5 0x736F6C6343 STOP ADDMOD SLT STOP CALLER "
				},
				"gasEstimates": {
					"creation": {
						"codeDepositCost": "377000",
						"executionCost": "411",
						"totalCost": "377411"
					},
					"external": {
						"insert(uint256,string)": "infinite",
						"returnData(uint256)": "infinite",
						"student(uint256)": "infinite"
					}
				},
				"methodIdentifiers": {
					"insert(uint256,string)": "d6026510",
					"returnData(uint256)": "fddec16a",
					"student(uint256)": "35f34232"
				}
			},
			"storageLayout": {
				"storage": [
					{
						"astId": 5,
						"contract": "contracts/Solidity Advance part=2/5.Mapping.sol:demo",
						"label": "student",
						"offset": 0,
						"slot": "0",
						"type": "t_mapping(t_uint256,t_string_storage)"
					}
				],
				"types": {
					"t_mapping(t_uint256,t_string_storage)": {
						"encoding": "mapping",
						"key": "t_uint256",
						"label": "mapping(uint256 => string)",
						"numberOfBytes": "32",
						"value": "t_string_storage"
					},
					"t_string_storage": {
						"encoding": "bytes",
						"label": "string",
						"numberOfBytes": "32"
					},
					"t_uint256": {
						"encoding": "inplace",
						"label": "uint256",
						"numberOfBytes": "32"
					}
				}
			},
			"userdoc": {
				"kind": "user",
				"methods": {},
				"version": 1
			}
		}
	}
}