{
	"contracts/Solidity Advance part=2/4.Enum.sol": {
		"EnumDemo": {
			"abi": [
				{
					"inputs": [
						{
							"internalType": "enum EnumDemo.STATE",
							"name": "value",
							"type": "uint8"
						}
					],
					"name": "checking",
					"outputs": [
						{
							"internalType": "string",
							"name": "",
							"type": "string"
						}
					],
					"stateMutability": "pure",
					"type": "function"
				},
				{
					"inputs": [],
					"name": "insert",
					"outputs": [],
					"stateMutability": "nonpayable",
					"type": "function"
				},
				{
					"inputs": [],
					"name": "returnData",
					"outputs": [
						{
							"internalType": "enum EnumDemo.STATE",
							"name": "",
							"type": "uint8"
						}
					],
					"stateMutability": "view",
					"type": "function"
				},
				{
					"inputs": [],
					"name": "state",
					"outputs": [
						{
							"internalType": "enum EnumDemo.STATE",
							"name": "",
							"type": "uint8"
						}
					],
					"stateMutability": "view",
					"type": "function"
				}
			],
			"devdoc": {
				"kind": "dev",
				"methods": {},
				"version": 1
			},
			"evm": {
				"assembly": "    /* \"contracts/Solidity Advance part=2/4.Enum.sol\":70:684  contract EnumDemo{... */\n  mstore(0x40, 0x80)\n  callvalue\n  dup1\n  iszero\n  tag_1\n  jumpi\n  0x00\n  dup1\n  revert\ntag_1:\n  pop\n  dataSize(sub_0)\n  dup1\n  dataOffset(sub_0)\n  0x00\n  codecopy\n  0x00\n  return\nstop\n\nsub_0: assembly {\n        /* \"contracts/Solidity Advance part=2/4.Enum.sol\":70:684  contract EnumDemo{... */\n      mstore(0x40, 0x80)\n      callvalue\n      dup1\n      iszero\n      tag_1\n      jumpi\n      0x00\n      dup1\n      revert\n    tag_1:\n      pop\n      jumpi(tag_2, lt(calldatasize, 0x04))\n      shr(0xe0, calldataload(0x00))\n      dup1\n      0x25f7b1de\n      eq\n      tag_3\n      jumpi\n      dup1\n      0x45423498\n      eq\n      tag_4\n      jumpi\n      dup1\n      0xc19d93fb\n      eq\n      tag_5\n      jumpi\n      dup1\n      0xebddbaf6\n      eq\n      tag_6\n      jumpi\n    tag_2:\n      0x00\n      dup1\n      revert\n        /* \"contracts/Solidity Advance part=2/4.Enum.sol\":363:414  function insert()public{... */\n    tag_3:\n      tag_7\n      tag_8\n      jump\t// in\n    tag_7:\n      stop\n        /* \"contracts/Solidity Advance part=2/4.Enum.sol\":415:682  function checking(STATE value)public  pure returns(string memory){... */\n    tag_4:\n      tag_9\n      0x04\n      dup1\n      calldatasize\n      sub\n      dup2\n      add\n      swap1\n      tag_10\n      swap2\n      swap1\n      tag_11\n      jump\t// in\n    tag_10:\n      tag_12\n      jump\t// in\n    tag_9:\n      mload(0x40)\n      tag_13\n      swap2\n      swap1\n      tag_14\n      jump\t// in\n    tag_13:\n      mload(0x40)\n      dup1\n      swap2\n      sub\n      swap1\n      return\n        /* \"contracts/Solidity Advance part=2/4.Enum.sol\":115:134  STATE public  state */\n    tag_5:\n      tag_15\n      tag_16\n      jump\t// in\n    tag_15:\n      mload(0x40)\n      tag_17\n      swap2\n      swap1\n      tag_18\n      jump\t// in\n    tag_17:\n      mload(0x40)\n      dup1\n      swap2\n      sub\n      swap1\n      return\n        /* \"contracts/Solidity Advance part=2/4.Enum.sol\":137:361  function returnData()public view returns(STATE){... */\n    tag_6:\n      tag_19\n      tag_20\n      jump\t// in\n    tag_19:\n      mload(0x40)\n      tag_21\n      swap2\n      swap1\n      tag_18\n      jump\t// in\n    tag_21:\n      mload(0x40)\n      dup1\n      swap2\n      sub\n      swap1\n      return\n        /* \"contracts/Solidity Advance part=2/4.Enum.sol\":363:414  function insert()public{... */\n    tag_8:\n        /* \"contracts/Solidity Advance part=2/4.Enum.sol\":402:411  STATE.Off */\n      0x01\n        /* \"contracts/Solidity Advance part=2/4.Enum.sol\":396:401  state */\n      0x00\n      dup1\n        /* \"contracts/Solidity Advance part=2/4.Enum.sol\":396:411  state=STATE.Off */\n      0x0100\n      exp\n      dup2\n      sload\n      dup2\n      0xff\n      mul\n      not\n      and\n      swap1\n      dup4\n      0x02\n      dup2\n      gt\n      iszero\n      tag_23\n      jumpi\n      tag_24\n      tag_25\n      jump\t// in\n    tag_24:\n    tag_23:\n      mul\n      or\n      swap1\n      sstore\n      pop\n        /* \"contracts/Solidity Advance part=2/4.Enum.sol\":363:414  function insert()public{... */\n      jump\t// out\n        /* \"contracts/Solidity Advance part=2/4.Enum.sol\":415:682  function checking(STATE value)public  pure returns(string memory){... */\n    tag_12:\n        /* \"contracts/Solidity Advance part=2/4.Enum.sol\":466:479  string memory */\n      0x60\n        /* \"contracts/Solidity Advance part=2/4.Enum.sol\":501:509  STATE.On */\n      0x00\n        /* \"contracts/Solidity Advance part=2/4.Enum.sol\":494:509  value==STATE.On */\n      0x02\n      dup2\n      gt\n      iszero\n      tag_27\n      jumpi\n      tag_28\n      tag_25\n      jump\t// in\n    tag_28:\n    tag_27:\n        /* \"contracts/Solidity Advance part=2/4.Enum.sol\":494:499  value */\n      dup3\n        /* \"contracts/Solidity Advance part=2/4.Enum.sol\":494:509  value==STATE.On */\n      0x02\n      dup2\n      gt\n      iszero\n      tag_29\n      jumpi\n      tag_30\n      tag_25\n      jump\t// in\n    tag_30:\n    tag_29:\n      sub\n        /* \"contracts/Solidity Advance part=2/4.Enum.sol\":491:680  if(value==STATE.On){... */\n      tag_31\n      jumpi\n        /* \"contracts/Solidity Advance part=2/4.Enum.sol\":524:544  return \"State is on\" */\n      mload(0x40)\n      dup1\n      0x40\n      add\n      0x40\n      mstore\n      dup1\n      0x0b\n      dup2\n      mstore\n      0x20\n      add\n      0x5374617465206973206f6e000000000000000000000000000000000000000000\n      dup2\n      mstore\n      pop\n      swap1\n      pop\n      jump(tag_26)\n        /* \"contracts/Solidity Advance part=2/4.Enum.sol\":491:680  if(value==STATE.On){... */\n    tag_31:\n        /* \"contracts/Solidity Advance part=2/4.Enum.sol\":571:580  STATE.Off */\n      0x01\n        /* \"contracts/Solidity Advance part=2/4.Enum.sol\":564:580  value==STATE.Off */\n      0x02\n      dup2\n      gt\n      iszero\n      tag_33\n      jumpi\n      tag_34\n      tag_25\n      jump\t// in\n    tag_34:\n    tag_33:\n        /* \"contracts/Solidity Advance part=2/4.Enum.sol\":564:569  value */\n      dup3\n        /* \"contracts/Solidity Advance part=2/4.Enum.sol\":564:580  value==STATE.Off */\n      0x02\n      dup2\n      gt\n      iszero\n      tag_35\n      jumpi\n      tag_36\n      tag_25\n      jump\t// in\n    tag_36:\n    tag_35:\n      sub\n        /* \"contracts/Solidity Advance part=2/4.Enum.sol\":561:680  if(value==STATE.Off){... */\n      tag_37\n      jumpi\n        /* \"contracts/Solidity Advance part=2/4.Enum.sol\":595:616  return \"State is off\" */\n      mload(0x40)\n      dup1\n      0x40\n      add\n      0x40\n      mstore\n      dup1\n      0x0c\n      dup2\n      mstore\n      0x20\n      add\n      0x5374617465206973206f66660000000000000000000000000000000000000000\n      dup2\n      mstore\n      pop\n      swap1\n      pop\n      jump(tag_26)\n        /* \"contracts/Solidity Advance part=2/4.Enum.sol\":561:680  if(value==STATE.Off){... */\n    tag_37:\n        /* \"contracts/Solidity Advance part=2/4.Enum.sol\":646:668  return \"State is Halt\" */\n      mload(0x40)\n      dup1\n      0x40\n      add\n      0x40\n      mstore\n      dup1\n      0x0d\n      dup2\n      mstore\n      0x20\n      add\n      0x53746174652069732048616c7400000000000000000000000000000000000000\n      dup2\n      mstore\n      pop\n      swap1\n      pop\n        /* \"contracts/Solidity Advance part=2/4.Enum.sol\":415:682  function checking(STATE value)public  pure returns(string memory){... */\n    tag_26:\n      swap2\n      swap1\n      pop\n      jump\t// out\n        /* \"contracts/Solidity Advance part=2/4.Enum.sol\":115:134  STATE public  state */\n    tag_16:\n      0x00\n      dup1\n      sload\n      swap1\n      0x0100\n      exp\n      swap1\n      div\n      0xff\n      and\n      dup2\n      jump\t// out\n        /* \"contracts/Solidity Advance part=2/4.Enum.sol\":137:361  function returnData()public view returns(STATE){... */\n    tag_20:\n        /* \"contracts/Solidity Advance part=2/4.Enum.sol\":178:183  STATE */\n      0x00\n        /* \"contracts/Solidity Advance part=2/4.Enum.sol\":198:203  state */\n      dup1\n      0x00\n      swap1\n      sload\n      swap1\n      0x0100\n      exp\n      swap1\n      div\n      0xff\n      and\n        /* \"contracts/Solidity Advance part=2/4.Enum.sol\":190:203  return  state */\n      swap1\n      pop\n        /* \"contracts/Solidity Advance part=2/4.Enum.sol\":137:361  function returnData()public view returns(STATE){... */\n      swap1\n      jump\t// out\n        /* \"#utility.yul\":88:205   */\n    tag_41:\n        /* \"#utility.yul\":197:198   */\n      0x00\n        /* \"#utility.yul\":194:195   */\n      dup1\n        /* \"#utility.yul\":187:199   */\n      revert\n        /* \"#utility.yul\":334:440   */\n    tag_43:\n        /* \"#utility.yul\":414:415   */\n      0x03\n        /* \"#utility.yul\":407:412   */\n      dup2\n        /* \"#utility.yul\":404:416   */\n      lt\n        /* \"#utility.yul\":394:434   */\n      tag_59\n      jumpi\n        /* \"#utility.yul\":430:431   */\n      0x00\n        /* \"#utility.yul\":427:428   */\n      dup1\n        /* \"#utility.yul\":420:432   */\n      revert\n        /* \"#utility.yul\":394:434   */\n    tag_59:\n        /* \"#utility.yul\":334:440   */\n      pop\n      jump\t// out\n        /* \"#utility.yul\":446:599   */\n    tag_44:\n        /* \"#utility.yul\":499:504   */\n      0x00\n        /* \"#utility.yul\":537:543   */\n      dup2\n        /* \"#utility.yul\":524:544   */\n      calldataload\n        /* \"#utility.yul\":515:544   */\n      swap1\n      pop\n        /* \"#utility.yul\":553:593   */\n      tag_61\n        /* \"#utility.yul\":587:592   */\n      dup2\n        /* \"#utility.yul\":553:593   */\n      tag_43\n      jump\t// in\n    tag_61:\n        /* \"#utility.yul\":446:599   */\n      swap3\n      swap2\n      pop\n      pop\n      jump\t// out\n        /* \"#utility.yul\":605:948   */\n    tag_11:\n        /* \"#utility.yul\":671:677   */\n      0x00\n        /* \"#utility.yul\":720:722   */\n      0x20\n        /* \"#utility.yul\":708:717   */\n      dup3\n        /* \"#utility.yul\":699:706   */\n      dup5\n        /* \"#utility.yul\":695:718   */\n      sub\n        /* \"#utility.yul\":691:723   */\n      slt\n        /* \"#utility.yul\":688:807   */\n      iszero\n      tag_63\n      jumpi\n        /* \"#utility.yul\":726:805   */\n      tag_64\n      tag_41\n      jump\t// in\n    tag_64:\n        /* \"#utility.yul\":688:807   */\n    tag_63:\n        /* \"#utility.yul\":846:847   */\n      0x00\n        /* \"#utility.yul\":871:931   */\n      tag_65\n        /* \"#utility.yul\":923:930   */\n      dup5\n        /* \"#utility.yul\":914:920   */\n      dup3\n        /* \"#utility.yul\":903:912   */\n      dup6\n        /* \"#utility.yul\":899:921   */\n      add\n        /* \"#utility.yul\":871:931   */\n      tag_44\n      jump\t// in\n    tag_65:\n        /* \"#utility.yul\":861:931   */\n      swap2\n      pop\n        /* \"#utility.yul\":817:941   */\n      pop\n        /* \"#utility.yul\":605:948   */\n      swap3\n      swap2\n      pop\n      pop\n      jump\t// out\n        /* \"#utility.yul\":954:1053   */\n    tag_45:\n        /* \"#utility.yul\":1006:1012   */\n      0x00\n        /* \"#utility.yul\":1040:1045   */\n      dup2\n        /* \"#utility.yul\":1034:1046   */\n      mload\n        /* \"#utility.yul\":1024:1046   */\n      swap1\n      pop\n        /* \"#utility.yul\":954:1053   */\n      swap2\n      swap1\n      pop\n      jump\t// out\n        /* \"#utility.yul\":1059:1228   */\n    tag_46:\n        /* \"#utility.yul\":1143:1154   */\n      0x00\n        /* \"#utility.yul\":1177:1183   */\n      dup3\n        /* \"#utility.yul\":1172:1175   */\n      dup3\n        /* \"#utility.yul\":1165:1184   */\n      mstore\n        /* \"#utility.yul\":1217:1221   */\n      0x20\n        /* \"#utility.yul\":1212:1215   */\n      dup3\n        /* \"#utility.yul\":1208:1222   */\n      add\n        /* \"#utility.yul\":1193:1222   */\n      swap1\n      pop\n        /* \"#utility.yul\":1059:1228   */\n      swap3\n      swap2\n      pop\n      pop\n      jump\t// out\n        /* \"#utility.yul\":1234:1480   */\n    tag_47:\n        /* \"#utility.yul\":1315:1316   */\n      0x00\n        /* \"#utility.yul\":1325:1438   */\n    tag_69:\n        /* \"#utility.yul\":1339:1345   */\n      dup4\n        /* \"#utility.yul\":1336:1337   */\n      dup2\n        /* \"#utility.yul\":1333:1346   */\n      lt\n        /* \"#utility.yul\":1325:1438   */\n      iszero\n      tag_71\n      jumpi\n        /* \"#utility.yul\":1424:1425   */\n      dup1\n        /* \"#utility.yul\":1419:1422   */\n      dup3\n        /* \"#utility.yul\":1415:1426   */\n      add\n        /* \"#utility.yul\":1409:1427   */\n      mload\n        /* \"#utility.yul\":1405:1406   */\n      dup2\n        /* \"#utility.yul\":1400:1403   */\n      dup5\n        /* \"#utility.yul\":1396:1407   */\n      add\n        /* \"#utility.yul\":1389:1428   */\n      mstore\n        /* \"#utility.yul\":1361:1363   */\n      0x20\n        /* \"#utility.yul\":1358:1359   */\n      dup2\n        /* \"#utility.yul\":1354:1364   */\n      add\n        /* \"#utility.yul\":1349:1364   */\n      swap1\n      pop\n        /* \"#utility.yul\":1325:1438   */\n      jump(tag_69)\n    tag_71:\n        /* \"#utility.yul\":1472:1473   */\n      0x00\n        /* \"#utility.yul\":1463:1469   */\n      dup5\n        /* \"#utility.yul\":1458:1461   */\n      dup5\n        /* \"#utility.yul\":1454:1470   */\n      add\n        /* \"#utility.yul\":1447:1474   */\n      mstore\n        /* \"#utility.yul\":1296:1480   */\n      pop\n        /* \"#utility.yul\":1234:1480   */\n      pop\n      pop\n      pop\n      jump\t// out\n        /* \"#utility.yul\":1486:1588   */\n    tag_48:\n        /* \"#utility.yul\":1527:1533   */\n      0x00\n        /* \"#utility.yul\":1578:1580   */\n      0x1f\n        /* \"#utility.yul\":1574:1581   */\n      not\n        /* \"#utility.yul\":1569:1571   */\n      0x1f\n        /* \"#utility.yul\":1562:1567   */\n      dup4\n        /* \"#utility.yul\":1558:1572   */\n      add\n        /* \"#utility.yul\":1554:1582   */\n      and\n        /* \"#utility.yul\":1544:1582   */\n      swap1\n      pop\n        /* \"#utility.yul\":1486:1588   */\n      swap2\n      swap1\n      pop\n      jump\t// out\n        /* \"#utility.yul\":1594:1971   */\n    tag_49:\n        /* \"#utility.yul\":1682:1685   */\n      0x00\n        /* \"#utility.yul\":1710:1749   */\n      tag_74\n        /* \"#utility.yul\":1743:1748   */\n      dup3\n        /* \"#utility.yul\":1710:1749   */\n      tag_45\n      jump\t// in\n    tag_74:\n        /* \"#utility.yul\":1765:1836   */\n      tag_75\n        /* \"#utility.yul\":1829:1835   */\n      dup2\n        /* \"#utility.yul\":1824:1827   */\n      dup6\n        /* \"#utility.yul\":1765:1836   */\n      tag_46\n      jump\t// in\n    tag_75:\n        /* \"#utility.yul\":1758:1836   */\n      swap4\n      pop\n        /* \"#utility.yul\":1845:1910   */\n      tag_76\n        /* \"#utility.yul\":1903:1909   */\n      dup2\n        /* \"#utility.yul\":1898:1901   */\n      dup6\n        /* \"#utility.yul\":1891:1895   */\n      0x20\n        /* \"#utility.yul\":1884:1889   */\n      dup7\n        /* \"#utility.yul\":1880:1896   */\n      add\n        /* \"#utility.yul\":1845:1910   */\n      tag_47\n      jump\t// in\n    tag_76:\n        /* \"#utility.yul\":1935:1964   */\n      tag_77\n        /* \"#utility.yul\":1957:1963   */\n      dup2\n        /* \"#utility.yul\":1935:1964   */\n      tag_48\n      jump\t// in\n    tag_77:\n        /* \"#utility.yul\":1930:1933   */\n      dup5\n        /* \"#utility.yul\":1926:1965   */\n      add\n        /* \"#utility.yul\":1919:1965   */\n      swap2\n      pop\n        /* \"#utility.yul\":1686:1971   */\n      pop\n        /* \"#utility.yul\":1594:1971   */\n      swap3\n      swap2\n      pop\n      pop\n      jump\t// out\n        /* \"#utility.yul\":1977:2290   */\n    tag_14:\n        /* \"#utility.yul\":2090:2094   */\n      0x00\n        /* \"#utility.yul\":2128:2130   */\n      0x20\n        /* \"#utility.yul\":2117:2126   */\n      dup3\n        /* \"#utility.yul\":2113:2131   */\n      add\n        /* \"#utility.yul\":2105:2131   */\n      swap1\n      pop\n        /* \"#utility.yul\":2177:2186   */\n      dup2\n        /* \"#utility.yul\":2171:2175   */\n      dup2\n        /* \"#utility.yul\":2167:2187   */\n      sub\n        /* \"#utility.yul\":2163:2164   */\n      0x00\n        /* \"#utility.yul\":2152:2161   */\n      dup4\n        /* \"#utility.yul\":2148:2165   */\n      add\n        /* \"#utility.yul\":2141:2188   */\n      mstore\n        /* \"#utility.yul\":2205:2283   */\n      tag_79\n        /* \"#utility.yul\":2278:2282   */\n      dup2\n        /* \"#utility.yul\":2269:2275   */\n      dup5\n        /* \"#utility.yul\":2205:2283   */\n      tag_49\n      jump\t// in\n    tag_79:\n        /* \"#utility.yul\":2197:2283   */\n      swap1\n      pop\n        /* \"#utility.yul\":1977:2290   */\n      swap3\n      swap2\n      pop\n      pop\n      jump\t// out\n        /* \"#utility.yul\":2296:2476   */\n    tag_25:\n        /* \"#utility.yul\":2344:2421   */\n      0x4e487b7100000000000000000000000000000000000000000000000000000000\n        /* \"#utility.yul\":2341:2342   */\n      0x00\n        /* \"#utility.yul\":2334:2422   */\n      mstore\n        /* \"#utility.yul\":2441:2445   */\n      0x21\n        /* \"#utility.yul\":2438:2439   */\n      0x04\n        /* \"#utility.yul\":2431:2446   */\n      mstore\n        /* \"#utility.yul\":2465:2469   */\n      0x24\n        /* \"#utility.yul\":2462:2463   */\n      0x00\n        /* \"#utility.yul\":2455:2470   */\n      revert\n        /* \"#utility.yul\":2482:2594   */\n    tag_50:\n        /* \"#utility.yul\":2562:2563   */\n      0x03\n        /* \"#utility.yul\":2555:2560   */\n      dup2\n        /* \"#utility.yul\":2552:2564   */\n      lt\n        /* \"#utility.yul\":2542:2588   */\n      tag_82\n      jumpi\n        /* \"#utility.yul\":2568:2586   */\n      tag_83\n      tag_25\n      jump\t// in\n    tag_83:\n        /* \"#utility.yul\":2542:2588   */\n    tag_82:\n        /* \"#utility.yul\":2482:2594   */\n      pop\n      jump\t// out\n        /* \"#utility.yul\":2600:2725   */\n    tag_51:\n        /* \"#utility.yul\":2644:2651   */\n      0x00\n        /* \"#utility.yul\":2673:2678   */\n      dup2\n        /* \"#utility.yul\":2662:2678   */\n      swap1\n      pop\n        /* \"#utility.yul\":2679:2719   */\n      tag_85\n        /* \"#utility.yul\":2713:2718   */\n      dup3\n        /* \"#utility.yul\":2679:2719   */\n      tag_50\n      jump\t// in\n    tag_85:\n        /* \"#utility.yul\":2600:2725   */\n      swap2\n      swap1\n      pop\n      jump\t// out\n        /* \"#utility.yul\":2731:2856   */\n    tag_52:\n        /* \"#utility.yul\":2786:2795   */\n      0x00\n        /* \"#utility.yul\":2819:2850   */\n      tag_87\n        /* \"#utility.yul\":2844:2849   */\n      dup3\n        /* \"#utility.yul\":2819:2850   */\n      tag_51\n      jump\t// in\n    tag_87:\n        /* \"#utility.yul\":2806:2850   */\n      swap1\n      pop\n        /* \"#utility.yul\":2731:2856   */\n      swap2\n      swap1\n      pop\n      jump\t// out\n        /* \"#utility.yul\":2862:3003   */\n    tag_53:\n        /* \"#utility.yul\":2954:2996   */\n      tag_89\n        /* \"#utility.yul\":2990:2995   */\n      dup2\n        /* \"#utility.yul\":2954:2996   */\n      tag_52\n      jump\t// in\n    tag_89:\n        /* \"#utility.yul\":2949:2952   */\n      dup3\n        /* \"#utility.yul\":2942:2997   */\n      mstore\n        /* \"#utility.yul\":2862:3003   */\n      pop\n      pop\n      jump\t// out\n        /* \"#utility.yul\":3009:3241   */\n    tag_18:\n        /* \"#utility.yul\":3107:3111   */\n      0x00\n        /* \"#utility.yul\":3145:3147   */\n      0x20\n        /* \"#utility.yul\":3134:3143   */\n      dup3\n        /* \"#utility.yul\":3130:3148   */\n      add\n        /* \"#utility.yul\":3122:3148   */\n      swap1\n      pop\n        /* \"#utility.yul\":3158:3234   */\n      tag_91\n        /* \"#utility.yul\":3231:3232   */\n      0x00\n        /* \"#utility.yul\":3220:3229   */\n      dup4\n        /* \"#utility.yul\":3216:3233   */\n      add\n        /* \"#utility.yul\":3207:3213   */\n      dup5\n        /* \"#utility.yul\":3158:3234   */\n      tag_53\n      jump\t// in\n    tag_91:\n        /* \"#utility.yul\":3009:3241   */\n      swap3\n      swap2\n      pop\n      pop\n      jump\t// out\n\n    auxdata: 0xa2646970667358221220fae50502e09e03396a7bcc4b0088656460cfc586f11da51c9717aec8e4a0b73564736f6c63430008120033\n}\n",
				"bytecode": {
					"linkReferences": {},
					"object": "608060405234801561001057600080fd5b506103fd806100206000396000f3fe608060405234801561001057600080fd5b506004361061004c5760003560e01c806325f7b1de14610051578063454234981461005b578063c19d93fb1461008b578063ebddbaf6146100a9575b600080fd5b6100596100c7565b005b61007560048036038101906100709190610256565b6100f3565b6040516100829190610313565b60405180910390f35b610093610205565b6040516100a091906103ac565b60405180910390f35b6100b1610216565b6040516100be91906103ac565b60405180910390f35b60016000806101000a81548160ff021916908360028111156100ec576100eb610335565b5b0217905550565b60606000600281111561010957610108610335565b5b82600281111561011c5761011b610335565b5b0361015e576040518060400160405280600b81526020017f5374617465206973206f6e0000000000000000000000000000000000000000008152509050610200565b6001600281111561017257610171610335565b5b82600281111561018557610184610335565b5b036101c7576040518060400160405280600c81526020017f5374617465206973206f666600000000000000000000000000000000000000008152509050610200565b6040518060400160405280600d81526020017f53746174652069732048616c740000000000000000000000000000000000000081525090505b919050565b60008054906101000a900460ff1681565b60008060009054906101000a900460ff16905090565b600080fd5b6003811061023e57600080fd5b50565b60008135905061025081610231565b92915050565b60006020828403121561026c5761026b61022c565b5b600061027a84828501610241565b91505092915050565b600081519050919050565b600082825260208201905092915050565b60005b838110156102bd5780820151818401526020810190506102a2565b60008484015250505050565b6000601f19601f8301169050919050565b60006102e582610283565b6102ef818561028e565b93506102ff81856020860161029f565b610308816102c9565b840191505092915050565b6000602082019050818103600083015261032d81846102da565b905092915050565b7f4e487b7100000000000000000000000000000000000000000000000000000000600052602160045260246000fd5b6003811061037557610374610335565b5b50565b600081905061038682610364565b919050565b600061039682610378565b9050919050565b6103a68161038b565b82525050565b60006020820190506103c1600083018461039d565b9291505056fea2646970667358221220fae50502e09e03396a7bcc4b0088656460cfc586f11da51c9717aec8e4a0b73564736f6c63430008120033",
					"opcodes": "PUSH1 0x80 PUSH1 0x40 MSTORE CALLVALUE DUP1 ISZERO PUSH2 0x10 JUMPI PUSH1 0x0 DUP1 REVERT JUMPDEST POP PUSH2 0x3FD DUP1 PUSH2 0x20 PUSH1 0x0 CODECOPY PUSH1 0x0 RETURN INVALID PUSH1 0x80 PUSH1 0x40 MSTORE CALLVALUE DUP1 ISZERO PUSH2 0x10 JUMPI PUSH1 0x0 DUP1 REVERT JUMPDEST POP PUSH1 0x4 CALLDATASIZE LT PUSH2 0x4C JUMPI PUSH1 0x0 CALLDATALOAD PUSH1 0xE0 SHR DUP1 PUSH4 0x25F7B1DE EQ PUSH2 0x51 JUMPI DUP1 PUSH4 0x45423498 EQ PUSH2 0x5B JUMPI DUP1 PUSH4 0xC19D93FB EQ PUSH2 0x8B JUMPI DUP1 PUSH4 0xEBDDBAF6 EQ PUSH2 0xA9 JUMPI JUMPDEST PUSH1 0x0 DUP1 REVERT JUMPDEST PUSH2 0x59 PUSH2 0xC7 JUMP JUMPDEST STOP JUMPDEST PUSH2 0x75 PUSH1 0x4 DUP1 CALLDATASIZE SUB DUP2 ADD SWAP1 PUSH2 0x70 SWAP2 SWAP1 PUSH2 0x256 JUMP JUMPDEST PUSH2 0xF3 JUMP JUMPDEST PUSH1 0x40 MLOAD PUSH2 0x82 SWAP2 SWAP1 PUSH2 0x313 JUMP JUMPDEST PUSH1 0x40 MLOAD DUP1 SWAP2 SUB SWAP1 RETURN JUMPDEST PUSH2 0x93 PUSH2 0x205 JUMP JUMPDEST PUSH1 0x40 MLOAD PUSH2 0xA0 SWAP2 SWAP1 PUSH2 0x3AC JUMP JUMPDEST PUSH1 0x40 MLOAD DUP1 SWAP2 SUB SWAP1 RETURN JUMPDEST PUSH2 0xB1 PUSH2 0x216 JUMP JUMPDEST PUSH1 0x40 MLOAD PUSH2 0xBE SWAP2 SWAP1 PUSH2 0x3AC JUMP JUMPDEST PUSH1 0x40 MLOAD DUP1 SWAP2 SUB SWAP1 RETURN JUMPDEST PUSH1 0x1 PUSH1 0x0 DUP1 PUSH2 0x100 EXP DUP2 SLOAD DUP2 PUSH1 0xFF MUL NOT AND SWAP1 DUP4 PUSH1 0x2 DUP2 GT ISZERO PUSH2 0xEC JUMPI PUSH2 0xEB PUSH2 0x335 JUMP JUMPDEST JUMPDEST MUL OR SWAP1 SSTORE POP JUMP JUMPDEST PUSH1 0x60 PUSH1 0x0 PUSH1 0x2 DUP2 GT ISZERO PUSH2 0x109 JUMPI PUSH2 0x108 PUSH2 0x335 JUMP JUMPDEST JUMPDEST DUP3 PUSH1 0x2 DUP2 GT ISZERO PUSH2 0x11C JUMPI PUSH2 0x11B PUSH2 0x335 JUMP JUMPDEST JUMPDEST SUB PUSH2 0x15E JUMPI PUSH1 0x40 MLOAD DUP1 PUSH1 0x40 ADD PUSH1 0x40 MSTORE DUP1 PUSH1 0xB DUP2 MSTORE PUSH1 0x20 ADD PUSH32 0x5374617465206973206F6E000000000000000000000000000000000000000000 DUP2 MSTORE POP SWAP1 POP PUSH2 0x200 JUMP JUMPDEST PUSH1 0x1 PUSH1 0x2 DUP2 GT ISZERO PUSH2 0x172 JUMPI PUSH2 0x171 PUSH2 0x335 JUMP JUMPDEST JUMPDEST DUP3 PUSH1 0x2 DUP2 GT ISZERO PUSH2 0x185 JUMPI PUSH2 0x184 PUSH2 0x335 JUMP JUMPDEST JUMPDEST SUB PUSH2 0x1C7 JUMPI PUSH1 0x40 MLOAD DUP1 PUSH1 0x40 ADD PUSH1 0x40 MSTORE DUP1 PUSH1 0xC DUP2 MSTORE PUSH1 0x20 ADD PUSH32 0x5374617465206973206F66660000000000000000000000000000000000000000 DUP2 MSTORE POP SWAP1 POP PUSH2 0x200 JUMP JUMPDEST PUSH1 0x40 MLOAD DUP1 PUSH1 0x40 ADD PUSH1 0x40 MSTORE DUP1 PUSH1 0xD DUP2 MSTORE PUSH1 0x20 ADD PUSH32 0x53746174652069732048616C7400000000000000000000000000000000000000 DUP2 MSTORE POP SWAP1 POP JUMPDEST SWAP2 SWAP1 POP JUMP JUMPDEST PUSH1 0x0 DUP1 SLOAD SWAP1 PUSH2 0x100 EXP SWAP1 DIV PUSH1 0xFF AND DUP2 JUMP JUMPDEST PUSH1 0x0 DUP1 PUSH1 0x0 SWAP1 SLOAD SWAP1 PUSH2 0x100 EXP SWAP1 DIV PUSH1 0xFF AND SWAP1 POP SWAP1 JUMP JUMPDEST PUSH1 0x0 DUP1 REVERT JUMPDEST PUSH1 0x3 DUP2 LT PUSH2 0x23E JUMPI PUSH1 0x0 DUP1 REVERT JUMPDEST POP JUMP JUMPDEST PUSH1 0x0 DUP2 CALLDATALOAD SWAP1 POP PUSH2 0x250 DUP2 PUSH2 0x231 JUMP JUMPDEST SWAP3 SWAP2 POP POP JUMP JUMPDEST PUSH1 0x0 PUSH1 0x20 DUP3 DUP5 SUB SLT ISZERO PUSH2 0x26C JUMPI PUSH2 0x26B PUSH2 0x22C JUMP JUMPDEST JUMPDEST PUSH1 0x0 PUSH2 0x27A DUP5 DUP3 DUP6 ADD PUSH2 0x241 JUMP JUMPDEST SWAP2 POP POP SWAP3 SWAP2 POP POP JUMP JUMPDEST PUSH1 0x0 DUP2 MLOAD SWAP1 POP SWAP2 SWAP1 POP JUMP JUMPDEST PUSH1 0x0 DUP3 DUP3 MSTORE PUSH1 0x20 DUP3 ADD SWAP1 POP SWAP3 SWAP2 POP POP JUMP JUMPDEST PUSH1 0x0 JUMPDEST DUP4 DUP2 LT ISZERO PUSH2 0x2BD JUMPI DUP1 DUP3 ADD MLOAD DUP2 DUP5 ADD MSTORE PUSH1 0x20 DUP2 ADD SWAP1 POP PUSH2 0x2A2 JUMP JUMPDEST PUSH1 0x0 DUP5 DUP5 ADD MSTORE POP POP POP POP JUMP JUMPDEST PUSH1 0x0 PUSH1 0x1F NOT PUSH1 0x1F DUP4 ADD AND SWAP1 POP SWAP2 SWAP1 POP JUMP JUMPDEST PUSH1 0x0 PUSH2 0x2E5 DUP3 PUSH2 0x283 JUMP JUMPDEST PUSH2 0x2EF DUP2 DUP6 PUSH2 0x28E JUMP JUMPDEST SWAP4 POP PUSH2 0x2FF DUP2 DUP6 PUSH1 0x20 DUP7 ADD PUSH2 0x29F JUMP JUMPDEST PUSH2 0x308 DUP2 PUSH2 0x2C9 JUMP JUMPDEST DUP5 ADD SWAP2 POP POP SWAP3 SWAP2 POP POP JUMP JUMPDEST PUSH1 0x0 PUSH1 0x20 DUP3 ADD SWAP1 POP DUP2 DUP2 SUB PUSH1 0x0 DUP4 ADD MSTORE PUSH2 0x32D DUP2 DUP5 PUSH2 0x2DA JUMP JUMPDEST SWAP1 POP SWAP3 SWAP2 POP POP JUMP JUMPDEST PUSH32 0x4E487B7100000000000000000000000000000000000000000000000000000000 PUSH1 0x0 MSTORE PUSH1 0x21 PUSH1 0x4 MSTORE PUSH1 0x24 PUSH1 0x0 REVERT JUMPDEST PUSH1 0x3 DUP2 LT PUSH2 0x375 JUMPI PUSH2 0x374 PUSH2 0x335 JUMP JUMPDEST JUMPDEST POP JUMP JUMPDEST PUSH1 0x0 DUP2 SWAP1 POP PUSH2 0x386 DUP3 PUSH2 0x364 JUMP JUMPDEST SWAP2 SWAP1 POP JUMP JUMPDEST PUSH1 0x0 PUSH2 0x396 DUP3 PUSH2 0x378 JUMP JUMPDEST SWAP1 POP SWAP2 SWAP1 POP JUMP JUMPDEST PUSH2 0x3A6 DUP2 PUSH2 0x38B JUMP JUMPDEST DUP3 MSTORE POP POP JUMP JUMPDEST PUSH1 0x0 PUSH1 0x20 DUP3 ADD SWAP1 POP PUSH2 0x3C1 PUSH1 0x0 DUP4 ADD DUP5 PUSH2 0x39D JUMP JUMPDEST SWAP3 SWAP2 POP POP JUMP INVALID LOG2 PUSH5 0x6970667358 0x22 SLT KECCAK256 STATICCALL 0xE5 SDIV MUL 0xE0 SWAP15 SUB CODECOPY PUSH11 0x7BCC4B0088656460CFC586 CALL SAR 0xA5 SHR SWAP8 OR 0xAE 0xC8 0xE4 LOG0 0xB7 CALLDATALOAD PUSH5 0x736F6C6343 STOP ADDMOD SLT STOP CALLER "
				},
				"gasEstimates": {
					"creation": {
						"codeDepositCost": "204200",
						"executionCost": "245",
						"totalCost": "204445"
					},
					"external": {
						"checking(uint8)": "infinite",
						"insert()": "24409",
						"returnData()": "2612",
						"state()": "2579"
					}
				},
				"methodIdentifiers": {
					"checking(uint8)": "45423498",
					"insert()": "25f7b1de",
					"returnData()": "ebddbaf6",
					"state()": "c19d93fb"
				}
			},
			"storageLayout": {
				"storage": [
					{
						"astId": 8,
						"contract": "contracts/Solidity Advance part=2/4.Enum.sol:EnumDemo",
						"label": "state",
						"offset": 0,
						"slot": "0",
						"type": "t_enum(STATE)5"
					}
				],
				"types": {
					"t_enum(STATE)5": {
						"encoding": "inplace",
						"label": "enum EnumDemo.STATE",
						"numberOfBytes": "1"
					}
				}
			},
			"userdoc": {
				"kind": "user",
				"methods": {},
				"version": 1
			}
		}
	}
}