{
	"contracts/Solidity Advance part=2/2.ArrayWithinStruct.sol": {
		"ArrayWithinStructDemo": {
			"abi": [
				{
					"inputs": [],
					"name": "a1",
					"outputs": [
						{
							"internalType": "string",
							"name": "name",
							"type": "string"
						},
						{
							"internalType": "uint256",
							"name": "rollno",
							"type": "uint256"
						}
					],
					"stateMutability": "view",
					"type": "function"
				},
				{
					"inputs": [
						{
							"internalType": "string",
							"name": "_name",
							"type": "string"
						},
						{
							"internalType": "uint256",
							"name": "_rollno",
							"type": "uint256"
						},
						{
							"internalType": "uint256",
							"name": "_index",
							"type": "uint256"
						},
						{
							"internalType": "uint256",
							"name": "_element",
							"type": "uint256"
						}
					],
					"name": "enterData",
					"outputs": [],
					"stateMutability": "nonpayable",
					"type": "function"
				},
				{
					"inputs": [
						{
							"internalType": "uint256",
							"name": "index",
							"type": "uint256"
						},
						{
							"internalType": "uint256",
							"name": "element",
							"type": "uint256"
						}
					],
					"name": "enterMarksInArray",
					"outputs": [],
					"stateMutability": "nonpayable",
					"type": "function"
				},
				{
					"inputs": [],
					"name": "returnAll",
					"outputs": [
						{
							"components": [
								{
									"internalType": "string",
									"name": "name",
									"type": "string"
								},
								{
									"internalType": "uint256",
									"name": "rollno",
									"type": "uint256"
								},
								{
									"internalType": "uint256[5]",
									"name": "marks",
									"type": "uint256[5]"
								}
							],
							"internalType": "struct ArrayWithinStructDemo.ArrayWithinStruct",
							"name": "",
							"type": "tuple"
						}
					],
					"stateMutability": "view",
					"type": "function"
				}
			],
			"devdoc": {
				"kind": "dev",
				"methods": {},
				"version": 1
			},
			"evm": {
				"assembly": "    /* \"contracts/Solidity Advance part=2/2.ArrayWithinStruct.sol\":71:557  contract ArrayWithinStructDemo{... */\n  mstore(0x40, 0x80)\n  callvalue\n  dup1\n  iszero\n  tag_1\n  jumpi\n  0x00\n  dup1\n  revert\ntag_1:\n  pop\n  dataSize(sub_0)\n  dup1\n  dataOffset(sub_0)\n  0x00\n  codecopy\n  0x00\n  return\nstop\n\nsub_0: assembly {\n        /* \"contracts/Solidity Advance part=2/2.ArrayWithinStruct.sol\":71:557  contract ArrayWithinStructDemo{... */\n      mstore(0x40, 0x80)\n      callvalue\n      dup1\n      iszero\n      tag_1\n      jumpi\n      0x00\n      dup1\n      revert\n    tag_1:\n      pop\n      jumpi(tag_2, lt(calldatasize, 0x04))\n      shr(0xe0, calldataload(0x00))\n      dup1\n      0x119552a1\n      eq\n      tag_3\n      jumpi\n      dup1\n      0x582ae2ba\n      eq\n      tag_4\n      jumpi\n      dup1\n      0x85b1423e\n      eq\n      tag_5\n      jumpi\n      dup1\n      0x8a66c29a\n      eq\n      tag_6\n      jumpi\n    tag_2:\n      0x00\n      dup1\n      revert\n        /* \"contracts/Solidity Advance part=2/2.ArrayWithinStruct.sol\":185:212  ArrayWithinStruct public a1 */\n    tag_3:\n      tag_7\n      tag_8\n      jump\t// in\n    tag_7:\n      mload(0x40)\n      tag_9\n      swap3\n      swap2\n      swap1\n      tag_10\n      jump\t// in\n    tag_9:\n      mload(0x40)\n      dup1\n      swap2\n      sub\n      swap1\n      return\n        /* \"contracts/Solidity Advance part=2/2.ArrayWithinStruct.sol\":215:376  function enterData(string memory _name,uint _rollno,uint _index,uint _element)public {... */\n    tag_4:\n      tag_11\n      0x04\n      dup1\n      calldatasize\n      sub\n      dup2\n      add\n      swap1\n      tag_12\n      swap2\n      swap1\n      tag_13\n      jump\t// in\n    tag_12:\n      tag_14\n      jump\t// in\n    tag_11:\n      stop\n        /* \"contracts/Solidity Advance part=2/2.ArrayWithinStruct.sol\":468:553  function returnAll()public view returns(ArrayWithinStruct memory ){... */\n    tag_5:\n      tag_15\n      tag_16\n      jump\t// in\n    tag_15:\n      mload(0x40)\n      tag_17\n      swap2\n      swap1\n      tag_18\n      jump\t// in\n    tag_17:\n      mload(0x40)\n      dup1\n      swap2\n      sub\n      swap1\n      return\n        /* \"contracts/Solidity Advance part=2/2.ArrayWithinStruct.sol\":378:467  function enterMarksInArray(uint index,uint element)public{... */\n    tag_6:\n      tag_19\n      0x04\n      dup1\n      calldatasize\n      sub\n      dup2\n      add\n      swap1\n      tag_20\n      swap2\n      swap1\n      tag_21\n      jump\t// in\n    tag_20:\n      tag_22\n      jump\t// in\n    tag_19:\n      stop\n        /* \"contracts/Solidity Advance part=2/2.ArrayWithinStruct.sol\":185:212  ArrayWithinStruct public a1 */\n    tag_8:\n      0x00\n      dup1\n      0x00\n      add\n      dup1\n      sload\n      tag_23\n      swap1\n      tag_24\n      jump\t// in\n    tag_23:\n      dup1\n      0x1f\n      add\n      0x20\n      dup1\n      swap2\n      div\n      mul\n      0x20\n      add\n      mload(0x40)\n      swap1\n      dup2\n      add\n      0x40\n      mstore\n      dup1\n      swap3\n      swap2\n      swap1\n      dup2\n      dup2\n      mstore\n      0x20\n      add\n      dup3\n      dup1\n      sload\n      tag_25\n      swap1\n      tag_24\n      jump\t// in\n    tag_25:\n      dup1\n      iszero\n      tag_26\n      jumpi\n      dup1\n      0x1f\n      lt\n      tag_27\n      jumpi\n      0x0100\n      dup1\n      dup4\n      sload\n      div\n      mul\n      dup4\n      mstore\n      swap2\n      0x20\n      add\n      swap2\n      jump(tag_26)\n    tag_27:\n      dup3\n      add\n      swap2\n      swap1\n      0x00\n      mstore\n      keccak256(0x00, 0x20)\n      swap1\n    tag_28:\n      dup2\n      sload\n      dup2\n      mstore\n      swap1\n      0x01\n      add\n      swap1\n      0x20\n      add\n      dup1\n      dup4\n      gt\n      tag_28\n      jumpi\n      dup3\n      swap1\n      sub\n      0x1f\n      and\n      dup3\n      add\n      swap2\n    tag_26:\n      pop\n      pop\n      pop\n      pop\n      pop\n      swap1\n      dup1\n      0x01\n      add\n      sload\n      swap1\n      pop\n      dup3\n      jump\t// out\n        /* \"contracts/Solidity Advance part=2/2.ArrayWithinStruct.sol\":215:376  function enterData(string memory _name,uint _rollno,uint _index,uint _element)public {... */\n    tag_14:\n        /* \"contracts/Solidity Advance part=2/2.ArrayWithinStruct.sol\":314:319  _name */\n      dup4\n        /* \"contracts/Solidity Advance part=2/2.ArrayWithinStruct.sol\":306:308  a1 */\n      0x00\n        /* \"contracts/Solidity Advance part=2/2.ArrayWithinStruct.sol\":306:313  a1.name */\n      dup1\n      add\n        /* \"contracts/Solidity Advance part=2/2.ArrayWithinStruct.sol\":306:319  a1.name=_name */\n      swap1\n      dup2\n      tag_30\n      swap2\n      swap1\n      tag_31\n      jump\t// in\n    tag_30:\n      pop\n        /* \"contracts/Solidity Advance part=2/2.ArrayWithinStruct.sol\":335:342  _rollno */\n      dup3\n        /* \"contracts/Solidity Advance part=2/2.ArrayWithinStruct.sol\":325:327  a1 */\n      0x00\n        /* \"contracts/Solidity Advance part=2/2.ArrayWithinStruct.sol\":325:334  a1.rollno */\n      0x01\n      add\n        /* \"contracts/Solidity Advance part=2/2.ArrayWithinStruct.sol\":325:342  a1.rollno=_rollno */\n      dup2\n      swap1\n      sstore\n      pop\n        /* \"contracts/Solidity Advance part=2/2.ArrayWithinStruct.sol\":365:373  _element */\n      dup1\n        /* \"contracts/Solidity Advance part=2/2.ArrayWithinStruct.sol\":348:350  a1 */\n      0x00\n        /* \"contracts/Solidity Advance part=2/2.ArrayWithinStruct.sol\":348:356  a1.marks */\n      0x02\n      add\n        /* \"contracts/Solidity Advance part=2/2.ArrayWithinStruct.sol\":357:363  _index */\n      dup4\n        /* \"contracts/Solidity Advance part=2/2.ArrayWithinStruct.sol\":348:364  a1.marks[_index] */\n      0x05\n      dup2\n      lt\n      tag_32\n      jumpi\n      tag_33\n      tag_34\n      jump\t// in\n    tag_33:\n    tag_32:\n      add\n        /* \"contracts/Solidity Advance part=2/2.ArrayWithinStruct.sol\":348:373  a1.marks[_index]=_element */\n      dup2\n      swap1\n      sstore\n      pop\n        /* \"contracts/Solidity Advance part=2/2.ArrayWithinStruct.sol\":215:376  function enterData(string memory _name,uint _rollno,uint _index,uint _element)public {... */\n      pop\n      pop\n      pop\n      pop\n      jump\t// out\n        /* \"contracts/Solidity Advance part=2/2.ArrayWithinStruct.sol\":468:553  function returnAll()public view returns(ArrayWithinStruct memory ){... */\n    tag_16:\n        /* \"contracts/Solidity Advance part=2/2.ArrayWithinStruct.sol\":508:532  ArrayWithinStruct memory */\n      tag_36\n      tag_37\n      jump\t// in\n    tag_36:\n        /* \"contracts/Solidity Advance part=2/2.ArrayWithinStruct.sol\":548:550  a1 */\n      0x00\n        /* \"contracts/Solidity Advance part=2/2.ArrayWithinStruct.sol\":540:550  return  a1 */\n      mload(0x40)\n      dup1\n      0x60\n      add\n      0x40\n      mstore\n      swap1\n      dup2\n      0x00\n      dup3\n      add\n      dup1\n      sload\n      tag_39\n      swap1\n      tag_24\n      jump\t// in\n    tag_39:\n      dup1\n      0x1f\n      add\n      0x20\n      dup1\n      swap2\n      div\n      mul\n      0x20\n      add\n      mload(0x40)\n      swap1\n      dup2\n      add\n      0x40\n      mstore\n      dup1\n      swap3\n      swap2\n      swap1\n      dup2\n      dup2\n      mstore\n      0x20\n      add\n      dup3\n      dup1\n      sload\n      tag_40\n      swap1\n      tag_24\n      jump\t// in\n    tag_40:\n      dup1\n      iszero\n      tag_41\n      jumpi\n      dup1\n      0x1f\n      lt\n      tag_42\n      jumpi\n      0x0100\n      dup1\n      dup4\n      sload\n      div\n      mul\n      dup4\n      mstore\n      swap2\n      0x20\n      add\n      swap2\n      jump(tag_41)\n    tag_42:\n      dup3\n      add\n      swap2\n      swap1\n      0x00\n      mstore\n      keccak256(0x00, 0x20)\n      swap1\n    tag_43:\n      dup2\n      sload\n      dup2\n      mstore\n      swap1\n      0x01\n      add\n      swap1\n      0x20\n      add\n      dup1\n      dup4\n      gt\n      tag_43\n      jumpi\n      dup3\n      swap1\n      sub\n      0x1f\n      and\n      dup3\n      add\n      swap2\n    tag_41:\n      pop\n      pop\n      pop\n      pop\n      pop\n      dup2\n      mstore\n      0x20\n      add\n      0x01\n      dup3\n      add\n      sload\n      dup2\n      mstore\n      0x20\n      add\n      0x02\n      dup3\n      add\n      0x05\n      dup1\n      0x20\n      mul\n      mload(0x40)\n      swap1\n      dup2\n      add\n      0x40\n      mstore\n      dup1\n      swap3\n      swap2\n      swap1\n      dup3\n      0x05\n      dup1\n      iszero\n      tag_44\n      jumpi\n      0x20\n      mul\n      dup3\n      add\n      swap2\n    tag_45:\n      dup2\n      sload\n      dup2\n      mstore\n      0x20\n      add\n      swap1\n      0x01\n      add\n      swap1\n      dup1\n      dup4\n      gt\n      tag_45\n      jumpi\n    tag_44:\n      pop\n      pop\n      pop\n      pop\n      pop\n      dup2\n      mstore\n      pop\n      pop\n      swap1\n      pop\n        /* \"contracts/Solidity Advance part=2/2.ArrayWithinStruct.sol\":468:553  function returnAll()public view returns(ArrayWithinStruct memory ){... */\n      swap1\n      jump\t// out\n        /* \"contracts/Solidity Advance part=2/2.ArrayWithinStruct.sol\":378:467  function enterMarksInArray(uint index,uint element)public{... */\n    tag_22:\n        /* \"contracts/Solidity Advance part=2/2.ArrayWithinStruct.sol\":457:464  element */\n      dup1\n        /* \"contracts/Solidity Advance part=2/2.ArrayWithinStruct.sol\":441:443  a1 */\n      0x00\n        /* \"contracts/Solidity Advance part=2/2.ArrayWithinStruct.sol\":441:449  a1.marks */\n      0x02\n      add\n        /* \"contracts/Solidity Advance part=2/2.ArrayWithinStruct.sol\":450:455  index */\n      dup4\n        /* \"contracts/Solidity Advance part=2/2.ArrayWithinStruct.sol\":441:456  a1.marks[index] */\n      0x05\n      dup2\n      lt\n      tag_47\n      jumpi\n      tag_48\n      tag_34\n      jump\t// in\n    tag_48:\n    tag_47:\n      add\n        /* \"contracts/Solidity Advance part=2/2.ArrayWithinStruct.sol\":441:464  a1.marks[index]=element */\n      dup2\n      swap1\n      sstore\n      pop\n        /* \"contracts/Solidity Advance part=2/2.ArrayWithinStruct.sol\":378:467  function enterMarksInArray(uint index,uint element)public{... */\n      pop\n      pop\n      jump\t// out\n    tag_37:\n      mload(0x40)\n      dup1\n      0x60\n      add\n      0x40\n      mstore\n      dup1\n      0x60\n      dup2\n      mstore\n      0x20\n      add\n      0x00\n      dup2\n      mstore\n      0x20\n      add\n      tag_50\n      tag_51\n      jump\t// in\n    tag_50:\n      dup2\n      mstore\n      pop\n      swap1\n      jump\t// out\n    tag_51:\n      mload(0x40)\n      dup1\n      0xa0\n      add\n      0x40\n      mstore\n      dup1\n      0x05\n      swap1\n      0x20\n      dup3\n      mul\n      dup1\n      calldatasize\n      dup4\n      calldatacopy\n      dup1\n      dup3\n      add\n      swap2\n      pop\n      pop\n      swap1\n      pop\n      pop\n      swap1\n      jump\t// out\n        /* \"#utility.yul\":7:106   */\n    tag_52:\n        /* \"#utility.yul\":59:65   */\n      0x00\n        /* \"#utility.yul\":93:98   */\n      dup2\n        /* \"#utility.yul\":87:99   */\n      mload\n        /* \"#utility.yul\":77:99   */\n      swap1\n      pop\n        /* \"#utility.yul\":7:106   */\n      swap2\n      swap1\n      pop\n      jump\t// out\n        /* \"#utility.yul\":112:281   */\n    tag_53:\n        /* \"#utility.yul\":196:207   */\n      0x00\n        /* \"#utility.yul\":230:236   */\n      dup3\n        /* \"#utility.yul\":225:228   */\n      dup3\n        /* \"#utility.yul\":218:237   */\n      mstore\n        /* \"#utility.yul\":270:274   */\n      0x20\n        /* \"#utility.yul\":265:268   */\n      dup3\n        /* \"#utility.yul\":261:275   */\n      add\n        /* \"#utility.yul\":246:275   */\n      swap1\n      pop\n        /* \"#utility.yul\":112:281   */\n      swap3\n      swap2\n      pop\n      pop\n      jump\t// out\n        /* \"#utility.yul\":287:533   */\n    tag_54:\n        /* \"#utility.yul\":368:369   */\n      0x00\n        /* \"#utility.yul\":378:491   */\n    tag_103:\n        /* \"#utility.yul\":392:398   */\n      dup4\n        /* \"#utility.yul\":389:390   */\n      dup2\n        /* \"#utility.yul\":386:399   */\n      lt\n        /* \"#utility.yul\":378:491   */\n      iszero\n      tag_105\n      jumpi\n        /* \"#utility.yul\":477:478   */\n      dup1\n        /* \"#utility.yul\":472:475   */\n      dup3\n        /* \"#utility.yul\":468:479   */\n      add\n        /* \"#utility.yul\":462:480   */\n      mload\n        /* \"#utility.yul\":458:459   */\n      dup2\n        /* \"#utility.yul\":453:456   */\n      dup5\n        /* \"#utility.yul\":449:460   */\n      add\n        /* \"#utility.yul\":442:481   */\n      mstore\n        /* \"#utility.yul\":414:416   */\n      0x20\n        /* \"#utility.yul\":411:412   */\n      dup2\n        /* \"#utility.yul\":407:417   */\n      add\n        /* \"#utility.yul\":402:417   */\n      swap1\n      pop\n        /* \"#utility.yul\":378:491   */\n      jump(tag_103)\n    tag_105:\n        /* \"#utility.yul\":525:526   */\n      0x00\n        /* \"#utility.yul\":516:522   */\n      dup5\n        /* \"#utility.yul\":511:514   */\n      dup5\n        /* \"#utility.yul\":507:523   */\n      add\n        /* \"#utility.yul\":500:527   */\n      mstore\n        /* \"#utility.yul\":349:533   */\n      pop\n        /* \"#utility.yul\":287:533   */\n      pop\n      pop\n      pop\n      jump\t// out\n        /* \"#utility.yul\":539:641   */\n    tag_55:\n        /* \"#utility.yul\":580:586   */\n      0x00\n        /* \"#utility.yul\":631:633   */\n      0x1f\n        /* \"#utility.yul\":627:634   */\n      not\n        /* \"#utility.yul\":622:624   */\n      0x1f\n        /* \"#utility.yul\":615:620   */\n      dup4\n        /* \"#utility.yul\":611:625   */\n      add\n        /* \"#utility.yul\":607:635   */\n      and\n        /* \"#utility.yul\":597:635   */\n      swap1\n      pop\n        /* \"#utility.yul\":539:641   */\n      swap2\n      swap1\n      pop\n      jump\t// out\n        /* \"#utility.yul\":647:1024   */\n    tag_56:\n        /* \"#utility.yul\":735:738   */\n      0x00\n        /* \"#utility.yul\":763:802   */\n      tag_108\n        /* \"#utility.yul\":796:801   */\n      dup3\n        /* \"#utility.yul\":763:802   */\n      tag_52\n      jump\t// in\n    tag_108:\n        /* \"#utility.yul\":818:889   */\n      tag_109\n        /* \"#utility.yul\":882:888   */\n      dup2\n        /* \"#utility.yul\":877:880   */\n      dup6\n        /* \"#utility.yul\":818:889   */\n      tag_53\n      jump\t// in\n    tag_109:\n        /* \"#utility.yul\":811:889   */\n      swap4\n      pop\n        /* \"#utility.yul\":898:963   */\n      tag_110\n        /* \"#utility.yul\":956:962   */\n      dup2\n        /* \"#utility.yul\":951:954   */\n      dup6\n        /* \"#utility.yul\":944:948   */\n      0x20\n        /* \"#utility.yul\":937:942   */\n      dup7\n        /* \"#utility.yul\":933:949   */\n      add\n        /* \"#utility.yul\":898:963   */\n      tag_54\n      jump\t// in\n    tag_110:\n        /* \"#utility.yul\":988:1017   */\n      tag_111\n        /* \"#utility.yul\":1010:1016   */\n      dup2\n        /* \"#utility.yul\":988:1017   */\n      tag_55\n      jump\t// in\n    tag_111:\n        /* \"#utility.yul\":983:986   */\n      dup5\n        /* \"#utility.yul\":979:1018   */\n      add\n        /* \"#utility.yul\":972:1018   */\n      swap2\n      pop\n        /* \"#utility.yul\":739:1024   */\n      pop\n        /* \"#utility.yul\":647:1024   */\n      swap3\n      swap2\n      pop\n      pop\n      jump\t// out\n        /* \"#utility.yul\":1030:1107   */\n    tag_57:\n        /* \"#utility.yul\":1067:1074   */\n      0x00\n        /* \"#utility.yul\":1096:1101   */\n      dup2\n        /* \"#utility.yul\":1085:1101   */\n      swap1\n      pop\n        /* \"#utility.yul\":1030:1107   */\n      swap2\n      swap1\n      pop\n      jump\t// out\n        /* \"#utility.yul\":1113:1231   */\n    tag_58:\n        /* \"#utility.yul\":1200:1224   */\n      tag_114\n        /* \"#utility.yul\":1218:1223   */\n      dup2\n        /* \"#utility.yul\":1200:1224   */\n      tag_57\n      jump\t// in\n    tag_114:\n        /* \"#utility.yul\":1195:1198   */\n      dup3\n        /* \"#utility.yul\":1188:1225   */\n      mstore\n        /* \"#utility.yul\":1113:1231   */\n      pop\n      pop\n      jump\t// out\n        /* \"#utility.yul\":1237:1660   */\n    tag_10:\n        /* \"#utility.yul\":1378:1382   */\n      0x00\n        /* \"#utility.yul\":1416:1418   */\n      0x40\n        /* \"#utility.yul\":1405:1414   */\n      dup3\n        /* \"#utility.yul\":1401:1419   */\n      add\n        /* \"#utility.yul\":1393:1419   */\n      swap1\n      pop\n        /* \"#utility.yul\":1465:1474   */\n      dup2\n        /* \"#utility.yul\":1459:1463   */\n      dup2\n        /* \"#utility.yul\":1455:1475   */\n      sub\n        /* \"#utility.yul\":1451:1452   */\n      0x00\n        /* \"#utility.yul\":1440:1449   */\n      dup4\n        /* \"#utility.yul\":1436:1453   */\n      add\n        /* \"#utility.yul\":1429:1476   */\n      mstore\n        /* \"#utility.yul\":1493:1571   */\n      tag_116\n        /* \"#utility.yul\":1566:1570   */\n      dup2\n        /* \"#utility.yul\":1557:1563   */\n      dup6\n        /* \"#utility.yul\":1493:1571   */\n      tag_56\n      jump\t// in\n    tag_116:\n        /* \"#utility.yul\":1485:1571   */\n      swap1\n      pop\n        /* \"#utility.yul\":1581:1653   */\n      tag_117\n        /* \"#utility.yul\":1649:1651   */\n      0x20\n        /* \"#utility.yul\":1638:1647   */\n      dup4\n        /* \"#utility.yul\":1634:1652   */\n      add\n        /* \"#utility.yul\":1625:1631   */\n      dup5\n        /* \"#utility.yul\":1581:1653   */\n      tag_58\n      jump\t// in\n    tag_117:\n        /* \"#utility.yul\":1237:1660   */\n      swap4\n      swap3\n      pop\n      pop\n      pop\n      jump\t// out\n        /* \"#utility.yul\":1666:1741   */\n    tag_59:\n        /* \"#utility.yul\":1699:1705   */\n      0x00\n        /* \"#utility.yul\":1732:1734   */\n      0x40\n        /* \"#utility.yul\":1726:1735   */\n      mload\n        /* \"#utility.yul\":1716:1735   */\n      swap1\n      pop\n        /* \"#utility.yul\":1666:1741   */\n      swap1\n      jump\t// out\n        /* \"#utility.yul\":1747:1864   */\n    tag_60:\n        /* \"#utility.yul\":1856:1857   */\n      0x00\n        /* \"#utility.yul\":1853:1854   */\n      dup1\n        /* \"#utility.yul\":1846:1858   */\n      revert\n        /* \"#utility.yul\":1870:1987   */\n    tag_61:\n        /* \"#utility.yul\":1979:1980   */\n      0x00\n        /* \"#utility.yul\":1976:1977   */\n      dup1\n        /* \"#utility.yul\":1969:1981   */\n      revert\n        /* \"#utility.yul\":1993:2110   */\n    tag_62:\n        /* \"#utility.yul\":2102:2103   */\n      0x00\n        /* \"#utility.yul\":2099:2100   */\n      dup1\n        /* \"#utility.yul\":2092:2104   */\n      revert\n        /* \"#utility.yul\":2116:2233   */\n    tag_63:\n        /* \"#utility.yul\":2225:2226   */\n      0x00\n        /* \"#utility.yul\":2222:2223   */\n      dup1\n        /* \"#utility.yul\":2215:2227   */\n      revert\n        /* \"#utility.yul\":2239:2419   */\n    tag_64:\n        /* \"#utility.yul\":2287:2364   */\n      0x4e487b7100000000000000000000000000000000000000000000000000000000\n        /* \"#utility.yul\":2284:2285   */\n      0x00\n        /* \"#utility.yul\":2277:2365   */\n      mstore\n        /* \"#utility.yul\":2384:2388   */\n      0x41\n        /* \"#utility.yul\":2381:2382   */\n      0x04\n        /* \"#utility.yul\":2374:2389   */\n      mstore\n        /* \"#utility.yul\":2408:2412   */\n      0x24\n        /* \"#utility.yul\":2405:2406   */\n      0x00\n        /* \"#utility.yul\":2398:2413   */\n      revert\n        /* \"#utility.yul\":2425:2706   */\n    tag_65:\n        /* \"#utility.yul\":2508:2535   */\n      tag_125\n        /* \"#utility.yul\":2530:2534   */\n      dup3\n        /* \"#utility.yul\":2508:2535   */\n      tag_55\n      jump\t// in\n    tag_125:\n        /* \"#utility.yul\":2500:2506   */\n      dup2\n        /* \"#utility.yul\":2496:2536   */\n      add\n        /* \"#utility.yul\":2638:2644   */\n      dup2\n        /* \"#utility.yul\":2626:2636   */\n      dup2\n        /* \"#utility.yul\":2623:2645   */\n      lt\n        /* \"#utility.yul\":2602:2620   */\n      0xffffffffffffffff\n        /* \"#utility.yul\":2590:2600   */\n      dup3\n        /* \"#utility.yul\":2587:2621   */\n      gt\n        /* \"#utility.yul\":2584:2646   */\n      or\n        /* \"#utility.yul\":2581:2669   */\n      iszero\n      tag_126\n      jumpi\n        /* \"#utility.yul\":2649:2667   */\n      tag_127\n      tag_64\n      jump\t// in\n    tag_127:\n        /* \"#utility.yul\":2581:2669   */\n    tag_126:\n        /* \"#utility.yul\":2689:2699   */\n      dup1\n        /* \"#utility.yul\":2685:2687   */\n      0x40\n        /* \"#utility.yul\":2678:2700   */\n      mstore\n        /* \"#utility.yul\":2468:2706   */\n      pop\n        /* \"#utility.yul\":2425:2706   */\n      pop\n      pop\n      jump\t// out\n        /* \"#utility.yul\":2712:2841   */\n    tag_66:\n        /* \"#utility.yul\":2746:2752   */\n      0x00\n        /* \"#utility.yul\":2773:2793   */\n      tag_129\n      tag_59\n      jump\t// in\n    tag_129:\n        /* \"#utility.yul\":2763:2793   */\n      swap1\n      pop\n        /* \"#utility.yul\":2802:2835   */\n      tag_130\n        /* \"#utility.yul\":2830:2834   */\n      dup3\n        /* \"#utility.yul\":2822:2828   */\n      dup3\n        /* \"#utility.yul\":2802:2835   */\n      tag_65\n      jump\t// in\n    tag_130:\n        /* \"#utility.yul\":2712:2841   */\n      swap2\n      swap1\n      pop\n      jump\t// out\n        /* \"#utility.yul\":2847:3155   */\n    tag_67:\n        /* \"#utility.yul\":2909:2913   */\n      0x00\n        /* \"#utility.yul\":2999:3017   */\n      0xffffffffffffffff\n        /* \"#utility.yul\":2991:2997   */\n      dup3\n        /* \"#utility.yul\":2988:3018   */\n      gt\n        /* \"#utility.yul\":2985:3041   */\n      iszero\n      tag_132\n      jumpi\n        /* \"#utility.yul\":3021:3039   */\n      tag_133\n      tag_64\n      jump\t// in\n    tag_133:\n        /* \"#utility.yul\":2985:3041   */\n    tag_132:\n        /* \"#utility.yul\":3059:3088   */\n      tag_134\n        /* \"#utility.yul\":3081:3087   */\n      dup3\n        /* \"#utility.yul\":3059:3088   */\n      tag_55\n      jump\t// in\n    tag_134:\n        /* \"#utility.yul\":3051:3088   */\n      swap1\n      pop\n        /* \"#utility.yul\":3143:3147   */\n      0x20\n        /* \"#utility.yul\":3137:3141   */\n      dup2\n        /* \"#utility.yul\":3133:3148   */\n      add\n        /* \"#utility.yul\":3125:3148   */\n      swap1\n      pop\n        /* \"#utility.yul\":2847:3155   */\n      swap2\n      swap1\n      pop\n      jump\t// out\n        /* \"#utility.yul\":3161:3307   */\n    tag_68:\n        /* \"#utility.yul\":3258:3264   */\n      dup3\n        /* \"#utility.yul\":3253:3256   */\n      dup2\n        /* \"#utility.yul\":3248:3251   */\n      dup4\n        /* \"#utility.yul\":3235:3265   */\n      calldatacopy\n        /* \"#utility.yul\":3299:3300   */\n      0x00\n        /* \"#utility.yul\":3290:3296   */\n      dup4\n        /* \"#utility.yul\":3285:3288   */\n      dup4\n        /* \"#utility.yul\":3281:3297   */\n      add\n        /* \"#utility.yul\":3274:3301   */\n      mstore\n        /* \"#utility.yul\":3161:3307   */\n      pop\n      pop\n      pop\n      jump\t// out\n        /* \"#utility.yul\":3313:3738   */\n    tag_69:\n        /* \"#utility.yul\":3391:3396   */\n      0x00\n        /* \"#utility.yul\":3416:3482   */\n      tag_137\n        /* \"#utility.yul\":3432:3481   */\n      tag_138\n        /* \"#utility.yul\":3474:3480   */\n      dup5\n        /* \"#utility.yul\":3432:3481   */\n      tag_67\n      jump\t// in\n    tag_138:\n        /* \"#utility.yul\":3416:3482   */\n      tag_66\n      jump\t// in\n    tag_137:\n        /* \"#utility.yul\":3407:3482   */\n      swap1\n      pop\n        /* \"#utility.yul\":3505:3511   */\n      dup3\n        /* \"#utility.yul\":3498:3503   */\n      dup2\n        /* \"#utility.yul\":3491:3512   */\n      mstore\n        /* \"#utility.yul\":3543:3547   */\n      0x20\n        /* \"#utility.yul\":3536:3541   */\n      dup2\n        /* \"#utility.yul\":3532:3548   */\n      add\n        /* \"#utility.yul\":3581:3584   */\n      dup5\n        /* \"#utility.yul\":3572:3578   */\n      dup5\n        /* \"#utility.yul\":3567:3570   */\n      dup5\n        /* \"#utility.yul\":3563:3579   */\n      add\n        /* \"#utility.yul\":3560:3585   */\n      gt\n        /* \"#utility.yul\":3557:3669   */\n      iszero\n      tag_139\n      jumpi\n        /* \"#utility.yul\":3588:3667   */\n      tag_140\n      tag_63\n      jump\t// in\n    tag_140:\n        /* \"#utility.yul\":3557:3669   */\n    tag_139:\n        /* \"#utility.yul\":3678:3732   */\n      tag_141\n        /* \"#utility.yul\":3725:3731   */\n      dup5\n        /* \"#utility.yul\":3720:3723   */\n      dup3\n        /* \"#utility.yul\":3715:3718   */\n      dup6\n        /* \"#utility.yul\":3678:3732   */\n      tag_68\n      jump\t// in\n    tag_141:\n        /* \"#utility.yul\":3397:3738   */\n      pop\n        /* \"#utility.yul\":3313:3738   */\n      swap4\n      swap3\n      pop\n      pop\n      pop\n      jump\t// out\n        /* \"#utility.yul\":3758:4098   */\n    tag_70:\n        /* \"#utility.yul\":3814:3819   */\n      0x00\n        /* \"#utility.yul\":3863:3866   */\n      dup3\n        /* \"#utility.yul\":3856:3860   */\n      0x1f\n        /* \"#utility.yul\":3848:3854   */\n      dup4\n        /* \"#utility.yul\":3844:3861   */\n      add\n        /* \"#utility.yul\":3840:3867   */\n      slt\n        /* \"#utility.yul\":3830:3952   */\n      tag_143\n      jumpi\n        /* \"#utility.yul\":3871:3950   */\n      tag_144\n      tag_62\n      jump\t// in\n    tag_144:\n        /* \"#utility.yul\":3830:3952   */\n    tag_143:\n        /* \"#utility.yul\":3988:3994   */\n      dup2\n        /* \"#utility.yul\":3975:3995   */\n      calldataload\n        /* \"#utility.yul\":4013:4092   */\n      tag_145\n        /* \"#utility.yul\":4088:4091   */\n      dup5\n        /* \"#utility.yul\":4080:4086   */\n      dup3\n        /* \"#utility.yul\":4073:4077   */\n      0x20\n        /* \"#utility.yul\":4065:4071   */\n      dup7\n        /* \"#utility.yul\":4061:4078   */\n      add\n        /* \"#utility.yul\":4013:4092   */\n      tag_69\n      jump\t// in\n    tag_145:\n        /* \"#utility.yul\":4004:4092   */\n      swap2\n      pop\n        /* \"#utility.yul\":3820:4098   */\n      pop\n        /* \"#utility.yul\":3758:4098   */\n      swap3\n      swap2\n      pop\n      pop\n      jump\t// out\n        /* \"#utility.yul\":4104:4226   */\n    tag_71:\n        /* \"#utility.yul\":4177:4201   */\n      tag_147\n        /* \"#utility.yul\":4195:4200   */\n      dup2\n        /* \"#utility.yul\":4177:4201   */\n      tag_57\n      jump\t// in\n    tag_147:\n        /* \"#utility.yul\":4170:4175   */\n      dup2\n        /* \"#utility.yul\":4167:4202   */\n      eq\n        /* \"#utility.yul\":4157:4220   */\n      tag_148\n      jumpi\n        /* \"#utility.yul\":4216:4217   */\n      0x00\n        /* \"#utility.yul\":4213:4214   */\n      dup1\n        /* \"#utility.yul\":4206:4218   */\n      revert\n        /* \"#utility.yul\":4157:4220   */\n    tag_148:\n        /* \"#utility.yul\":4104:4226   */\n      pop\n      jump\t// out\n        /* \"#utility.yul\":4232:4371   */\n    tag_72:\n        /* \"#utility.yul\":4278:4283   */\n      0x00\n        /* \"#utility.yul\":4316:4322   */\n      dup2\n        /* \"#utility.yul\":4303:4323   */\n      calldataload\n        /* \"#utility.yul\":4294:4323   */\n      swap1\n      pop\n        /* \"#utility.yul\":4332:4365   */\n      tag_150\n        /* \"#utility.yul\":4359:4364   */\n      dup2\n        /* \"#utility.yul\":4332:4365   */\n      tag_71\n      jump\t// in\n    tag_150:\n        /* \"#utility.yul\":4232:4371   */\n      swap3\n      swap2\n      pop\n      pop\n      jump\t// out\n        /* \"#utility.yul\":4377:5322   */\n    tag_13:\n        /* \"#utility.yul\":4473:4479   */\n      0x00\n        /* \"#utility.yul\":4481:4487   */\n      dup1\n        /* \"#utility.yul\":4489:4495   */\n      0x00\n        /* \"#utility.yul\":4497:4503   */\n      dup1\n        /* \"#utility.yul\":4546:4549   */\n      0x80\n        /* \"#utility.yul\":4534:4543   */\n      dup6\n        /* \"#utility.yul\":4525:4532   */\n      dup8\n        /* \"#utility.yul\":4521:4544   */\n      sub\n        /* \"#utility.yul\":4517:4550   */\n      slt\n        /* \"#utility.yul\":4514:4634   */\n      iszero\n      tag_152\n      jumpi\n        /* \"#utility.yul\":4553:4632   */\n      tag_153\n      tag_60\n      jump\t// in\n    tag_153:\n        /* \"#utility.yul\":4514:4634   */\n    tag_152:\n        /* \"#utility.yul\":4701:4702   */\n      0x00\n        /* \"#utility.yul\":4690:4699   */\n      dup6\n        /* \"#utility.yul\":4686:4703   */\n      add\n        /* \"#utility.yul\":4673:4704   */\n      calldataload\n        /* \"#utility.yul\":4731:4749   */\n      0xffffffffffffffff\n        /* \"#utility.yul\":4723:4729   */\n      dup2\n        /* \"#utility.yul\":4720:4750   */\n      gt\n        /* \"#utility.yul\":4717:4834   */\n      iszero\n      tag_154\n      jumpi\n        /* \"#utility.yul\":4753:4832   */\n      tag_155\n      tag_61\n      jump\t// in\n    tag_155:\n        /* \"#utility.yul\":4717:4834   */\n    tag_154:\n        /* \"#utility.yul\":4858:4921   */\n      tag_156\n        /* \"#utility.yul\":4913:4920   */\n      dup8\n        /* \"#utility.yul\":4904:4910   */\n      dup3\n        /* \"#utility.yul\":4893:4902   */\n      dup9\n        /* \"#utility.yul\":4889:4911   */\n      add\n        /* \"#utility.yul\":4858:4921   */\n      tag_70\n      jump\t// in\n    tag_156:\n        /* \"#utility.yul\":4848:4921   */\n      swap5\n      pop\n        /* \"#utility.yul\":4644:4931   */\n      pop\n        /* \"#utility.yul\":4970:4972   */\n      0x20\n        /* \"#utility.yul\":4996:5049   */\n      tag_157\n        /* \"#utility.yul\":5041:5048   */\n      dup8\n        /* \"#utility.yul\":5032:5038   */\n      dup3\n        /* \"#utility.yul\":5021:5030   */\n      dup9\n        /* \"#utility.yul\":5017:5039   */\n      add\n        /* \"#utility.yul\":4996:5049   */\n      tag_72\n      jump\t// in\n    tag_157:\n        /* \"#utility.yul\":4986:5049   */\n      swap4\n      pop\n        /* \"#utility.yul\":4941:5059   */\n      pop\n        /* \"#utility.yul\":5098:5100   */\n      0x40\n        /* \"#utility.yul\":5124:5177   */\n      tag_158\n        /* \"#utility.yul\":5169:5176   */\n      dup8\n        /* \"#utility.yul\":5160:5166   */\n      dup3\n        /* \"#utility.yul\":5149:5158   */\n      dup9\n        /* \"#utility.yul\":5145:5167   */\n      add\n        /* \"#utility.yul\":5124:5177   */\n      tag_72\n      jump\t// in\n    tag_158:\n        /* \"#utility.yul\":5114:5177   */\n      swap3\n      pop\n        /* \"#utility.yul\":5069:5187   */\n      pop\n        /* \"#utility.yul\":5226:5228   */\n      0x60\n        /* \"#utility.yul\":5252:5305   */\n      tag_159\n        /* \"#utility.yul\":5297:5304   */\n      dup8\n        /* \"#utility.yul\":5288:5294   */\n      dup3\n        /* \"#utility.yul\":5277:5286   */\n      dup9\n        /* \"#utility.yul\":5273:5295   */\n      add\n        /* \"#utility.yul\":5252:5305   */\n      tag_72\n      jump\t// in\n    tag_159:\n        /* \"#utility.yul\":5242:5305   */\n      swap2\n      pop\n        /* \"#utility.yul\":5197:5315   */\n      pop\n        /* \"#utility.yul\":4377:5322   */\n      swap3\n      swap6\n      swap2\n      swap5\n      pop\n      swap3\n      pop\n      jump\t// out\n        /* \"#utility.yul\":5328:5487   */\n    tag_73:\n        /* \"#utility.yul\":5402:5413   */\n      0x00\n        /* \"#utility.yul\":5436:5442   */\n      dup3\n        /* \"#utility.yul\":5431:5434   */\n      dup3\n        /* \"#utility.yul\":5424:5443   */\n      mstore\n        /* \"#utility.yul\":5476:5480   */\n      0x20\n        /* \"#utility.yul\":5471:5474   */\n      dup3\n        /* \"#utility.yul\":5467:5481   */\n      add\n        /* \"#utility.yul\":5452:5481   */\n      swap1\n      pop\n        /* \"#utility.yul\":5328:5487   */\n      swap3\n      swap2\n      pop\n      pop\n      jump\t// out\n        /* \"#utility.yul\":5493:5850   */\n    tag_74:\n        /* \"#utility.yul\":5571:5574   */\n      0x00\n        /* \"#utility.yul\":5599:5638   */\n      tag_162\n        /* \"#utility.yul\":5632:5637   */\n      dup3\n        /* \"#utility.yul\":5599:5638   */\n      tag_52\n      jump\t// in\n    tag_162:\n        /* \"#utility.yul\":5654:5715   */\n      tag_163\n        /* \"#utility.yul\":5708:5714   */\n      dup2\n        /* \"#utility.yul\":5703:5706   */\n      dup6\n        /* \"#utility.yul\":5654:5715   */\n      tag_73\n      jump\t// in\n    tag_163:\n        /* \"#utility.yul\":5647:5715   */\n      swap4\n      pop\n        /* \"#utility.yul\":5724:5789   */\n      tag_164\n        /* \"#utility.yul\":5782:5788   */\n      dup2\n        /* \"#utility.yul\":5777:5780   */\n      dup6\n        /* \"#utility.yul\":5770:5774   */\n      0x20\n        /* \"#utility.yul\":5763:5768   */\n      dup7\n        /* \"#utility.yul\":5759:5775   */\n      add\n        /* \"#utility.yul\":5724:5789   */\n      tag_54\n      jump\t// in\n    tag_164:\n        /* \"#utility.yul\":5814:5843   */\n      tag_165\n        /* \"#utility.yul\":5836:5842   */\n      dup2\n        /* \"#utility.yul\":5814:5843   */\n      tag_55\n      jump\t// in\n    tag_165:\n        /* \"#utility.yul\":5809:5812   */\n      dup5\n        /* \"#utility.yul\":5805:5844   */\n      add\n        /* \"#utility.yul\":5798:5844   */\n      swap2\n      pop\n        /* \"#utility.yul\":5575:5850   */\n      pop\n        /* \"#utility.yul\":5493:5850   */\n      swap3\n      swap2\n      pop\n      pop\n      jump\t// out\n        /* \"#utility.yul\":5856:5964   */\n    tag_75:\n        /* \"#utility.yul\":5933:5957   */\n      tag_167\n        /* \"#utility.yul\":5951:5956   */\n      dup2\n        /* \"#utility.yul\":5933:5957   */\n      tag_57\n      jump\t// in\n    tag_167:\n        /* \"#utility.yul\":5928:5931   */\n      dup3\n        /* \"#utility.yul\":5921:5958   */\n      mstore\n        /* \"#utility.yul\":5856:5964   */\n      pop\n      pop\n      jump\t// out\n        /* \"#utility.yul\":5970:6074   */\n    tag_76:\n        /* \"#utility.yul\":6035:6041   */\n      0x00\n        /* \"#utility.yul\":6063:6067   */\n      0x05\n        /* \"#utility.yul\":6053:6067   */\n      swap1\n      pop\n        /* \"#utility.yul\":5970:6074   */\n      swap2\n      swap1\n      pop\n      jump\t// out\n        /* \"#utility.yul\":6080:6213   */\n    tag_77:\n        /* \"#utility.yul\":6167:6178   */\n      0x00\n        /* \"#utility.yul\":6204:6207   */\n      dup2\n        /* \"#utility.yul\":6189:6207   */\n      swap1\n      pop\n        /* \"#utility.yul\":6080:6213   */\n      swap3\n      swap2\n      pop\n      pop\n      jump\t// out\n        /* \"#utility.yul\":6219:6317   */\n    tag_78:\n        /* \"#utility.yul\":6284:6288   */\n      0x00\n        /* \"#utility.yul\":6307:6310   */\n      dup2\n        /* \"#utility.yul\":6299:6310   */\n      swap1\n      pop\n        /* \"#utility.yul\":6219:6317   */\n      swap2\n      swap1\n      pop\n      jump\t// out\n        /* \"#utility.yul\":6323:6502   */\n    tag_79:\n        /* \"#utility.yul\":6392:6402   */\n      0x00\n        /* \"#utility.yul\":6413:6459   */\n      tag_172\n        /* \"#utility.yul\":6455:6458   */\n      dup4\n        /* \"#utility.yul\":6447:6453   */\n      dup4\n        /* \"#utility.yul\":6413:6459   */\n      tag_75\n      jump\t// in\n    tag_172:\n        /* \"#utility.yul\":6491:6495   */\n      0x20\n        /* \"#utility.yul\":6486:6489   */\n      dup4\n        /* \"#utility.yul\":6482:6496   */\n      add\n        /* \"#utility.yul\":6468:6496   */\n      swap1\n      pop\n        /* \"#utility.yul\":6323:6502   */\n      swap3\n      swap2\n      pop\n      pop\n      jump\t// out\n        /* \"#utility.yul\":6508:6619   */\n    tag_80:\n        /* \"#utility.yul\":6576:6580   */\n      0x00\n        /* \"#utility.yul\":6608:6612   */\n      0x20\n        /* \"#utility.yul\":6603:6606   */\n      dup3\n        /* \"#utility.yul\":6599:6613   */\n      add\n        /* \"#utility.yul\":6591:6613   */\n      swap1\n      pop\n        /* \"#utility.yul\":6508:6619   */\n      swap2\n      swap1\n      pop\n      jump\t// out\n        /* \"#utility.yul\":6657:7331   */\n    tag_81:\n        /* \"#utility.yul\":6783:6835   */\n      tag_175\n        /* \"#utility.yul\":6829:6834   */\n      dup2\n        /* \"#utility.yul\":6783:6835   */\n      tag_76\n      jump\t// in\n    tag_175:\n        /* \"#utility.yul\":6851:6925   */\n      tag_176\n        /* \"#utility.yul\":6918:6924   */\n      dup2\n        /* \"#utility.yul\":6913:6916   */\n      dup5\n        /* \"#utility.yul\":6851:6925   */\n      tag_77\n      jump\t// in\n    tag_176:\n        /* \"#utility.yul\":6844:6925   */\n      swap3\n      pop\n        /* \"#utility.yul\":6949:7003   */\n      tag_177\n        /* \"#utility.yul\":6997:7002   */\n      dup3\n        /* \"#utility.yul\":6949:7003   */\n      tag_78\n      jump\t// in\n    tag_177:\n        /* \"#utility.yul\":7026:7033   */\n      dup1\n        /* \"#utility.yul\":7057:7058   */\n      0x00\n        /* \"#utility.yul\":7042:7324   */\n    tag_178:\n        /* \"#utility.yul\":7067:7073   */\n      dup4\n        /* \"#utility.yul\":7064:7065   */\n      dup2\n        /* \"#utility.yul\":7061:7074   */\n      lt\n        /* \"#utility.yul\":7042:7324   */\n      iszero\n      tag_180\n      jumpi\n        /* \"#utility.yul\":7143:7149   */\n      dup2\n        /* \"#utility.yul\":7137:7150   */\n      mload\n        /* \"#utility.yul\":7170:7233   */\n      tag_181\n        /* \"#utility.yul\":7229:7232   */\n      dup8\n        /* \"#utility.yul\":7214:7227   */\n      dup3\n        /* \"#utility.yul\":7170:7233   */\n      tag_79\n      jump\t// in\n    tag_181:\n        /* \"#utility.yul\":7163:7233   */\n      swap7\n      pop\n        /* \"#utility.yul\":7256:7314   */\n      tag_182\n        /* \"#utility.yul\":7307:7313   */\n      dup4\n        /* \"#utility.yul\":7256:7314   */\n      tag_80\n      jump\t// in\n    tag_182:\n        /* \"#utility.yul\":7246:7314   */\n      swap3\n      pop\n        /* \"#utility.yul\":7102:7324   */\n      pop\n        /* \"#utility.yul\":7089:7090   */\n      0x01\n        /* \"#utility.yul\":7086:7087   */\n      dup2\n        /* \"#utility.yul\":7082:7091   */\n      add\n        /* \"#utility.yul\":7077:7091   */\n      swap1\n      pop\n        /* \"#utility.yul\":7042:7324   */\n      jump(tag_178)\n    tag_180:\n        /* \"#utility.yul\":7046:7060   */\n      pop\n        /* \"#utility.yul\":6759:7331   */\n      pop\n      pop\n      pop\n        /* \"#utility.yul\":6657:7331   */\n      pop\n      pop\n      jump\t// out\n        /* \"#utility.yul\":7441:8286   */\n    tag_82:\n        /* \"#utility.yul\":7576:7579   */\n      0x00\n        /* \"#utility.yul\":7612:7616   */\n      0xe0\n        /* \"#utility.yul\":7607:7610   */\n      dup4\n        /* \"#utility.yul\":7603:7617   */\n      add\n        /* \"#utility.yul\":7699:7703   */\n      0x00\n        /* \"#utility.yul\":7692:7697   */\n      dup4\n        /* \"#utility.yul\":7688:7704   */\n      add\n        /* \"#utility.yul\":7682:7705   */\n      mload\n        /* \"#utility.yul\":7752:7755   */\n      dup5\n        /* \"#utility.yul\":7746:7750   */\n      dup3\n        /* \"#utility.yul\":7742:7756   */\n      sub\n        /* \"#utility.yul\":7735:7739   */\n      0x00\n        /* \"#utility.yul\":7730:7733   */\n      dup7\n        /* \"#utility.yul\":7726:7740   */\n      add\n        /* \"#utility.yul\":7719:7757   */\n      mstore\n        /* \"#utility.yul\":7778:7851   */\n      tag_184\n        /* \"#utility.yul\":7846:7850   */\n      dup3\n        /* \"#utility.yul\":7832:7844   */\n      dup3\n        /* \"#utility.yul\":7778:7851   */\n      tag_74\n      jump\t// in\n    tag_184:\n        /* \"#utility.yul\":7770:7851   */\n      swap2\n      pop\n        /* \"#utility.yul\":7627:7862   */\n      pop\n        /* \"#utility.yul\":7946:7950   */\n      0x20\n        /* \"#utility.yul\":7939:7944   */\n      dup4\n        /* \"#utility.yul\":7935:7951   */\n      add\n        /* \"#utility.yul\":7929:7952   */\n      mload\n        /* \"#utility.yul\":7965:8028   */\n      tag_185\n        /* \"#utility.yul\":8022:8026   */\n      0x20\n        /* \"#utility.yul\":8017:8020   */\n      dup7\n        /* \"#utility.yul\":8013:8027   */\n      add\n        /* \"#utility.yul\":7999:8011   */\n      dup3\n        /* \"#utility.yul\":7965:8028   */\n      tag_75\n      jump\t// in\n    tag_185:\n        /* \"#utility.yul\":7872:8038   */\n      pop\n        /* \"#utility.yul\":8121:8125   */\n      0x40\n        /* \"#utility.yul\":8114:8119   */\n      dup4\n        /* \"#utility.yul\":8110:8126   */\n      add\n        /* \"#utility.yul\":8104:8127   */\n      mload\n        /* \"#utility.yul\":8140:8249   */\n      tag_186\n        /* \"#utility.yul\":8243:8247   */\n      0x40\n        /* \"#utility.yul\":8238:8241   */\n      dup7\n        /* \"#utility.yul\":8234:8248   */\n      add\n        /* \"#utility.yul\":8220:8232   */\n      dup3\n        /* \"#utility.yul\":8140:8249   */\n      tag_81\n      jump\t// in\n    tag_186:\n        /* \"#utility.yul\":8048:8259   */\n      pop\n        /* \"#utility.yul\":8276:8280   */\n      dup1\n        /* \"#utility.yul\":8269:8280   */\n      swap2\n      pop\n        /* \"#utility.yul\":7581:8286   */\n      pop\n        /* \"#utility.yul\":7441:8286   */\n      swap3\n      swap2\n      pop\n      pop\n      jump\t// out\n        /* \"#utility.yul\":8292:8697   */\n    tag_18:\n        /* \"#utility.yul\":8451:8455   */\n      0x00\n        /* \"#utility.yul\":8489:8491   */\n      0x20\n        /* \"#utility.yul\":8478:8487   */\n      dup3\n        /* \"#utility.yul\":8474:8492   */\n      add\n        /* \"#utility.yul\":8466:8492   */\n      swap1\n      pop\n        /* \"#utility.yul\":8538:8547   */\n      dup2\n        /* \"#utility.yul\":8532:8536   */\n      dup2\n        /* \"#utility.yul\":8528:8548   */\n      sub\n        /* \"#utility.yul\":8524:8525   */\n      0x00\n        /* \"#utility.yul\":8513:8522   */\n      dup4\n        /* \"#utility.yul\":8509:8526   */\n      add\n        /* \"#utility.yul\":8502:8549   */\n      mstore\n        /* \"#utility.yul\":8566:8690   */\n      tag_188\n        /* \"#utility.yul\":8685:8689   */\n      dup2\n        /* \"#utility.yul\":8676:8682   */\n      dup5\n        /* \"#utility.yul\":8566:8690   */\n      tag_82\n      jump\t// in\n    tag_188:\n        /* \"#utility.yul\":8558:8690   */\n      swap1\n      pop\n        /* \"#utility.yul\":8292:8697   */\n      swap3\n      swap2\n      pop\n      pop\n      jump\t// out\n        /* \"#utility.yul\":8703:9177   */\n    tag_21:\n        /* \"#utility.yul\":8771:8777   */\n      0x00\n        /* \"#utility.yul\":8779:8785   */\n      dup1\n        /* \"#utility.yul\":8828:8830   */\n      0x40\n        /* \"#utility.yul\":8816:8825   */\n      dup4\n        /* \"#utility.yul\":8807:8814   */\n      dup6\n        /* \"#utility.yul\":8803:8826   */\n      sub\n        /* \"#utility.yul\":8799:8831   */\n      slt\n        /* \"#utility.yul\":8796:8915   */\n      iszero\n      tag_190\n      jumpi\n        /* \"#utility.yul\":8834:8913   */\n      tag_191\n      tag_60\n      jump\t// in\n    tag_191:\n        /* \"#utility.yul\":8796:8915   */\n    tag_190:\n        /* \"#utility.yul\":8954:8955   */\n      0x00\n        /* \"#utility.yul\":8979:9032   */\n      tag_192\n        /* \"#utility.yul\":9024:9031   */\n      dup6\n        /* \"#utility.yul\":9015:9021   */\n      dup3\n        /* \"#utility.yul\":9004:9013   */\n      dup7\n        /* \"#utility.yul\":9000:9022   */\n      add\n        /* \"#utility.yul\":8979:9032   */\n      tag_72\n      jump\t// in\n    tag_192:\n        /* \"#utility.yul\":8969:9032   */\n      swap3\n      pop\n        /* \"#utility.yul\":8925:9042   */\n      pop\n        /* \"#utility.yul\":9081:9083   */\n      0x20\n        /* \"#utility.yul\":9107:9160   */\n      tag_193\n        /* \"#utility.yul\":9152:9159   */\n      dup6\n        /* \"#utility.yul\":9143:9149   */\n      dup3\n        /* \"#utility.yul\":9132:9141   */\n      dup7\n        /* \"#utility.yul\":9128:9150   */\n      add\n        /* \"#utility.yul\":9107:9160   */\n      tag_72\n      jump\t// in\n    tag_193:\n        /* \"#utility.yul\":9097:9160   */\n      swap2\n      pop\n        /* \"#utility.yul\":9052:9170   */\n      pop\n        /* \"#utility.yul\":8703:9177   */\n      swap3\n      pop\n      swap3\n      swap1\n      pop\n      jump\t// out\n        /* \"#utility.yul\":9183:9363   */\n    tag_83:\n        /* \"#utility.yul\":9231:9308   */\n      0x4e487b7100000000000000000000000000000000000000000000000000000000\n        /* \"#utility.yul\":9228:9229   */\n      0x00\n        /* \"#utility.yul\":9221:9309   */\n      mstore\n        /* \"#utility.yul\":9328:9332   */\n      0x22\n        /* \"#utility.yul\":9325:9326   */\n      0x04\n        /* \"#utility.yul\":9318:9333   */\n      mstore\n        /* \"#utility.yul\":9352:9356   */\n      0x24\n        /* \"#utility.yul\":9349:9350   */\n      0x00\n        /* \"#utility.yul\":9342:9357   */\n      revert\n        /* \"#utility.yul\":9369:9689   */\n    tag_24:\n        /* \"#utility.yul\":9413:9419   */\n      0x00\n        /* \"#utility.yul\":9450:9451   */\n      0x02\n        /* \"#utility.yul\":9444:9448   */\n      dup3\n        /* \"#utility.yul\":9440:9452   */\n      div\n        /* \"#utility.yul\":9430:9452   */\n      swap1\n      pop\n        /* \"#utility.yul\":9497:9498   */\n      0x01\n        /* \"#utility.yul\":9491:9495   */\n      dup3\n        /* \"#utility.yul\":9487:9499   */\n      and\n        /* \"#utility.yul\":9518:9536   */\n      dup1\n        /* \"#utility.yul\":9508:9589   */\n      tag_196\n      jumpi\n        /* \"#utility.yul\":9574:9578   */\n      0x7f\n        /* \"#utility.yul\":9566:9572   */\n      dup3\n        /* \"#utility.yul\":9562:9579   */\n      and\n        /* \"#utility.yul\":9552:9579   */\n      swap2\n      pop\n        /* \"#utility.yul\":9508:9589   */\n    tag_196:\n        /* \"#utility.yul\":9636:9638   */\n      0x20\n        /* \"#utility.yul\":9628:9634   */\n      dup3\n        /* \"#utility.yul\":9625:9639   */\n      lt\n        /* \"#utility.yul\":9605:9623   */\n      dup2\n        /* \"#utility.yul\":9602:9640   */\n      sub\n        /* \"#utility.yul\":9599:9683   */\n      tag_197\n      jumpi\n        /* \"#utility.yul\":9655:9673   */\n      tag_198\n      tag_83\n      jump\t// in\n    tag_198:\n        /* \"#utility.yul\":9599:9683   */\n    tag_197:\n        /* \"#utility.yul\":9420:9689   */\n      pop\n        /* \"#utility.yul\":9369:9689   */\n      swap2\n      swap1\n      pop\n      jump\t// out\n        /* \"#utility.yul\":9695:9836   */\n    tag_84:\n        /* \"#utility.yul\":9744:9748   */\n      0x00\n        /* \"#utility.yul\":9767:9770   */\n      dup2\n        /* \"#utility.yul\":9759:9770   */\n      swap1\n      pop\n        /* \"#utility.yul\":9790:9793   */\n      dup2\n        /* \"#utility.yul\":9787:9788   */\n      0x00\n        /* \"#utility.yul\":9780:9794   */\n      mstore\n        /* \"#utility.yul\":9824:9828   */\n      0x20\n        /* \"#utility.yul\":9821:9822   */\n      0x00\n        /* \"#utility.yul\":9811:9829   */\n      keccak256\n        /* \"#utility.yul\":9803:9829   */\n      swap1\n      pop\n        /* \"#utility.yul\":9695:9836   */\n      swap2\n      swap1\n      pop\n      jump\t// out\n        /* \"#utility.yul\":9842:9935   */\n    tag_85:\n        /* \"#utility.yul\":9879:9885   */\n      0x00\n        /* \"#utility.yul\":9926:9928   */\n      0x20\n        /* \"#utility.yul\":9921:9923   */\n      0x1f\n        /* \"#utility.yul\":9914:9919   */\n      dup4\n        /* \"#utility.yul\":9910:9924   */\n      add\n        /* \"#utility.yul\":9906:9929   */\n      div\n        /* \"#utility.yul\":9896:9929   */\n      swap1\n      pop\n        /* \"#utility.yul\":9842:9935   */\n      swap2\n      swap1\n      pop\n      jump\t// out\n        /* \"#utility.yul\":9941:10048   */\n    tag_86:\n        /* \"#utility.yul\":9985:9993   */\n      0x00\n        /* \"#utility.yul\":10035:10040   */\n      dup3\n        /* \"#utility.yul\":10029:10033   */\n      dup3\n        /* \"#utility.yul\":10025:10041   */\n      shl\n        /* \"#utility.yul\":10004:10041   */\n      swap1\n      pop\n        /* \"#utility.yul\":9941:10048   */\n      swap3\n      swap2\n      pop\n      pop\n      jump\t// out\n        /* \"#utility.yul\":10054:10447   */\n    tag_87:\n        /* \"#utility.yul\":10123:10129   */\n      0x00\n        /* \"#utility.yul\":10173:10174   */\n      0x08\n        /* \"#utility.yul\":10161:10171   */\n      dup4\n        /* \"#utility.yul\":10157:10175   */\n      mul\n        /* \"#utility.yul\":10196:10293   */\n      tag_203\n        /* \"#utility.yul\":10226:10292   */\n      0xffffffffffffffffffffffffffffffffffffffffffffffffffffffffffffffff\n        /* \"#utility.yul\":10215:10224   */\n      dup3\n        /* \"#utility.yul\":10196:10293   */\n      tag_86\n      jump\t// in\n    tag_203:\n        /* \"#utility.yul\":10314:10353   */\n      tag_204\n        /* \"#utility.yul\":10344:10352   */\n      dup7\n        /* \"#utility.yul\":10333:10342   */\n      dup4\n        /* \"#utility.yul\":10314:10353   */\n      tag_86\n      jump\t// in\n    tag_204:\n        /* \"#utility.yul\":10302:10353   */\n      swap6\n      pop\n        /* \"#utility.yul\":10386:10390   */\n      dup1\n        /* \"#utility.yul\":10382:10391   */\n      not\n        /* \"#utility.yul\":10375:10380   */\n      dup5\n        /* \"#utility.yul\":10371:10392   */\n      and\n        /* \"#utility.yul\":10362:10392   */\n      swap4\n      pop\n        /* \"#utility.yul\":10435:10439   */\n      dup1\n        /* \"#utility.yul\":10425:10433   */\n      dup7\n        /* \"#utility.yul\":10421:10440   */\n      and\n        /* \"#utility.yul\":10414:10419   */\n      dup5\n        /* \"#utility.yul\":10411:10441   */\n      or\n        /* \"#utility.yul\":10401:10441   */\n      swap3\n      pop\n        /* \"#utility.yul\":10130:10447   */\n      pop\n      pop\n        /* \"#utility.yul\":10054:10447   */\n      swap4\n      swap3\n      pop\n      pop\n      pop\n      jump\t// out\n        /* \"#utility.yul\":10453:10513   */\n    tag_88:\n        /* \"#utility.yul\":10481:10484   */\n      0x00\n        /* \"#utility.yul\":10502:10507   */\n      dup2\n        /* \"#utility.yul\":10495:10507   */\n      swap1\n      pop\n        /* \"#utility.yul\":10453:10513   */\n      swap2\n      swap1\n      pop\n      jump\t// out\n        /* \"#utility.yul\":10519:10661   */\n    tag_89:\n        /* \"#utility.yul\":10569:10578   */\n      0x00\n        /* \"#utility.yul\":10602:10655   */\n      tag_207\n        /* \"#utility.yul\":10620:10654   */\n      tag_208\n        /* \"#utility.yul\":10629:10653   */\n      tag_209\n        /* \"#utility.yul\":10647:10652   */\n      dup5\n        /* \"#utility.yul\":10629:10653   */\n      tag_57\n      jump\t// in\n    tag_209:\n        /* \"#utility.yul\":10620:10654   */\n      tag_88\n      jump\t// in\n    tag_208:\n        /* \"#utility.yul\":10602:10655   */\n      tag_57\n      jump\t// in\n    tag_207:\n        /* \"#utility.yul\":10589:10655   */\n      swap1\n      pop\n        /* \"#utility.yul\":10519:10661   */\n      swap2\n      swap1\n      pop\n      jump\t// out\n        /* \"#utility.yul\":10667:10742   */\n    tag_90:\n        /* \"#utility.yul\":10710:10713   */\n      0x00\n        /* \"#utility.yul\":10731:10736   */\n      dup2\n        /* \"#utility.yul\":10724:10736   */\n      swap1\n      pop\n        /* \"#utility.yul\":10667:10742   */\n      swap2\n      swap1\n      pop\n      jump\t// out\n        /* \"#utility.yul\":10748:11017   */\n    tag_91:\n        /* \"#utility.yul\":10858:10897   */\n      tag_212\n        /* \"#utility.yul\":10889:10896   */\n      dup4\n        /* \"#utility.yul\":10858:10897   */\n      tag_89\n      jump\t// in\n    tag_212:\n        /* \"#utility.yul\":10919:11010   */\n      tag_213\n        /* \"#utility.yul\":10968:11009   */\n      tag_214\n        /* \"#utility.yul\":10992:11008   */\n      dup3\n        /* \"#utility.yul\":10968:11009   */\n      tag_90\n      jump\t// in\n    tag_214:\n        /* \"#utility.yul\":10960:10966   */\n      dup5\n        /* \"#utility.yul\":10953:10957   */\n      dup5\n        /* \"#utility.yul\":10947:10958   */\n      sload\n        /* \"#utility.yul\":10919:11010   */\n      tag_87\n      jump\t// in\n    tag_213:\n        /* \"#utility.yul\":10913:10917   */\n      dup3\n        /* \"#utility.yul\":10906:11011   */\n      sstore\n        /* \"#utility.yul\":10824:11017   */\n      pop\n        /* \"#utility.yul\":10748:11017   */\n      pop\n      pop\n      pop\n      jump\t// out\n        /* \"#utility.yul\":11023:11096   */\n    tag_92:\n        /* \"#utility.yul\":11068:11071   */\n      0x00\n        /* \"#utility.yul\":11023:11096   */\n      swap1\n      jump\t// out\n        /* \"#utility.yul\":11102:11291   */\n    tag_93:\n        /* \"#utility.yul\":11179:11211   */\n      tag_217\n      tag_92\n      jump\t// in\n    tag_217:\n        /* \"#utility.yul\":11220:11285   */\n      tag_218\n        /* \"#utility.yul\":11278:11284   */\n      dup2\n        /* \"#utility.yul\":11270:11276   */\n      dup5\n        /* \"#utility.yul\":11264:11268   */\n      dup5\n        /* \"#utility.yul\":11220:11285   */\n      tag_91\n      jump\t// in\n    tag_218:\n        /* \"#utility.yul\":11155:11291   */\n      pop\n        /* \"#utility.yul\":11102:11291   */\n      pop\n      pop\n      jump\t// out\n        /* \"#utility.yul\":11297:11483   */\n    tag_94:\n        /* \"#utility.yul\":11357:11477   */\n    tag_220:\n        /* \"#utility.yul\":11374:11377   */\n      dup2\n        /* \"#utility.yul\":11367:11372   */\n      dup2\n        /* \"#utility.yul\":11364:11378   */\n      lt\n        /* \"#utility.yul\":11357:11477   */\n      iszero\n      tag_222\n      jumpi\n        /* \"#utility.yul\":11428:11467   */\n      tag_223\n        /* \"#utility.yul\":11465:11466   */\n      0x00\n        /* \"#utility.yul\":11458:11463   */\n      dup3\n        /* \"#utility.yul\":11428:11467   */\n      tag_93\n      jump\t// in\n    tag_223:\n        /* \"#utility.yul\":11401:11402   */\n      0x01\n        /* \"#utility.yul\":11394:11399   */\n      dup2\n        /* \"#utility.yul\":11390:11403   */\n      add\n        /* \"#utility.yul\":11381:11403   */\n      swap1\n      pop\n        /* \"#utility.yul\":11357:11477   */\n      jump(tag_220)\n    tag_222:\n        /* \"#utility.yul\":11297:11483   */\n      pop\n      pop\n      jump\t// out\n        /* \"#utility.yul\":11489:12032   */\n    tag_95:\n        /* \"#utility.yul\":11590:11592   */\n      0x1f\n        /* \"#utility.yul\":11585:11588   */\n      dup3\n        /* \"#utility.yul\":11582:11593   */\n      gt\n        /* \"#utility.yul\":11579:12025   */\n      iszero\n      tag_225\n      jumpi\n        /* \"#utility.yul\":11624:11662   */\n      tag_226\n        /* \"#utility.yul\":11656:11661   */\n      dup2\n        /* \"#utility.yul\":11624:11662   */\n      tag_84\n      jump\t// in\n    tag_226:\n        /* \"#utility.yul\":11708:11737   */\n      tag_227\n        /* \"#utility.yul\":11726:11736   */\n      dup5\n        /* \"#utility.yul\":11708:11737   */\n      tag_85\n      jump\t// in\n    tag_227:\n        /* \"#utility.yul\":11698:11706   */\n      dup2\n        /* \"#utility.yul\":11694:11738   */\n      add\n        /* \"#utility.yul\":11891:11893   */\n      0x20\n        /* \"#utility.yul\":11879:11889   */\n      dup6\n        /* \"#utility.yul\":11876:11894   */\n      lt\n        /* \"#utility.yul\":11873:11922   */\n      iszero\n      tag_228\n      jumpi\n        /* \"#utility.yul\":11912:11920   */\n      dup2\n        /* \"#utility.yul\":11897:11920   */\n      swap1\n      pop\n        /* \"#utility.yul\":11873:11922   */\n    tag_228:\n        /* \"#utility.yul\":11935:12015   */\n      tag_229\n        /* \"#utility.yul\":11991:12013   */\n      tag_230\n        /* \"#utility.yul\":12009:12012   */\n      dup6\n        /* \"#utility.yul\":11991:12013   */\n      tag_85\n      jump\t// in\n    tag_230:\n        /* \"#utility.yul\":11981:11989   */\n      dup4\n        /* \"#utility.yul\":11977:12014   */\n      add\n        /* \"#utility.yul\":11964:11975   */\n      dup3\n        /* \"#utility.yul\":11935:12015   */\n      tag_94\n      jump\t// in\n    tag_229:\n        /* \"#utility.yul\":11594:12025   */\n      pop\n      pop\n        /* \"#utility.yul\":11579:12025   */\n    tag_225:\n        /* \"#utility.yul\":11489:12032   */\n      pop\n      pop\n      pop\n      jump\t// out\n        /* \"#utility.yul\":12038:12155   */\n    tag_96:\n        /* \"#utility.yul\":12092:12100   */\n      0x00\n        /* \"#utility.yul\":12142:12147   */\n      dup3\n        /* \"#utility.yul\":12136:12140   */\n      dup3\n        /* \"#utility.yul\":12132:12148   */\n      shr\n        /* \"#utility.yul\":12111:12148   */\n      swap1\n      pop\n        /* \"#utility.yul\":12038:12155   */\n      swap3\n      swap2\n      pop\n      pop\n      jump\t// out\n        /* \"#utility.yul\":12161:12330   */\n    tag_97:\n        /* \"#utility.yul\":12205:12211   */\n      0x00\n        /* \"#utility.yul\":12238:12289   */\n      tag_233\n        /* \"#utility.yul\":12286:12287   */\n      0x00\n        /* \"#utility.yul\":12282:12288   */\n      not\n        /* \"#utility.yul\":12274:12279   */\n      dup5\n        /* \"#utility.yul\":12271:12272   */\n      0x08\n        /* \"#utility.yul\":12267:12280   */\n      mul\n        /* \"#utility.yul\":12238:12289   */\n      tag_96\n      jump\t// in\n    tag_233:\n        /* \"#utility.yul\":12234:12290   */\n      not\n        /* \"#utility.yul\":12319:12323   */\n      dup1\n        /* \"#utility.yul\":12313:12317   */\n      dup4\n        /* \"#utility.yul\":12309:12324   */\n      and\n        /* \"#utility.yul\":12299:12324   */\n      swap2\n      pop\n        /* \"#utility.yul\":12212:12330   */\n      pop\n        /* \"#utility.yul\":12161:12330   */\n      swap3\n      swap2\n      pop\n      pop\n      jump\t// out\n        /* \"#utility.yul\":12335:12630   */\n    tag_98:\n        /* \"#utility.yul\":12411:12415   */\n      0x00\n        /* \"#utility.yul\":12557:12586   */\n      tag_235\n        /* \"#utility.yul\":12582:12585   */\n      dup4\n        /* \"#utility.yul\":12576:12580   */\n      dup4\n        /* \"#utility.yul\":12557:12586   */\n      tag_97\n      jump\t// in\n    tag_235:\n        /* \"#utility.yul\":12549:12586   */\n      swap2\n      pop\n        /* \"#utility.yul\":12619:12622   */\n      dup3\n        /* \"#utility.yul\":12616:12617   */\n      0x02\n        /* \"#utility.yul\":12612:12623   */\n      mul\n        /* \"#utility.yul\":12606:12610   */\n      dup3\n        /* \"#utility.yul\":12603:12624   */\n      or\n        /* \"#utility.yul\":12595:12624   */\n      swap1\n      pop\n        /* \"#utility.yul\":12335:12630   */\n      swap3\n      swap2\n      pop\n      pop\n      jump\t// out\n        /* \"#utility.yul\":12635:14030   */\n    tag_31:\n        /* \"#utility.yul\":12752:12789   */\n      tag_237\n        /* \"#utility.yul\":12785:12788   */\n      dup3\n        /* \"#utility.yul\":12752:12789   */\n      tag_52\n      jump\t// in\n    tag_237:\n        /* \"#utility.yul\":12854:12872   */\n      0xffffffffffffffff\n        /* \"#utility.yul\":12846:12852   */\n      dup2\n        /* \"#utility.yul\":12843:12873   */\n      gt\n        /* \"#utility.yul\":12840:12896   */\n      iszero\n      tag_238\n      jumpi\n        /* \"#utility.yul\":12876:12894   */\n      tag_239\n      tag_64\n      jump\t// in\n    tag_239:\n        /* \"#utility.yul\":12840:12896   */\n    tag_238:\n        /* \"#utility.yul\":12920:12958   */\n      tag_240\n        /* \"#utility.yul\":12952:12956   */\n      dup3\n        /* \"#utility.yul\":12946:12957   */\n      sload\n        /* \"#utility.yul\":12920:12958   */\n      tag_24\n      jump\t// in\n    tag_240:\n        /* \"#utility.yul\":13005:13072   */\n      tag_241\n        /* \"#utility.yul\":13065:13071   */\n      dup3\n        /* \"#utility.yul\":13057:13063   */\n      dup3\n        /* \"#utility.yul\":13051:13055   */\n      dup6\n        /* \"#utility.yul\":13005:13072   */\n      tag_95\n      jump\t// in\n    tag_241:\n        /* \"#utility.yul\":13099:13100   */\n      0x00\n        /* \"#utility.yul\":13123:13127   */\n      0x20\n        /* \"#utility.yul\":13110:13127   */\n      swap1\n      pop\n        /* \"#utility.yul\":13155:13157   */\n      0x1f\n        /* \"#utility.yul\":13147:13153   */\n      dup4\n        /* \"#utility.yul\":13144:13158   */\n      gt\n        /* \"#utility.yul\":13172:13173   */\n      0x01\n        /* \"#utility.yul\":13167:13785   */\n      dup2\n      eq\n      tag_243\n      jumpi\n        /* \"#utility.yul\":13829:13830   */\n      0x00\n        /* \"#utility.yul\":13846:13852   */\n      dup5\n        /* \"#utility.yul\":13843:13920   */\n      iszero\n      tag_244\n      jumpi\n        /* \"#utility.yul\":13895:13904   */\n      dup3\n        /* \"#utility.yul\":13890:13893   */\n      dup8\n        /* \"#utility.yul\":13886:13905   */\n      add\n        /* \"#utility.yul\":13880:13906   */\n      mload\n        /* \"#utility.yul\":13871:13906   */\n      swap1\n      pop\n        /* \"#utility.yul\":13843:13920   */\n    tag_244:\n        /* \"#utility.yul\":13946:14013   */\n      tag_245\n        /* \"#utility.yul\":14006:14012   */\n      dup6\n        /* \"#utility.yul\":13999:14004   */\n      dup3\n        /* \"#utility.yul\":13946:14013   */\n      tag_98\n      jump\t// in\n    tag_245:\n        /* \"#utility.yul\":13940:13944   */\n      dup7\n        /* \"#utility.yul\":13933:14014   */\n      sstore\n        /* \"#utility.yul\":13802:14024   */\n      pop\n        /* \"#utility.yul\":13137:14024   */\n      jump(tag_242)\n        /* \"#utility.yul\":13167:13785   */\n    tag_243:\n        /* \"#utility.yul\":13219:13223   */\n      0x1f\n        /* \"#utility.yul\":13215:13224   */\n      not\n        /* \"#utility.yul\":13207:13213   */\n      dup5\n        /* \"#utility.yul\":13203:13225   */\n      and\n        /* \"#utility.yul\":13253:13290   */\n      tag_246\n        /* \"#utility.yul\":13285:13289   */\n      dup7\n        /* \"#utility.yul\":13253:13290   */\n      tag_84\n      jump\t// in\n    tag_246:\n        /* \"#utility.yul\":13312:13313   */\n      0x00\n        /* \"#utility.yul\":13326:13534   */\n    tag_247:\n        /* \"#utility.yul\":13340:13347   */\n      dup3\n        /* \"#utility.yul\":13337:13338   */\n      dup2\n        /* \"#utility.yul\":13334:13348   */\n      lt\n        /* \"#utility.yul\":13326:13534   */\n      iszero\n      tag_249\n      jumpi\n        /* \"#utility.yul\":13419:13428   */\n      dup5\n        /* \"#utility.yul\":13414:13417   */\n      dup10\n        /* \"#utility.yul\":13410:13429   */\n      add\n        /* \"#utility.yul\":13404:13430   */\n      mload\n        /* \"#utility.yul\":13396:13402   */\n      dup3\n        /* \"#utility.yul\":13389:13431   */\n      sstore\n        /* \"#utility.yul\":13470:13471   */\n      0x01\n        /* \"#utility.yul\":13462:13468   */\n      dup3\n        /* \"#utility.yul\":13458:13472   */\n      add\n        /* \"#utility.yul\":13448:13472   */\n      swap2\n      pop\n        /* \"#utility.yul\":13517:13519   */\n      0x20\n        /* \"#utility.yul\":13506:13515   */\n      dup6\n        /* \"#utility.yul\":13502:13520   */\n      add\n        /* \"#utility.yul\":13489:13520   */\n      swap5\n      pop\n        /* \"#utility.yul\":13363:13367   */\n      0x20\n        /* \"#utility.yul\":13360:13361   */\n      dup2\n        /* \"#utility.yul\":13356:13368   */\n      add\n        /* \"#utility.yul\":13351:13368   */\n      swap1\n      pop\n        /* \"#utility.yul\":13326:13534   */\n      jump(tag_247)\n    tag_249:\n        /* \"#utility.yul\":13562:13568   */\n      dup7\n        /* \"#utility.yul\":13553:13560   */\n      dup4\n        /* \"#utility.yul\":13550:13569   */\n      lt\n        /* \"#utility.yul\":13547:13726   */\n      iszero\n      tag_250\n      jumpi\n        /* \"#utility.yul\":13620:13629   */\n      dup5\n        /* \"#utility.yul\":13615:13618   */\n      dup10\n        /* \"#utility.yul\":13611:13630   */\n      add\n        /* \"#utility.yul\":13605:13631   */\n      mload\n        /* \"#utility.yul\":13663:13711   */\n      tag_251\n        /* \"#utility.yul\":13705:13709   */\n      0x1f\n        /* \"#utility.yul\":13697:13703   */\n      dup10\n        /* \"#utility.yul\":13693:13710   */\n      and\n        /* \"#utility.yul\":13682:13691   */\n      dup3\n        /* \"#utility.yul\":13663:13711   */\n      tag_97\n      jump\t// in\n    tag_251:\n        /* \"#utility.yul\":13655:13661   */\n      dup4\n        /* \"#utility.yul\":13648:13712   */\n      sstore\n        /* \"#utility.yul\":13570:13726   */\n      pop\n        /* \"#utility.yul\":13547:13726   */\n    tag_250:\n        /* \"#utility.yul\":13772:13773   */\n      0x01\n        /* \"#utility.yul\":13768:13769   */\n      0x02\n        /* \"#utility.yul\":13760:13766   */\n      dup9\n        /* \"#utility.yul\":13756:13770   */\n      mul\n        /* \"#utility.yul\":13752:13774   */\n      add\n        /* \"#utility.yul\":13746:13750   */\n      dup9\n        /* \"#utility.yul\":13739:13775   */\n      sstore\n        /* \"#utility.yul\":13174:13785   */\n      pop\n      pop\n      pop\n        /* \"#utility.yul\":13137:14024   */\n    tag_242:\n      pop\n        /* \"#utility.yul\":12727:14030   */\n      pop\n      pop\n      pop\n        /* \"#utility.yul\":12635:14030   */\n      pop\n      pop\n      jump\t// out\n        /* \"#utility.yul\":14036:14216   */\n    tag_34:\n        /* \"#utility.yul\":14084:14161   */\n      0x4e487b7100000000000000000000000000000000000000000000000000000000\n        /* \"#utility.yul\":14081:14082   */\n      0x00\n        /* \"#utility.yul\":14074:14162   */\n      mstore\n        /* \"#utility.yul\":14181:14185   */\n      0x32\n        /* \"#utility.yul\":14178:14179   */\n      0x04\n        /* \"#utility.yul\":14171:14186   */\n      mstore\n        /* \"#utility.yul\":14205:14209   */\n      0x24\n        /* \"#utility.yul\":14202:14203   */\n      0x00\n        /* \"#utility.yul\":14195:14210   */\n      revert\n\n    auxdata: 0xa2646970667358221220e8b5275d45d6fa1d4d38a0821032625d51f2dd8f38cd79f377963fbb9804346a64736f6c63430008120033\n}\n",
				"bytecode": {
					"linkReferences": {},
					"object": "608060405234801561001057600080fd5b50610abf806100206000396000f3fe608060405234801561001057600080fd5b506004361061004c5760003560e01c8063119552a114610051578063582ae2ba1461007057806385b1423e1461008c5780638a66c29a146100aa575b600080fd5b6100596100c6565b6040516100679291906103ad565b60405180910390f35b61008a60048036038101906100859190610552565b610160565b005b61009461019f565b6040516100a1919061071a565b60405180910390f35b6100c460048036038101906100bf919061073c565b61029a565b005b60008060000180546100d7906107ab565b80601f0160208091040260200160405190810160405280929190818152602001828054610103906107ab565b80156101505780601f1061012557610100808354040283529160200191610150565b820191906000526020600020905b81548152906001019060200180831161013357829003601f168201915b5050505050908060010154905082565b836000800190816101719190610988565b5082600060010181905550806000600201836005811061019457610193610a5a565b5b018190555050505050565b6101a76102bb565b60006040518060600160405290816000820180546101c4906107ab565b80601f01602080910402602001604051908101604052809291908181526020018280546101f0906107ab565b801561023d5780601f106102125761010080835404028352916020019161023d565b820191906000526020600020905b81548152906001019060200180831161022057829003601f168201915b50505050508152602001600182015481526020016002820160058060200260405190810160405280929190826005801561028c576020028201915b815481526020019060010190808311610278575b505050505081525050905090565b80600060020183600581106102b2576102b1610a5a565b5b01819055505050565b604051806060016040528060608152602001600081526020016102dc6102e2565b81525090565b6040518060a00160405280600590602082028036833780820191505090505090565b600081519050919050565b600082825260208201905092915050565b60005b8381101561033e578082015181840152602081019050610323565b60008484015250505050565b6000601f19601f8301169050919050565b600061036682610304565b610370818561030f565b9350610380818560208601610320565b6103898161034a565b840191505092915050565b6000819050919050565b6103a781610394565b82525050565b600060408201905081810360008301526103c7818561035b565b90506103d6602083018461039e565b9392505050565b6000604051905090565b600080fd5b600080fd5b600080fd5b600080fd5b7f4e487b7100000000000000000000000000000000000000000000000000000000600052604160045260246000fd5b6104338261034a565b810181811067ffffffffffffffff82111715610452576104516103fb565b5b80604052505050565b60006104656103dd565b9050610471828261042a565b919050565b600067ffffffffffffffff821115610491576104906103fb565b5b61049a8261034a565b9050602081019050919050565b82818337600083830152505050565b60006104c96104c484610476565b61045b565b9050828152602081018484840111156104e5576104e46103f6565b5b6104f08482856104a7565b509392505050565b600082601f83011261050d5761050c6103f1565b5b813561051d8482602086016104b6565b91505092915050565b61052f81610394565b811461053a57600080fd5b50565b60008135905061054c81610526565b92915050565b6000806000806080858703121561056c5761056b6103e7565b5b600085013567ffffffffffffffff81111561058a576105896103ec565b5b610596878288016104f8565b94505060206105a78782880161053d565b93505060406105b88782880161053d565b92505060606105c98782880161053d565b91505092959194509250565b600082825260208201905092915050565b60006105f182610304565b6105fb81856105d5565b935061060b818560208601610320565b6106148161034a565b840191505092915050565b61062881610394565b82525050565b600060059050919050565b600081905092915050565b6000819050919050565b600061065a838361061f565b60208301905092915050565b6000602082019050919050565b61067c8161062e565b6106868184610639565b925061069182610644565b8060005b838110156106c25781516106a9878261064e565b96506106b483610666565b925050600181019050610695565b505050505050565b600060e08301600083015184820360008601526106e782826105e6565b91505060208301516106fc602086018261061f565b50604083015161070f6040860182610673565b508091505092915050565b6000602082019050818103600083015261073481846106ca565b905092915050565b60008060408385031215610753576107526103e7565b5b60006107618582860161053d565b92505060206107728582860161053d565b9150509250929050565b7f4e487b7100000000000000000000000000000000000000000000000000000000600052602260045260246000fd5b600060028204905060018216806107c357607f821691505b6020821081036107d6576107d561077c565b5b50919050565b60008190508160005260206000209050919050565b60006020601f8301049050919050565b600082821b905092915050565b60006008830261083e7fffffffffffffffffffffffffffffffffffffffffffffffffffffffffffffffff82610801565b6108488683610801565b95508019841693508086168417925050509392505050565b6000819050919050565b600061088561088061087b84610394565b610860565b610394565b9050919050565b6000819050919050565b61089f8361086a565b6108b36108ab8261088c565b84845461080e565b825550505050565b600090565b6108c86108bb565b6108d3818484610896565b505050565b5b818110156108f7576108ec6000826108c0565b6001810190506108d9565b5050565b601f82111561093c5761090d816107dc565b610916846107f1565b81016020851015610925578190505b610939610931856107f1565b8301826108d8565b50505b505050565b600082821c905092915050565b600061095f60001984600802610941565b1980831691505092915050565b6000610978838361094e565b9150826002028217905092915050565b61099182610304565b67ffffffffffffffff8111156109aa576109a96103fb565b5b6109b482546107ab565b6109bf8282856108fb565b600060209050601f8311600181146109f257600084156109e0578287015190505b6109ea858261096c565b865550610a52565b601f198416610a00866107dc565b60005b82811015610a2857848901518255600182019150602085019450602081019050610a03565b86831015610a455784890151610a41601f89168261094e565b8355505b6001600288020188555050505b505050505050565b7f4e487b7100000000000000000000000000000000000000000000000000000000600052603260045260246000fdfea2646970667358221220e8b5275d45d6fa1d4d38a0821032625d51f2dd8f38cd79f377963fbb9804346a64736f6c63430008120033",
					"opcodes": "PUSH1 0x80 PUSH1 0x40 MSTORE CALLVALUE DUP1 ISZERO PUSH2 0x10 JUMPI PUSH1 0x0 DUP1 REVERT JUMPDEST POP PUSH2 0xABF DUP1 PUSH2 0x20 PUSH1 0x0 CODECOPY PUSH1 0x0 RETURN INVALID PUSH1 0x80 PUSH1 0x40 MSTORE CALLVALUE DUP1 ISZERO PUSH2 0x10 JUMPI PUSH1 0x0 DUP1 REVERT JUMPDEST POP PUSH1 0x4 CALLDATASIZE LT PUSH2 0x4C JUMPI PUSH1 0x0 CALLDATALOAD PUSH1 0xE0 SHR DUP1 PUSH4 0x119552A1 EQ PUSH2 0x51 JUMPI DUP1 PUSH4 0x582AE2BA EQ PUSH2 0x70 JUMPI DUP1 PUSH4 0x85B1423E EQ PUSH2 0x8C JUMPI DUP1 PUSH4 0x8A66C29A EQ PUSH2 0xAA JUMPI JUMPDEST PUSH1 0x0 DUP1 REVERT JUMPDEST PUSH2 0x59 PUSH2 0xC6 JUMP JUMPDEST PUSH1 0x40 MLOAD PUSH2 0x67 SWAP3 SWAP2 SWAP1 PUSH2 0x3AD JUMP JUMPDEST PUSH1 0x40 MLOAD DUP1 SWAP2 SUB SWAP1 RETURN JUMPDEST PUSH2 0x8A PUSH1 0x4 DUP1 CALLDATASIZE SUB DUP2 ADD SWAP1 PUSH2 0x85 SWAP2 SWAP1 PUSH2 0x552 JUMP JUMPDEST PUSH2 0x160 JUMP JUMPDEST STOP JUMPDEST PUSH2 0x94 PUSH2 0x19F JUMP JUMPDEST PUSH1 0x40 MLOAD PUSH2 0xA1 SWAP2 SWAP1 PUSH2 0x71A JUMP JUMPDEST PUSH1 0x40 MLOAD DUP1 SWAP2 SUB SWAP1 RETURN JUMPDEST PUSH2 0xC4 PUSH1 0x4 DUP1 CALLDATASIZE SUB DUP2 ADD SWAP1 PUSH2 0xBF SWAP2 SWAP1 PUSH2 0x73C JUMP JUMPDEST PUSH2 0x29A JUMP JUMPDEST STOP JUMPDEST PUSH1 0x0 DUP1 PUSH1 0x0 ADD DUP1 SLOAD PUSH2 0xD7 SWAP1 PUSH2 0x7AB JUMP JUMPDEST DUP1 PUSH1 0x1F ADD PUSH1 0x20 DUP1 SWAP2 DIV MUL PUSH1 0x20 ADD PUSH1 0x40 MLOAD SWAP1 DUP2 ADD PUSH1 0x40 MSTORE DUP1 SWAP3 SWAP2 SWAP1 DUP2 DUP2 MSTORE PUSH1 0x20 ADD DUP3 DUP1 SLOAD PUSH2 0x103 SWAP1 PUSH2 0x7AB JUMP JUMPDEST DUP1 ISZERO PUSH2 0x150 JUMPI DUP1 PUSH1 0x1F LT PUSH2 0x125 JUMPI PUSH2 0x100 DUP1 DUP4 SLOAD DIV MUL DUP4 MSTORE SWAP2 PUSH1 0x20 ADD SWAP2 PUSH2 0x150 JUMP JUMPDEST DUP3 ADD SWAP2 SWAP1 PUSH1 0x0 MSTORE PUSH1 0x20 PUSH1 0x0 KECCAK256 SWAP1 JUMPDEST DUP2 SLOAD DUP2 MSTORE SWAP1 PUSH1 0x1 ADD SWAP1 PUSH1 0x20 ADD DUP1 DUP4 GT PUSH2 0x133 JUMPI DUP3 SWAP1 SUB PUSH1 0x1F AND DUP3 ADD SWAP2 JUMPDEST POP POP POP POP POP SWAP1 DUP1 PUSH1 0x1 ADD SLOAD SWAP1 POP DUP3 JUMP JUMPDEST DUP4 PUSH1 0x0 DUP1 ADD SWAP1 DUP2 PUSH2 0x171 SWAP2 SWAP1 PUSH2 0x988 JUMP JUMPDEST POP DUP3 PUSH1 0x0 PUSH1 0x1 ADD DUP2 SWAP1 SSTORE POP DUP1 PUSH1 0x0 PUSH1 0x2 ADD DUP4 PUSH1 0x5 DUP2 LT PUSH2 0x194 JUMPI PUSH2 0x193 PUSH2 0xA5A JUMP JUMPDEST JUMPDEST ADD DUP2 SWAP1 SSTORE POP POP POP POP POP JUMP JUMPDEST PUSH2 0x1A7 PUSH2 0x2BB JUMP JUMPDEST PUSH1 0x0 PUSH1 0x40 MLOAD DUP1 PUSH1 0x60 ADD PUSH1 0x40 MSTORE SWAP1 DUP2 PUSH1 0x0 DUP3 ADD DUP1 SLOAD PUSH2 0x1C4 SWAP1 PUSH2 0x7AB JUMP JUMPDEST DUP1 PUSH1 0x1F ADD PUSH1 0x20 DUP1 SWAP2 DIV MUL PUSH1 0x20 ADD PUSH1 0x40 MLOAD SWAP1 DUP2 ADD PUSH1 0x40 MSTORE DUP1 SWAP3 SWAP2 SWAP1 DUP2 DUP2 MSTORE PUSH1 0x20 ADD DUP3 DUP1 SLOAD PUSH2 0x1F0 SWAP1 PUSH2 0x7AB JUMP JUMPDEST DUP1 ISZERO PUSH2 0x23D JUMPI DUP1 PUSH1 0x1F LT PUSH2 0x212 JUMPI PUSH2 0x100 DUP1 DUP4 SLOAD DIV MUL DUP4 MSTORE SWAP2 PUSH1 0x20 ADD SWAP2 PUSH2 0x23D JUMP JUMPDEST DUP3 ADD SWAP2 SWAP1 PUSH1 0x0 MSTORE PUSH1 0x20 PUSH1 0x0 KECCAK256 SWAP1 JUMPDEST DUP2 SLOAD DUP2 MSTORE SWAP1 PUSH1 0x1 ADD SWAP1 PUSH1 0x20 ADD DUP1 DUP4 GT PUSH2 0x220 JUMPI DUP3 SWAP1 SUB PUSH1 0x1F AND DUP3 ADD SWAP2 JUMPDEST POP POP POP POP POP DUP2 MSTORE PUSH1 0x20 ADD PUSH1 0x1 DUP3 ADD SLOAD DUP2 MSTORE PUSH1 0x20 ADD PUSH1 0x2 DUP3 ADD PUSH1 0x5 DUP1 PUSH1 0x20 MUL PUSH1 0x40 MLOAD SWAP1 DUP2 ADD PUSH1 0x40 MSTORE DUP1 SWAP3 SWAP2 SWAP1 DUP3 PUSH1 0x5 DUP1 ISZERO PUSH2 0x28C JUMPI PUSH1 0x20 MUL DUP3 ADD SWAP2 JUMPDEST DUP2 SLOAD DUP2 MSTORE PUSH1 0x20 ADD SWAP1 PUSH1 0x1 ADD SWAP1 DUP1 DUP4 GT PUSH2 0x278 JUMPI JUMPDEST POP POP POP POP POP DUP2 MSTORE POP POP SWAP1 POP SWAP1 JUMP JUMPDEST DUP1 PUSH1 0x0 PUSH1 0x2 ADD DUP4 PUSH1 0x5 DUP2 LT PUSH2 0x2B2 JUMPI PUSH2 0x2B1 PUSH2 0xA5A JUMP JUMPDEST JUMPDEST ADD DUP2 SWAP1 SSTORE POP POP POP JUMP JUMPDEST PUSH1 0x40 MLOAD DUP1 PUSH1 0x60 ADD PUSH1 0x40 MSTORE DUP1 PUSH1 0x60 DUP2 MSTORE PUSH1 0x20 ADD PUSH1 0x0 DUP2 MSTORE PUSH1 0x20 ADD PUSH2 0x2DC PUSH2 0x2E2 JUMP JUMPDEST DUP2 MSTORE POP SWAP1 JUMP JUMPDEST PUSH1 0x40 MLOAD DUP1 PUSH1 0xA0 ADD PUSH1 0x40 MSTORE DUP1 PUSH1 0x5 SWAP1 PUSH1 0x20 DUP3 MUL DUP1 CALLDATASIZE DUP4 CALLDATACOPY DUP1 DUP3 ADD SWAP2 POP POP SWAP1 POP POP SWAP1 JUMP JUMPDEST PUSH1 0x0 DUP2 MLOAD SWAP1 POP SWAP2 SWAP1 POP JUMP JUMPDEST PUSH1 0x0 DUP3 DUP3 MSTORE PUSH1 0x20 DUP3 ADD SWAP1 POP SWAP3 SWAP2 POP POP JUMP JUMPDEST PUSH1 0x0 JUMPDEST DUP4 DUP2 LT ISZERO PUSH2 0x33E JUMPI DUP1 DUP3 ADD MLOAD DUP2 DUP5 ADD MSTORE PUSH1 0x20 DUP2 ADD SWAP1 POP PUSH2 0x323 JUMP JUMPDEST PUSH1 0x0 DUP5 DUP5 ADD MSTORE POP POP POP POP JUMP JUMPDEST PUSH1 0x0 PUSH1 0x1F NOT PUSH1 0x1F DUP4 ADD AND SWAP1 POP SWAP2 SWAP1 POP JUMP JUMPDEST PUSH1 0x0 PUSH2 0x366 DUP3 PUSH2 0x304 JUMP JUMPDEST PUSH2 0x370 DUP2 DUP6 PUSH2 0x30F JUMP JUMPDEST SWAP4 POP PUSH2 0x380 DUP2 DUP6 PUSH1 0x20 DUP7 ADD PUSH2 0x320 JUMP JUMPDEST PUSH2 0x389 DUP2 PUSH2 0x34A JUMP JUMPDEST DUP5 ADD SWAP2 POP POP SWAP3 SWAP2 POP POP JUMP JUMPDEST PUSH1 0x0 DUP2 SWAP1 POP SWAP2 SWAP1 POP JUMP JUMPDEST PUSH2 0x3A7 DUP2 PUSH2 0x394 JUMP JUMPDEST DUP3 MSTORE POP POP JUMP JUMPDEST PUSH1 0x0 PUSH1 0x40 DUP3 ADD SWAP1 POP DUP2 DUP2 SUB PUSH1 0x0 DUP4 ADD MSTORE PUSH2 0x3C7 DUP2 DUP6 PUSH2 0x35B JUMP JUMPDEST SWAP1 POP PUSH2 0x3D6 PUSH1 0x20 DUP4 ADD DUP5 PUSH2 0x39E JUMP JUMPDEST SWAP4 SWAP3 POP POP POP JUMP JUMPDEST PUSH1 0x0 PUSH1 0x40 MLOAD SWAP1 POP SWAP1 JUMP JUMPDEST PUSH1 0x0 DUP1 REVERT JUMPDEST PUSH1 0x0 DUP1 REVERT JUMPDEST PUSH1 0x0 DUP1 REVERT JUMPDEST PUSH1 0x0 DUP1 REVERT JUMPDEST PUSH32 0x4E487B7100000000000000000000000000000000000000000000000000000000 PUSH1 0x0 MSTORE PUSH1 0x41 PUSH1 0x4 MSTORE PUSH1 0x24 PUSH1 0x0 REVERT JUMPDEST PUSH2 0x433 DUP3 PUSH2 0x34A JUMP JUMPDEST DUP2 ADD DUP2 DUP2 LT PUSH8 0xFFFFFFFFFFFFFFFF DUP3 GT OR ISZERO PUSH2 0x452 JUMPI PUSH2 0x451 PUSH2 0x3FB JUMP JUMPDEST JUMPDEST DUP1 PUSH1 0x40 MSTORE POP POP POP JUMP JUMPDEST PUSH1 0x0 PUSH2 0x465 PUSH2 0x3DD JUMP JUMPDEST SWAP1 POP PUSH2 0x471 DUP3 DUP3 PUSH2 0x42A JUMP JUMPDEST SWAP2 SWAP1 POP JUMP JUMPDEST PUSH1 0x0 PUSH8 0xFFFFFFFFFFFFFFFF DUP3 GT ISZERO PUSH2 0x491 JUMPI PUSH2 0x490 PUSH2 0x3FB JUMP JUMPDEST JUMPDEST PUSH2 0x49A DUP3 PUSH2 0x34A JUMP JUMPDEST SWAP1 POP PUSH1 0x20 DUP2 ADD SWAP1 POP SWAP2 SWAP1 POP JUMP JUMPDEST DUP3 DUP2 DUP4 CALLDATACOPY PUSH1 0x0 DUP4 DUP4 ADD MSTORE POP POP POP JUMP JUMPDEST PUSH1 0x0 PUSH2 0x4C9 PUSH2 0x4C4 DUP5 PUSH2 0x476 JUMP JUMPDEST PUSH2 0x45B JUMP JUMPDEST SWAP1 POP DUP3 DUP2 MSTORE PUSH1 0x20 DUP2 ADD DUP5 DUP5 DUP5 ADD GT ISZERO PUSH2 0x4E5 JUMPI PUSH2 0x4E4 PUSH2 0x3F6 JUMP JUMPDEST JUMPDEST PUSH2 0x4F0 DUP5 DUP3 DUP6 PUSH2 0x4A7 JUMP JUMPDEST POP SWAP4 SWAP3 POP POP POP JUMP JUMPDEST PUSH1 0x0 DUP3 PUSH1 0x1F DUP4 ADD SLT PUSH2 0x50D JUMPI PUSH2 0x50C PUSH2 0x3F1 JUMP JUMPDEST JUMPDEST DUP2 CALLDATALOAD PUSH2 0x51D DUP5 DUP3 PUSH1 0x20 DUP7 ADD PUSH2 0x4B6 JUMP JUMPDEST SWAP2 POP POP SWAP3 SWAP2 POP POP JUMP JUMPDEST PUSH2 0x52F DUP2 PUSH2 0x394 JUMP JUMPDEST DUP2 EQ PUSH2 0x53A JUMPI PUSH1 0x0 DUP1 REVERT JUMPDEST POP JUMP JUMPDEST PUSH1 0x0 DUP2 CALLDATALOAD SWAP1 POP PUSH2 0x54C DUP2 PUSH2 0x526 JUMP JUMPDEST SWAP3 SWAP2 POP POP JUMP JUMPDEST PUSH1 0x0 DUP1 PUSH1 0x0 DUP1 PUSH1 0x80 DUP6 DUP8 SUB SLT ISZERO PUSH2 0x56C JUMPI PUSH2 0x56B PUSH2 0x3E7 JUMP JUMPDEST JUMPDEST PUSH1 0x0 DUP6 ADD CALLDATALOAD PUSH8 0xFFFFFFFFFFFFFFFF DUP2 GT ISZERO PUSH2 0x58A JUMPI PUSH2 0x589 PUSH2 0x3EC JUMP JUMPDEST JUMPDEST PUSH2 0x596 DUP8 DUP3 DUP9 ADD PUSH2 0x4F8 JUMP JUMPDEST SWAP5 POP POP PUSH1 0x20 PUSH2 0x5A7 DUP8 DUP3 DUP9 ADD PUSH2 0x53D JUMP JUMPDEST SWAP4 POP POP PUSH1 0x40 PUSH2 0x5B8 DUP8 DUP3 DUP9 ADD PUSH2 0x53D JUMP JUMPDEST SWAP3 POP POP PUSH1 0x60 PUSH2 0x5C9 DUP8 DUP3 DUP9 ADD PUSH2 0x53D JUMP JUMPDEST SWAP2 POP POP SWAP3 SWAP6 SWAP2 SWAP5 POP SWAP3 POP JUMP JUMPDEST PUSH1 0x0 DUP3 DUP3 MSTORE PUSH1 0x20 DUP3 ADD SWAP1 POP SWAP3 SWAP2 POP POP JUMP JUMPDEST PUSH1 0x0 PUSH2 0x5F1 DUP3 PUSH2 0x304 JUMP JUMPDEST PUSH2 0x5FB DUP2 DUP6 PUSH2 0x5D5 JUMP JUMPDEST SWAP4 POP PUSH2 0x60B DUP2 DUP6 PUSH1 0x20 DUP7 ADD PUSH2 0x320 JUMP JUMPDEST PUSH2 0x614 DUP2 PUSH2 0x34A JUMP JUMPDEST DUP5 ADD SWAP2 POP POP SWAP3 SWAP2 POP POP JUMP JUMPDEST PUSH2 0x628 DUP2 PUSH2 0x394 JUMP JUMPDEST DUP3 MSTORE POP POP JUMP JUMPDEST PUSH1 0x0 PUSH1 0x5 SWAP1 POP SWAP2 SWAP1 POP JUMP JUMPDEST PUSH1 0x0 DUP2 SWAP1 POP SWAP3 SWAP2 POP POP JUMP JUMPDEST PUSH1 0x0 DUP2 SWAP1 POP SWAP2 SWAP1 POP JUMP JUMPDEST PUSH1 0x0 PUSH2 0x65A DUP4 DUP4 PUSH2 0x61F JUMP JUMPDEST PUSH1 0x20 DUP4 ADD SWAP1 POP SWAP3 SWAP2 POP POP JUMP JUMPDEST PUSH1 0x0 PUSH1 0x20 DUP3 ADD SWAP1 POP SWAP2 SWAP1 POP JUMP JUMPDEST PUSH2 0x67C DUP2 PUSH2 0x62E JUMP JUMPDEST PUSH2 0x686 DUP2 DUP5 PUSH2 0x639 JUMP JUMPDEST SWAP3 POP PUSH2 0x691 DUP3 PUSH2 0x644 JUMP JUMPDEST DUP1 PUSH1 0x0 JUMPDEST DUP4 DUP2 LT ISZERO PUSH2 0x6C2 JUMPI DUP2 MLOAD PUSH2 0x6A9 DUP8 DUP3 PUSH2 0x64E JUMP JUMPDEST SWAP7 POP PUSH2 0x6B4 DUP4 PUSH2 0x666 JUMP JUMPDEST SWAP3 POP POP PUSH1 0x1 DUP2 ADD SWAP1 POP PUSH2 0x695 JUMP JUMPDEST POP POP POP POP POP POP JUMP JUMPDEST PUSH1 0x0 PUSH1 0xE0 DUP4 ADD PUSH1 0x0 DUP4 ADD MLOAD DUP5 DUP3 SUB PUSH1 0x0 DUP7 ADD MSTORE PUSH2 0x6E7 DUP3 DUP3 PUSH2 0x5E6 JUMP JUMPDEST SWAP2 POP POP PUSH1 0x20 DUP4 ADD MLOAD PUSH2 0x6FC PUSH1 0x20 DUP7 ADD DUP3 PUSH2 0x61F JUMP JUMPDEST POP PUSH1 0x40 DUP4 ADD MLOAD PUSH2 0x70F PUSH1 0x40 DUP7 ADD DUP3 PUSH2 0x673 JUMP JUMPDEST POP DUP1 SWAP2 POP POP SWAP3 SWAP2 POP POP JUMP JUMPDEST PUSH1 0x0 PUSH1 0x20 DUP3 ADD SWAP1 POP DUP2 DUP2 SUB PUSH1 0x0 DUP4 ADD MSTORE PUSH2 0x734 DUP2 DUP5 PUSH2 0x6CA JUMP JUMPDEST SWAP1 POP SWAP3 SWAP2 POP POP JUMP JUMPDEST PUSH1 0x0 DUP1 PUSH1 0x40 DUP4 DUP6 SUB SLT ISZERO PUSH2 0x753 JUMPI PUSH2 0x752 PUSH2 0x3E7 JUMP JUMPDEST JUMPDEST PUSH1 0x0 PUSH2 0x761 DUP6 DUP3 DUP7 ADD PUSH2 0x53D JUMP JUMPDEST SWAP3 POP POP PUSH1 0x20 PUSH2 0x772 DUP6 DUP3 DUP7 ADD PUSH2 0x53D JUMP JUMPDEST SWAP2 POP POP SWAP3 POP SWAP3 SWAP1 POP JUMP JUMPDEST PUSH32 0x4E487B7100000000000000000000000000000000000000000000000000000000 PUSH1 0x0 MSTORE PUSH1 0x22 PUSH1 0x4 MSTORE PUSH1 0x24 PUSH1 0x0 REVERT JUMPDEST PUSH1 0x0 PUSH1 0x2 DUP3 DIV SWAP1 POP PUSH1 0x1 DUP3 AND DUP1 PUSH2 0x7C3 JUMPI PUSH1 0x7F DUP3 AND SWAP2 POP JUMPDEST PUSH1 0x20 DUP3 LT DUP2 SUB PUSH2 0x7D6 JUMPI PUSH2 0x7D5 PUSH2 0x77C JUMP JUMPDEST JUMPDEST POP SWAP2 SWAP1 POP JUMP JUMPDEST PUSH1 0x0 DUP2 SWAP1 POP DUP2 PUSH1 0x0 MSTORE PUSH1 0x20 PUSH1 0x0 KECCAK256 SWAP1 POP SWAP2 SWAP1 POP JUMP JUMPDEST PUSH1 0x0 PUSH1 0x20 PUSH1 0x1F DUP4 ADD DIV SWAP1 POP SWAP2 SWAP1 POP JUMP JUMPDEST PUSH1 0x0 DUP3 DUP3 SHL SWAP1 POP SWAP3 SWAP2 POP POP JUMP JUMPDEST PUSH1 0x0 PUSH1 0x8 DUP4 MUL PUSH2 0x83E PUSH32 0xFFFFFFFFFFFFFFFFFFFFFFFFFFFFFFFFFFFFFFFFFFFFFFFFFFFFFFFFFFFFFFFF DUP3 PUSH2 0x801 JUMP JUMPDEST PUSH2 0x848 DUP7 DUP4 PUSH2 0x801 JUMP JUMPDEST SWAP6 POP DUP1 NOT DUP5 AND SWAP4 POP DUP1 DUP7 AND DUP5 OR SWAP3 POP POP POP SWAP4 SWAP3 POP POP POP JUMP JUMPDEST PUSH1 0x0 DUP2 SWAP1 POP SWAP2 SWAP1 POP JUMP JUMPDEST PUSH1 0x0 PUSH2 0x885 PUSH2 0x880 PUSH2 0x87B DUP5 PUSH2 0x394 JUMP JUMPDEST PUSH2 0x860 JUMP JUMPDEST PUSH2 0x394 JUMP JUMPDEST SWAP1 POP SWAP2 SWAP1 POP JUMP JUMPDEST PUSH1 0x0 DUP2 SWAP1 POP SWAP2 SWAP1 POP JUMP JUMPDEST PUSH2 0x89F DUP4 PUSH2 0x86A JUMP JUMPDEST PUSH2 0x8B3 PUSH2 0x8AB DUP3 PUSH2 0x88C JUMP JUMPDEST DUP5 DUP5 SLOAD PUSH2 0x80E JUMP JUMPDEST DUP3 SSTORE POP POP POP POP JUMP JUMPDEST PUSH1 0x0 SWAP1 JUMP JUMPDEST PUSH2 0x8C8 PUSH2 0x8BB JUMP JUMPDEST PUSH2 0x8D3 DUP2 DUP5 DUP5 PUSH2 0x896 JUMP JUMPDEST POP POP POP JUMP JUMPDEST JUMPDEST DUP2 DUP2 LT ISZERO PUSH2 0x8F7 JUMPI PUSH2 0x8EC PUSH1 0x0 DUP3 PUSH2 0x8C0 JUMP JUMPDEST PUSH1 0x1 DUP2 ADD SWAP1 POP PUSH2 0x8D9 JUMP JUMPDEST POP POP JUMP JUMPDEST PUSH1 0x1F DUP3 GT ISZERO PUSH2 0x93C JUMPI PUSH2 0x90D DUP2 PUSH2 0x7DC JUMP JUMPDEST PUSH2 0x916 DUP5 PUSH2 0x7F1 JUMP JUMPDEST DUP2 ADD PUSH1 0x20 DUP6 LT ISZERO PUSH2 0x925 JUMPI DUP2 SWAP1 POP JUMPDEST PUSH2 0x939 PUSH2 0x931 DUP6 PUSH2 0x7F1 JUMP JUMPDEST DUP4 ADD DUP3 PUSH2 0x8D8 JUMP JUMPDEST POP POP JUMPDEST POP POP POP JUMP JUMPDEST PUSH1 0x0 DUP3 DUP3 SHR SWAP1 POP SWAP3 SWAP2 POP POP JUMP JUMPDEST PUSH1 0x0 PUSH2 0x95F PUSH1 0x0 NOT DUP5 PUSH1 0x8 MUL PUSH2 0x941 JUMP JUMPDEST NOT DUP1 DUP4 AND SWAP2 POP POP SWAP3 SWAP2 POP POP JUMP JUMPDEST PUSH1 0x0 PUSH2 0x978 DUP4 DUP4 PUSH2 0x94E JUMP JUMPDEST SWAP2 POP DUP3 PUSH1 0x2 MUL DUP3 OR SWAP1 POP SWAP3 SWAP2 POP POP JUMP JUMPDEST PUSH2 0x991 DUP3 PUSH2 0x304 JUMP JUMPDEST PUSH8 0xFFFFFFFFFFFFFFFF DUP2 GT ISZERO PUSH2 0x9AA JUMPI PUSH2 0x9A9 PUSH2 0x3FB JUMP JUMPDEST JUMPDEST PUSH2 0x9B4 DUP3 SLOAD PUSH2 0x7AB JUMP JUMPDEST PUSH2 0x9BF DUP3 DUP3 DUP6 PUSH2 0x8FB JUMP JUMPDEST PUSH1 0x0 PUSH1 0x20 SWAP1 POP PUSH1 0x1F DUP4 GT PUSH1 0x1 DUP2 EQ PUSH2 0x9F2 JUMPI PUSH1 0x0 DUP5 ISZERO PUSH2 0x9E0 JUMPI DUP3 DUP8 ADD MLOAD SWAP1 POP JUMPDEST PUSH2 0x9EA DUP6 DUP3 PUSH2 0x96C JUMP JUMPDEST DUP7 SSTORE POP PUSH2 0xA52 JUMP JUMPDEST PUSH1 0x1F NOT DUP5 AND PUSH2 0xA00 DUP7 PUSH2 0x7DC JUMP JUMPDEST PUSH1 0x0 JUMPDEST DUP3 DUP2 LT ISZERO PUSH2 0xA28 JUMPI DUP5 DUP10 ADD MLOAD DUP3 SSTORE PUSH1 0x1 DUP3 ADD SWAP2 POP PUSH1 0x20 DUP6 ADD SWAP5 POP PUSH1 0x20 DUP2 ADD SWAP1 POP PUSH2 0xA03 JUMP JUMPDEST DUP7 DUP4 LT ISZERO PUSH2 0xA45 JUMPI DUP5 DUP10 ADD MLOAD PUSH2 0xA41 PUSH1 0x1F DUP10 AND DUP3 PUSH2 0x94E JUMP JUMPDEST DUP4 SSTORE POP JUMPDEST PUSH1 0x1 PUSH1 0x2 DUP9 MUL ADD DUP9 SSTORE POP POP POP JUMPDEST POP POP POP POP POP POP JUMP JUMPDEST PUSH32 0x4E487B7100000000000000000000000000000000000000000000000000000000 PUSH1 0x0 MSTORE PUSH1 0x32 PUSH1 0x4 MSTORE PUSH1 0x24 PUSH1 0x0 REVERT INVALID LOG2 PUSH5 0x6970667358 0x22 SLT KECCAK256 0xE8 0xB5 0x27 0x5D GASLIMIT 0xD6 STATICCALL SAR 0x4D CODESIZE LOG0 DUP3 LT ORIGIN PUSH3 0x5D51F2 0xDD DUP16 CODESIZE 0xCD PUSH26 0xF377963FBB9804346A64736F6C63430008120033000000000000 "
				},
				"gasEstimates": {
					"creation": {
						"codeDepositCost": "550200",
						"executionCost": "581",
						"totalCost": "550781"
					},
					"external": {
						"a1()": "infinite",
						"enterData(string,uint256,uint256,uint256)": "infinite",
						"enterMarksInArray(uint256,uint256)": "infinite",
						"returnAll()": "infinite"
					}
				},
				"methodIdentifiers": {
					"a1()": "119552a1",
					"enterData(string,uint256,uint256,uint256)": "582ae2ba",
					"enterMarksInArray(uint256,uint256)": "8a66c29a",
					"returnAll()": "85b1423e"
				}
			},
			"storageLayout": {
				"storage": [
					{
						"astId": 13,
						"contract": "contracts/Solidity Advance part=2/2.ArrayWithinStruct.sol:ArrayWithinStructDemo",
						"label": "a1",
						"offset": 0,
						"slot": "0",
						"type": "t_struct(ArrayWithinStruct)10_storage"
					}
				],
				"types": {
					"t_array(t_uint256)5_storage": {
						"base": "t_uint256",
						"encoding": "inplace",
						"label": "uint256[5]",
						"numberOfBytes": "160"
					},
					"t_string_storage": {
						"encoding": "bytes",
						"label": "string",
						"numberOfBytes": "32"
					},
					"t_struct(ArrayWithinStruct)10_storage": {
						"encoding": "inplace",
						"label": "struct ArrayWithinStructDemo.ArrayWithinStruct",
						"members": [
							{
								"astId": 3,
								"contract": "contracts/Solidity Advance part=2/2.ArrayWithinStruct.sol:ArrayWithinStructDemo",
								"label": "name",
								"offset": 0,
								"slot": "0",
								"type": "t_string_storage"
							},
							{
								"astId": 5,
								"contract": "contracts/Solidity Advance part=2/2.ArrayWithinStruct.sol:ArrayWithinStructDemo",
								"label": "rollno",
								"offset": 0,
								"slot": "1",
								"type": "t_uint256"
							},
							{
								"astId": 9,
								"contract": "contracts/Solidity Advance part=2/2.ArrayWithinStruct.sol:ArrayWithinStructDemo",
								"label": "marks",
								"offset": 0,
								"slot": "2",
								"type": "t_array(t_uint256)5_storage"
							}
						],
						"numberOfBytes": "224"
					},
					"t_uint256": {
						"encoding": "inplace",
						"label": "uint256",
						"numberOfBytes": "32"
					}
				}
			},
			"userdoc": {
				"kind": "user",
				"methods": {},
				"version": 1
			}
		}
	}
}